{
	"basic/ToRomaNum.sol": {
		"RomaNum": {
			"abi": [
				{
					"inputs": [
						{
							"internalType": "int256",
							"name": "num",
							"type": "int256"
						}
					],
					"name": "intToRoman",
					"outputs": [
						{
							"internalType": "string",
							"name": "",
							"type": "string"
						}
					],
					"stateMutability": "pure",
					"type": "function"
				},
				{
					"inputs": [],
					"name": "test",
					"outputs": [
						{
							"internalType": "string",
							"name": "",
							"type": "string"
						}
					],
					"stateMutability": "pure",
					"type": "function"
				}
			],
			"devdoc": {
				"kind": "dev",
				"methods": {},
				"version": 1
			},
			"evm": {
				"assembly": "    /* \"basic/ToRomaNum.sol\":191:2092  contract RomaNum {... */\n  mstore(0x40, 0x80)\n  callvalue\n  dup1\n  iszero\n  tag_1\n  jumpi\n  revert(0x00, 0x00)\ntag_1:\n  pop\n  dataSize(sub_0)\n  dup1\n  dataOffset(sub_0)\n  0x00\n  codecopy\n  0x00\n  return\nstop\n\nsub_0: assembly {\n        /* \"basic/ToRomaNum.sol\":191:2092  contract RomaNum {... */\n      mstore(0x40, 0x80)\n      callvalue\n      dup1\n      iszero\n      tag_1\n      jumpi\n      revert(0x00, 0x00)\n    tag_1:\n      pop\n      jumpi(tag_2, lt(calldatasize, 0x04))\n      shr(0xe0, calldataload(0x00))\n      dup1\n      0xf8a8fd6d\n      eq\n      tag_3\n      jumpi\n      dup1\n      0xff749fa3\n      eq\n      tag_4\n      jumpi\n    tag_2:\n      revert(0x00, 0x00)\n        /* \"basic/ToRomaNum.sol\":1975:2089  function test() public pure returns (string memory) {... */\n    tag_3:\n      tag_5\n      tag_6\n      jump\t// in\n    tag_5:\n      mload(0x40)\n      tag_7\n      swap2\n      swap1\n      tag_8\n      jump\t// in\n    tag_7:\n      mload(0x40)\n      dup1\n      swap2\n      sub\n      swap1\n      return\n        /* \"basic/ToRomaNum.sol\":245:1946  function intToRoman(int num) public pure returns (string memory) {... */\n    tag_4:\n      tag_9\n      0x04\n      dup1\n      calldatasize\n      sub\n      dup2\n      add\n      swap1\n      tag_10\n      swap2\n      swap1\n      tag_11\n      jump\t// in\n    tag_10:\n      tag_12\n      jump\t// in\n    tag_9:\n      mload(0x40)\n      tag_13\n      swap2\n      swap1\n      tag_8\n      jump\t// in\n    tag_13:\n      mload(0x40)\n      dup1\n      swap2\n      sub\n      swap1\n      return\n        /* \"basic/ToRomaNum.sol\":1975:2089  function test() public pure returns (string memory) {... */\n    tag_6:\n        /* \"basic/ToRomaNum.sol\":2012:2025  string memory */\n      0x60\n        /* \"basic/ToRomaNum.sol\":2045:2061  intToRoman(1994) */\n      tag_15\n        /* \"basic/ToRomaNum.sol\":2056:2060  1994 */\n      0x07ca\n        /* \"basic/ToRomaNum.sol\":2045:2055  intToRoman */\n      tag_12\n        /* \"basic/ToRomaNum.sol\":2045:2061  intToRoman(1994) */\n      jump\t// in\n    tag_15:\n        /* \"basic/ToRomaNum.sol\":2038:2061  return intToRoman(1994) */\n      swap1\n      pop\n        /* \"basic/ToRomaNum.sol\":1975:2089  function test() public pure returns (string memory) {... */\n      swap1\n      jump\t// out\n        /* \"basic/ToRomaNum.sol\":245:1946  function intToRoman(int num) public pure returns (string memory) {... */\n    tag_12:\n        /* \"basic/ToRomaNum.sol\":295:308  string memory */\n      0x60\n        /* \"basic/ToRomaNum.sol\":397:398  1 */\n      0x01\n        /* \"basic/ToRomaNum.sol\":390:393  num */\n      dup3\n        /* \"basic/ToRomaNum.sol\":390:398  num >= 1 */\n      slt\n      iszero\n        /* \"basic/ToRomaNum.sol\":390:413  num >= 1 && num <= 3999 */\n      dup1\n      iszero\n      tag_17\n      jumpi\n      pop\n        /* \"basic/ToRomaNum.sol\":409:413  3999 */\n      0x0f9f\n        /* \"basic/ToRomaNum.sol\":402:405  num */\n      dup3\n        /* \"basic/ToRomaNum.sol\":402:413  num <= 3999 */\n      sgt\n      iszero\n        /* \"basic/ToRomaNum.sol\":390:413  num >= 1 && num <= 3999 */\n    tag_17:\n        /* \"basic/ToRomaNum.sol\":382:451  require(num >= 1 && num <= 3999, \"Number must be between 1 and 3999\") */\n      tag_18\n      jumpi\n      mload(0x40)\n      0x08c379a000000000000000000000000000000000000000000000000000000000\n      dup2\n      mstore\n      0x04\n      add\n      tag_19\n      swap1\n      tag_20\n      jump\t// in\n    tag_19:\n      mload(0x40)\n      dup1\n      swap2\n      sub\n      swap1\n      revert\n    tag_18:\n        /* \"basic/ToRomaNum.sol\":527:546  int[] memory values */\n      0x00\n        /* \"basic/ToRomaNum.sol\":559:561  13 */\n      0x0d\n        /* \"basic/ToRomaNum.sol\":549:562  new int[](13) */\n      0xffffffffffffffff\n      dup2\n      gt\n      iszero\n      tag_21\n      jumpi\n      tag_22\n      tag_23\n      jump\t// in\n    tag_22:\n    tag_21:\n      mload(0x40)\n      swap1\n      dup1\n      dup3\n      mstore\n      dup1\n      0x20\n      mul\n      0x20\n      add\n      dup3\n      add\n      0x40\n      mstore\n      dup1\n      iszero\n      tag_24\n      jumpi\n      dup2\n      0x20\n      add\n      0x20\n      dup3\n      mul\n      dup1\n      calldatasize\n      dup4\n      calldatacopy\n      dup1\n      dup3\n      add\n      swap2\n      pop\n      pop\n      swap1\n      pop\n    tag_24:\n      pop\n        /* \"basic/ToRomaNum.sol\":527:562  int[] memory values = new int[](13) */\n      swap1\n      pop\n        /* \"basic/ToRomaNum.sol\":585:589  1000 */\n      0x03e8\n        /* \"basic/ToRomaNum.sol\":573:579  values */\n      dup2\n        /* \"basic/ToRomaNum.sol\":580:581  0 */\n      0x00\n        /* \"basic/ToRomaNum.sol\":573:582  values[0] */\n      dup2\n      mload\n      dup2\n      lt\n      tag_25\n      jumpi\n      tag_26\n      tag_27\n      jump\t// in\n    tag_26:\n    tag_25:\n      0x20\n      mul\n      0x20\n      add\n      add\n        /* \"basic/ToRomaNum.sol\":573:589  values[0] = 1000 */\n      dup2\n      dup2\n      mstore\n      pop\n      pop\n        /* \"basic/ToRomaNum.sol\":612:615  900 */\n      0x0384\n        /* \"basic/ToRomaNum.sol\":600:606  values */\n      dup2\n        /* \"basic/ToRomaNum.sol\":607:608  1 */\n      0x01\n        /* \"basic/ToRomaNum.sol\":600:609  values[1] */\n      dup2\n      mload\n      dup2\n      lt\n      tag_28\n      jumpi\n      tag_29\n      tag_27\n      jump\t// in\n    tag_29:\n    tag_28:\n      0x20\n      mul\n      0x20\n      add\n      add\n        /* \"basic/ToRomaNum.sol\":600:615  values[1] = 900 */\n      dup2\n      dup2\n      mstore\n      pop\n      pop\n        /* \"basic/ToRomaNum.sol\":638:641  500 */\n      0x01f4\n        /* \"basic/ToRomaNum.sol\":626:632  values */\n      dup2\n        /* \"basic/ToRomaNum.sol\":633:634  2 */\n      0x02\n        /* \"basic/ToRomaNum.sol\":626:635  values[2] */\n      dup2\n      mload\n      dup2\n      lt\n      tag_30\n      jumpi\n      tag_31\n      tag_27\n      jump\t// in\n    tag_31:\n    tag_30:\n      0x20\n      mul\n      0x20\n      add\n      add\n        /* \"basic/ToRomaNum.sol\":626:641  values[2] = 500 */\n      dup2\n      dup2\n      mstore\n      pop\n      pop\n        /* \"basic/ToRomaNum.sol\":664:667  400 */\n      0x0190\n        /* \"basic/ToRomaNum.sol\":652:658  values */\n      dup2\n        /* \"basic/ToRomaNum.sol\":659:660  3 */\n      0x03\n        /* \"basic/ToRomaNum.sol\":652:661  values[3] */\n      dup2\n      mload\n      dup2\n      lt\n      tag_32\n      jumpi\n      tag_33\n      tag_27\n      jump\t// in\n    tag_33:\n    tag_32:\n      0x20\n      mul\n      0x20\n      add\n      add\n        /* \"basic/ToRomaNum.sol\":652:667  values[3] = 400 */\n      dup2\n      dup2\n      mstore\n      pop\n      pop\n        /* \"basic/ToRomaNum.sol\":690:693  100 */\n      0x64\n        /* \"basic/ToRomaNum.sol\":678:684  values */\n      dup2\n        /* \"basic/ToRomaNum.sol\":685:686  4 */\n      0x04\n        /* \"basic/ToRomaNum.sol\":678:687  values[4] */\n      dup2\n      mload\n      dup2\n      lt\n      tag_34\n      jumpi\n      tag_35\n      tag_27\n      jump\t// in\n    tag_35:\n    tag_34:\n      0x20\n      mul\n      0x20\n      add\n      add\n        /* \"basic/ToRomaNum.sol\":678:693  values[4] = 100 */\n      dup2\n      dup2\n      mstore\n      pop\n      pop\n        /* \"basic/ToRomaNum.sol\":716:718  90 */\n      0x5a\n        /* \"basic/ToRomaNum.sol\":704:710  values */\n      dup2\n        /* \"basic/ToRomaNum.sol\":711:712  5 */\n      0x05\n        /* \"basic/ToRomaNum.sol\":704:713  values[5] */\n      dup2\n      mload\n      dup2\n      lt\n      tag_36\n      jumpi\n      tag_37\n      tag_27\n      jump\t// in\n    tag_37:\n    tag_36:\n      0x20\n      mul\n      0x20\n      add\n      add\n        /* \"basic/ToRomaNum.sol\":704:718  values[5] = 90 */\n      dup2\n      dup2\n      mstore\n      pop\n      pop\n        /* \"basic/ToRomaNum.sol\":741:743  50 */\n      0x32\n        /* \"basic/ToRomaNum.sol\":729:735  values */\n      dup2\n        /* \"basic/ToRomaNum.sol\":736:737  6 */\n      0x06\n        /* \"basic/ToRomaNum.sol\":729:738  values[6] */\n      dup2\n      mload\n      dup2\n      lt\n      tag_38\n      jumpi\n      tag_39\n      tag_27\n      jump\t// in\n    tag_39:\n    tag_38:\n      0x20\n      mul\n      0x20\n      add\n      add\n        /* \"basic/ToRomaNum.sol\":729:743  values[6] = 50 */\n      dup2\n      dup2\n      mstore\n      pop\n      pop\n        /* \"basic/ToRomaNum.sol\":766:768  40 */\n      0x28\n        /* \"basic/ToRomaNum.sol\":754:760  values */\n      dup2\n        /* \"basic/ToRomaNum.sol\":761:762  7 */\n      0x07\n        /* \"basic/ToRomaNum.sol\":754:763  values[7] */\n      dup2\n      mload\n      dup2\n      lt\n      tag_40\n      jumpi\n      tag_41\n      tag_27\n      jump\t// in\n    tag_41:\n    tag_40:\n      0x20\n      mul\n      0x20\n      add\n      add\n        /* \"basic/ToRomaNum.sol\":754:768  values[7] = 40 */\n      dup2\n      dup2\n      mstore\n      pop\n      pop\n        /* \"basic/ToRomaNum.sol\":791:793  10 */\n      0x0a\n        /* \"basic/ToRomaNum.sol\":779:785  values */\n      dup2\n        /* \"basic/ToRomaNum.sol\":786:787  8 */\n      0x08\n        /* \"basic/ToRomaNum.sol\":779:788  values[8] */\n      dup2\n      mload\n      dup2\n      lt\n      tag_42\n      jumpi\n      tag_43\n      tag_27\n      jump\t// in\n    tag_43:\n    tag_42:\n      0x20\n      mul\n      0x20\n      add\n      add\n        /* \"basic/ToRomaNum.sol\":779:793  values[8] = 10 */\n      dup2\n      dup2\n      mstore\n      pop\n      pop\n        /* \"basic/ToRomaNum.sol\":816:817  9 */\n      0x09\n        /* \"basic/ToRomaNum.sol\":804:810  values */\n      dup2\n        /* \"basic/ToRomaNum.sol\":811:812  9 */\n      0x09\n        /* \"basic/ToRomaNum.sol\":804:813  values[9] */\n      dup2\n      mload\n      dup2\n      lt\n      tag_44\n      jumpi\n      tag_45\n      tag_27\n      jump\t// in\n    tag_45:\n    tag_44:\n      0x20\n      mul\n      0x20\n      add\n      add\n        /* \"basic/ToRomaNum.sol\":804:817  values[9] = 9 */\n      dup2\n      dup2\n      mstore\n      pop\n      pop\n        /* \"basic/ToRomaNum.sol\":841:842  5 */\n      0x05\n        /* \"basic/ToRomaNum.sol\":828:834  values */\n      dup2\n        /* \"basic/ToRomaNum.sol\":835:837  10 */\n      0x0a\n        /* \"basic/ToRomaNum.sol\":828:838  values[10] */\n      dup2\n      mload\n      dup2\n      lt\n      tag_46\n      jumpi\n      tag_47\n      tag_27\n      jump\t// in\n    tag_47:\n    tag_46:\n      0x20\n      mul\n      0x20\n      add\n      add\n        /* \"basic/ToRomaNum.sol\":828:842  values[10] = 5 */\n      dup2\n      dup2\n      mstore\n      pop\n      pop\n        /* \"basic/ToRomaNum.sol\":866:867  4 */\n      0x04\n        /* \"basic/ToRomaNum.sol\":853:859  values */\n      dup2\n        /* \"basic/ToRomaNum.sol\":860:862  11 */\n      0x0b\n        /* \"basic/ToRomaNum.sol\":853:863  values[11] */\n      dup2\n      mload\n      dup2\n      lt\n      tag_48\n      jumpi\n      tag_49\n      tag_27\n      jump\t// in\n    tag_49:\n    tag_48:\n      0x20\n      mul\n      0x20\n      add\n      add\n        /* \"basic/ToRomaNum.sol\":853:867  values[11] = 4 */\n      dup2\n      dup2\n      mstore\n      pop\n      pop\n        /* \"basic/ToRomaNum.sol\":891:892  1 */\n      0x01\n        /* \"basic/ToRomaNum.sol\":878:884  values */\n      dup2\n        /* \"basic/ToRomaNum.sol\":885:887  12 */\n      0x0c\n        /* \"basic/ToRomaNum.sol\":878:888  values[12] */\n      dup2\n      mload\n      dup2\n      lt\n      tag_50\n      jumpi\n      tag_51\n      tag_27\n      jump\t// in\n    tag_51:\n    tag_50:\n      0x20\n      mul\n      0x20\n      add\n      add\n        /* \"basic/ToRomaNum.sol\":878:892  values[12] = 1 */\n      dup2\n      dup2\n      mstore\n      pop\n      pop\n        /* \"basic/ToRomaNum.sol\":913:936  string[] memory symbols */\n      0x00\n        /* \"basic/ToRomaNum.sol\":952:954  13 */\n      0x0d\n        /* \"basic/ToRomaNum.sol\":939:955  new string[](13) */\n      0xffffffffffffffff\n      dup2\n      gt\n      iszero\n      tag_52\n      jumpi\n      tag_53\n      tag_23\n      jump\t// in\n    tag_53:\n    tag_52:\n      mload(0x40)\n      swap1\n      dup1\n      dup3\n      mstore\n      dup1\n      0x20\n      mul\n      0x20\n      add\n      dup3\n      add\n      0x40\n      mstore\n      dup1\n      iszero\n      tag_54\n      jumpi\n      dup2\n      0x20\n      add\n    tag_55:\n      0x60\n      dup2\n      mstore\n      0x20\n      add\n      swap1\n      0x01\n      swap1\n      sub\n      swap1\n      dup2\n      tag_55\n      jumpi\n      swap1\n      pop\n    tag_54:\n      pop\n        /* \"basic/ToRomaNum.sol\":913:955  string[] memory symbols = new string[](13) */\n      swap1\n      pop\n        /* \"basic/ToRomaNum.sol\":966:982  symbols[0] = \"M\" */\n      mload(0x40)\n      dup1\n      0x40\n      add\n      0x40\n      mstore\n      dup1\n      0x01\n      dup2\n      mstore\n      0x20\n      add\n      0x4d00000000000000000000000000000000000000000000000000000000000000\n      dup2\n      mstore\n      pop\n        /* \"basic/ToRomaNum.sol\":966:973  symbols */\n      dup2\n        /* \"basic/ToRomaNum.sol\":974:975  0 */\n      0x00\n        /* \"basic/ToRomaNum.sol\":966:976  symbols[0] */\n      dup2\n      mload\n      dup2\n      lt\n      tag_56\n      jumpi\n      tag_57\n      tag_27\n      jump\t// in\n    tag_57:\n    tag_56:\n      0x20\n      mul\n      0x20\n      add\n      add\n        /* \"basic/ToRomaNum.sol\":966:982  symbols[0] = \"M\" */\n      dup2\n      swap1\n      mstore\n      pop\n        /* \"basic/ToRomaNum.sol\":993:1010  symbols[1] = \"CM\" */\n      mload(0x40)\n      dup1\n      0x40\n      add\n      0x40\n      mstore\n      dup1\n      0x02\n      dup2\n      mstore\n      0x20\n      add\n      0x434d000000000000000000000000000000000000000000000000000000000000\n      dup2\n      mstore\n      pop\n        /* \"basic/ToRomaNum.sol\":993:1000  symbols */\n      dup2\n        /* \"basic/ToRomaNum.sol\":1001:1002  1 */\n      0x01\n        /* \"basic/ToRomaNum.sol\":993:1003  symbols[1] */\n      dup2\n      mload\n      dup2\n      lt\n      tag_58\n      jumpi\n      tag_59\n      tag_27\n      jump\t// in\n    tag_59:\n    tag_58:\n      0x20\n      mul\n      0x20\n      add\n      add\n        /* \"basic/ToRomaNum.sol\":993:1010  symbols[1] = \"CM\" */\n      dup2\n      swap1\n      mstore\n      pop\n        /* \"basic/ToRomaNum.sol\":1021:1037  symbols[2] = \"D\" */\n      mload(0x40)\n      dup1\n      0x40\n      add\n      0x40\n      mstore\n      dup1\n      0x01\n      dup2\n      mstore\n      0x20\n      add\n      0x4400000000000000000000000000000000000000000000000000000000000000\n      dup2\n      mstore\n      pop\n        /* \"basic/ToRomaNum.sol\":1021:1028  symbols */\n      dup2\n        /* \"basic/ToRomaNum.sol\":1029:1030  2 */\n      0x02\n        /* \"basic/ToRomaNum.sol\":1021:1031  symbols[2] */\n      dup2\n      mload\n      dup2\n      lt\n      tag_60\n      jumpi\n      tag_61\n      tag_27\n      jump\t// in\n    tag_61:\n    tag_60:\n      0x20\n      mul\n      0x20\n      add\n      add\n        /* \"basic/ToRomaNum.sol\":1021:1037  symbols[2] = \"D\" */\n      dup2\n      swap1\n      mstore\n      pop\n        /* \"basic/ToRomaNum.sol\":1048:1065  symbols[3] = \"CD\" */\n      mload(0x40)\n      dup1\n      0x40\n      add\n      0x40\n      mstore\n      dup1\n      0x02\n      dup2\n      mstore\n      0x20\n      add\n      0x4344000000000000000000000000000000000000000000000000000000000000\n      dup2\n      mstore\n      pop\n        /* \"basic/ToRomaNum.sol\":1048:1055  symbols */\n      dup2\n        /* \"basic/ToRomaNum.sol\":1056:1057  3 */\n      0x03\n        /* \"basic/ToRomaNum.sol\":1048:1058  symbols[3] */\n      dup2\n      mload\n      dup2\n      lt\n      tag_62\n      jumpi\n      tag_63\n      tag_27\n      jump\t// in\n    tag_63:\n    tag_62:\n      0x20\n      mul\n      0x20\n      add\n      add\n        /* \"basic/ToRomaNum.sol\":1048:1065  symbols[3] = \"CD\" */\n      dup2\n      swap1\n      mstore\n      pop\n        /* \"basic/ToRomaNum.sol\":1076:1092  symbols[4] = \"C\" */\n      mload(0x40)\n      dup1\n      0x40\n      add\n      0x40\n      mstore\n      dup1\n      0x01\n      dup2\n      mstore\n      0x20\n      add\n      0x4300000000000000000000000000000000000000000000000000000000000000\n      dup2\n      mstore\n      pop\n        /* \"basic/ToRomaNum.sol\":1076:1083  symbols */\n      dup2\n        /* \"basic/ToRomaNum.sol\":1084:1085  4 */\n      0x04\n        /* \"basic/ToRomaNum.sol\":1076:1086  symbols[4] */\n      dup2\n      mload\n      dup2\n      lt\n      tag_64\n      jumpi\n      tag_65\n      tag_27\n      jump\t// in\n    tag_65:\n    tag_64:\n      0x20\n      mul\n      0x20\n      add\n      add\n        /* \"basic/ToRomaNum.sol\":1076:1092  symbols[4] = \"C\" */\n      dup2\n      swap1\n      mstore\n      pop\n        /* \"basic/ToRomaNum.sol\":1103:1120  symbols[5] = \"XC\" */\n      mload(0x40)\n      dup1\n      0x40\n      add\n      0x40\n      mstore\n      dup1\n      0x02\n      dup2\n      mstore\n      0x20\n      add\n      0x5843000000000000000000000000000000000000000000000000000000000000\n      dup2\n      mstore\n      pop\n        /* \"basic/ToRomaNum.sol\":1103:1110  symbols */\n      dup2\n        /* \"basic/ToRomaNum.sol\":1111:1112  5 */\n      0x05\n        /* \"basic/ToRomaNum.sol\":1103:1113  symbols[5] */\n      dup2\n      mload\n      dup2\n      lt\n      tag_66\n      jumpi\n      tag_67\n      tag_27\n      jump\t// in\n    tag_67:\n    tag_66:\n      0x20\n      mul\n      0x20\n      add\n      add\n        /* \"basic/ToRomaNum.sol\":1103:1120  symbols[5] = \"XC\" */\n      dup2\n      swap1\n      mstore\n      pop\n        /* \"basic/ToRomaNum.sol\":1131:1147  symbols[6] = \"L\" */\n      mload(0x40)\n      dup1\n      0x40\n      add\n      0x40\n      mstore\n      dup1\n      0x01\n      dup2\n      mstore\n      0x20\n      add\n      0x4c00000000000000000000000000000000000000000000000000000000000000\n      dup2\n      mstore\n      pop\n        /* \"basic/ToRomaNum.sol\":1131:1138  symbols */\n      dup2\n        /* \"basic/ToRomaNum.sol\":1139:1140  6 */\n      0x06\n        /* \"basic/ToRomaNum.sol\":1131:1141  symbols[6] */\n      dup2\n      mload\n      dup2\n      lt\n      tag_68\n      jumpi\n      tag_69\n      tag_27\n      jump\t// in\n    tag_69:\n    tag_68:\n      0x20\n      mul\n      0x20\n      add\n      add\n        /* \"basic/ToRomaNum.sol\":1131:1147  symbols[6] = \"L\" */\n      dup2\n      swap1\n      mstore\n      pop\n        /* \"basic/ToRomaNum.sol\":1158:1175  symbols[7] = \"XL\" */\n      mload(0x40)\n      dup1\n      0x40\n      add\n      0x40\n      mstore\n      dup1\n      0x02\n      dup2\n      mstore\n      0x20\n      add\n      0x584c000000000000000000000000000000000000000000000000000000000000\n      dup2\n      mstore\n      pop\n        /* \"basic/ToRomaNum.sol\":1158:1165  symbols */\n      dup2\n        /* \"basic/ToRomaNum.sol\":1166:1167  7 */\n      0x07\n        /* \"basic/ToRomaNum.sol\":1158:1168  symbols[7] */\n      dup2\n      mload\n      dup2\n      lt\n      tag_70\n      jumpi\n      tag_71\n      tag_27\n      jump\t// in\n    tag_71:\n    tag_70:\n      0x20\n      mul\n      0x20\n      add\n      add\n        /* \"basic/ToRomaNum.sol\":1158:1175  symbols[7] = \"XL\" */\n      dup2\n      swap1\n      mstore\n      pop\n        /* \"basic/ToRomaNum.sol\":1186:1202  symbols[8] = \"X\" */\n      mload(0x40)\n      dup1\n      0x40\n      add\n      0x40\n      mstore\n      dup1\n      0x01\n      dup2\n      mstore\n      0x20\n      add\n      0x5800000000000000000000000000000000000000000000000000000000000000\n      dup2\n      mstore\n      pop\n        /* \"basic/ToRomaNum.sol\":1186:1193  symbols */\n      dup2\n        /* \"basic/ToRomaNum.sol\":1194:1195  8 */\n      0x08\n        /* \"basic/ToRomaNum.sol\":1186:1196  symbols[8] */\n      dup2\n      mload\n      dup2\n      lt\n      tag_72\n      jumpi\n      tag_73\n      tag_27\n      jump\t// in\n    tag_73:\n    tag_72:\n      0x20\n      mul\n      0x20\n      add\n      add\n        /* \"basic/ToRomaNum.sol\":1186:1202  symbols[8] = \"X\" */\n      dup2\n      swap1\n      mstore\n      pop\n        /* \"basic/ToRomaNum.sol\":1213:1230  symbols[9] = \"IX\" */\n      mload(0x40)\n      dup1\n      0x40\n      add\n      0x40\n      mstore\n      dup1\n      0x02\n      dup2\n      mstore\n      0x20\n      add\n      0x4958000000000000000000000000000000000000000000000000000000000000\n      dup2\n      mstore\n      pop\n        /* \"basic/ToRomaNum.sol\":1213:1220  symbols */\n      dup2\n        /* \"basic/ToRomaNum.sol\":1221:1222  9 */\n      0x09\n        /* \"basic/ToRomaNum.sol\":1213:1223  symbols[9] */\n      dup2\n      mload\n      dup2\n      lt\n      tag_74\n      jumpi\n      tag_75\n      tag_27\n      jump\t// in\n    tag_75:\n    tag_74:\n      0x20\n      mul\n      0x20\n      add\n      add\n        /* \"basic/ToRomaNum.sol\":1213:1230  symbols[9] = \"IX\" */\n      dup2\n      swap1\n      mstore\n      pop\n        /* \"basic/ToRomaNum.sol\":1241:1258  symbols[10] = \"V\" */\n      mload(0x40)\n      dup1\n      0x40\n      add\n      0x40\n      mstore\n      dup1\n      0x01\n      dup2\n      mstore\n      0x20\n      add\n      0x5600000000000000000000000000000000000000000000000000000000000000\n      dup2\n      mstore\n      pop\n        /* \"basic/ToRomaNum.sol\":1241:1248  symbols */\n      dup2\n        /* \"basic/ToRomaNum.sol\":1249:1251  10 */\n      0x0a\n        /* \"basic/ToRomaNum.sol\":1241:1252  symbols[10] */\n      dup2\n      mload\n      dup2\n      lt\n      tag_76\n      jumpi\n      tag_77\n      tag_27\n      jump\t// in\n    tag_77:\n    tag_76:\n      0x20\n      mul\n      0x20\n      add\n      add\n        /* \"basic/ToRomaNum.sol\":1241:1258  symbols[10] = \"V\" */\n      dup2\n      swap1\n      mstore\n      pop\n        /* \"basic/ToRomaNum.sol\":1269:1287  symbols[11] = \"IV\" */\n      mload(0x40)\n      dup1\n      0x40\n      add\n      0x40\n      mstore\n      dup1\n      0x02\n      dup2\n      mstore\n      0x20\n      add\n      0x4956000000000000000000000000000000000000000000000000000000000000\n      dup2\n      mstore\n      pop\n        /* \"basic/ToRomaNum.sol\":1269:1276  symbols */\n      dup2\n        /* \"basic/ToRomaNum.sol\":1277:1279  11 */\n      0x0b\n        /* \"basic/ToRomaNum.sol\":1269:1280  symbols[11] */\n      dup2\n      mload\n      dup2\n      lt\n      tag_78\n      jumpi\n      tag_79\n      tag_27\n      jump\t// in\n    tag_79:\n    tag_78:\n      0x20\n      mul\n      0x20\n      add\n      add\n        /* \"basic/ToRomaNum.sol\":1269:1287  symbols[11] = \"IV\" */\n      dup2\n      swap1\n      mstore\n      pop\n        /* \"basic/ToRomaNum.sol\":1298:1315  symbols[12] = \"I\" */\n      mload(0x40)\n      dup1\n      0x40\n      add\n      0x40\n      mstore\n      dup1\n      0x01\n      dup2\n      mstore\n      0x20\n      add\n      0x4900000000000000000000000000000000000000000000000000000000000000\n      dup2\n      mstore\n      pop\n        /* \"basic/ToRomaNum.sol\":1298:1305  symbols */\n      dup2\n        /* \"basic/ToRomaNum.sol\":1306:1308  12 */\n      0x0c\n        /* \"basic/ToRomaNum.sol\":1298:1309  symbols[12] */\n      dup2\n      mload\n      dup2\n      lt\n      tag_80\n      jumpi\n      tag_81\n      tag_27\n      jump\t// in\n    tag_81:\n    tag_80:\n      0x20\n      mul\n      0x20\n      add\n      add\n        /* \"basic/ToRomaNum.sol\":1298:1315  symbols[12] = \"I\" */\n      dup2\n      swap1\n      mstore\n      pop\n        /* \"basic/ToRomaNum.sol\":1370:1390  string memory result */\n      0x00\n        /* \"basic/ToRomaNum.sol\":1370:1395  string memory result = \"\" */\n      mload(0x40)\n      dup1\n      0x20\n      add\n      0x40\n      mstore\n      dup1\n      0x00\n      dup2\n      mstore\n      pop\n      swap1\n      pop\n        /* \"basic/ToRomaNum.sol\":1479:1485  uint i */\n      0x00\n        /* \"basic/ToRomaNum.sol\":1488:1489  0 */\n      0x00\n        /* \"basic/ToRomaNum.sol\":1479:1489  uint i = 0 */\n      swap1\n      pop\n        /* \"basic/ToRomaNum.sol\":1474:1905  for (uint i = 0; i < values.length; i++) {... */\n    tag_82:\n        /* \"basic/ToRomaNum.sol\":1495:1501  values */\n      dup4\n        /* \"basic/ToRomaNum.sol\":1495:1508  values.length */\n      mload\n        /* \"basic/ToRomaNum.sol\":1491:1492  i */\n      dup2\n        /* \"basic/ToRomaNum.sol\":1491:1508  i < values.length */\n      lt\n        /* \"basic/ToRomaNum.sol\":1474:1905  for (uint i = 0; i < values.length; i++) {... */\n      iszero\n      tag_83\n      jumpi\n        /* \"basic/ToRomaNum.sol\":1628:1776  while (num >= values[i]) {... */\n    tag_85:\n        /* \"basic/ToRomaNum.sol\":1642:1648  values */\n      dup4\n        /* \"basic/ToRomaNum.sol\":1649:1650  i */\n      dup2\n        /* \"basic/ToRomaNum.sol\":1642:1651  values[i] */\n      dup2\n      mload\n      dup2\n      lt\n      tag_87\n      jumpi\n      tag_88\n      tag_27\n      jump\t// in\n    tag_88:\n    tag_87:\n      0x20\n      mul\n      0x20\n      add\n      add\n      mload\n        /* \"basic/ToRomaNum.sol\":1635:1638  num */\n      dup7\n        /* \"basic/ToRomaNum.sol\":1635:1651  num >= values[i] */\n      slt\n        /* \"basic/ToRomaNum.sol\":1628:1776  while (num >= values[i]) {... */\n      tag_86\n      jumpi\n        /* \"basic/ToRomaNum.sol\":1705:1711  result */\n      dup2\n        /* \"basic/ToRomaNum.sol\":1713:1720  symbols */\n      dup4\n        /* \"basic/ToRomaNum.sol\":1721:1722  i */\n      dup3\n        /* \"basic/ToRomaNum.sol\":1713:1723  symbols[i] */\n      dup2\n      mload\n      dup2\n      lt\n      tag_89\n      jumpi\n      tag_90\n      tag_27\n      jump\t// in\n    tag_90:\n    tag_89:\n      0x20\n      mul\n      0x20\n      add\n      add\n      mload\n        /* \"basic/ToRomaNum.sol\":1688:1724  abi.encodePacked(result, symbols[i]) */\n      add(0x20, mload(0x40))\n      tag_91\n      swap3\n      swap2\n      swap1\n      tag_92\n      jump\t// in\n    tag_91:\n      mload(0x40)\n      0x20\n      dup2\n      dup4\n      sub\n      sub\n      dup2\n      mstore\n      swap1\n      0x40\n      mstore\n        /* \"basic/ToRomaNum.sol\":1672:1725  result = string(abi.encodePacked(result, symbols[i])) */\n      swap2\n      pop\n        /* \"basic/ToRomaNum.sol\":1751:1757  values */\n      dup4\n        /* \"basic/ToRomaNum.sol\":1758:1759  i */\n      dup2\n        /* \"basic/ToRomaNum.sol\":1751:1760  values[i] */\n      dup2\n      mload\n      dup2\n      lt\n      tag_93\n      jumpi\n      tag_94\n      tag_27\n      jump\t// in\n    tag_94:\n    tag_93:\n      0x20\n      mul\n      0x20\n      add\n      add\n      mload\n        /* \"basic/ToRomaNum.sol\":1744:1760  num -= values[i] */\n      dup7\n      tag_95\n      swap2\n      swap1\n      tag_96\n      jump\t// in\n    tag_95:\n      swap6\n      pop\n        /* \"basic/ToRomaNum.sol\":1628:1776  while (num >= values[i]) {... */\n      jump(tag_85)\n    tag_86:\n        /* \"basic/ToRomaNum.sol\":1851:1852  0 */\n      0x00\n        /* \"basic/ToRomaNum.sol\":1844:1847  num */\n      dup7\n        /* \"basic/ToRomaNum.sol\":1844:1852  num == 0 */\n      sub\n        /* \"basic/ToRomaNum.sol\":1840:1894  if (num == 0) {... */\n      iszero\n        /* \"basic/ToRomaNum.sol\":1873:1878  break */\n      tag_83\n        /* \"basic/ToRomaNum.sol\":1840:1894  if (num == 0) {... */\n      jumpi\n        /* \"basic/ToRomaNum.sol\":1510:1513  i++ */\n      dup1\n      dup1\n      0x01\n      add\n      swap2\n      pop\n      pop\n        /* \"basic/ToRomaNum.sol\":1474:1905  for (uint i = 0; i < values.length; i++) {... */\n      jump(tag_82)\n    tag_83:\n      pop\n        /* \"basic/ToRomaNum.sol\":1932:1938  result */\n      dup1\n        /* \"basic/ToRomaNum.sol\":1925:1938  return result */\n      swap4\n      pop\n      pop\n      pop\n      pop\n        /* \"basic/ToRomaNum.sol\":245:1946  function intToRoman(int num) public pure returns (string memory) {... */\n      swap2\n      swap1\n      pop\n      jump\t// out\n        /* \"#utility.yul\":7:106   */\n    tag_98:\n        /* \"#utility.yul\":59:65   */\n      0x00\n        /* \"#utility.yul\":93:98   */\n      dup2\n        /* \"#utility.yul\":87:99   */\n      mload\n        /* \"#utility.yul\":77:99   */\n      swap1\n      pop\n        /* \"#utility.yul\":7:106   */\n      swap2\n      swap1\n      pop\n      jump\t// out\n        /* \"#utility.yul\":112:281   */\n    tag_99:\n        /* \"#utility.yul\":196:207   */\n      0x00\n        /* \"#utility.yul\":230:236   */\n      dup3\n        /* \"#utility.yul\":225:228   */\n      dup3\n        /* \"#utility.yul\":218:237   */\n      mstore\n        /* \"#utility.yul\":270:274   */\n      0x20\n        /* \"#utility.yul\":265:268   */\n      dup3\n        /* \"#utility.yul\":261:275   */\n      add\n        /* \"#utility.yul\":246:275   */\n      swap1\n      pop\n        /* \"#utility.yul\":112:281   */\n      swap3\n      swap2\n      pop\n      pop\n      jump\t// out\n        /* \"#utility.yul\":287:426   */\n    tag_100:\n        /* \"#utility.yul\":376:382   */\n      dup3\n        /* \"#utility.yul\":371:374   */\n      dup2\n        /* \"#utility.yul\":366:369   */\n      dup4\n        /* \"#utility.yul\":360:383   */\n      mcopy\n        /* \"#utility.yul\":417:418   */\n      0x00\n        /* \"#utility.yul\":408:414   */\n      dup4\n        /* \"#utility.yul\":403:406   */\n      dup4\n        /* \"#utility.yul\":399:415   */\n      add\n        /* \"#utility.yul\":392:419   */\n      mstore\n        /* \"#utility.yul\":287:426   */\n      pop\n      pop\n      pop\n      jump\t// out\n        /* \"#utility.yul\":432:534   */\n    tag_101:\n        /* \"#utility.yul\":473:479   */\n      0x00\n        /* \"#utility.yul\":524:526   */\n      0x1f\n        /* \"#utility.yul\":520:527   */\n      not\n        /* \"#utility.yul\":515:517   */\n      0x1f\n        /* \"#utility.yul\":508:513   */\n      dup4\n        /* \"#utility.yul\":504:518   */\n      add\n        /* \"#utility.yul\":500:528   */\n      and\n        /* \"#utility.yul\":490:528   */\n      swap1\n      pop\n        /* \"#utility.yul\":432:534   */\n      swap2\n      swap1\n      pop\n      jump\t// out\n        /* \"#utility.yul\":540:917   */\n    tag_102:\n        /* \"#utility.yul\":628:631   */\n      0x00\n        /* \"#utility.yul\":656:695   */\n      tag_120\n        /* \"#utility.yul\":689:694   */\n      dup3\n        /* \"#utility.yul\":656:695   */\n      tag_98\n      jump\t// in\n    tag_120:\n        /* \"#utility.yul\":711:782   */\n      tag_121\n        /* \"#utility.yul\":775:781   */\n      dup2\n        /* \"#utility.yul\":770:773   */\n      dup6\n        /* \"#utility.yul\":711:782   */\n      tag_99\n      jump\t// in\n    tag_121:\n        /* \"#utility.yul\":704:782   */\n      swap4\n      pop\n        /* \"#utility.yul\":791:856   */\n      tag_122\n        /* \"#utility.yul\":849:855   */\n      dup2\n        /* \"#utility.yul\":844:847   */\n      dup6\n        /* \"#utility.yul\":837:841   */\n      0x20\n        /* \"#utility.yul\":830:835   */\n      dup7\n        /* \"#utility.yul\":826:842   */\n      add\n        /* \"#utility.yul\":791:856   */\n      tag_100\n      jump\t// in\n    tag_122:\n        /* \"#utility.yul\":881:910   */\n      tag_123\n        /* \"#utility.yul\":903:909   */\n      dup2\n        /* \"#utility.yul\":881:910   */\n      tag_101\n      jump\t// in\n    tag_123:\n        /* \"#utility.yul\":876:879   */\n      dup5\n        /* \"#utility.yul\":872:911   */\n      add\n        /* \"#utility.yul\":865:911   */\n      swap2\n      pop\n        /* \"#utility.yul\":632:917   */\n      pop\n        /* \"#utility.yul\":540:917   */\n      swap3\n      swap2\n      pop\n      pop\n      jump\t// out\n        /* \"#utility.yul\":923:1236   */\n    tag_8:\n        /* \"#utility.yul\":1036:1040   */\n      0x00\n        /* \"#utility.yul\":1074:1076   */\n      0x20\n        /* \"#utility.yul\":1063:1072   */\n      dup3\n        /* \"#utility.yul\":1059:1077   */\n      add\n        /* \"#utility.yul\":1051:1077   */\n      swap1\n      pop\n        /* \"#utility.yul\":1123:1132   */\n      dup2\n        /* \"#utility.yul\":1117:1121   */\n      dup2\n        /* \"#utility.yul\":1113:1133   */\n      sub\n        /* \"#utility.yul\":1109:1110   */\n      0x00\n        /* \"#utility.yul\":1098:1107   */\n      dup4\n        /* \"#utility.yul\":1094:1111   */\n      add\n        /* \"#utility.yul\":1087:1134   */\n      mstore\n        /* \"#utility.yul\":1151:1229   */\n      tag_125\n        /* \"#utility.yul\":1224:1228   */\n      dup2\n        /* \"#utility.yul\":1215:1221   */\n      dup5\n        /* \"#utility.yul\":1151:1229   */\n      tag_102\n      jump\t// in\n    tag_125:\n        /* \"#utility.yul\":1143:1229   */\n      swap1\n      pop\n        /* \"#utility.yul\":923:1236   */\n      swap3\n      swap2\n      pop\n      pop\n      jump\t// out\n        /* \"#utility.yul\":1323:1440   */\n    tag_104:\n        /* \"#utility.yul\":1432:1433   */\n      0x00\n        /* \"#utility.yul\":1429:1430   */\n      0x00\n        /* \"#utility.yul\":1422:1434   */\n      revert\n        /* \"#utility.yul\":1569:1645   */\n    tag_106:\n        /* \"#utility.yul\":1605:1612   */\n      0x00\n        /* \"#utility.yul\":1634:1639   */\n      dup2\n        /* \"#utility.yul\":1623:1639   */\n      swap1\n      pop\n        /* \"#utility.yul\":1569:1645   */\n      swap2\n      swap1\n      pop\n      jump\t// out\n        /* \"#utility.yul\":1651:1771   */\n    tag_107:\n        /* \"#utility.yul\":1723:1746   */\n      tag_131\n        /* \"#utility.yul\":1740:1745   */\n      dup2\n        /* \"#utility.yul\":1723:1746   */\n      tag_106\n      jump\t// in\n    tag_131:\n        /* \"#utility.yul\":1716:1721   */\n      dup2\n        /* \"#utility.yul\":1713:1747   */\n      eq\n        /* \"#utility.yul\":1703:1765   */\n      tag_132\n      jumpi\n        /* \"#utility.yul\":1761:1762   */\n      0x00\n        /* \"#utility.yul\":1758:1759   */\n      0x00\n        /* \"#utility.yul\":1751:1763   */\n      revert\n        /* \"#utility.yul\":1703:1765   */\n    tag_132:\n        /* \"#utility.yul\":1651:1771   */\n      pop\n      jump\t// out\n        /* \"#utility.yul\":1777:1914   */\n    tag_108:\n        /* \"#utility.yul\":1822:1827   */\n      0x00\n        /* \"#utility.yul\":1860:1866   */\n      dup2\n        /* \"#utility.yul\":1847:1867   */\n      calldataload\n        /* \"#utility.yul\":1838:1867   */\n      swap1\n      pop\n        /* \"#utility.yul\":1876:1908   */\n      tag_134\n        /* \"#utility.yul\":1902:1907   */\n      dup2\n        /* \"#utility.yul\":1876:1908   */\n      tag_107\n      jump\t// in\n    tag_134:\n        /* \"#utility.yul\":1777:1914   */\n      swap3\n      swap2\n      pop\n      pop\n      jump\t// out\n        /* \"#utility.yul\":1920:2247   */\n    tag_11:\n        /* \"#utility.yul\":1978:1984   */\n      0x00\n        /* \"#utility.yul\":2027:2029   */\n      0x20\n        /* \"#utility.yul\":2015:2024   */\n      dup3\n        /* \"#utility.yul\":2006:2013   */\n      dup5\n        /* \"#utility.yul\":2002:2025   */\n      sub\n        /* \"#utility.yul\":1998:2030   */\n      slt\n        /* \"#utility.yul\":1995:2114   */\n      iszero\n      tag_136\n      jumpi\n        /* \"#utility.yul\":2033:2112   */\n      tag_137\n      tag_104\n      jump\t// in\n    tag_137:\n        /* \"#utility.yul\":1995:2114   */\n    tag_136:\n        /* \"#utility.yul\":2153:2154   */\n      0x00\n        /* \"#utility.yul\":2178:2230   */\n      tag_138\n        /* \"#utility.yul\":2222:2229   */\n      dup5\n        /* \"#utility.yul\":2213:2219   */\n      dup3\n        /* \"#utility.yul\":2202:2211   */\n      dup6\n        /* \"#utility.yul\":2198:2220   */\n      add\n        /* \"#utility.yul\":2178:2230   */\n      tag_108\n      jump\t// in\n    tag_138:\n        /* \"#utility.yul\":2168:2230   */\n      swap2\n      pop\n        /* \"#utility.yul\":2124:2240   */\n      pop\n        /* \"#utility.yul\":1920:2247   */\n      swap3\n      swap2\n      pop\n      pop\n      jump\t// out\n        /* \"#utility.yul\":2253:2473   */\n    tag_109:\n        /* \"#utility.yul\":2393:2427   */\n      0x4e756d626572206d757374206265206265747765656e203120616e6420333939\n        /* \"#utility.yul\":2389:2390   */\n      0x00\n        /* \"#utility.yul\":2381:2387   */\n      dup3\n        /* \"#utility.yul\":2377:2391   */\n      add\n        /* \"#utility.yul\":2370:2428   */\n      mstore\n        /* \"#utility.yul\":2462:2465   */\n      0x3900000000000000000000000000000000000000000000000000000000000000\n        /* \"#utility.yul\":2457:2459   */\n      0x20\n        /* \"#utility.yul\":2449:2455   */\n      dup3\n        /* \"#utility.yul\":2445:2460   */\n      add\n        /* \"#utility.yul\":2438:2466   */\n      mstore\n        /* \"#utility.yul\":2253:2473   */\n      pop\n      jump\t// out\n        /* \"#utility.yul\":2479:2845   */\n    tag_110:\n        /* \"#utility.yul\":2621:2624   */\n      0x00\n        /* \"#utility.yul\":2642:2709   */\n      tag_141\n        /* \"#utility.yul\":2706:2708   */\n      0x21\n        /* \"#utility.yul\":2701:2704   */\n      dup4\n        /* \"#utility.yul\":2642:2709   */\n      tag_99\n      jump\t// in\n    tag_141:\n        /* \"#utility.yul\":2635:2709   */\n      swap2\n      pop\n        /* \"#utility.yul\":2718:2811   */\n      tag_142\n        /* \"#utility.yul\":2807:2810   */\n      dup3\n        /* \"#utility.yul\":2718:2811   */\n      tag_109\n      jump\t// in\n    tag_142:\n        /* \"#utility.yul\":2836:2838   */\n      0x40\n        /* \"#utility.yul\":2831:2834   */\n      dup3\n        /* \"#utility.yul\":2827:2839   */\n      add\n        /* \"#utility.yul\":2820:2839   */\n      swap1\n      pop\n        /* \"#utility.yul\":2479:2845   */\n      swap2\n      swap1\n      pop\n      jump\t// out\n        /* \"#utility.yul\":2851:3270   */\n    tag_20:\n        /* \"#utility.yul\":3017:3021   */\n      0x00\n        /* \"#utility.yul\":3055:3057   */\n      0x20\n        /* \"#utility.yul\":3044:3053   */\n      dup3\n        /* \"#utility.yul\":3040:3058   */\n      add\n        /* \"#utility.yul\":3032:3058   */\n      swap1\n      pop\n        /* \"#utility.yul\":3104:3113   */\n      dup2\n        /* \"#utility.yul\":3098:3102   */\n      dup2\n        /* \"#utility.yul\":3094:3114   */\n      sub\n        /* \"#utility.yul\":3090:3091   */\n      0x00\n        /* \"#utility.yul\":3079:3088   */\n      dup4\n        /* \"#utility.yul\":3075:3092   */\n      add\n        /* \"#utility.yul\":3068:3115   */\n      mstore\n        /* \"#utility.yul\":3132:3263   */\n      tag_144\n        /* \"#utility.yul\":3258:3262   */\n      dup2\n        /* \"#utility.yul\":3132:3263   */\n      tag_110\n      jump\t// in\n    tag_144:\n        /* \"#utility.yul\":3124:3263   */\n      swap1\n      pop\n        /* \"#utility.yul\":2851:3270   */\n      swap2\n      swap1\n      pop\n      jump\t// out\n        /* \"#utility.yul\":3276:3456   */\n    tag_23:\n        /* \"#utility.yul\":3324:3401   */\n      0x4e487b7100000000000000000000000000000000000000000000000000000000\n        /* \"#utility.yul\":3321:3322   */\n      0x00\n        /* \"#utility.yul\":3314:3402   */\n      mstore\n        /* \"#utility.yul\":3421:3425   */\n      0x41\n        /* \"#utility.yul\":3418:3419   */\n      0x04\n        /* \"#utility.yul\":3411:3426   */\n      mstore\n        /* \"#utility.yul\":3445:3449   */\n      0x24\n        /* \"#utility.yul\":3442:3443   */\n      0x00\n        /* \"#utility.yul\":3435:3450   */\n      revert\n        /* \"#utility.yul\":3462:3642   */\n    tag_27:\n        /* \"#utility.yul\":3510:3587   */\n      0x4e487b7100000000000000000000000000000000000000000000000000000000\n        /* \"#utility.yul\":3507:3508   */\n      0x00\n        /* \"#utility.yul\":3500:3588   */\n      mstore\n        /* \"#utility.yul\":3607:3611   */\n      0x32\n        /* \"#utility.yul\":3604:3605   */\n      0x04\n        /* \"#utility.yul\":3597:3612   */\n      mstore\n        /* \"#utility.yul\":3631:3635   */\n      0x24\n        /* \"#utility.yul\":3628:3629   */\n      0x00\n        /* \"#utility.yul\":3621:3636   */\n      revert\n        /* \"#utility.yul\":3648:3796   */\n    tag_111:\n        /* \"#utility.yul\":3750:3761   */\n      0x00\n        /* \"#utility.yul\":3787:3790   */\n      dup2\n        /* \"#utility.yul\":3772:3790   */\n      swap1\n      pop\n        /* \"#utility.yul\":3648:3796   */\n      swap3\n      swap2\n      pop\n      pop\n      jump\t// out\n        /* \"#utility.yul\":3802:4192   */\n    tag_112:\n        /* \"#utility.yul\":3908:3911   */\n      0x00\n        /* \"#utility.yul\":3936:3975   */\n      tag_149\n        /* \"#utility.yul\":3969:3974   */\n      dup3\n        /* \"#utility.yul\":3936:3975   */\n      tag_98\n      jump\t// in\n    tag_149:\n        /* \"#utility.yul\":3991:4080   */\n      tag_150\n        /* \"#utility.yul\":4073:4079   */\n      dup2\n        /* \"#utility.yul\":4068:4071   */\n      dup6\n        /* \"#utility.yul\":3991:4080   */\n      tag_111\n      jump\t// in\n    tag_150:\n        /* \"#utility.yul\":3984:4080   */\n      swap4\n      pop\n        /* \"#utility.yul\":4089:4154   */\n      tag_151\n        /* \"#utility.yul\":4147:4153   */\n      dup2\n        /* \"#utility.yul\":4142:4145   */\n      dup6\n        /* \"#utility.yul\":4135:4139   */\n      0x20\n        /* \"#utility.yul\":4128:4133   */\n      dup7\n        /* \"#utility.yul\":4124:4140   */\n      add\n        /* \"#utility.yul\":4089:4154   */\n      tag_100\n      jump\t// in\n    tag_151:\n        /* \"#utility.yul\":4179:4185   */\n      dup1\n        /* \"#utility.yul\":4174:4177   */\n      dup5\n        /* \"#utility.yul\":4170:4186   */\n      add\n        /* \"#utility.yul\":4163:4186   */\n      swap2\n      pop\n        /* \"#utility.yul\":3912:4192   */\n      pop\n        /* \"#utility.yul\":3802:4192   */\n      swap3\n      swap2\n      pop\n      pop\n      jump\t// out\n        /* \"#utility.yul\":4198:4633   */\n    tag_92:\n        /* \"#utility.yul\":4378:4381   */\n      0x00\n        /* \"#utility.yul\":4400:4495   */\n      tag_153\n        /* \"#utility.yul\":4491:4494   */\n      dup3\n        /* \"#utility.yul\":4482:4488   */\n      dup6\n        /* \"#utility.yul\":4400:4495   */\n      tag_112\n      jump\t// in\n    tag_153:\n        /* \"#utility.yul\":4393:4495   */\n      swap2\n      pop\n        /* \"#utility.yul\":4512:4607   */\n      tag_154\n        /* \"#utility.yul\":4603:4606   */\n      dup3\n        /* \"#utility.yul\":4594:4600   */\n      dup5\n        /* \"#utility.yul\":4512:4607   */\n      tag_112\n      jump\t// in\n    tag_154:\n        /* \"#utility.yul\":4505:4607   */\n      swap2\n      pop\n        /* \"#utility.yul\":4624:4627   */\n      dup2\n        /* \"#utility.yul\":4617:4627   */\n      swap1\n      pop\n        /* \"#utility.yul\":4198:4633   */\n      swap4\n      swap3\n      pop\n      pop\n      pop\n      jump\t// out\n        /* \"#utility.yul\":4639:4819   */\n    tag_113:\n        /* \"#utility.yul\":4687:4764   */\n      0x4e487b7100000000000000000000000000000000000000000000000000000000\n        /* \"#utility.yul\":4684:4685   */\n      0x00\n        /* \"#utility.yul\":4677:4765   */\n      mstore\n        /* \"#utility.yul\":4784:4788   */\n      0x11\n        /* \"#utility.yul\":4781:4782   */\n      0x04\n        /* \"#utility.yul\":4774:4789   */\n      mstore\n        /* \"#utility.yul\":4808:4812   */\n      0x24\n        /* \"#utility.yul\":4805:4806   */\n      0x00\n        /* \"#utility.yul\":4798:4813   */\n      revert\n        /* \"#utility.yul\":4825:5197   */\n    tag_96:\n        /* \"#utility.yul\":4864:4868   */\n      0x00\n        /* \"#utility.yul\":4884:4903   */\n      tag_157\n        /* \"#utility.yul\":4901:4902   */\n      dup3\n        /* \"#utility.yul\":4884:4903   */\n      tag_106\n      jump\t// in\n    tag_157:\n        /* \"#utility.yul\":4879:4903   */\n      swap2\n      pop\n        /* \"#utility.yul\":4917:4936   */\n      tag_158\n        /* \"#utility.yul\":4934:4935   */\n      dup4\n        /* \"#utility.yul\":4917:4936   */\n      tag_106\n      jump\t// in\n    tag_158:\n        /* \"#utility.yul\":4912:4936   */\n      swap3\n      pop\n        /* \"#utility.yul\":4960:4961   */\n      dup3\n        /* \"#utility.yul\":4957:4958   */\n      dup3\n        /* \"#utility.yul\":4953:4962   */\n      sub\n        /* \"#utility.yul\":4945:4962   */\n      swap1\n      pop\n        /* \"#utility.yul\":5154:5155   */\n      dup2\n        /* \"#utility.yul\":5148:5152   */\n      dup2\n        /* \"#utility.yul\":5144:5156   */\n      slt\n        /* \"#utility.yul\":5140:5141   */\n      0x00\n        /* \"#utility.yul\":5137:5138   */\n      dup5\n        /* \"#utility.yul\":5133:5142   */\n      slt\n        /* \"#utility.yul\":5129:5157   */\n      and\n        /* \"#utility.yul\":5112:5113   */\n      dup3\n        /* \"#utility.yul\":5106:5110   */\n      dup3\n        /* \"#utility.yul\":5102:5114   */\n      sgt\n        /* \"#utility.yul\":5097:5098   */\n      0x00\n        /* \"#utility.yul\":5094:5095   */\n      dup6\n        /* \"#utility.yul\":5090:5099   */\n      slt\n        /* \"#utility.yul\":5083:5100   */\n      iszero\n        /* \"#utility.yul\":5079:5115   */\n      and\n        /* \"#utility.yul\":5063:5167   */\n      or\n        /* \"#utility.yul\":5060:5190   */\n      iszero\n      tag_159\n      jumpi\n        /* \"#utility.yul\":5170:5188   */\n      tag_160\n      tag_113\n      jump\t// in\n    tag_160:\n        /* \"#utility.yul\":5060:5190   */\n    tag_159:\n        /* \"#utility.yul\":4825:5197   */\n      swap3\n      swap2\n      pop\n      pop\n      jump\t// out\n\n    auxdata: 0xa264697066735822122037bd05e1d1794a447353e9328170111721990391473fa7c5ef5044dfa42ec31064736f6c634300081e0033\n}\n",
				"bytecode": {
					"linkReferences": {},
					"object": "6080604052348015600e575f5ffd5b50610b408061001c5f395ff3fe608060405234801561000f575f5ffd5b5060043610610034575f3560e01c8063f8a8fd6d14610038578063ff749fa314610056575b5f5ffd5b610040610086565b60405161004d91906108d6565b60405180910390f35b610070600480360381019061006b919061092d565b610098565b60405161007d91906108d6565b60405180910390f35b60606100936107ca610098565b905090565b6060600182121580156100ad5750610f9f8213155b6100ec576040517f08c379a00000000000000000000000000000000000000000000000000000000081526004016100e3906109c8565b60405180910390fd5b5f600d67ffffffffffffffff811115610108576101076109e6565b5b6040519080825280602002602001820160405280156101365781602001602082028036833780820191505090505b5090506103e8815f8151811061014f5761014e610a13565b5b6020026020010181815250506103848160018151811061017257610171610a13565b5b6020026020010181815250506101f48160028151811061019557610194610a13565b5b602002602001018181525050610190816003815181106101b8576101b7610a13565b5b6020026020010181815250506064816004815181106101da576101d9610a13565b5b602002602001018181525050605a816005815181106101fc576101fb610a13565b5b60200260200101818152505060328160068151811061021e5761021d610a13565b5b6020026020010181815250506028816007815181106102405761023f610a13565b5b602002602001018181525050600a8160088151811061026257610261610a13565b5b60200260200101818152505060098160098151811061028457610283610a13565b5b602002602001018181525050600581600a815181106102a6576102a5610a13565b5b602002602001018181525050600481600b815181106102c8576102c7610a13565b5b602002602001018181525050600181600c815181106102ea576102e9610a13565b5b6020026020010181815250505f600d67ffffffffffffffff811115610312576103116109e6565b5b60405190808252806020026020018201604052801561034557816020015b60608152602001906001900390816103305790505b5090506040518060400160405280600181526020017f4d00000000000000000000000000000000000000000000000000000000000000815250815f8151811061039157610390610a13565b5b60200260200101819052506040518060400160405280600281526020017f434d000000000000000000000000000000000000000000000000000000000000815250816001815181106103e6576103e5610a13565b5b60200260200101819052506040518060400160405280600181526020017f44000000000000000000000000000000000000000000000000000000000000008152508160028151811061043b5761043a610a13565b5b60200260200101819052506040518060400160405280600281526020017f4344000000000000000000000000000000000000000000000000000000000000815250816003815181106104905761048f610a13565b5b60200260200101819052506040518060400160405280600181526020017f4300000000000000000000000000000000000000000000000000000000000000815250816004815181106104e5576104e4610a13565b5b60200260200101819052506040518060400160405280600281526020017f58430000000000000000000000000000000000000000000000000000000000008152508160058151811061053a57610539610a13565b5b60200260200101819052506040518060400160405280600181526020017f4c000000000000000000000000000000000000000000000000000000000000008152508160068151811061058f5761058e610a13565b5b60200260200101819052506040518060400160405280600281526020017f584c000000000000000000000000000000000000000000000000000000000000815250816007815181106105e4576105e3610a13565b5b60200260200101819052506040518060400160405280600181526020017f58000000000000000000000000000000000000000000000000000000000000008152508160088151811061063957610638610a13565b5b60200260200101819052506040518060400160405280600281526020017f49580000000000000000000000000000000000000000000000000000000000008152508160098151811061068e5761068d610a13565b5b60200260200101819052506040518060400160405280600181526020017f560000000000000000000000000000000000000000000000000000000000000081525081600a815181106106e3576106e2610a13565b5b60200260200101819052506040518060400160405280600281526020017f495600000000000000000000000000000000000000000000000000000000000081525081600b8151811061073857610737610a13565b5b60200260200101819052506040518060400160405280600181526020017f490000000000000000000000000000000000000000000000000000000000000081525081600c8151811061078d5761078c610a13565b5b60200260200101819052505f60405180602001604052805f81525090505f5f90505b835181101561085a575b8381815181106107cc576107cb610a13565b5b6020026020010151861261084557818382815181106107ee576107ed610a13565b5b6020026020010151604051602001610807929190610a7a565b604051602081830303815290604052915083818151811061082b5761082a610a13565b5b60200260200101518661083e9190610aca565b95506107b9565b5f86031561085a5780806001019150506107af565b50809350505050919050565b5f81519050919050565b5f82825260208201905092915050565b8281835e5f83830152505050565b5f601f19601f8301169050919050565b5f6108a882610866565b6108b28185610870565b93506108c2818560208601610880565b6108cb8161088e565b840191505092915050565b5f6020820190508181035f8301526108ee818461089e565b905092915050565b5f5ffd5b5f819050919050565b61090c816108fa565b8114610916575f5ffd5b50565b5f8135905061092781610903565b92915050565b5f60208284031215610942576109416108f6565b5b5f61094f84828501610919565b91505092915050565b7f4e756d626572206d757374206265206265747765656e203120616e64203339395f8201527f3900000000000000000000000000000000000000000000000000000000000000602082015250565b5f6109b2602183610870565b91506109bd82610958565b604082019050919050565b5f6020820190508181035f8301526109df816109a6565b9050919050565b7f4e487b71000000000000000000000000000000000000000000000000000000005f52604160045260245ffd5b7f4e487b71000000000000000000000000000000000000000000000000000000005f52603260045260245ffd5b5f81905092915050565b5f610a5482610866565b610a5e8185610a40565b9350610a6e818560208601610880565b80840191505092915050565b5f610a858285610a4a565b9150610a918284610a4a565b91508190509392505050565b7f4e487b71000000000000000000000000000000000000000000000000000000005f52601160045260245ffd5b5f610ad4826108fa565b9150610adf836108fa565b925082820390508181125f8412168282135f851215161715610b0457610b03610a9d565b5b9291505056fea264697066735822122037bd05e1d1794a447353e9328170111721990391473fa7c5ef5044dfa42ec31064736f6c634300081e0033",
					"opcodes": "PUSH1 0x80 PUSH1 0x40 MSTORE CALLVALUE DUP1 ISZERO PUSH1 0xE JUMPI PUSH0 PUSH0 REVERT JUMPDEST POP PUSH2 0xB40 DUP1 PUSH2 0x1C PUSH0 CODECOPY PUSH0 RETURN INVALID PUSH1 0x80 PUSH1 0x40 MSTORE CALLVALUE DUP1 ISZERO PUSH2 0xF JUMPI PUSH0 PUSH0 REVERT JUMPDEST POP PUSH1 0x4 CALLDATASIZE LT PUSH2 0x34 JUMPI PUSH0 CALLDATALOAD PUSH1 0xE0 SHR DUP1 PUSH4 0xF8A8FD6D EQ PUSH2 0x38 JUMPI DUP1 PUSH4 0xFF749FA3 EQ PUSH2 0x56 JUMPI JUMPDEST PUSH0 PUSH0 REVERT JUMPDEST PUSH2 0x40 PUSH2 0x86 JUMP JUMPDEST PUSH1 0x40 MLOAD PUSH2 0x4D SWAP2 SWAP1 PUSH2 0x8D6 JUMP JUMPDEST PUSH1 0x40 MLOAD DUP1 SWAP2 SUB SWAP1 RETURN JUMPDEST PUSH2 0x70 PUSH1 0x4 DUP1 CALLDATASIZE SUB DUP2 ADD SWAP1 PUSH2 0x6B SWAP2 SWAP1 PUSH2 0x92D JUMP JUMPDEST PUSH2 0x98 JUMP JUMPDEST PUSH1 0x40 MLOAD PUSH2 0x7D SWAP2 SWAP1 PUSH2 0x8D6 JUMP JUMPDEST PUSH1 0x40 MLOAD DUP1 SWAP2 SUB SWAP1 RETURN JUMPDEST PUSH1 0x60 PUSH2 0x93 PUSH2 0x7CA PUSH2 0x98 JUMP JUMPDEST SWAP1 POP SWAP1 JUMP JUMPDEST PUSH1 0x60 PUSH1 0x1 DUP3 SLT ISZERO DUP1 ISZERO PUSH2 0xAD JUMPI POP PUSH2 0xF9F DUP3 SGT ISZERO JUMPDEST PUSH2 0xEC JUMPI PUSH1 0x40 MLOAD PUSH32 0x8C379A000000000000000000000000000000000000000000000000000000000 DUP2 MSTORE PUSH1 0x4 ADD PUSH2 0xE3 SWAP1 PUSH2 0x9C8 JUMP JUMPDEST PUSH1 0x40 MLOAD DUP1 SWAP2 SUB SWAP1 REVERT JUMPDEST PUSH0 PUSH1 0xD PUSH8 0xFFFFFFFFFFFFFFFF DUP2 GT ISZERO PUSH2 0x108 JUMPI PUSH2 0x107 PUSH2 0x9E6 JUMP JUMPDEST JUMPDEST PUSH1 0x40 MLOAD SWAP1 DUP1 DUP3 MSTORE DUP1 PUSH1 0x20 MUL PUSH1 0x20 ADD DUP3 ADD PUSH1 0x40 MSTORE DUP1 ISZERO PUSH2 0x136 JUMPI DUP2 PUSH1 0x20 ADD PUSH1 0x20 DUP3 MUL DUP1 CALLDATASIZE DUP4 CALLDATACOPY DUP1 DUP3 ADD SWAP2 POP POP SWAP1 POP JUMPDEST POP SWAP1 POP PUSH2 0x3E8 DUP2 PUSH0 DUP2 MLOAD DUP2 LT PUSH2 0x14F JUMPI PUSH2 0x14E PUSH2 0xA13 JUMP JUMPDEST JUMPDEST PUSH1 0x20 MUL PUSH1 0x20 ADD ADD DUP2 DUP2 MSTORE POP POP PUSH2 0x384 DUP2 PUSH1 0x1 DUP2 MLOAD DUP2 LT PUSH2 0x172 JUMPI PUSH2 0x171 PUSH2 0xA13 JUMP JUMPDEST JUMPDEST PUSH1 0x20 MUL PUSH1 0x20 ADD ADD DUP2 DUP2 MSTORE POP POP PUSH2 0x1F4 DUP2 PUSH1 0x2 DUP2 MLOAD DUP2 LT PUSH2 0x195 JUMPI PUSH2 0x194 PUSH2 0xA13 JUMP JUMPDEST JUMPDEST PUSH1 0x20 MUL PUSH1 0x20 ADD ADD DUP2 DUP2 MSTORE POP POP PUSH2 0x190 DUP2 PUSH1 0x3 DUP2 MLOAD DUP2 LT PUSH2 0x1B8 JUMPI PUSH2 0x1B7 PUSH2 0xA13 JUMP JUMPDEST JUMPDEST PUSH1 0x20 MUL PUSH1 0x20 ADD ADD DUP2 DUP2 MSTORE POP POP PUSH1 0x64 DUP2 PUSH1 0x4 DUP2 MLOAD DUP2 LT PUSH2 0x1DA JUMPI PUSH2 0x1D9 PUSH2 0xA13 JUMP JUMPDEST JUMPDEST PUSH1 0x20 MUL PUSH1 0x20 ADD ADD DUP2 DUP2 MSTORE POP POP PUSH1 0x5A DUP2 PUSH1 0x5 DUP2 MLOAD DUP2 LT PUSH2 0x1FC JUMPI PUSH2 0x1FB PUSH2 0xA13 JUMP JUMPDEST JUMPDEST PUSH1 0x20 MUL PUSH1 0x20 ADD ADD DUP2 DUP2 MSTORE POP POP PUSH1 0x32 DUP2 PUSH1 0x6 DUP2 MLOAD DUP2 LT PUSH2 0x21E JUMPI PUSH2 0x21D PUSH2 0xA13 JUMP JUMPDEST JUMPDEST PUSH1 0x20 MUL PUSH1 0x20 ADD ADD DUP2 DUP2 MSTORE POP POP PUSH1 0x28 DUP2 PUSH1 0x7 DUP2 MLOAD DUP2 LT PUSH2 0x240 JUMPI PUSH2 0x23F PUSH2 0xA13 JUMP JUMPDEST JUMPDEST PUSH1 0x20 MUL PUSH1 0x20 ADD ADD DUP2 DUP2 MSTORE POP POP PUSH1 0xA DUP2 PUSH1 0x8 DUP2 MLOAD DUP2 LT PUSH2 0x262 JUMPI PUSH2 0x261 PUSH2 0xA13 JUMP JUMPDEST JUMPDEST PUSH1 0x20 MUL PUSH1 0x20 ADD ADD DUP2 DUP2 MSTORE POP POP PUSH1 0x9 DUP2 PUSH1 0x9 DUP2 MLOAD DUP2 LT PUSH2 0x284 JUMPI PUSH2 0x283 PUSH2 0xA13 JUMP JUMPDEST JUMPDEST PUSH1 0x20 MUL PUSH1 0x20 ADD ADD DUP2 DUP2 MSTORE POP POP PUSH1 0x5 DUP2 PUSH1 0xA DUP2 MLOAD DUP2 LT PUSH2 0x2A6 JUMPI PUSH2 0x2A5 PUSH2 0xA13 JUMP JUMPDEST JUMPDEST PUSH1 0x20 MUL PUSH1 0x20 ADD ADD DUP2 DUP2 MSTORE POP POP PUSH1 0x4 DUP2 PUSH1 0xB DUP2 MLOAD DUP2 LT PUSH2 0x2C8 JUMPI PUSH2 0x2C7 PUSH2 0xA13 JUMP JUMPDEST JUMPDEST PUSH1 0x20 MUL PUSH1 0x20 ADD ADD DUP2 DUP2 MSTORE POP POP PUSH1 0x1 DUP2 PUSH1 0xC DUP2 MLOAD DUP2 LT PUSH2 0x2EA JUMPI PUSH2 0x2E9 PUSH2 0xA13 JUMP JUMPDEST JUMPDEST PUSH1 0x20 MUL PUSH1 0x20 ADD ADD DUP2 DUP2 MSTORE POP POP PUSH0 PUSH1 0xD PUSH8 0xFFFFFFFFFFFFFFFF DUP2 GT ISZERO PUSH2 0x312 JUMPI PUSH2 0x311 PUSH2 0x9E6 JUMP JUMPDEST JUMPDEST PUSH1 0x40 MLOAD SWAP1 DUP1 DUP3 MSTORE DUP1 PUSH1 0x20 MUL PUSH1 0x20 ADD DUP3 ADD PUSH1 0x40 MSTORE DUP1 ISZERO PUSH2 0x345 JUMPI DUP2 PUSH1 0x20 ADD JUMPDEST PUSH1 0x60 DUP2 MSTORE PUSH1 0x20 ADD SWAP1 PUSH1 0x1 SWAP1 SUB SWAP1 DUP2 PUSH2 0x330 JUMPI SWAP1 POP JUMPDEST POP SWAP1 POP PUSH1 0x40 MLOAD DUP1 PUSH1 0x40 ADD PUSH1 0x40 MSTORE DUP1 PUSH1 0x1 DUP2 MSTORE PUSH1 0x20 ADD PUSH32 0x4D00000000000000000000000000000000000000000000000000000000000000 DUP2 MSTORE POP DUP2 PUSH0 DUP2 MLOAD DUP2 LT PUSH2 0x391 JUMPI PUSH2 0x390 PUSH2 0xA13 JUMP JUMPDEST JUMPDEST PUSH1 0x20 MUL PUSH1 0x20 ADD ADD DUP2 SWAP1 MSTORE POP PUSH1 0x40 MLOAD DUP1 PUSH1 0x40 ADD PUSH1 0x40 MSTORE DUP1 PUSH1 0x2 DUP2 MSTORE PUSH1 0x20 ADD PUSH32 0x434D000000000000000000000000000000000000000000000000000000000000 DUP2 MSTORE POP DUP2 PUSH1 0x1 DUP2 MLOAD DUP2 LT PUSH2 0x3E6 JUMPI PUSH2 0x3E5 PUSH2 0xA13 JUMP JUMPDEST JUMPDEST PUSH1 0x20 MUL PUSH1 0x20 ADD ADD DUP2 SWAP1 MSTORE POP PUSH1 0x40 MLOAD DUP1 PUSH1 0x40 ADD PUSH1 0x40 MSTORE DUP1 PUSH1 0x1 DUP2 MSTORE PUSH1 0x20 ADD PUSH32 0x4400000000000000000000000000000000000000000000000000000000000000 DUP2 MSTORE POP DUP2 PUSH1 0x2 DUP2 MLOAD DUP2 LT PUSH2 0x43B JUMPI PUSH2 0x43A PUSH2 0xA13 JUMP JUMPDEST JUMPDEST PUSH1 0x20 MUL PUSH1 0x20 ADD ADD DUP2 SWAP1 MSTORE POP PUSH1 0x40 MLOAD DUP1 PUSH1 0x40 ADD PUSH1 0x40 MSTORE DUP1 PUSH1 0x2 DUP2 MSTORE PUSH1 0x20 ADD PUSH32 0x4344000000000000000000000000000000000000000000000000000000000000 DUP2 MSTORE POP DUP2 PUSH1 0x3 DUP2 MLOAD DUP2 LT PUSH2 0x490 JUMPI PUSH2 0x48F PUSH2 0xA13 JUMP JUMPDEST JUMPDEST PUSH1 0x20 MUL PUSH1 0x20 ADD ADD DUP2 SWAP1 MSTORE POP PUSH1 0x40 MLOAD DUP1 PUSH1 0x40 ADD PUSH1 0x40 MSTORE DUP1 PUSH1 0x1 DUP2 MSTORE PUSH1 0x20 ADD PUSH32 0x4300000000000000000000000000000000000000000000000000000000000000 DUP2 MSTORE POP DUP2 PUSH1 0x4 DUP2 MLOAD DUP2 LT PUSH2 0x4E5 JUMPI PUSH2 0x4E4 PUSH2 0xA13 JUMP JUMPDEST JUMPDEST PUSH1 0x20 MUL PUSH1 0x20 ADD ADD DUP2 SWAP1 MSTORE POP PUSH1 0x40 MLOAD DUP1 PUSH1 0x40 ADD PUSH1 0x40 MSTORE DUP1 PUSH1 0x2 DUP2 MSTORE PUSH1 0x20 ADD PUSH32 0x5843000000000000000000000000000000000000000000000000000000000000 DUP2 MSTORE POP DUP2 PUSH1 0x5 DUP2 MLOAD DUP2 LT PUSH2 0x53A JUMPI PUSH2 0x539 PUSH2 0xA13 JUMP JUMPDEST JUMPDEST PUSH1 0x20 MUL PUSH1 0x20 ADD ADD DUP2 SWAP1 MSTORE POP PUSH1 0x40 MLOAD DUP1 PUSH1 0x40 ADD PUSH1 0x40 MSTORE DUP1 PUSH1 0x1 DUP2 MSTORE PUSH1 0x20 ADD PUSH32 0x4C00000000000000000000000000000000000000000000000000000000000000 DUP2 MSTORE POP DUP2 PUSH1 0x6 DUP2 MLOAD DUP2 LT PUSH2 0x58F JUMPI PUSH2 0x58E PUSH2 0xA13 JUMP JUMPDEST JUMPDEST PUSH1 0x20 MUL PUSH1 0x20 ADD ADD DUP2 SWAP1 MSTORE POP PUSH1 0x40 MLOAD DUP1 PUSH1 0x40 ADD PUSH1 0x40 MSTORE DUP1 PUSH1 0x2 DUP2 MSTORE PUSH1 0x20 ADD PUSH32 0x584C000000000000000000000000000000000000000000000000000000000000 DUP2 MSTORE POP DUP2 PUSH1 0x7 DUP2 MLOAD DUP2 LT PUSH2 0x5E4 JUMPI PUSH2 0x5E3 PUSH2 0xA13 JUMP JUMPDEST JUMPDEST PUSH1 0x20 MUL PUSH1 0x20 ADD ADD DUP2 SWAP1 MSTORE POP PUSH1 0x40 MLOAD DUP1 PUSH1 0x40 ADD PUSH1 0x40 MSTORE DUP1 PUSH1 0x1 DUP2 MSTORE PUSH1 0x20 ADD PUSH32 0x5800000000000000000000000000000000000000000000000000000000000000 DUP2 MSTORE POP DUP2 PUSH1 0x8 DUP2 MLOAD DUP2 LT PUSH2 0x639 JUMPI PUSH2 0x638 PUSH2 0xA13 JUMP JUMPDEST JUMPDEST PUSH1 0x20 MUL PUSH1 0x20 ADD ADD DUP2 SWAP1 MSTORE POP PUSH1 0x40 MLOAD DUP1 PUSH1 0x40 ADD PUSH1 0x40 MSTORE DUP1 PUSH1 0x2 DUP2 MSTORE PUSH1 0x20 ADD PUSH32 0x4958000000000000000000000000000000000000000000000000000000000000 DUP2 MSTORE POP DUP2 PUSH1 0x9 DUP2 MLOAD DUP2 LT PUSH2 0x68E JUMPI PUSH2 0x68D PUSH2 0xA13 JUMP JUMPDEST JUMPDEST PUSH1 0x20 MUL PUSH1 0x20 ADD ADD DUP2 SWAP1 MSTORE POP PUSH1 0x40 MLOAD DUP1 PUSH1 0x40 ADD PUSH1 0x40 MSTORE DUP1 PUSH1 0x1 DUP2 MSTORE PUSH1 0x20 ADD PUSH32 0x5600000000000000000000000000000000000000000000000000000000000000 DUP2 MSTORE POP DUP2 PUSH1 0xA DUP2 MLOAD DUP2 LT PUSH2 0x6E3 JUMPI PUSH2 0x6E2 PUSH2 0xA13 JUMP JUMPDEST JUMPDEST PUSH1 0x20 MUL PUSH1 0x20 ADD ADD DUP2 SWAP1 MSTORE POP PUSH1 0x40 MLOAD DUP1 PUSH1 0x40 ADD PUSH1 0x40 MSTORE DUP1 PUSH1 0x2 DUP2 MSTORE PUSH1 0x20 ADD PUSH32 0x4956000000000000000000000000000000000000000000000000000000000000 DUP2 MSTORE POP DUP2 PUSH1 0xB DUP2 MLOAD DUP2 LT PUSH2 0x738 JUMPI PUSH2 0x737 PUSH2 0xA13 JUMP JUMPDEST JUMPDEST PUSH1 0x20 MUL PUSH1 0x20 ADD ADD DUP2 SWAP1 MSTORE POP PUSH1 0x40 MLOAD DUP1 PUSH1 0x40 ADD PUSH1 0x40 MSTORE DUP1 PUSH1 0x1 DUP2 MSTORE PUSH1 0x20 ADD PUSH32 0x4900000000000000000000000000000000000000000000000000000000000000 DUP2 MSTORE POP DUP2 PUSH1 0xC DUP2 MLOAD DUP2 LT PUSH2 0x78D JUMPI PUSH2 0x78C PUSH2 0xA13 JUMP JUMPDEST JUMPDEST PUSH1 0x20 MUL PUSH1 0x20 ADD ADD DUP2 SWAP1 MSTORE POP PUSH0 PUSH1 0x40 MLOAD DUP1 PUSH1 0x20 ADD PUSH1 0x40 MSTORE DUP1 PUSH0 DUP2 MSTORE POP SWAP1 POP PUSH0 PUSH0 SWAP1 POP JUMPDEST DUP4 MLOAD DUP2 LT ISZERO PUSH2 0x85A JUMPI JUMPDEST DUP4 DUP2 DUP2 MLOAD DUP2 LT PUSH2 0x7CC JUMPI PUSH2 0x7CB PUSH2 0xA13 JUMP JUMPDEST JUMPDEST PUSH1 0x20 MUL PUSH1 0x20 ADD ADD MLOAD DUP7 SLT PUSH2 0x845 JUMPI DUP2 DUP4 DUP3 DUP2 MLOAD DUP2 LT PUSH2 0x7EE JUMPI PUSH2 0x7ED PUSH2 0xA13 JUMP JUMPDEST JUMPDEST PUSH1 0x20 MUL PUSH1 0x20 ADD ADD MLOAD PUSH1 0x40 MLOAD PUSH1 0x20 ADD PUSH2 0x807 SWAP3 SWAP2 SWAP1 PUSH2 0xA7A JUMP JUMPDEST PUSH1 0x40 MLOAD PUSH1 0x20 DUP2 DUP4 SUB SUB DUP2 MSTORE SWAP1 PUSH1 0x40 MSTORE SWAP2 POP DUP4 DUP2 DUP2 MLOAD DUP2 LT PUSH2 0x82B JUMPI PUSH2 0x82A PUSH2 0xA13 JUMP JUMPDEST JUMPDEST PUSH1 0x20 MUL PUSH1 0x20 ADD ADD MLOAD DUP7 PUSH2 0x83E SWAP2 SWAP1 PUSH2 0xACA JUMP JUMPDEST SWAP6 POP PUSH2 0x7B9 JUMP JUMPDEST PUSH0 DUP7 SUB ISZERO PUSH2 0x85A JUMPI DUP1 DUP1 PUSH1 0x1 ADD SWAP2 POP POP PUSH2 0x7AF JUMP JUMPDEST POP DUP1 SWAP4 POP POP POP POP SWAP2 SWAP1 POP JUMP JUMPDEST PUSH0 DUP2 MLOAD SWAP1 POP SWAP2 SWAP1 POP JUMP JUMPDEST PUSH0 DUP3 DUP3 MSTORE PUSH1 0x20 DUP3 ADD SWAP1 POP SWAP3 SWAP2 POP POP JUMP JUMPDEST DUP3 DUP2 DUP4 MCOPY PUSH0 DUP4 DUP4 ADD MSTORE POP POP POP JUMP JUMPDEST PUSH0 PUSH1 0x1F NOT PUSH1 0x1F DUP4 ADD AND SWAP1 POP SWAP2 SWAP1 POP JUMP JUMPDEST PUSH0 PUSH2 0x8A8 DUP3 PUSH2 0x866 JUMP JUMPDEST PUSH2 0x8B2 DUP2 DUP6 PUSH2 0x870 JUMP JUMPDEST SWAP4 POP PUSH2 0x8C2 DUP2 DUP6 PUSH1 0x20 DUP7 ADD PUSH2 0x880 JUMP JUMPDEST PUSH2 0x8CB DUP2 PUSH2 0x88E JUMP JUMPDEST DUP5 ADD SWAP2 POP POP SWAP3 SWAP2 POP POP JUMP JUMPDEST PUSH0 PUSH1 0x20 DUP3 ADD SWAP1 POP DUP2 DUP2 SUB PUSH0 DUP4 ADD MSTORE PUSH2 0x8EE DUP2 DUP5 PUSH2 0x89E JUMP JUMPDEST SWAP1 POP SWAP3 SWAP2 POP POP JUMP JUMPDEST PUSH0 PUSH0 REVERT JUMPDEST PUSH0 DUP2 SWAP1 POP SWAP2 SWAP1 POP JUMP JUMPDEST PUSH2 0x90C DUP2 PUSH2 0x8FA JUMP JUMPDEST DUP2 EQ PUSH2 0x916 JUMPI PUSH0 PUSH0 REVERT JUMPDEST POP JUMP JUMPDEST PUSH0 DUP2 CALLDATALOAD SWAP1 POP PUSH2 0x927 DUP2 PUSH2 0x903 JUMP JUMPDEST SWAP3 SWAP2 POP POP JUMP JUMPDEST PUSH0 PUSH1 0x20 DUP3 DUP5 SUB SLT ISZERO PUSH2 0x942 JUMPI PUSH2 0x941 PUSH2 0x8F6 JUMP JUMPDEST JUMPDEST PUSH0 PUSH2 0x94F DUP5 DUP3 DUP6 ADD PUSH2 0x919 JUMP JUMPDEST SWAP2 POP POP SWAP3 SWAP2 POP POP JUMP JUMPDEST PUSH32 0x4E756D626572206D757374206265206265747765656E203120616E6420333939 PUSH0 DUP3 ADD MSTORE PUSH32 0x3900000000000000000000000000000000000000000000000000000000000000 PUSH1 0x20 DUP3 ADD MSTORE POP JUMP JUMPDEST PUSH0 PUSH2 0x9B2 PUSH1 0x21 DUP4 PUSH2 0x870 JUMP JUMPDEST SWAP2 POP PUSH2 0x9BD DUP3 PUSH2 0x958 JUMP JUMPDEST PUSH1 0x40 DUP3 ADD SWAP1 POP SWAP2 SWAP1 POP JUMP JUMPDEST PUSH0 PUSH1 0x20 DUP3 ADD SWAP1 POP DUP2 DUP2 SUB PUSH0 DUP4 ADD MSTORE PUSH2 0x9DF DUP2 PUSH2 0x9A6 JUMP JUMPDEST SWAP1 POP SWAP2 SWAP1 POP JUMP JUMPDEST PUSH32 0x4E487B7100000000000000000000000000000000000000000000000000000000 PUSH0 MSTORE PUSH1 0x41 PUSH1 0x4 MSTORE PUSH1 0x24 PUSH0 REVERT JUMPDEST PUSH32 0x4E487B7100000000000000000000000000000000000000000000000000000000 PUSH0 MSTORE PUSH1 0x32 PUSH1 0x4 MSTORE PUSH1 0x24 PUSH0 REVERT JUMPDEST PUSH0 DUP2 SWAP1 POP SWAP3 SWAP2 POP POP JUMP JUMPDEST PUSH0 PUSH2 0xA54 DUP3 PUSH2 0x866 JUMP JUMPDEST PUSH2 0xA5E DUP2 DUP6 PUSH2 0xA40 JUMP JUMPDEST SWAP4 POP PUSH2 0xA6E DUP2 DUP6 PUSH1 0x20 DUP7 ADD PUSH2 0x880 JUMP JUMPDEST DUP1 DUP5 ADD SWAP2 POP POP SWAP3 SWAP2 POP POP JUMP JUMPDEST PUSH0 PUSH2 0xA85 DUP3 DUP6 PUSH2 0xA4A JUMP JUMPDEST SWAP2 POP PUSH2 0xA91 DUP3 DUP5 PUSH2 0xA4A JUMP JUMPDEST SWAP2 POP DUP2 SWAP1 POP SWAP4 SWAP3 POP POP POP JUMP JUMPDEST PUSH32 0x4E487B7100000000000000000000000000000000000000000000000000000000 PUSH0 MSTORE PUSH1 0x11 PUSH1 0x4 MSTORE PUSH1 0x24 PUSH0 REVERT JUMPDEST PUSH0 PUSH2 0xAD4 DUP3 PUSH2 0x8FA JUMP JUMPDEST SWAP2 POP PUSH2 0xADF DUP4 PUSH2 0x8FA JUMP JUMPDEST SWAP3 POP DUP3 DUP3 SUB SWAP1 POP DUP2 DUP2 SLT PUSH0 DUP5 SLT AND DUP3 DUP3 SGT PUSH0 DUP6 SLT ISZERO AND OR ISZERO PUSH2 0xB04 JUMPI PUSH2 0xB03 PUSH2 0xA9D JUMP JUMPDEST JUMPDEST SWAP3 SWAP2 POP POP JUMP INVALID LOG2 PUSH5 0x6970667358 0x22 SLT KECCAK256 CALLDATACOPY 0xBD SDIV RJUMPI 0xD179 BLOBBASEFEE PREVRANDAO PUSH20 0x53E9328170111721990391473FA7C5EF5044DFA4 0x2E 0xC3 LT PUSH5 0x736F6C6343 STOP ADDMOD 0x1E STOP CALLER "
				},
				"gasEstimates": {
					"creation": {
						"codeDepositCost": "576000",
						"executionCost": "604",
						"totalCost": "576604"
					},
					"external": {
						"intToRoman(int256)": "infinite",
						"test()": "infinite"
					}
				},
				"methodIdentifiers": {
					"intToRoman(int256)": "ff749fa3",
					"test()": "f8a8fd6d"
				}
			},
			"storageLayout": {
				"storage": [],
				"types": null
			},
			"userdoc": {
				"kind": "user",
				"methods": {},
				"notice": "3.用 solidity 实现整数转罗马数字 题目描述在 https://leetcode.cn/problems/roman-to-integer/description/*",
				"version": 1
			}
		}
	}
}