{
	"basic/Voting.sol": {
		"Voting": {
			"abi": [
				{
					"inputs": [],
					"stateMutability": "nonpayable",
					"type": "constructor"
				},
				{
					"inputs": [
						{
							"internalType": "address",
							"name": "owner",
							"type": "address"
						}
					],
					"name": "OwnableInvalidOwner",
					"type": "error"
				},
				{
					"inputs": [
						{
							"internalType": "address",
							"name": "account",
							"type": "address"
						}
					],
					"name": "OwnableUnauthorizedAccount",
					"type": "error"
				},
				{
					"anonymous": false,
					"inputs": [
						{
							"indexed": true,
							"internalType": "address",
							"name": "previousOwner",
							"type": "address"
						},
						{
							"indexed": true,
							"internalType": "address",
							"name": "newOwner",
							"type": "address"
						}
					],
					"name": "OwnershipTransferred",
					"type": "event"
				},
				{
					"anonymous": false,
					"inputs": [
						{
							"indexed": true,
							"internalType": "string",
							"name": "name",
							"type": "string"
						},
						{
							"indexed": false,
							"internalType": "uint256",
							"name": "oldCount",
							"type": "uint256"
						}
					],
					"name": "VoteReset",
					"type": "event"
				},
				{
					"inputs": [
						{
							"internalType": "string",
							"name": "name",
							"type": "string"
						}
					],
					"name": "getVotes",
					"outputs": [
						{
							"internalType": "uint256",
							"name": "",
							"type": "uint256"
						}
					],
					"stateMutability": "view",
					"type": "function"
				},
				{
					"inputs": [],
					"name": "owner",
					"outputs": [
						{
							"internalType": "address",
							"name": "",
							"type": "address"
						}
					],
					"stateMutability": "view",
					"type": "function"
				},
				{
					"inputs": [],
					"name": "renounceOwnership",
					"outputs": [],
					"stateMutability": "nonpayable",
					"type": "function"
				},
				{
					"inputs": [],
					"name": "resetVotes",
					"outputs": [],
					"stateMutability": "nonpayable",
					"type": "function"
				},
				{
					"inputs": [
						{
							"internalType": "string",
							"name": "name",
							"type": "string"
						}
					],
					"name": "resetVotes",
					"outputs": [],
					"stateMutability": "nonpayable",
					"type": "function"
				},
				{
					"inputs": [
						{
							"internalType": "address",
							"name": "newOwner",
							"type": "address"
						}
					],
					"name": "transferOwnership",
					"outputs": [],
					"stateMutability": "nonpayable",
					"type": "function"
				},
				{
					"inputs": [
						{
							"internalType": "string",
							"name": "name",
							"type": "string"
						}
					],
					"name": "vote",
					"outputs": [],
					"stateMutability": "nonpayable",
					"type": "function"
				},
				{
					"stateMutability": "payable",
					"type": "receive"
				}
			],
			"devdoc": {
				"errors": {
					"OwnableInvalidOwner(address)": [
						{
							"details": "The owner is not a valid owner account. (eg. `address(0)`)"
						}
					],
					"OwnableUnauthorizedAccount(address)": [
						{
							"details": "The caller account is not authorized to perform an operation."
						}
					]
				},
				"kind": "dev",
				"methods": {
					"owner()": {
						"details": "Returns the address of the current owner."
					},
					"renounceOwnership()": {
						"details": "Leaves the contract without owner. It will not be possible to call `onlyOwner` functions. Can only be called by the current owner. NOTE: Renouncing ownership will leave the contract without an owner, thereby disabling any functionality that is only available to the owner."
					},
					"transferOwnership(address)": {
						"details": "Transfers ownership of the contract to a new account (`newOwner`). Can only be called by the current owner."
					}
				},
				"version": 1
			},
			"evm": {
				"assembly": "    /* \"basic/Voting.sol\":407:1381  contract Voting is Ownable{... */\n  mstore(0x40, 0x80)\n    /* \"basic/Voting.sol\":593:629  constructor() Ownable(msg.sender) {} */\n  callvalue\n  dup1\n  iszero\n  tag_1\n  jumpi\n  revert(0x00, 0x00)\ntag_1:\n  pop\n    /* \"basic/Voting.sol\":615:625  msg.sender */\n  caller\n    /* \"@openzeppelin/contracts/access/Ownable.sol\":1297:1298  0 */\n  0x00\n    /* \"@openzeppelin/contracts/access/Ownable.sol\":1273:1299  initialOwner == address(0) */\n  0xffffffffffffffffffffffffffffffffffffffff\n  and\n    /* \"@openzeppelin/contracts/access/Ownable.sol\":1273:1285  initialOwner */\n  dup2\n    /* \"@openzeppelin/contracts/access/Ownable.sol\":1273:1299  initialOwner == address(0) */\n  0xffffffffffffffffffffffffffffffffffffffff\n  and\n  sub\n    /* \"@openzeppelin/contracts/access/Ownable.sol\":1269:1364  if (initialOwner == address(0)) {... */\n  tag_5\n  jumpi\n    /* \"@openzeppelin/contracts/access/Ownable.sol\":1350:1351  0 */\n  0x00\n    /* \"@openzeppelin/contracts/access/Ownable.sol\":1322:1353  OwnableInvalidOwner(address(0)) */\n  mload(0x40)\n  0x1e4fbdf700000000000000000000000000000000000000000000000000000000\n  dup2\n  mstore\n  0x04\n  add\n  tag_6\n  swap2\n  swap1\n  tag_7\n  jump\t// in\ntag_6:\n  mload(0x40)\n  dup1\n  swap2\n  sub\n  swap1\n  revert\n    /* \"@openzeppelin/contracts/access/Ownable.sol\":1269:1364  if (initialOwner == address(0)) {... */\ntag_5:\n    /* \"@openzeppelin/contracts/access/Ownable.sol\":1373:1405  _transferOwnership(initialOwner) */\n  tag_8\n    /* \"@openzeppelin/contracts/access/Ownable.sol\":1392:1404  initialOwner */\n  dup2\n    /* \"@openzeppelin/contracts/access/Ownable.sol\":1373:1391  _transferOwnership */\n  shl(0x20, tag_9)\n    /* \"@openzeppelin/contracts/access/Ownable.sol\":1373:1405  _transferOwnership(initialOwner) */\n  0x20\n  shr\n  jump\t// in\ntag_8:\n    /* \"@openzeppelin/contracts/access/Ownable.sol\":1225:1412  constructor(address initialOwner) {... */\n  pop\n    /* \"basic/Voting.sol\":407:1381  contract Voting is Ownable{... */\n  jump(tag_11)\n    /* \"@openzeppelin/contracts/access/Ownable.sol\":2912:3099  function _transferOwnership(address newOwner) internal virtual {... */\ntag_9:\n    /* \"@openzeppelin/contracts/access/Ownable.sol\":2985:3001  address oldOwner */\n  0x00\n    /* \"@openzeppelin/contracts/access/Ownable.sol\":3004:3010  _owner */\n  0x00\n  0x00\n  swap1\n  sload\n  swap1\n  0x0100\n  exp\n  swap1\n  div\n  0xffffffffffffffffffffffffffffffffffffffff\n  and\n    /* \"@openzeppelin/contracts/access/Ownable.sol\":2985:3010  address oldOwner = _owner */\n  swap1\n  pop\n    /* \"@openzeppelin/contracts/access/Ownable.sol\":3029:3037  newOwner */\n  dup2\n    /* \"@openzeppelin/contracts/access/Ownable.sol\":3020:3026  _owner */\n  0x00\n  0x00\n    /* \"@openzeppelin/contracts/access/Ownable.sol\":3020:3037  _owner = newOwner */\n  0x0100\n  exp\n  dup2\n  sload\n  dup2\n  0xffffffffffffffffffffffffffffffffffffffff\n  mul\n  not\n  and\n  swap1\n  dup4\n  0xffffffffffffffffffffffffffffffffffffffff\n  and\n  mul\n  or\n  swap1\n  sstore\n  pop\n    /* \"@openzeppelin/contracts/access/Ownable.sol\":3083:3091  newOwner */\n  dup2\n    /* \"@openzeppelin/contracts/access/Ownable.sol\":3052:3092  OwnershipTransferred(oldOwner, newOwner) */\n  0xffffffffffffffffffffffffffffffffffffffff\n  and\n    /* \"@openzeppelin/contracts/access/Ownable.sol\":3073:3081  oldOwner */\n  dup2\n    /* \"@openzeppelin/contracts/access/Ownable.sol\":3052:3092  OwnershipTransferred(oldOwner, newOwner) */\n  0xffffffffffffffffffffffffffffffffffffffff\n  and\n  0x8be0079c531659141344cd1fd0a4f28419497f9722a3daafe3b4186f6b6457e0\n  mload(0x40)\n  mload(0x40)\n  dup1\n  swap2\n  sub\n  swap1\n  log3\n    /* \"@openzeppelin/contracts/access/Ownable.sol\":2975:3099  {... */\n  pop\n    /* \"@openzeppelin/contracts/access/Ownable.sol\":2912:3099  function _transferOwnership(address newOwner) internal virtual {... */\n  pop\n  jump\t// out\n    /* \"#utility.yul\":7:133   */\ntag_13:\n    /* \"#utility.yul\":44:51   */\n  0x00\n    /* \"#utility.yul\":84:126   */\n  0xffffffffffffffffffffffffffffffffffffffff\n    /* \"#utility.yul\":77:82   */\n  dup3\n    /* \"#utility.yul\":73:127   */\n  and\n    /* \"#utility.yul\":62:127   */\n  swap1\n  pop\n    /* \"#utility.yul\":7:133   */\n  swap2\n  swap1\n  pop\n  jump\t// out\n    /* \"#utility.yul\":139:235   */\ntag_14:\n    /* \"#utility.yul\":176:183   */\n  0x00\n    /* \"#utility.yul\":205:229   */\n  tag_19\n    /* \"#utility.yul\":223:228   */\n  dup3\n    /* \"#utility.yul\":205:229   */\n  tag_13\n  jump\t// in\ntag_19:\n    /* \"#utility.yul\":194:229   */\n  swap1\n  pop\n    /* \"#utility.yul\":139:235   */\n  swap2\n  swap1\n  pop\n  jump\t// out\n    /* \"#utility.yul\":241:359   */\ntag_15:\n    /* \"#utility.yul\":328:352   */\n  tag_21\n    /* \"#utility.yul\":346:351   */\n  dup2\n    /* \"#utility.yul\":328:352   */\n  tag_14\n  jump\t// in\ntag_21:\n    /* \"#utility.yul\":323:326   */\n  dup3\n    /* \"#utility.yul\":316:353   */\n  mstore\n    /* \"#utility.yul\":241:359   */\n  pop\n  pop\n  jump\t// out\n    /* \"#utility.yul\":365:587   */\ntag_7:\n    /* \"#utility.yul\":458:462   */\n  0x00\n    /* \"#utility.yul\":496:498   */\n  0x20\n    /* \"#utility.yul\":485:494   */\n  dup3\n    /* \"#utility.yul\":481:499   */\n  add\n    /* \"#utility.yul\":473:499   */\n  swap1\n  pop\n    /* \"#utility.yul\":509:580   */\n  tag_23\n    /* \"#utility.yul\":577:578   */\n  0x00\n    /* \"#utility.yul\":566:575   */\n  dup4\n    /* \"#utility.yul\":562:579   */\n  add\n    /* \"#utility.yul\":553:559   */\n  dup5\n    /* \"#utility.yul\":509:580   */\n  tag_15\n  jump\t// in\ntag_23:\n    /* \"#utility.yul\":365:587   */\n  swap3\n  swap2\n  pop\n  pop\n  jump\t// out\n    /* \"basic/Voting.sol\":407:1381  contract Voting is Ownable{... */\ntag_11:\n  dataSize(sub_0)\n  dup1\n  dataOffset(sub_0)\n  0x00\n  codecopy\n  0x00\n  return\nstop\n\nsub_0: assembly {\n        /* \"basic/Voting.sol\":407:1381  contract Voting is Ownable{... */\n      mstore(0x40, 0x80)\n      jumpi(tag_1, lt(calldatasize, 0x04))\n      shr(0xe0, calldataload(0x00))\n      dup1\n      0xb9830ff1\n      gt\n      tag_10\n      jumpi\n      dup1\n      0xb9830ff1\n      eq\n      tag_6\n      jumpi\n      dup1\n      0xf2fde38b\n      eq\n      tag_7\n      jumpi\n      dup1\n      0xf3fa4226\n      eq\n      tag_8\n      jumpi\n      dup1\n      0xfc36e15b\n      eq\n      tag_9\n      jumpi\n      jump(tag_2)\n    tag_10:\n      dup1\n      0x715018a6\n      eq\n      tag_3\n      jumpi\n      dup1\n      0x805265e5\n      eq\n      tag_4\n      jumpi\n      dup1\n      0x8da5cb5b\n      eq\n      tag_5\n      jumpi\n      jump(tag_2)\n    tag_1:\n      jumpi(tag_2, calldatasize)\n      stop\n    tag_2:\n      revert(0x00, 0x00)\n        /* \"@openzeppelin/contracts/access/Ownable.sol\":2293:2394  function renounceOwnership() public virtual onlyOwner {... */\n    tag_3:\n      callvalue\n      dup1\n      iszero\n      tag_13\n      jumpi\n      revert(0x00, 0x00)\n    tag_13:\n      pop\n      tag_14\n      tag_15\n      jump\t// in\n    tag_14:\n      stop\n        /* \"basic/Voting.sol\":819:932  function getVotes(string memory name) external view returns (uint256) {... */\n    tag_4:\n      callvalue\n      dup1\n      iszero\n      tag_16\n      jumpi\n      revert(0x00, 0x00)\n    tag_16:\n      pop\n      tag_17\n      0x04\n      dup1\n      calldatasize\n      sub\n      dup2\n      add\n      swap1\n      tag_18\n      swap2\n      swap1\n      tag_19\n      jump\t// in\n    tag_18:\n      tag_20\n      jump\t// in\n    tag_17:\n      mload(0x40)\n      tag_21\n      swap2\n      swap1\n      tag_22\n      jump\t// in\n    tag_21:\n      mload(0x40)\n      dup1\n      swap2\n      sub\n      swap1\n      return\n        /* \"@openzeppelin/contracts/access/Ownable.sol\":1638:1723  function owner() public view virtual returns (address) {... */\n    tag_5:\n      callvalue\n      dup1\n      iszero\n      tag_23\n      jumpi\n      revert(0x00, 0x00)\n    tag_23:\n      pop\n      tag_24\n      tag_25\n      jump\t// in\n    tag_24:\n      mload(0x40)\n      tag_26\n      swap2\n      swap1\n      tag_27\n      jump\t// in\n    tag_26:\n      mload(0x40)\n      dup1\n      swap2\n      sub\n      swap1\n      return\n        /* \"basic/Voting.sol\":982:1119  function resetVotes() public onlyOwner{... */\n    tag_6:\n      callvalue\n      dup1\n      iszero\n      tag_28\n      jumpi\n      revert(0x00, 0x00)\n    tag_28:\n      pop\n      tag_29\n      tag_30\n      jump\t// in\n    tag_29:\n      stop\n        /* \"@openzeppelin/contracts/access/Ownable.sol\":2543:2758  function transferOwnership(address newOwner) public virtual onlyOwner {... */\n    tag_7:\n      callvalue\n      dup1\n      iszero\n      tag_31\n      jumpi\n      revert(0x00, 0x00)\n    tag_31:\n      pop\n      tag_32\n      0x04\n      dup1\n      calldatasize\n      sub\n      dup2\n      add\n      swap1\n      tag_33\n      swap2\n      swap1\n      tag_34\n      jump\t// in\n    tag_33:\n      tag_35\n      jump\t// in\n    tag_32:\n      stop\n        /* \"basic/Voting.sol\":1132:1378  function resetVotes(string memory name) public onlyOwner{... */\n    tag_8:\n      callvalue\n      dup1\n      iszero\n      tag_36\n      jumpi\n      revert(0x00, 0x00)\n    tag_36:\n      pop\n      tag_37\n      0x04\n      dup1\n      calldatasize\n      sub\n      dup2\n      add\n      swap1\n      tag_38\n      swap2\n      swap1\n      tag_19\n      jump\t// in\n    tag_38:\n      tag_39\n      jump\t// in\n    tag_37:\n      stop\n        /* \"basic/Voting.sol\":637:811  function vote(string memory name) external  {... */\n    tag_9:\n      callvalue\n      dup1\n      iszero\n      tag_40\n      jumpi\n      revert(0x00, 0x00)\n    tag_40:\n      pop\n      tag_41\n      0x04\n      dup1\n      calldatasize\n      sub\n      dup2\n      add\n      swap1\n      tag_42\n      swap2\n      swap1\n      tag_19\n      jump\t// in\n    tag_42:\n      tag_43\n      jump\t// in\n    tag_41:\n      stop\n        /* \"@openzeppelin/contracts/access/Ownable.sol\":2293:2394  function renounceOwnership() public virtual onlyOwner {... */\n    tag_15:\n        /* \"@openzeppelin/contracts/access/Ownable.sol\":1531:1544  _checkOwner() */\n      tag_45\n        /* \"@openzeppelin/contracts/access/Ownable.sol\":1531:1542  _checkOwner */\n      tag_46\n        /* \"@openzeppelin/contracts/access/Ownable.sol\":1531:1544  _checkOwner() */\n      jump\t// in\n    tag_45:\n        /* \"@openzeppelin/contracts/access/Ownable.sol\":2357:2387  _transferOwnership(address(0)) */\n      tag_48\n        /* \"@openzeppelin/contracts/access/Ownable.sol\":2384:2385  0 */\n      0x00\n        /* \"@openzeppelin/contracts/access/Ownable.sol\":2357:2375  _transferOwnership */\n      tag_49\n        /* \"@openzeppelin/contracts/access/Ownable.sol\":2357:2387  _transferOwnership(address(0)) */\n      jump\t// in\n    tag_48:\n        /* \"@openzeppelin/contracts/access/Ownable.sol\":2293:2394  function renounceOwnership() public virtual onlyOwner {... */\n      jump\t// out\n        /* \"basic/Voting.sol\":819:932  function getVotes(string memory name) external view returns (uint256) {... */\n    tag_20:\n        /* \"basic/Voting.sol\":880:887  uint256 */\n      0x00\n        /* \"basic/Voting.sol\":907:918  _voteCounts */\n      0x01\n        /* \"basic/Voting.sol\":919:923  name */\n      dup3\n        /* \"basic/Voting.sol\":907:924  _voteCounts[name] */\n      mload(0x40)\n      tag_51\n      swap2\n      swap1\n      tag_52\n      jump\t// in\n    tag_51:\n      swap1\n      dup2\n      mstore\n      0x20\n      add\n      mload(0x40)\n      dup1\n      swap2\n      sub\n      swap1\n      keccak256\n      sload\n        /* \"basic/Voting.sol\":900:924  return _voteCounts[name] */\n      swap1\n      pop\n        /* \"basic/Voting.sol\":819:932  function getVotes(string memory name) external view returns (uint256) {... */\n      swap2\n      swap1\n      pop\n      jump\t// out\n        /* \"@openzeppelin/contracts/access/Ownable.sol\":1638:1723  function owner() public view virtual returns (address) {... */\n    tag_25:\n        /* \"@openzeppelin/contracts/access/Ownable.sol\":1684:1691  address */\n      0x00\n        /* \"@openzeppelin/contracts/access/Ownable.sol\":1710:1716  _owner */\n      0x00\n      0x00\n      swap1\n      sload\n      swap1\n      0x0100\n      exp\n      swap1\n      div\n      0xffffffffffffffffffffffffffffffffffffffff\n      and\n        /* \"@openzeppelin/contracts/access/Ownable.sol\":1703:1716  return _owner */\n      swap1\n      pop\n        /* \"@openzeppelin/contracts/access/Ownable.sol\":1638:1723  function owner() public view virtual returns (address) {... */\n      swap1\n      jump\t// out\n        /* \"basic/Voting.sol\":982:1119  function resetVotes() public onlyOwner{... */\n    tag_30:\n        /* \"@openzeppelin/contracts/access/Ownable.sol\":1531:1544  _checkOwner() */\n      tag_55\n        /* \"@openzeppelin/contracts/access/Ownable.sol\":1531:1542  _checkOwner */\n      tag_46\n        /* \"@openzeppelin/contracts/access/Ownable.sol\":1531:1544  _checkOwner() */\n      jump\t// in\n    tag_55:\n        /* \"basic/Voting.sol\":1036:1042  uint i */\n      0x00\n        /* \"basic/Voting.sol\":1043:1044  0 */\n      0x00\n        /* \"basic/Voting.sol\":1036:1044  uint i=0 */\n      swap1\n      pop\n        /* \"basic/Voting.sol\":1031:1112  for (uint i=0;i<names.length;i++) {... */\n    tag_57:\n        /* \"basic/Voting.sol\":1047:1052  names */\n      0x02\n        /* \"basic/Voting.sol\":1047:1059  names.length */\n      dup1\n      sload\n      swap1\n      pop\n        /* \"basic/Voting.sol\":1045:1046  i */\n      dup2\n        /* \"basic/Voting.sol\":1045:1059  i<names.length */\n      lt\n        /* \"basic/Voting.sol\":1031:1112  for (uint i=0;i<names.length;i++) {... */\n      iszero\n      tag_58\n      jumpi\n        /* \"basic/Voting.sol\":1080:1100  resetVotes(names[i]) */\n      tag_60\n        /* \"basic/Voting.sol\":1091:1096  names */\n      0x02\n        /* \"basic/Voting.sol\":1097:1098  i */\n      dup3\n        /* \"basic/Voting.sol\":1091:1099  names[i] */\n      dup2\n      sload\n      dup2\n      lt\n      tag_61\n      jumpi\n      tag_62\n      tag_63\n      jump\t// in\n    tag_62:\n    tag_61:\n      swap1\n      0x00\n      mstore\n      keccak256(0x00, 0x20)\n      add\n        /* \"basic/Voting.sol\":1080:1100  resetVotes(names[i]) */\n      dup1\n      sload\n      tag_65\n      swap1\n      tag_66\n      jump\t// in\n    tag_65:\n      dup1\n      0x1f\n      add\n      0x20\n      dup1\n      swap2\n      div\n      mul\n      0x20\n      add\n      mload(0x40)\n      swap1\n      dup2\n      add\n      0x40\n      mstore\n      dup1\n      swap3\n      swap2\n      swap1\n      dup2\n      dup2\n      mstore\n      0x20\n      add\n      dup3\n      dup1\n      sload\n      tag_67\n      swap1\n      tag_66\n      jump\t// in\n    tag_67:\n      dup1\n      iszero\n      tag_68\n      jumpi\n      dup1\n      0x1f\n      lt\n      tag_69\n      jumpi\n      0x0100\n      dup1\n      dup4\n      sload\n      div\n      mul\n      dup4\n      mstore\n      swap2\n      0x20\n      add\n      swap2\n      jump(tag_68)\n    tag_69:\n      dup3\n      add\n      swap2\n      swap1\n      0x00\n      mstore\n      keccak256(0x00, 0x20)\n      swap1\n    tag_70:\n      dup2\n      sload\n      dup2\n      mstore\n      swap1\n      0x01\n      add\n      swap1\n      0x20\n      add\n      dup1\n      dup4\n      gt\n      tag_70\n      jumpi\n      dup3\n      swap1\n      sub\n      0x1f\n      and\n      dup3\n      add\n      swap2\n    tag_68:\n      pop\n      pop\n      pop\n      pop\n      pop\n        /* \"basic/Voting.sol\":1080:1090  resetVotes */\n      tag_39\n        /* \"basic/Voting.sol\":1080:1100  resetVotes(names[i]) */\n      jump\t// in\n    tag_60:\n        /* \"basic/Voting.sol\":1060:1063  i++ */\n      dup1\n      dup1\n      0x01\n      add\n      swap2\n      pop\n      pop\n        /* \"basic/Voting.sol\":1031:1112  for (uint i=0;i<names.length;i++) {... */\n      jump(tag_57)\n    tag_58:\n      pop\n        /* \"basic/Voting.sol\":982:1119  function resetVotes() public onlyOwner{... */\n      jump\t// out\n        /* \"@openzeppelin/contracts/access/Ownable.sol\":2543:2758  function transferOwnership(address newOwner) public virtual onlyOwner {... */\n    tag_35:\n        /* \"@openzeppelin/contracts/access/Ownable.sol\":1531:1544  _checkOwner() */\n      tag_72\n        /* \"@openzeppelin/contracts/access/Ownable.sol\":1531:1542  _checkOwner */\n      tag_46\n        /* \"@openzeppelin/contracts/access/Ownable.sol\":1531:1544  _checkOwner() */\n      jump\t// in\n    tag_72:\n        /* \"@openzeppelin/contracts/access/Ownable.sol\":2647:2648  0 */\n      0x00\n        /* \"@openzeppelin/contracts/access/Ownable.sol\":2627:2649  newOwner == address(0) */\n      0xffffffffffffffffffffffffffffffffffffffff\n      and\n        /* \"@openzeppelin/contracts/access/Ownable.sol\":2627:2635  newOwner */\n      dup2\n        /* \"@openzeppelin/contracts/access/Ownable.sol\":2627:2649  newOwner == address(0) */\n      0xffffffffffffffffffffffffffffffffffffffff\n      and\n      sub\n        /* \"@openzeppelin/contracts/access/Ownable.sol\":2623:2714  if (newOwner == address(0)) {... */\n      tag_74\n      jumpi\n        /* \"@openzeppelin/contracts/access/Ownable.sol\":2700:2701  0 */\n      0x00\n        /* \"@openzeppelin/contracts/access/Ownable.sol\":2672:2703  OwnableInvalidOwner(address(0)) */\n      mload(0x40)\n      0x1e4fbdf700000000000000000000000000000000000000000000000000000000\n      dup2\n      mstore\n      0x04\n      add\n      tag_75\n      swap2\n      swap1\n      tag_27\n      jump\t// in\n    tag_75:\n      mload(0x40)\n      dup1\n      swap2\n      sub\n      swap1\n      revert\n        /* \"@openzeppelin/contracts/access/Ownable.sol\":2623:2714  if (newOwner == address(0)) {... */\n    tag_74:\n        /* \"@openzeppelin/contracts/access/Ownable.sol\":2723:2751  _transferOwnership(newOwner) */\n      tag_76\n        /* \"@openzeppelin/contracts/access/Ownable.sol\":2742:2750  newOwner */\n      dup2\n        /* \"@openzeppelin/contracts/access/Ownable.sol\":2723:2741  _transferOwnership */\n      tag_49\n        /* \"@openzeppelin/contracts/access/Ownable.sol\":2723:2751  _transferOwnership(newOwner) */\n      jump\t// in\n    tag_76:\n        /* \"@openzeppelin/contracts/access/Ownable.sol\":2543:2758  function transferOwnership(address newOwner) public virtual onlyOwner {... */\n      pop\n      jump\t// out\n        /* \"basic/Voting.sol\":1132:1378  function resetVotes(string memory name) public onlyOwner{... */\n    tag_39:\n        /* \"@openzeppelin/contracts/access/Ownable.sol\":1531:1544  _checkOwner() */\n      tag_78\n        /* \"@openzeppelin/contracts/access/Ownable.sol\":1531:1542  _checkOwner */\n      tag_46\n        /* \"@openzeppelin/contracts/access/Ownable.sol\":1531:1544  _checkOwner() */\n      jump\t// in\n    tag_78:\n        /* \"basic/Voting.sol\":1226:1227  0 */\n      0x00\n        /* \"basic/Voting.sol\":1213:1217  name */\n      dup2\n        /* \"basic/Voting.sol\":1207:1225  bytes(name).length */\n      mload\n        /* \"basic/Voting.sol\":1207:1227  bytes(name).length>0 */\n      gt\n        /* \"basic/Voting.sol\":1199:1247  require(bytes(name).length>0, \"Name must input\") */\n      tag_80\n      jumpi\n      mload(0x40)\n      0x08c379a000000000000000000000000000000000000000000000000000000000\n      dup2\n      mstore\n      0x04\n      add\n      tag_81\n      swap1\n      tag_82\n      jump\t// in\n    tag_81:\n      mload(0x40)\n      dup1\n      swap2\n      sub\n      swap1\n      revert\n    tag_80:\n        /* \"basic/Voting.sol\":1258:1274  uint256 oldCount */\n      0x00\n        /* \"basic/Voting.sol\":1277:1288  _voteCounts */\n      0x01\n        /* \"basic/Voting.sol\":1289:1293  name */\n      dup3\n        /* \"basic/Voting.sol\":1277:1294  _voteCounts[name] */\n      mload(0x40)\n      tag_83\n      swap2\n      swap1\n      tag_52\n      jump\t// in\n    tag_83:\n      swap1\n      dup2\n      mstore\n      0x20\n      add\n      mload(0x40)\n      dup1\n      swap2\n      sub\n      swap1\n      keccak256\n      sload\n        /* \"basic/Voting.sol\":1258:1294  uint256 oldCount = _voteCounts[name] */\n      swap1\n      pop\n        /* \"basic/Voting.sol\":1312:1323  _voteCounts */\n      0x01\n        /* \"basic/Voting.sol\":1324:1328  name */\n      dup3\n        /* \"basic/Voting.sol\":1312:1329  _voteCounts[name] */\n      mload(0x40)\n      tag_84\n      swap2\n      swap1\n      tag_52\n      jump\t// in\n    tag_84:\n      swap1\n      dup2\n      mstore\n      0x20\n      add\n      mload(0x40)\n      dup1\n      swap2\n      sub\n      swap1\n      keccak256\n        /* \"basic/Voting.sol\":1305:1329  delete _voteCounts[name] */\n      0x00\n      swap1\n      sstore\n        /* \"basic/Voting.sol\":1355:1359  name */\n      dup2\n        /* \"basic/Voting.sol\":1345:1370  VoteReset(name, oldCount) */\n      mload(0x40)\n      tag_85\n      swap2\n      swap1\n      tag_52\n      jump\t// in\n    tag_85:\n      mload(0x40)\n      dup1\n      swap2\n      sub\n      swap1\n      keccak256\n      0x2d6afb89a283acc39c9f4ad71725bf5d3b3a3c46032838e2ad76961f426b7371\n        /* \"basic/Voting.sol\":1361:1369  oldCount */\n      dup3\n        /* \"basic/Voting.sol\":1345:1370  VoteReset(name, oldCount) */\n      mload(0x40)\n      tag_86\n      swap2\n      swap1\n      tag_22\n      jump\t// in\n    tag_86:\n      mload(0x40)\n      dup1\n      swap2\n      sub\n      swap1\n      log2\n        /* \"basic/Voting.sol\":1188:1378  {... */\n      pop\n        /* \"basic/Voting.sol\":1132:1378  function resetVotes(string memory name) public onlyOwner{... */\n      pop\n      jump\t// out\n        /* \"basic/Voting.sol\":637:811  function vote(string memory name) external  {... */\n    tag_43:\n        /* \"basic/Voting.sol\":715:716  0 */\n      0x00\n        /* \"basic/Voting.sol\":696:707  _voteCounts */\n      0x01\n        /* \"basic/Voting.sol\":708:712  name */\n      dup3\n        /* \"basic/Voting.sol\":696:713  _voteCounts[name] */\n      mload(0x40)\n      tag_88\n      swap2\n      swap1\n      tag_52\n      jump\t// in\n    tag_88:\n      swap1\n      dup2\n      mstore\n      0x20\n      add\n      mload(0x40)\n      dup1\n      swap2\n      sub\n      swap1\n      keccak256\n      sload\n        /* \"basic/Voting.sol\":696:716  _voteCounts[name]==0 */\n      sub\n        /* \"basic/Voting.sol\":692:761  if (_voteCounts[name]==0) {... */\n      tag_89\n      jumpi\n        /* \"basic/Voting.sol\":733:738  names */\n      0x02\n        /* \"basic/Voting.sol\":744:748  name */\n      dup2\n        /* \"basic/Voting.sol\":733:749  names.push(name) */\n      swap1\n      dup1\n      0x01\n      dup2\n      sload\n      add\n      dup1\n      dup3\n      sstore\n      dup1\n      swap2\n      pop\n      pop\n      0x01\n      swap1\n      sub\n      swap1\n      0x00\n      mstore\n      keccak256(0x00, 0x20)\n      add\n      0x00\n      swap1\n      swap2\n      swap1\n      swap2\n      swap1\n      swap2\n      pop\n      swap1\n      dup2\n      tag_91\n      swap2\n      swap1\n      tag_92\n      jump\t// in\n    tag_91:\n      pop\n        /* \"basic/Voting.sol\":692:761  if (_voteCounts[name]==0) {... */\n    tag_89:\n        /* \"basic/Voting.sol\":792:793  1 */\n      0x01\n        /* \"basic/Voting.sol\":771:782  _voteCounts */\n      dup1\n        /* \"basic/Voting.sol\":783:787  name */\n      dup3\n        /* \"basic/Voting.sol\":771:788  _voteCounts[name] */\n      mload(0x40)\n      tag_93\n      swap2\n      swap1\n      tag_52\n      jump\t// in\n    tag_93:\n      swap1\n      dup2\n      mstore\n      0x20\n      add\n      mload(0x40)\n      dup1\n      swap2\n      sub\n      swap1\n      keccak256\n      0x00\n        /* \"basic/Voting.sol\":771:793  _voteCounts[name] += 1 */\n      dup3\n      dup3\n      sload\n      tag_94\n      swap2\n      swap1\n      tag_95\n      jump\t// in\n    tag_94:\n      swap3\n      pop\n      pop\n      dup2\n      swap1\n      sstore\n      pop\n        /* \"basic/Voting.sol\":637:811  function vote(string memory name) external  {... */\n      pop\n      jump\t// out\n        /* \"@openzeppelin/contracts/access/Ownable.sol\":1796:1958  function _checkOwner() internal view virtual {... */\n    tag_46:\n        /* \"@openzeppelin/contracts/access/Ownable.sol\":1866:1878  _msgSender() */\n      tag_97\n        /* \"@openzeppelin/contracts/access/Ownable.sol\":1866:1876  _msgSender */\n      tag_98\n        /* \"@openzeppelin/contracts/access/Ownable.sol\":1866:1878  _msgSender() */\n      jump\t// in\n    tag_97:\n        /* \"@openzeppelin/contracts/access/Ownable.sol\":1855:1878  owner() != _msgSender() */\n      0xffffffffffffffffffffffffffffffffffffffff\n      and\n        /* \"@openzeppelin/contracts/access/Ownable.sol\":1855:1862  owner() */\n      tag_99\n        /* \"@openzeppelin/contracts/access/Ownable.sol\":1855:1860  owner */\n      tag_25\n        /* \"@openzeppelin/contracts/access/Ownable.sol\":1855:1862  owner() */\n      jump\t// in\n    tag_99:\n        /* \"@openzeppelin/contracts/access/Ownable.sol\":1855:1878  owner() != _msgSender() */\n      0xffffffffffffffffffffffffffffffffffffffff\n      and\n      eq\n        /* \"@openzeppelin/contracts/access/Ownable.sol\":1851:1952  if (owner() != _msgSender()) {... */\n      tag_100\n      jumpi\n        /* \"@openzeppelin/contracts/access/Ownable.sol\":1928:1940  _msgSender() */\n      tag_101\n        /* \"@openzeppelin/contracts/access/Ownable.sol\":1928:1938  _msgSender */\n      tag_98\n        /* \"@openzeppelin/contracts/access/Ownable.sol\":1928:1940  _msgSender() */\n      jump\t// in\n    tag_101:\n        /* \"@openzeppelin/contracts/access/Ownable.sol\":1901:1941  OwnableUnauthorizedAccount(_msgSender()) */\n      mload(0x40)\n      0x118cdaa700000000000000000000000000000000000000000000000000000000\n      dup2\n      mstore\n      0x04\n      add\n      tag_102\n      swap2\n      swap1\n      tag_27\n      jump\t// in\n    tag_102:\n      mload(0x40)\n      dup1\n      swap2\n      sub\n      swap1\n      revert\n        /* \"@openzeppelin/contracts/access/Ownable.sol\":1851:1952  if (owner() != _msgSender()) {... */\n    tag_100:\n        /* \"@openzeppelin/contracts/access/Ownable.sol\":1796:1958  function _checkOwner() internal view virtual {... */\n      jump\t// out\n        /* \"@openzeppelin/contracts/access/Ownable.sol\":2912:3099  function _transferOwnership(address newOwner) internal virtual {... */\n    tag_49:\n        /* \"@openzeppelin/contracts/access/Ownable.sol\":2985:3001  address oldOwner */\n      0x00\n        /* \"@openzeppelin/contracts/access/Ownable.sol\":3004:3010  _owner */\n      0x00\n      0x00\n      swap1\n      sload\n      swap1\n      0x0100\n      exp\n      swap1\n      div\n      0xffffffffffffffffffffffffffffffffffffffff\n      and\n        /* \"@openzeppelin/contracts/access/Ownable.sol\":2985:3010  address oldOwner = _owner */\n      swap1\n      pop\n        /* \"@openzeppelin/contracts/access/Ownable.sol\":3029:3037  newOwner */\n      dup2\n        /* \"@openzeppelin/contracts/access/Ownable.sol\":3020:3026  _owner */\n      0x00\n      0x00\n        /* \"@openzeppelin/contracts/access/Ownable.sol\":3020:3037  _owner = newOwner */\n      0x0100\n      exp\n      dup2\n      sload\n      dup2\n      0xffffffffffffffffffffffffffffffffffffffff\n      mul\n      not\n      and\n      swap1\n      dup4\n      0xffffffffffffffffffffffffffffffffffffffff\n      and\n      mul\n      or\n      swap1\n      sstore\n      pop\n        /* \"@openzeppelin/contracts/access/Ownable.sol\":3083:3091  newOwner */\n      dup2\n        /* \"@openzeppelin/contracts/access/Ownable.sol\":3052:3092  OwnershipTransferred(oldOwner, newOwner) */\n      0xffffffffffffffffffffffffffffffffffffffff\n      and\n        /* \"@openzeppelin/contracts/access/Ownable.sol\":3073:3081  oldOwner */\n      dup2\n        /* \"@openzeppelin/contracts/access/Ownable.sol\":3052:3092  OwnershipTransferred(oldOwner, newOwner) */\n      0xffffffffffffffffffffffffffffffffffffffff\n      and\n      0x8be0079c531659141344cd1fd0a4f28419497f9722a3daafe3b4186f6b6457e0\n      mload(0x40)\n      mload(0x40)\n      dup1\n      swap2\n      sub\n      swap1\n      log3\n        /* \"@openzeppelin/contracts/access/Ownable.sol\":2975:3099  {... */\n      pop\n        /* \"@openzeppelin/contracts/access/Ownable.sol\":2912:3099  function _transferOwnership(address newOwner) internal virtual {... */\n      pop\n      jump\t// out\n        /* \"@openzeppelin/contracts/utils/Context.sol\":656:752  function _msgSender() internal view virtual returns (address) {... */\n    tag_98:\n        /* \"@openzeppelin/contracts/utils/Context.sol\":709:716  address */\n      0x00\n        /* \"@openzeppelin/contracts/utils/Context.sol\":735:745  msg.sender */\n      caller\n        /* \"@openzeppelin/contracts/utils/Context.sol\":728:745  return msg.sender */\n      swap1\n      pop\n        /* \"@openzeppelin/contracts/utils/Context.sol\":656:752  function _msgSender() internal view virtual returns (address) {... */\n      swap1\n      jump\t// out\n        /* \"#utility.yul\":7:82   */\n    tag_105:\n        /* \"#utility.yul\":40:46   */\n      0x00\n        /* \"#utility.yul\":73:75   */\n      0x40\n        /* \"#utility.yul\":67:76   */\n      mload\n        /* \"#utility.yul\":57:76   */\n      swap1\n      pop\n        /* \"#utility.yul\":7:82   */\n      swap1\n      jump\t// out\n        /* \"#utility.yul\":88:205   */\n    tag_106:\n        /* \"#utility.yul\":197:198   */\n      0x00\n        /* \"#utility.yul\":194:195   */\n      0x00\n        /* \"#utility.yul\":187:199   */\n      revert\n        /* \"#utility.yul\":211:328   */\n    tag_107:\n        /* \"#utility.yul\":320:321   */\n      0x00\n        /* \"#utility.yul\":317:318   */\n      0x00\n        /* \"#utility.yul\":310:322   */\n      revert\n        /* \"#utility.yul\":334:451   */\n    tag_108:\n        /* \"#utility.yul\":443:444   */\n      0x00\n        /* \"#utility.yul\":440:441   */\n      0x00\n        /* \"#utility.yul\":433:445   */\n      revert\n        /* \"#utility.yul\":457:574   */\n    tag_109:\n        /* \"#utility.yul\":566:567   */\n      0x00\n        /* \"#utility.yul\":563:564   */\n      0x00\n        /* \"#utility.yul\":556:568   */\n      revert\n        /* \"#utility.yul\":580:682   */\n    tag_110:\n        /* \"#utility.yul\":621:627   */\n      0x00\n        /* \"#utility.yul\":672:674   */\n      0x1f\n        /* \"#utility.yul\":668:675   */\n      not\n        /* \"#utility.yul\":663:665   */\n      0x1f\n        /* \"#utility.yul\":656:661   */\n      dup4\n        /* \"#utility.yul\":652:666   */\n      add\n        /* \"#utility.yul\":648:676   */\n      and\n        /* \"#utility.yul\":638:676   */\n      swap1\n      pop\n        /* \"#utility.yul\":580:682   */\n      swap2\n      swap1\n      pop\n      jump\t// out\n        /* \"#utility.yul\":688:868   */\n    tag_111:\n        /* \"#utility.yul\":736:813   */\n      0x4e487b7100000000000000000000000000000000000000000000000000000000\n        /* \"#utility.yul\":733:734   */\n      0x00\n        /* \"#utility.yul\":726:814   */\n      mstore\n        /* \"#utility.yul\":833:837   */\n      0x41\n        /* \"#utility.yul\":830:831   */\n      0x04\n        /* \"#utility.yul\":823:838   */\n      mstore\n        /* \"#utility.yul\":857:861   */\n      0x24\n        /* \"#utility.yul\":854:855   */\n      0x00\n        /* \"#utility.yul\":847:862   */\n      revert\n        /* \"#utility.yul\":874:1155   */\n    tag_112:\n        /* \"#utility.yul\":957:984   */\n      tag_158\n        /* \"#utility.yul\":979:983   */\n      dup3\n        /* \"#utility.yul\":957:984   */\n      tag_110\n      jump\t// in\n    tag_158:\n        /* \"#utility.yul\":949:955   */\n      dup2\n        /* \"#utility.yul\":945:985   */\n      add\n        /* \"#utility.yul\":1087:1093   */\n      dup2\n        /* \"#utility.yul\":1075:1085   */\n      dup2\n        /* \"#utility.yul\":1072:1094   */\n      lt\n        /* \"#utility.yul\":1051:1069   */\n      0xffffffffffffffff\n        /* \"#utility.yul\":1039:1049   */\n      dup3\n        /* \"#utility.yul\":1036:1070   */\n      gt\n        /* \"#utility.yul\":1033:1095   */\n      or\n        /* \"#utility.yul\":1030:1118   */\n      iszero\n      tag_159\n      jumpi\n        /* \"#utility.yul\":1098:1116   */\n      tag_160\n      tag_111\n      jump\t// in\n    tag_160:\n        /* \"#utility.yul\":1030:1118   */\n    tag_159:\n        /* \"#utility.yul\":1138:1148   */\n      dup1\n        /* \"#utility.yul\":1134:1136   */\n      0x40\n        /* \"#utility.yul\":1127:1149   */\n      mstore\n        /* \"#utility.yul\":917:1155   */\n      pop\n        /* \"#utility.yul\":874:1155   */\n      pop\n      pop\n      jump\t// out\n        /* \"#utility.yul\":1161:1290   */\n    tag_113:\n        /* \"#utility.yul\":1195:1201   */\n      0x00\n        /* \"#utility.yul\":1222:1242   */\n      tag_162\n      tag_105\n      jump\t// in\n    tag_162:\n        /* \"#utility.yul\":1212:1242   */\n      swap1\n      pop\n        /* \"#utility.yul\":1251:1284   */\n      tag_163\n        /* \"#utility.yul\":1279:1283   */\n      dup3\n        /* \"#utility.yul\":1271:1277   */\n      dup3\n        /* \"#utility.yul\":1251:1284   */\n      tag_112\n      jump\t// in\n    tag_163:\n        /* \"#utility.yul\":1161:1290   */\n      swap2\n      swap1\n      pop\n      jump\t// out\n        /* \"#utility.yul\":1296:1604   */\n    tag_114:\n        /* \"#utility.yul\":1358:1362   */\n      0x00\n        /* \"#utility.yul\":1448:1466   */\n      0xffffffffffffffff\n        /* \"#utility.yul\":1440:1446   */\n      dup3\n        /* \"#utility.yul\":1437:1467   */\n      gt\n        /* \"#utility.yul\":1434:1490   */\n      iszero\n      tag_165\n      jumpi\n        /* \"#utility.yul\":1470:1488   */\n      tag_166\n      tag_111\n      jump\t// in\n    tag_166:\n        /* \"#utility.yul\":1434:1490   */\n    tag_165:\n        /* \"#utility.yul\":1508:1537   */\n      tag_167\n        /* \"#utility.yul\":1530:1536   */\n      dup3\n        /* \"#utility.yul\":1508:1537   */\n      tag_110\n      jump\t// in\n    tag_167:\n        /* \"#utility.yul\":1500:1537   */\n      swap1\n      pop\n        /* \"#utility.yul\":1592:1596   */\n      0x20\n        /* \"#utility.yul\":1586:1590   */\n      dup2\n        /* \"#utility.yul\":1582:1597   */\n      add\n        /* \"#utility.yul\":1574:1597   */\n      swap1\n      pop\n        /* \"#utility.yul\":1296:1604   */\n      swap2\n      swap1\n      pop\n      jump\t// out\n        /* \"#utility.yul\":1610:1758   */\n    tag_115:\n        /* \"#utility.yul\":1708:1714   */\n      dup3\n        /* \"#utility.yul\":1703:1706   */\n      dup2\n        /* \"#utility.yul\":1698:1701   */\n      dup4\n        /* \"#utility.yul\":1685:1715   */\n      calldatacopy\n        /* \"#utility.yul\":1749:1750   */\n      0x00\n        /* \"#utility.yul\":1740:1746   */\n      dup4\n        /* \"#utility.yul\":1735:1738   */\n      dup4\n        /* \"#utility.yul\":1731:1747   */\n      add\n        /* \"#utility.yul\":1724:1751   */\n      mstore\n        /* \"#utility.yul\":1610:1758   */\n      pop\n      pop\n      pop\n      jump\t// out\n        /* \"#utility.yul\":1764:2189   */\n    tag_116:\n        /* \"#utility.yul\":1842:1847   */\n      0x00\n        /* \"#utility.yul\":1867:1933   */\n      tag_170\n        /* \"#utility.yul\":1883:1932   */\n      tag_171\n        /* \"#utility.yul\":1925:1931   */\n      dup5\n        /* \"#utility.yul\":1883:1932   */\n      tag_114\n      jump\t// in\n    tag_171:\n        /* \"#utility.yul\":1867:1933   */\n      tag_113\n      jump\t// in\n    tag_170:\n        /* \"#utility.yul\":1858:1933   */\n      swap1\n      pop\n        /* \"#utility.yul\":1956:1962   */\n      dup3\n        /* \"#utility.yul\":1949:1954   */\n      dup2\n        /* \"#utility.yul\":1942:1963   */\n      mstore\n        /* \"#utility.yul\":1994:1998   */\n      0x20\n        /* \"#utility.yul\":1987:1992   */\n      dup2\n        /* \"#utility.yul\":1983:1999   */\n      add\n        /* \"#utility.yul\":2032:2035   */\n      dup5\n        /* \"#utility.yul\":2023:2029   */\n      dup5\n        /* \"#utility.yul\":2018:2021   */\n      dup5\n        /* \"#utility.yul\":2014:2030   */\n      add\n        /* \"#utility.yul\":2011:2036   */\n      gt\n        /* \"#utility.yul\":2008:2120   */\n      iszero\n      tag_172\n      jumpi\n        /* \"#utility.yul\":2039:2118   */\n      tag_173\n      tag_109\n      jump\t// in\n    tag_173:\n        /* \"#utility.yul\":2008:2120   */\n    tag_172:\n        /* \"#utility.yul\":2129:2183   */\n      tag_174\n        /* \"#utility.yul\":2176:2182   */\n      dup5\n        /* \"#utility.yul\":2171:2174   */\n      dup3\n        /* \"#utility.yul\":2166:2169   */\n      dup6\n        /* \"#utility.yul\":2129:2183   */\n      tag_115\n      jump\t// in\n    tag_174:\n        /* \"#utility.yul\":1848:2189   */\n      pop\n        /* \"#utility.yul\":1764:2189   */\n      swap4\n      swap3\n      pop\n      pop\n      pop\n      jump\t// out\n        /* \"#utility.yul\":2209:2549   */\n    tag_117:\n        /* \"#utility.yul\":2265:2270   */\n      0x00\n        /* \"#utility.yul\":2314:2317   */\n      dup3\n        /* \"#utility.yul\":2307:2311   */\n      0x1f\n        /* \"#utility.yul\":2299:2305   */\n      dup4\n        /* \"#utility.yul\":2295:2312   */\n      add\n        /* \"#utility.yul\":2291:2318   */\n      slt\n        /* \"#utility.yul\":2281:2403   */\n      tag_176\n      jumpi\n        /* \"#utility.yul\":2322:2401   */\n      tag_177\n      tag_108\n      jump\t// in\n    tag_177:\n        /* \"#utility.yul\":2281:2403   */\n    tag_176:\n        /* \"#utility.yul\":2439:2445   */\n      dup2\n        /* \"#utility.yul\":2426:2446   */\n      calldataload\n        /* \"#utility.yul\":2464:2543   */\n      tag_178\n        /* \"#utility.yul\":2539:2542   */\n      dup5\n        /* \"#utility.yul\":2531:2537   */\n      dup3\n        /* \"#utility.yul\":2524:2528   */\n      0x20\n        /* \"#utility.yul\":2516:2522   */\n      dup7\n        /* \"#utility.yul\":2512:2529   */\n      add\n        /* \"#utility.yul\":2464:2543   */\n      tag_116\n      jump\t// in\n    tag_178:\n        /* \"#utility.yul\":2455:2543   */\n      swap2\n      pop\n        /* \"#utility.yul\":2271:2549   */\n      pop\n        /* \"#utility.yul\":2209:2549   */\n      swap3\n      swap2\n      pop\n      pop\n      jump\t// out\n        /* \"#utility.yul\":2555:3064   */\n    tag_19:\n        /* \"#utility.yul\":2624:2630   */\n      0x00\n        /* \"#utility.yul\":2673:2675   */\n      0x20\n        /* \"#utility.yul\":2661:2670   */\n      dup3\n        /* \"#utility.yul\":2652:2659   */\n      dup5\n        /* \"#utility.yul\":2648:2671   */\n      sub\n        /* \"#utility.yul\":2644:2676   */\n      slt\n        /* \"#utility.yul\":2641:2760   */\n      iszero\n      tag_180\n      jumpi\n        /* \"#utility.yul\":2679:2758   */\n      tag_181\n      tag_106\n      jump\t// in\n    tag_181:\n        /* \"#utility.yul\":2641:2760   */\n    tag_180:\n        /* \"#utility.yul\":2827:2828   */\n      0x00\n        /* \"#utility.yul\":2816:2825   */\n      dup3\n        /* \"#utility.yul\":2812:2829   */\n      add\n        /* \"#utility.yul\":2799:2830   */\n      calldataload\n        /* \"#utility.yul\":2857:2875   */\n      0xffffffffffffffff\n        /* \"#utility.yul\":2849:2855   */\n      dup2\n        /* \"#utility.yul\":2846:2876   */\n      gt\n        /* \"#utility.yul\":2843:2960   */\n      iszero\n      tag_182\n      jumpi\n        /* \"#utility.yul\":2879:2958   */\n      tag_183\n      tag_107\n      jump\t// in\n    tag_183:\n        /* \"#utility.yul\":2843:2960   */\n    tag_182:\n        /* \"#utility.yul\":2984:3047   */\n      tag_184\n        /* \"#utility.yul\":3039:3046   */\n      dup5\n        /* \"#utility.yul\":3030:3036   */\n      dup3\n        /* \"#utility.yul\":3019:3028   */\n      dup6\n        /* \"#utility.yul\":3015:3037   */\n      add\n        /* \"#utility.yul\":2984:3047   */\n      tag_117\n      jump\t// in\n    tag_184:\n        /* \"#utility.yul\":2974:3047   */\n      swap2\n      pop\n        /* \"#utility.yul\":2770:3057   */\n      pop\n        /* \"#utility.yul\":2555:3064   */\n      swap3\n      swap2\n      pop\n      pop\n      jump\t// out\n        /* \"#utility.yul\":3070:3147   */\n    tag_118:\n        /* \"#utility.yul\":3107:3114   */\n      0x00\n        /* \"#utility.yul\":3136:3141   */\n      dup2\n        /* \"#utility.yul\":3125:3141   */\n      swap1\n      pop\n        /* \"#utility.yul\":3070:3147   */\n      swap2\n      swap1\n      pop\n      jump\t// out\n        /* \"#utility.yul\":3153:3271   */\n    tag_119:\n        /* \"#utility.yul\":3240:3264   */\n      tag_187\n        /* \"#utility.yul\":3258:3263   */\n      dup2\n        /* \"#utility.yul\":3240:3264   */\n      tag_118\n      jump\t// in\n    tag_187:\n        /* \"#utility.yul\":3235:3238   */\n      dup3\n        /* \"#utility.yul\":3228:3265   */\n      mstore\n        /* \"#utility.yul\":3153:3271   */\n      pop\n      pop\n      jump\t// out\n        /* \"#utility.yul\":3277:3499   */\n    tag_22:\n        /* \"#utility.yul\":3370:3374   */\n      0x00\n        /* \"#utility.yul\":3408:3410   */\n      0x20\n        /* \"#utility.yul\":3397:3406   */\n      dup3\n        /* \"#utility.yul\":3393:3411   */\n      add\n        /* \"#utility.yul\":3385:3411   */\n      swap1\n      pop\n        /* \"#utility.yul\":3421:3492   */\n      tag_189\n        /* \"#utility.yul\":3489:3490   */\n      0x00\n        /* \"#utility.yul\":3478:3487   */\n      dup4\n        /* \"#utility.yul\":3474:3491   */\n      add\n        /* \"#utility.yul\":3465:3471   */\n      dup5\n        /* \"#utility.yul\":3421:3492   */\n      tag_119\n      jump\t// in\n    tag_189:\n        /* \"#utility.yul\":3277:3499   */\n      swap3\n      swap2\n      pop\n      pop\n      jump\t// out\n        /* \"#utility.yul\":3505:3631   */\n    tag_120:\n        /* \"#utility.yul\":3542:3549   */\n      0x00\n        /* \"#utility.yul\":3582:3624   */\n      0xffffffffffffffffffffffffffffffffffffffff\n        /* \"#utility.yul\":3575:3580   */\n      dup3\n        /* \"#utility.yul\":3571:3625   */\n      and\n        /* \"#utility.yul\":3560:3625   */\n      swap1\n      pop\n        /* \"#utility.yul\":3505:3631   */\n      swap2\n      swap1\n      pop\n      jump\t// out\n        /* \"#utility.yul\":3637:3733   */\n    tag_121:\n        /* \"#utility.yul\":3674:3681   */\n      0x00\n        /* \"#utility.yul\":3703:3727   */\n      tag_192\n        /* \"#utility.yul\":3721:3726   */\n      dup3\n        /* \"#utility.yul\":3703:3727   */\n      tag_120\n      jump\t// in\n    tag_192:\n        /* \"#utility.yul\":3692:3727   */\n      swap1\n      pop\n        /* \"#utility.yul\":3637:3733   */\n      swap2\n      swap1\n      pop\n      jump\t// out\n        /* \"#utility.yul\":3739:3857   */\n    tag_122:\n        /* \"#utility.yul\":3826:3850   */\n      tag_194\n        /* \"#utility.yul\":3844:3849   */\n      dup2\n        /* \"#utility.yul\":3826:3850   */\n      tag_121\n      jump\t// in\n    tag_194:\n        /* \"#utility.yul\":3821:3824   */\n      dup3\n        /* \"#utility.yul\":3814:3851   */\n      mstore\n        /* \"#utility.yul\":3739:3857   */\n      pop\n      pop\n      jump\t// out\n        /* \"#utility.yul\":3863:4085   */\n    tag_27:\n        /* \"#utility.yul\":3956:3960   */\n      0x00\n        /* \"#utility.yul\":3994:3996   */\n      0x20\n        /* \"#utility.yul\":3983:3992   */\n      dup3\n        /* \"#utility.yul\":3979:3997   */\n      add\n        /* \"#utility.yul\":3971:3997   */\n      swap1\n      pop\n        /* \"#utility.yul\":4007:4078   */\n      tag_196\n        /* \"#utility.yul\":4075:4076   */\n      0x00\n        /* \"#utility.yul\":4064:4073   */\n      dup4\n        /* \"#utility.yul\":4060:4077   */\n      add\n        /* \"#utility.yul\":4051:4057   */\n      dup5\n        /* \"#utility.yul\":4007:4078   */\n      tag_122\n      jump\t// in\n    tag_196:\n        /* \"#utility.yul\":3863:4085   */\n      swap3\n      swap2\n      pop\n      pop\n      jump\t// out\n        /* \"#utility.yul\":4091:4213   */\n    tag_123:\n        /* \"#utility.yul\":4164:4188   */\n      tag_198\n        /* \"#utility.yul\":4182:4187   */\n      dup2\n        /* \"#utility.yul\":4164:4188   */\n      tag_121\n      jump\t// in\n    tag_198:\n        /* \"#utility.yul\":4157:4162   */\n      dup2\n        /* \"#utility.yul\":4154:4189   */\n      eq\n        /* \"#utility.yul\":4144:4207   */\n      tag_199\n      jumpi\n        /* \"#utility.yul\":4203:4204   */\n      0x00\n        /* \"#utility.yul\":4200:4201   */\n      0x00\n        /* \"#utility.yul\":4193:4205   */\n      revert\n        /* \"#utility.yul\":4144:4207   */\n    tag_199:\n        /* \"#utility.yul\":4091:4213   */\n      pop\n      jump\t// out\n        /* \"#utility.yul\":4219:4358   */\n    tag_124:\n        /* \"#utility.yul\":4265:4270   */\n      0x00\n        /* \"#utility.yul\":4303:4309   */\n      dup2\n        /* \"#utility.yul\":4290:4310   */\n      calldataload\n        /* \"#utility.yul\":4281:4310   */\n      swap1\n      pop\n        /* \"#utility.yul\":4319:4352   */\n      tag_201\n        /* \"#utility.yul\":4346:4351   */\n      dup2\n        /* \"#utility.yul\":4319:4352   */\n      tag_123\n      jump\t// in\n    tag_201:\n        /* \"#utility.yul\":4219:4358   */\n      swap3\n      swap2\n      pop\n      pop\n      jump\t// out\n        /* \"#utility.yul\":4364:4693   */\n    tag_34:\n        /* \"#utility.yul\":4423:4429   */\n      0x00\n        /* \"#utility.yul\":4472:4474   */\n      0x20\n        /* \"#utility.yul\":4460:4469   */\n      dup3\n        /* \"#utility.yul\":4451:4458   */\n      dup5\n        /* \"#utility.yul\":4447:4470   */\n      sub\n        /* \"#utility.yul\":4443:4475   */\n      slt\n        /* \"#utility.yul\":4440:4559   */\n      iszero\n      tag_203\n      jumpi\n        /* \"#utility.yul\":4478:4557   */\n      tag_204\n      tag_106\n      jump\t// in\n    tag_204:\n        /* \"#utility.yul\":4440:4559   */\n    tag_203:\n        /* \"#utility.yul\":4598:4599   */\n      0x00\n        /* \"#utility.yul\":4623:4676   */\n      tag_205\n        /* \"#utility.yul\":4668:4675   */\n      dup5\n        /* \"#utility.yul\":4659:4665   */\n      dup3\n        /* \"#utility.yul\":4648:4657   */\n      dup6\n        /* \"#utility.yul\":4644:4666   */\n      add\n        /* \"#utility.yul\":4623:4676   */\n      tag_124\n      jump\t// in\n    tag_205:\n        /* \"#utility.yul\":4613:4676   */\n      swap2\n      pop\n        /* \"#utility.yul\":4569:4686   */\n      pop\n        /* \"#utility.yul\":4364:4693   */\n      swap3\n      swap2\n      pop\n      pop\n      jump\t// out\n        /* \"#utility.yul\":4699:4798   */\n    tag_125:\n        /* \"#utility.yul\":4751:4757   */\n      0x00\n        /* \"#utility.yul\":4785:4790   */\n      dup2\n        /* \"#utility.yul\":4779:4791   */\n      mload\n        /* \"#utility.yul\":4769:4791   */\n      swap1\n      pop\n        /* \"#utility.yul\":4699:4798   */\n      swap2\n      swap1\n      pop\n      jump\t// out\n        /* \"#utility.yul\":4804:4952   */\n    tag_126:\n        /* \"#utility.yul\":4906:4917   */\n      0x00\n        /* \"#utility.yul\":4943:4946   */\n      dup2\n        /* \"#utility.yul\":4928:4946   */\n      swap1\n      pop\n        /* \"#utility.yul\":4804:4952   */\n      swap3\n      swap2\n      pop\n      pop\n      jump\t// out\n        /* \"#utility.yul\":4958:5097   */\n    tag_127:\n        /* \"#utility.yul\":5047:5053   */\n      dup3\n        /* \"#utility.yul\":5042:5045   */\n      dup2\n        /* \"#utility.yul\":5037:5040   */\n      dup4\n        /* \"#utility.yul\":5031:5054   */\n      mcopy\n        /* \"#utility.yul\":5088:5089   */\n      0x00\n        /* \"#utility.yul\":5079:5085   */\n      dup4\n        /* \"#utility.yul\":5074:5077   */\n      dup4\n        /* \"#utility.yul\":5070:5086   */\n      add\n        /* \"#utility.yul\":5063:5090   */\n      mstore\n        /* \"#utility.yul\":4958:5097   */\n      pop\n      pop\n      pop\n      jump\t// out\n        /* \"#utility.yul\":5103:5493   */\n    tag_128:\n        /* \"#utility.yul\":5209:5212   */\n      0x00\n        /* \"#utility.yul\":5237:5276   */\n      tag_210\n        /* \"#utility.yul\":5270:5275   */\n      dup3\n        /* \"#utility.yul\":5237:5276   */\n      tag_125\n      jump\t// in\n    tag_210:\n        /* \"#utility.yul\":5292:5381   */\n      tag_211\n        /* \"#utility.yul\":5374:5380   */\n      dup2\n        /* \"#utility.yul\":5369:5372   */\n      dup6\n        /* \"#utility.yul\":5292:5381   */\n      tag_126\n      jump\t// in\n    tag_211:\n        /* \"#utility.yul\":5285:5381   */\n      swap4\n      pop\n        /* \"#utility.yul\":5390:5455   */\n      tag_212\n        /* \"#utility.yul\":5448:5454   */\n      dup2\n        /* \"#utility.yul\":5443:5446   */\n      dup6\n        /* \"#utility.yul\":5436:5440   */\n      0x20\n        /* \"#utility.yul\":5429:5434   */\n      dup7\n        /* \"#utility.yul\":5425:5441   */\n      add\n        /* \"#utility.yul\":5390:5455   */\n      tag_127\n      jump\t// in\n    tag_212:\n        /* \"#utility.yul\":5480:5486   */\n      dup1\n        /* \"#utility.yul\":5475:5478   */\n      dup5\n        /* \"#utility.yul\":5471:5487   */\n      add\n        /* \"#utility.yul\":5464:5487   */\n      swap2\n      pop\n        /* \"#utility.yul\":5213:5493   */\n      pop\n        /* \"#utility.yul\":5103:5493   */\n      swap3\n      swap2\n      pop\n      pop\n      jump\t// out\n        /* \"#utility.yul\":5499:5774   */\n    tag_52:\n        /* \"#utility.yul\":5631:5634   */\n      0x00\n        /* \"#utility.yul\":5653:5748   */\n      tag_214\n        /* \"#utility.yul\":5744:5747   */\n      dup3\n        /* \"#utility.yul\":5735:5741   */\n      dup5\n        /* \"#utility.yul\":5653:5748   */\n      tag_128\n      jump\t// in\n    tag_214:\n        /* \"#utility.yul\":5646:5748   */\n      swap2\n      pop\n        /* \"#utility.yul\":5765:5768   */\n      dup2\n        /* \"#utility.yul\":5758:5768   */\n      swap1\n      pop\n        /* \"#utility.yul\":5499:5774   */\n      swap3\n      swap2\n      pop\n      pop\n      jump\t// out\n        /* \"#utility.yul\":5780:5960   */\n    tag_63:\n        /* \"#utility.yul\":5828:5905   */\n      0x4e487b7100000000000000000000000000000000000000000000000000000000\n        /* \"#utility.yul\":5825:5826   */\n      0x00\n        /* \"#utility.yul\":5818:5906   */\n      mstore\n        /* \"#utility.yul\":5925:5929   */\n      0x32\n        /* \"#utility.yul\":5922:5923   */\n      0x04\n        /* \"#utility.yul\":5915:5930   */\n      mstore\n        /* \"#utility.yul\":5949:5953   */\n      0x24\n        /* \"#utility.yul\":5946:5947   */\n      0x00\n        /* \"#utility.yul\":5939:5954   */\n      revert\n        /* \"#utility.yul\":5966:6146   */\n    tag_129:\n        /* \"#utility.yul\":6014:6091   */\n      0x4e487b7100000000000000000000000000000000000000000000000000000000\n        /* \"#utility.yul\":6011:6012   */\n      0x00\n        /* \"#utility.yul\":6004:6092   */\n      mstore\n        /* \"#utility.yul\":6111:6115   */\n      0x22\n        /* \"#utility.yul\":6108:6109   */\n      0x04\n        /* \"#utility.yul\":6101:6116   */\n      mstore\n        /* \"#utility.yul\":6135:6139   */\n      0x24\n        /* \"#utility.yul\":6132:6133   */\n      0x00\n        /* \"#utility.yul\":6125:6140   */\n      revert\n        /* \"#utility.yul\":6152:6472   */\n    tag_66:\n        /* \"#utility.yul\":6196:6202   */\n      0x00\n        /* \"#utility.yul\":6233:6234   */\n      0x02\n        /* \"#utility.yul\":6227:6231   */\n      dup3\n        /* \"#utility.yul\":6223:6235   */\n      div\n        /* \"#utility.yul\":6213:6235   */\n      swap1\n      pop\n        /* \"#utility.yul\":6280:6281   */\n      0x01\n        /* \"#utility.yul\":6274:6278   */\n      dup3\n        /* \"#utility.yul\":6270:6282   */\n      and\n        /* \"#utility.yul\":6301:6319   */\n      dup1\n        /* \"#utility.yul\":6291:6372   */\n      tag_218\n      jumpi\n        /* \"#utility.yul\":6357:6361   */\n      0x7f\n        /* \"#utility.yul\":6349:6355   */\n      dup3\n        /* \"#utility.yul\":6345:6362   */\n      and\n        /* \"#utility.yul\":6335:6362   */\n      swap2\n      pop\n        /* \"#utility.yul\":6291:6372   */\n    tag_218:\n        /* \"#utility.yul\":6419:6421   */\n      0x20\n        /* \"#utility.yul\":6411:6417   */\n      dup3\n        /* \"#utility.yul\":6408:6422   */\n      lt\n        /* \"#utility.yul\":6388:6406   */\n      dup2\n        /* \"#utility.yul\":6385:6423   */\n      sub\n        /* \"#utility.yul\":6382:6466   */\n      tag_219\n      jumpi\n        /* \"#utility.yul\":6438:6456   */\n      tag_220\n      tag_129\n      jump\t// in\n    tag_220:\n        /* \"#utility.yul\":6382:6466   */\n    tag_219:\n        /* \"#utility.yul\":6203:6472   */\n      pop\n        /* \"#utility.yul\":6152:6472   */\n      swap2\n      swap1\n      pop\n      jump\t// out\n        /* \"#utility.yul\":6478:6647   */\n    tag_130:\n        /* \"#utility.yul\":6562:6573   */\n      0x00\n        /* \"#utility.yul\":6596:6602   */\n      dup3\n        /* \"#utility.yul\":6591:6594   */\n      dup3\n        /* \"#utility.yul\":6584:6603   */\n      mstore\n        /* \"#utility.yul\":6636:6640   */\n      0x20\n        /* \"#utility.yul\":6631:6634   */\n      dup3\n        /* \"#utility.yul\":6627:6641   */\n      add\n        /* \"#utility.yul\":6612:6641   */\n      swap1\n      pop\n        /* \"#utility.yul\":6478:6647   */\n      swap3\n      swap2\n      pop\n      pop\n      jump\t// out\n        /* \"#utility.yul\":6653:6818   */\n    tag_131:\n        /* \"#utility.yul\":6793:6810   */\n      0x4e616d65206d75737420696e7075740000000000000000000000000000000000\n        /* \"#utility.yul\":6789:6790   */\n      0x00\n        /* \"#utility.yul\":6781:6787   */\n      dup3\n        /* \"#utility.yul\":6777:6791   */\n      add\n        /* \"#utility.yul\":6770:6811   */\n      mstore\n        /* \"#utility.yul\":6653:6818   */\n      pop\n      jump\t// out\n        /* \"#utility.yul\":6824:7190   */\n    tag_132:\n        /* \"#utility.yul\":6966:6969   */\n      0x00\n        /* \"#utility.yul\":6987:7054   */\n      tag_224\n        /* \"#utility.yul\":7051:7053   */\n      0x0f\n        /* \"#utility.yul\":7046:7049   */\n      dup4\n        /* \"#utility.yul\":6987:7054   */\n      tag_130\n      jump\t// in\n    tag_224:\n        /* \"#utility.yul\":6980:7054   */\n      swap2\n      pop\n        /* \"#utility.yul\":7063:7156   */\n      tag_225\n        /* \"#utility.yul\":7152:7155   */\n      dup3\n        /* \"#utility.yul\":7063:7156   */\n      tag_131\n      jump\t// in\n    tag_225:\n        /* \"#utility.yul\":7181:7183   */\n      0x20\n        /* \"#utility.yul\":7176:7179   */\n      dup3\n        /* \"#utility.yul\":7172:7184   */\n      add\n        /* \"#utility.yul\":7165:7184   */\n      swap1\n      pop\n        /* \"#utility.yul\":6824:7190   */\n      swap2\n      swap1\n      pop\n      jump\t// out\n        /* \"#utility.yul\":7196:7615   */\n    tag_82:\n        /* \"#utility.yul\":7362:7366   */\n      0x00\n        /* \"#utility.yul\":7400:7402   */\n      0x20\n        /* \"#utility.yul\":7389:7398   */\n      dup3\n        /* \"#utility.yul\":7385:7403   */\n      add\n        /* \"#utility.yul\":7377:7403   */\n      swap1\n      pop\n        /* \"#utility.yul\":7449:7458   */\n      dup2\n        /* \"#utility.yul\":7443:7447   */\n      dup2\n        /* \"#utility.yul\":7439:7459   */\n      sub\n        /* \"#utility.yul\":7435:7436   */\n      0x00\n        /* \"#utility.yul\":7424:7433   */\n      dup4\n        /* \"#utility.yul\":7420:7437   */\n      add\n        /* \"#utility.yul\":7413:7460   */\n      mstore\n        /* \"#utility.yul\":7477:7608   */\n      tag_227\n        /* \"#utility.yul\":7603:7607   */\n      dup2\n        /* \"#utility.yul\":7477:7608   */\n      tag_132\n      jump\t// in\n    tag_227:\n        /* \"#utility.yul\":7469:7608   */\n      swap1\n      pop\n        /* \"#utility.yul\":7196:7615   */\n      swap2\n      swap1\n      pop\n      jump\t// out\n        /* \"#utility.yul\":7621:7762   */\n    tag_133:\n        /* \"#utility.yul\":7670:7674   */\n      0x00\n        /* \"#utility.yul\":7693:7696   */\n      dup2\n        /* \"#utility.yul\":7685:7696   */\n      swap1\n      pop\n        /* \"#utility.yul\":7716:7719   */\n      dup2\n        /* \"#utility.yul\":7713:7714   */\n      0x00\n        /* \"#utility.yul\":7706:7720   */\n      mstore\n        /* \"#utility.yul\":7750:7754   */\n      0x20\n        /* \"#utility.yul\":7747:7748   */\n      0x00\n        /* \"#utility.yul\":7737:7755   */\n      keccak256\n        /* \"#utility.yul\":7729:7755   */\n      swap1\n      pop\n        /* \"#utility.yul\":7621:7762   */\n      swap2\n      swap1\n      pop\n      jump\t// out\n        /* \"#utility.yul\":7768:7861   */\n    tag_134:\n        /* \"#utility.yul\":7805:7811   */\n      0x00\n        /* \"#utility.yul\":7852:7854   */\n      0x20\n        /* \"#utility.yul\":7847:7849   */\n      0x1f\n        /* \"#utility.yul\":7840:7845   */\n      dup4\n        /* \"#utility.yul\":7836:7850   */\n      add\n        /* \"#utility.yul\":7832:7855   */\n      div\n        /* \"#utility.yul\":7822:7855   */\n      swap1\n      pop\n        /* \"#utility.yul\":7768:7861   */\n      swap2\n      swap1\n      pop\n      jump\t// out\n        /* \"#utility.yul\":7867:7974   */\n    tag_135:\n        /* \"#utility.yul\":7911:7919   */\n      0x00\n        /* \"#utility.yul\":7961:7966   */\n      dup3\n        /* \"#utility.yul\":7955:7959   */\n      dup3\n        /* \"#utility.yul\":7951:7967   */\n      shl\n        /* \"#utility.yul\":7930:7967   */\n      swap1\n      pop\n        /* \"#utility.yul\":7867:7974   */\n      swap3\n      swap2\n      pop\n      pop\n      jump\t// out\n        /* \"#utility.yul\":7980:8373   */\n    tag_136:\n        /* \"#utility.yul\":8049:8055   */\n      0x00\n        /* \"#utility.yul\":8099:8100   */\n      0x08\n        /* \"#utility.yul\":8087:8097   */\n      dup4\n        /* \"#utility.yul\":8083:8101   */\n      mul\n        /* \"#utility.yul\":8122:8219   */\n      tag_232\n        /* \"#utility.yul\":8152:8218   */\n      0xffffffffffffffffffffffffffffffffffffffffffffffffffffffffffffffff\n        /* \"#utility.yul\":8141:8150   */\n      dup3\n        /* \"#utility.yul\":8122:8219   */\n      tag_135\n      jump\t// in\n    tag_232:\n        /* \"#utility.yul\":8240:8279   */\n      tag_233\n        /* \"#utility.yul\":8270:8278   */\n      dup7\n        /* \"#utility.yul\":8259:8268   */\n      dup4\n        /* \"#utility.yul\":8240:8279   */\n      tag_135\n      jump\t// in\n    tag_233:\n        /* \"#utility.yul\":8228:8279   */\n      swap6\n      pop\n        /* \"#utility.yul\":8312:8316   */\n      dup1\n        /* \"#utility.yul\":8308:8317   */\n      not\n        /* \"#utility.yul\":8301:8306   */\n      dup5\n        /* \"#utility.yul\":8297:8318   */\n      and\n        /* \"#utility.yul\":8288:8318   */\n      swap4\n      pop\n        /* \"#utility.yul\":8361:8365   */\n      dup1\n        /* \"#utility.yul\":8351:8359   */\n      dup7\n        /* \"#utility.yul\":8347:8366   */\n      and\n        /* \"#utility.yul\":8340:8345   */\n      dup5\n        /* \"#utility.yul\":8337:8367   */\n      or\n        /* \"#utility.yul\":8327:8367   */\n      swap3\n      pop\n        /* \"#utility.yul\":8056:8373   */\n      pop\n      pop\n        /* \"#utility.yul\":7980:8373   */\n      swap4\n      swap3\n      pop\n      pop\n      pop\n      jump\t// out\n        /* \"#utility.yul\":8379:8439   */\n    tag_137:\n        /* \"#utility.yul\":8407:8410   */\n      0x00\n        /* \"#utility.yul\":8428:8433   */\n      dup2\n        /* \"#utility.yul\":8421:8433   */\n      swap1\n      pop\n        /* \"#utility.yul\":8379:8439   */\n      swap2\n      swap1\n      pop\n      jump\t// out\n        /* \"#utility.yul\":8445:8587   */\n    tag_138:\n        /* \"#utility.yul\":8495:8504   */\n      0x00\n        /* \"#utility.yul\":8528:8581   */\n      tag_236\n        /* \"#utility.yul\":8546:8580   */\n      tag_237\n        /* \"#utility.yul\":8555:8579   */\n      tag_238\n        /* \"#utility.yul\":8573:8578   */\n      dup5\n        /* \"#utility.yul\":8555:8579   */\n      tag_118\n      jump\t// in\n    tag_238:\n        /* \"#utility.yul\":8546:8580   */\n      tag_137\n      jump\t// in\n    tag_237:\n        /* \"#utility.yul\":8528:8581   */\n      tag_118\n      jump\t// in\n    tag_236:\n        /* \"#utility.yul\":8515:8581   */\n      swap1\n      pop\n        /* \"#utility.yul\":8445:8587   */\n      swap2\n      swap1\n      pop\n      jump\t// out\n        /* \"#utility.yul\":8593:8668   */\n    tag_139:\n        /* \"#utility.yul\":8636:8639   */\n      0x00\n        /* \"#utility.yul\":8657:8662   */\n      dup2\n        /* \"#utility.yul\":8650:8662   */\n      swap1\n      pop\n        /* \"#utility.yul\":8593:8668   */\n      swap2\n      swap1\n      pop\n      jump\t// out\n        /* \"#utility.yul\":8674:8943   */\n    tag_140:\n        /* \"#utility.yul\":8784:8823   */\n      tag_241\n        /* \"#utility.yul\":8815:8822   */\n      dup4\n        /* \"#utility.yul\":8784:8823   */\n      tag_138\n      jump\t// in\n    tag_241:\n        /* \"#utility.yul\":8845:8936   */\n      tag_242\n        /* \"#utility.yul\":8894:8935   */\n      tag_243\n        /* \"#utility.yul\":8918:8934   */\n      dup3\n        /* \"#utility.yul\":8894:8935   */\n      tag_139\n      jump\t// in\n    tag_243:\n        /* \"#utility.yul\":8886:8892   */\n      dup5\n        /* \"#utility.yul\":8879:8883   */\n      dup5\n        /* \"#utility.yul\":8873:8884   */\n      sload\n        /* \"#utility.yul\":8845:8936   */\n      tag_136\n      jump\t// in\n    tag_242:\n        /* \"#utility.yul\":8839:8843   */\n      dup3\n        /* \"#utility.yul\":8832:8937   */\n      sstore\n        /* \"#utility.yul\":8750:8943   */\n      pop\n        /* \"#utility.yul\":8674:8943   */\n      pop\n      pop\n      pop\n      jump\t// out\n        /* \"#utility.yul\":8949:9022   */\n    tag_141:\n        /* \"#utility.yul\":8994:8997   */\n      0x00\n        /* \"#utility.yul\":9015:9016   */\n      0x00\n        /* \"#utility.yul\":9008:9016   */\n      swap1\n      pop\n        /* \"#utility.yul\":8949:9022   */\n      swap1\n      jump\t// out\n        /* \"#utility.yul\":9028:9217   */\n    tag_142:\n        /* \"#utility.yul\":9105:9137   */\n      tag_246\n      tag_141\n      jump\t// in\n    tag_246:\n        /* \"#utility.yul\":9146:9211   */\n      tag_247\n        /* \"#utility.yul\":9204:9210   */\n      dup2\n        /* \"#utility.yul\":9196:9202   */\n      dup5\n        /* \"#utility.yul\":9190:9194   */\n      dup5\n        /* \"#utility.yul\":9146:9211   */\n      tag_140\n      jump\t// in\n    tag_247:\n        /* \"#utility.yul\":9081:9217   */\n      pop\n        /* \"#utility.yul\":9028:9217   */\n      pop\n      pop\n      jump\t// out\n        /* \"#utility.yul\":9223:9409   */\n    tag_143:\n        /* \"#utility.yul\":9283:9403   */\n    tag_249:\n        /* \"#utility.yul\":9300:9303   */\n      dup2\n        /* \"#utility.yul\":9293:9298   */\n      dup2\n        /* \"#utility.yul\":9290:9304   */\n      lt\n        /* \"#utility.yul\":9283:9403   */\n      iszero\n      tag_251\n      jumpi\n        /* \"#utility.yul\":9354:9393   */\n      tag_252\n        /* \"#utility.yul\":9391:9392   */\n      0x00\n        /* \"#utility.yul\":9384:9389   */\n      dup3\n        /* \"#utility.yul\":9354:9393   */\n      tag_142\n      jump\t// in\n    tag_252:\n        /* \"#utility.yul\":9327:9328   */\n      0x01\n        /* \"#utility.yul\":9320:9325   */\n      dup2\n        /* \"#utility.yul\":9316:9329   */\n      add\n        /* \"#utility.yul\":9307:9329   */\n      swap1\n      pop\n        /* \"#utility.yul\":9283:9403   */\n      jump(tag_249)\n    tag_251:\n        /* \"#utility.yul\":9223:9409   */\n      pop\n      pop\n      jump\t// out\n        /* \"#utility.yul\":9415:9958   */\n    tag_144:\n        /* \"#utility.yul\":9516:9518   */\n      0x1f\n        /* \"#utility.yul\":9511:9514   */\n      dup3\n        /* \"#utility.yul\":9508:9519   */\n      gt\n        /* \"#utility.yul\":9505:9951   */\n      iszero\n      tag_254\n      jumpi\n        /* \"#utility.yul\":9550:9588   */\n      tag_255\n        /* \"#utility.yul\":9582:9587   */\n      dup2\n        /* \"#utility.yul\":9550:9588   */\n      tag_133\n      jump\t// in\n    tag_255:\n        /* \"#utility.yul\":9634:9663   */\n      tag_256\n        /* \"#utility.yul\":9652:9662   */\n      dup5\n        /* \"#utility.yul\":9634:9663   */\n      tag_134\n      jump\t// in\n    tag_256:\n        /* \"#utility.yul\":9624:9632   */\n      dup2\n        /* \"#utility.yul\":9620:9664   */\n      add\n        /* \"#utility.yul\":9817:9819   */\n      0x20\n        /* \"#utility.yul\":9805:9815   */\n      dup6\n        /* \"#utility.yul\":9802:9820   */\n      lt\n        /* \"#utility.yul\":9799:9848   */\n      iszero\n      tag_257\n      jumpi\n        /* \"#utility.yul\":9838:9846   */\n      dup2\n        /* \"#utility.yul\":9823:9846   */\n      swap1\n      pop\n        /* \"#utility.yul\":9799:9848   */\n    tag_257:\n        /* \"#utility.yul\":9861:9941   */\n      tag_258\n        /* \"#utility.yul\":9917:9939   */\n      tag_259\n        /* \"#utility.yul\":9935:9938   */\n      dup6\n        /* \"#utility.yul\":9917:9939   */\n      tag_134\n      jump\t// in\n    tag_259:\n        /* \"#utility.yul\":9907:9915   */\n      dup4\n        /* \"#utility.yul\":9903:9940   */\n      add\n        /* \"#utility.yul\":9890:9901   */\n      dup3\n        /* \"#utility.yul\":9861:9941   */\n      tag_143\n      jump\t// in\n    tag_258:\n        /* \"#utility.yul\":9520:9951   */\n      pop\n      pop\n        /* \"#utility.yul\":9505:9951   */\n    tag_254:\n        /* \"#utility.yul\":9415:9958   */\n      pop\n      pop\n      pop\n      jump\t// out\n        /* \"#utility.yul\":9964:10081   */\n    tag_145:\n        /* \"#utility.yul\":10018:10026   */\n      0x00\n        /* \"#utility.yul\":10068:10073   */\n      dup3\n        /* \"#utility.yul\":10062:10066   */\n      dup3\n        /* \"#utility.yul\":10058:10074   */\n      shr\n        /* \"#utility.yul\":10037:10074   */\n      swap1\n      pop\n        /* \"#utility.yul\":9964:10081   */\n      swap3\n      swap2\n      pop\n      pop\n      jump\t// out\n        /* \"#utility.yul\":10087:10256   */\n    tag_146:\n        /* \"#utility.yul\":10131:10137   */\n      0x00\n        /* \"#utility.yul\":10164:10215   */\n      tag_262\n        /* \"#utility.yul\":10212:10213   */\n      0x00\n        /* \"#utility.yul\":10208:10214   */\n      not\n        /* \"#utility.yul\":10200:10205   */\n      dup5\n        /* \"#utility.yul\":10197:10198   */\n      0x08\n        /* \"#utility.yul\":10193:10206   */\n      mul\n        /* \"#utility.yul\":10164:10215   */\n      tag_145\n      jump\t// in\n    tag_262:\n        /* \"#utility.yul\":10160:10216   */\n      not\n        /* \"#utility.yul\":10245:10249   */\n      dup1\n        /* \"#utility.yul\":10239:10243   */\n      dup4\n        /* \"#utility.yul\":10235:10250   */\n      and\n        /* \"#utility.yul\":10225:10250   */\n      swap2\n      pop\n        /* \"#utility.yul\":10138:10256   */\n      pop\n        /* \"#utility.yul\":10087:10256   */\n      swap3\n      swap2\n      pop\n      pop\n      jump\t// out\n        /* \"#utility.yul\":10261:10556   */\n    tag_147:\n        /* \"#utility.yul\":10337:10341   */\n      0x00\n        /* \"#utility.yul\":10483:10512   */\n      tag_264\n        /* \"#utility.yul\":10508:10511   */\n      dup4\n        /* \"#utility.yul\":10502:10506   */\n      dup4\n        /* \"#utility.yul\":10483:10512   */\n      tag_146\n      jump\t// in\n    tag_264:\n        /* \"#utility.yul\":10475:10512   */\n      swap2\n      pop\n        /* \"#utility.yul\":10545:10548   */\n      dup3\n        /* \"#utility.yul\":10542:10543   */\n      0x02\n        /* \"#utility.yul\":10538:10549   */\n      mul\n        /* \"#utility.yul\":10532:10536   */\n      dup3\n        /* \"#utility.yul\":10529:10550   */\n      or\n        /* \"#utility.yul\":10521:10550   */\n      swap1\n      pop\n        /* \"#utility.yul\":10261:10556   */\n      swap3\n      swap2\n      pop\n      pop\n      jump\t// out\n        /* \"#utility.yul\":10561:11956   */\n    tag_92:\n        /* \"#utility.yul\":10678:10715   */\n      tag_266\n        /* \"#utility.yul\":10711:10714   */\n      dup3\n        /* \"#utility.yul\":10678:10715   */\n      tag_125\n      jump\t// in\n    tag_266:\n        /* \"#utility.yul\":10780:10798   */\n      0xffffffffffffffff\n        /* \"#utility.yul\":10772:10778   */\n      dup2\n        /* \"#utility.yul\":10769:10799   */\n      gt\n        /* \"#utility.yul\":10766:10822   */\n      iszero\n      tag_267\n      jumpi\n        /* \"#utility.yul\":10802:10820   */\n      tag_268\n      tag_111\n      jump\t// in\n    tag_268:\n        /* \"#utility.yul\":10766:10822   */\n    tag_267:\n        /* \"#utility.yul\":10846:10884   */\n      tag_269\n        /* \"#utility.yul\":10878:10882   */\n      dup3\n        /* \"#utility.yul\":10872:10883   */\n      sload\n        /* \"#utility.yul\":10846:10884   */\n      tag_66\n      jump\t// in\n    tag_269:\n        /* \"#utility.yul\":10931:10998   */\n      tag_270\n        /* \"#utility.yul\":10991:10997   */\n      dup3\n        /* \"#utility.yul\":10983:10989   */\n      dup3\n        /* \"#utility.yul\":10977:10981   */\n      dup6\n        /* \"#utility.yul\":10931:10998   */\n      tag_144\n      jump\t// in\n    tag_270:\n        /* \"#utility.yul\":11025:11026   */\n      0x00\n        /* \"#utility.yul\":11049:11053   */\n      0x20\n        /* \"#utility.yul\":11036:11053   */\n      swap1\n      pop\n        /* \"#utility.yul\":11081:11083   */\n      0x1f\n        /* \"#utility.yul\":11073:11079   */\n      dup4\n        /* \"#utility.yul\":11070:11084   */\n      gt\n        /* \"#utility.yul\":11098:11099   */\n      0x01\n        /* \"#utility.yul\":11093:11711   */\n      dup2\n      eq\n      tag_272\n      jumpi\n        /* \"#utility.yul\":11755:11756   */\n      0x00\n        /* \"#utility.yul\":11772:11778   */\n      dup5\n        /* \"#utility.yul\":11769:11846   */\n      iszero\n      tag_273\n      jumpi\n        /* \"#utility.yul\":11821:11830   */\n      dup3\n        /* \"#utility.yul\":11816:11819   */\n      dup8\n        /* \"#utility.yul\":11812:11831   */\n      add\n        /* \"#utility.yul\":11806:11832   */\n      mload\n        /* \"#utility.yul\":11797:11832   */\n      swap1\n      pop\n        /* \"#utility.yul\":11769:11846   */\n    tag_273:\n        /* \"#utility.yul\":11872:11939   */\n      tag_274\n        /* \"#utility.yul\":11932:11938   */\n      dup6\n        /* \"#utility.yul\":11925:11930   */\n      dup3\n        /* \"#utility.yul\":11872:11939   */\n      tag_147\n      jump\t// in\n    tag_274:\n        /* \"#utility.yul\":11866:11870   */\n      dup7\n        /* \"#utility.yul\":11859:11940   */\n      sstore\n        /* \"#utility.yul\":11728:11950   */\n      pop\n        /* \"#utility.yul\":11063:11950   */\n      jump(tag_271)\n        /* \"#utility.yul\":11093:11711   */\n    tag_272:\n        /* \"#utility.yul\":11145:11149   */\n      0x1f\n        /* \"#utility.yul\":11141:11150   */\n      not\n        /* \"#utility.yul\":11133:11139   */\n      dup5\n        /* \"#utility.yul\":11129:11151   */\n      and\n        /* \"#utility.yul\":11179:11216   */\n      tag_275\n        /* \"#utility.yul\":11211:11215   */\n      dup7\n        /* \"#utility.yul\":11179:11216   */\n      tag_133\n      jump\t// in\n    tag_275:\n        /* \"#utility.yul\":11238:11239   */\n      0x00\n        /* \"#utility.yul\":11252:11460   */\n    tag_276:\n        /* \"#utility.yul\":11266:11273   */\n      dup3\n        /* \"#utility.yul\":11263:11264   */\n      dup2\n        /* \"#utility.yul\":11260:11274   */\n      lt\n        /* \"#utility.yul\":11252:11460   */\n      iszero\n      tag_278\n      jumpi\n        /* \"#utility.yul\":11345:11354   */\n      dup5\n        /* \"#utility.yul\":11340:11343   */\n      dup10\n        /* \"#utility.yul\":11336:11355   */\n      add\n        /* \"#utility.yul\":11330:11356   */\n      mload\n        /* \"#utility.yul\":11322:11328   */\n      dup3\n        /* \"#utility.yul\":11315:11357   */\n      sstore\n        /* \"#utility.yul\":11396:11397   */\n      0x01\n        /* \"#utility.yul\":11388:11394   */\n      dup3\n        /* \"#utility.yul\":11384:11398   */\n      add\n        /* \"#utility.yul\":11374:11398   */\n      swap2\n      pop\n        /* \"#utility.yul\":11443:11445   */\n      0x20\n        /* \"#utility.yul\":11432:11441   */\n      dup6\n        /* \"#utility.yul\":11428:11446   */\n      add\n        /* \"#utility.yul\":11415:11446   */\n      swap5\n      pop\n        /* \"#utility.yul\":11289:11293   */\n      0x20\n        /* \"#utility.yul\":11286:11287   */\n      dup2\n        /* \"#utility.yul\":11282:11294   */\n      add\n        /* \"#utility.yul\":11277:11294   */\n      swap1\n      pop\n        /* \"#utility.yul\":11252:11460   */\n      jump(tag_276)\n    tag_278:\n        /* \"#utility.yul\":11488:11494   */\n      dup7\n        /* \"#utility.yul\":11479:11486   */\n      dup4\n        /* \"#utility.yul\":11476:11495   */\n      lt\n        /* \"#utility.yul\":11473:11652   */\n      iszero\n      tag_279\n      jumpi\n        /* \"#utility.yul\":11546:11555   */\n      dup5\n        /* \"#utility.yul\":11541:11544   */\n      dup10\n        /* \"#utility.yul\":11537:11556   */\n      add\n        /* \"#utility.yul\":11531:11557   */\n      mload\n        /* \"#utility.yul\":11589:11637   */\n      tag_280\n        /* \"#utility.yul\":11631:11635   */\n      0x1f\n        /* \"#utility.yul\":11623:11629   */\n      dup10\n        /* \"#utility.yul\":11619:11636   */\n      and\n        /* \"#utility.yul\":11608:11617   */\n      dup3\n        /* \"#utility.yul\":11589:11637   */\n      tag_146\n      jump\t// in\n    tag_280:\n        /* \"#utility.yul\":11581:11587   */\n      dup4\n        /* \"#utility.yul\":11574:11638   */\n      sstore\n        /* \"#utility.yul\":11496:11652   */\n      pop\n        /* \"#utility.yul\":11473:11652   */\n    tag_279:\n        /* \"#utility.yul\":11698:11699   */\n      0x01\n        /* \"#utility.yul\":11694:11695   */\n      0x02\n        /* \"#utility.yul\":11686:11692   */\n      dup9\n        /* \"#utility.yul\":11682:11696   */\n      mul\n        /* \"#utility.yul\":11678:11700   */\n      add\n        /* \"#utility.yul\":11672:11676   */\n      dup9\n        /* \"#utility.yul\":11665:11701   */\n      sstore\n        /* \"#utility.yul\":11100:11711   */\n      pop\n      pop\n      pop\n        /* \"#utility.yul\":11063:11950   */\n    tag_271:\n      pop\n        /* \"#utility.yul\":10653:11956   */\n      pop\n      pop\n      pop\n        /* \"#utility.yul\":10561:11956   */\n      pop\n      pop\n      jump\t// out\n        /* \"#utility.yul\":11962:12142   */\n    tag_148:\n        /* \"#utility.yul\":12010:12087   */\n      0x4e487b7100000000000000000000000000000000000000000000000000000000\n        /* \"#utility.yul\":12007:12008   */\n      0x00\n        /* \"#utility.yul\":12000:12088   */\n      mstore\n        /* \"#utility.yul\":12107:12111   */\n      0x11\n        /* \"#utility.yul\":12104:12105   */\n      0x04\n        /* \"#utility.yul\":12097:12112   */\n      mstore\n        /* \"#utility.yul\":12131:12135   */\n      0x24\n        /* \"#utility.yul\":12128:12129   */\n      0x00\n        /* \"#utility.yul\":12121:12136   */\n      revert\n        /* \"#utility.yul\":12148:12339   */\n    tag_95:\n        /* \"#utility.yul\":12188:12191   */\n      0x00\n        /* \"#utility.yul\":12207:12227   */\n      tag_283\n        /* \"#utility.yul\":12225:12226   */\n      dup3\n        /* \"#utility.yul\":12207:12227   */\n      tag_118\n      jump\t// in\n    tag_283:\n        /* \"#utility.yul\":12202:12227   */\n      swap2\n      pop\n        /* \"#utility.yul\":12241:12261   */\n      tag_284\n        /* \"#utility.yul\":12259:12260   */\n      dup4\n        /* \"#utility.yul\":12241:12261   */\n      tag_118\n      jump\t// in\n    tag_284:\n        /* \"#utility.yul\":12236:12261   */\n      swap3\n      pop\n        /* \"#utility.yul\":12284:12285   */\n      dup3\n        /* \"#utility.yul\":12281:12282   */\n      dup3\n        /* \"#utility.yul\":12277:12286   */\n      add\n        /* \"#utility.yul\":12270:12286   */\n      swap1\n      pop\n        /* \"#utility.yul\":12305:12308   */\n      dup1\n        /* \"#utility.yul\":12302:12303   */\n      dup3\n        /* \"#utility.yul\":12299:12309   */\n      gt\n        /* \"#utility.yul\":12296:12332   */\n      iszero\n      tag_285\n      jumpi\n        /* \"#utility.yul\":12312:12330   */\n      tag_286\n      tag_148\n      jump\t// in\n    tag_286:\n        /* \"#utility.yul\":12296:12332   */\n    tag_285:\n        /* \"#utility.yul\":12148:12339   */\n      swap3\n      swap2\n      pop\n      pop\n      jump\t// out\n\n    auxdata: 0xa26469706673582212207b4fc395c130c770c95090f33769985cf16fad12710fd9b01a3e36781d4dbc6b64736f6c634300081e0033\n}\n",
				"bytecode": {
					"linkReferences": {},
					"object": "608060405234801561000f575f5ffd5b50335f73ffffffffffffffffffffffffffffffffffffffff168173ffffffffffffffffffffffffffffffffffffffff1603610081575f6040517f1e4fbdf70000000000000000000000000000000000000000000000000000000081526004016100789190610196565b60405180910390fd5b6100908161009660201b60201c565b506101af565b5f5f5f9054906101000a900473ffffffffffffffffffffffffffffffffffffffff169050815f5f6101000a81548173ffffffffffffffffffffffffffffffffffffffff021916908373ffffffffffffffffffffffffffffffffffffffff1602179055508173ffffffffffffffffffffffffffffffffffffffff168173ffffffffffffffffffffffffffffffffffffffff167f8be0079c531659141344cd1fd0a4f28419497f9722a3daafe3b4186f6b6457e060405160405180910390a35050565b5f73ffffffffffffffffffffffffffffffffffffffff82169050919050565b5f61018082610157565b9050919050565b61019081610176565b82525050565b5f6020820190506101a95f830184610187565b92915050565b610ce0806101bc5f395ff3fe608060405260043610610073575f3560e01c8063b9830ff11161004d578063b9830ff1146100fa578063f2fde38b14610110578063f3fa422614610138578063fc36e15b146101605761007a565b8063715018a61461007e578063805265e5146100945780638da5cb5b146100d05761007a565b3661007a57005b5f5ffd5b348015610089575f5ffd5b50610092610188565b005b34801561009f575f5ffd5b506100ba60048036038101906100b5919061074c565b61019b565b6040516100c791906107ab565b60405180910390f35b3480156100db575f5ffd5b506100e46101c2565b6040516100f19190610803565b60405180910390f35b348015610105575f5ffd5b5061010e6101e9565b005b34801561011b575f5ffd5b5061013660048036038101906101319190610846565b6102be565b005b348015610143575f5ffd5b5061015e6004803603810190610159919061074c565b610342565b005b34801561016b575f5ffd5b506101866004803603810190610181919061074c565b610421565b005b6101906104b0565b6101995f610537565b565b5f6001826040516101ac91906108c3565b9081526020016040518091039020549050919050565b5f5f5f9054906101000a900473ffffffffffffffffffffffffffffffffffffffff16905090565b6101f16104b0565b5f5f90505b6002805490508110156102bb576102ae6002828154811061021a576102196108d9565b5b905f5260205f2001805461022d90610933565b80601f016020809104026020016040519081016040528092919081815260200182805461025990610933565b80156102a45780601f1061027b576101008083540402835291602001916102a4565b820191905f5260205f20905b81548152906001019060200180831161028757829003601f168201915b5050505050610342565b80806001019150506101f6565b50565b6102c66104b0565b5f73ffffffffffffffffffffffffffffffffffffffff168173ffffffffffffffffffffffffffffffffffffffff1603610336575f6040517f1e4fbdf700000000000000000000000000000000000000000000000000000000815260040161032d9190610803565b60405180910390fd5b61033f81610537565b50565b61034a6104b0565b5f81511161038d576040517f08c379a0000000000000000000000000000000000000000000000000000000008152600401610384906109bd565b60405180910390fd5b5f60018260405161039e91906108c3565b90815260200160405180910390205490506001826040516103bf91906108c3565b90815260200160405180910390205f9055816040516103de91906108c3565b60405180910390207f2d6afb89a283acc39c9f4ad71725bf5d3b3a3c46032838e2ad76961f426b73718260405161041591906107ab565b60405180910390a25050565b5f60018260405161043291906108c3565b9081526020016040518091039020540361047957600281908060018154018082558091505060019003905f5260205f20015f9091909190915090816104779190610b7b565b505b6001808260405161048a91906108c3565b90815260200160405180910390205f8282546104a69190610c77565b9250508190555050565b6104b86105f8565b73ffffffffffffffffffffffffffffffffffffffff166104d66101c2565b73ffffffffffffffffffffffffffffffffffffffff1614610535576104f96105f8565b6040517f118cdaa700000000000000000000000000000000000000000000000000000000815260040161052c9190610803565b60405180910390fd5b565b5f5f5f9054906101000a900473ffffffffffffffffffffffffffffffffffffffff169050815f5f6101000a81548173ffffffffffffffffffffffffffffffffffffffff021916908373ffffffffffffffffffffffffffffffffffffffff1602179055508173ffffffffffffffffffffffffffffffffffffffff168173ffffffffffffffffffffffffffffffffffffffff167f8be0079c531659141344cd1fd0a4f28419497f9722a3daafe3b4186f6b6457e060405160405180910390a35050565b5f33905090565b5f604051905090565b5f5ffd5b5f5ffd5b5f5ffd5b5f5ffd5b5f601f19601f8301169050919050565b7f4e487b71000000000000000000000000000000000000000000000000000000005f52604160045260245ffd5b61065e82610618565b810181811067ffffffffffffffff8211171561067d5761067c610628565b5b80604052505050565b5f61068f6105ff565b905061069b8282610655565b919050565b5f67ffffffffffffffff8211156106ba576106b9610628565b5b6106c382610618565b9050602081019050919050565b828183375f83830152505050565b5f6106f06106eb846106a0565b610686565b90508281526020810184848401111561070c5761070b610614565b5b6107178482856106d0565b509392505050565b5f82601f83011261073357610732610610565b5b81356107438482602086016106de565b91505092915050565b5f6020828403121561076157610760610608565b5b5f82013567ffffffffffffffff81111561077e5761077d61060c565b5b61078a8482850161071f565b91505092915050565b5f819050919050565b6107a581610793565b82525050565b5f6020820190506107be5f83018461079c565b92915050565b5f73ffffffffffffffffffffffffffffffffffffffff82169050919050565b5f6107ed826107c4565b9050919050565b6107fd816107e3565b82525050565b5f6020820190506108165f8301846107f4565b92915050565b610825816107e3565b811461082f575f5ffd5b50565b5f813590506108408161081c565b92915050565b5f6020828403121561085b5761085a610608565b5b5f61086884828501610832565b91505092915050565b5f81519050919050565b5f81905092915050565b8281835e5f83830152505050565b5f61089d82610871565b6108a7818561087b565b93506108b7818560208601610885565b80840191505092915050565b5f6108ce8284610893565b915081905092915050565b7f4e487b71000000000000000000000000000000000000000000000000000000005f52603260045260245ffd5b7f4e487b71000000000000000000000000000000000000000000000000000000005f52602260045260245ffd5b5f600282049050600182168061094a57607f821691505b60208210810361095d5761095c610906565b5b50919050565b5f82825260208201905092915050565b7f4e616d65206d75737420696e70757400000000000000000000000000000000005f82015250565b5f6109a7600f83610963565b91506109b282610973565b602082019050919050565b5f6020820190508181035f8301526109d48161099b565b9050919050565b5f819050815f5260205f209050919050565b5f6020601f8301049050919050565b5f82821b905092915050565b5f60088302610a377fffffffffffffffffffffffffffffffffffffffffffffffffffffffffffffffff826109fc565b610a4186836109fc565b95508019841693508086168417925050509392505050565b5f819050919050565b5f610a7c610a77610a7284610793565b610a59565b610793565b9050919050565b5f819050919050565b610a9583610a62565b610aa9610aa182610a83565b848454610a08565b825550505050565b5f5f905090565b610ac0610ab1565b610acb818484610a8c565b505050565b5b81811015610aee57610ae35f82610ab8565b600181019050610ad1565b5050565b601f821115610b3357610b04816109db565b610b0d846109ed565b81016020851015610b1c578190505b610b30610b28856109ed565b830182610ad0565b50505b505050565b5f82821c905092915050565b5f610b535f1984600802610b38565b1980831691505092915050565b5f610b6b8383610b44565b9150826002028217905092915050565b610b8482610871565b67ffffffffffffffff811115610b9d57610b9c610628565b5b610ba78254610933565b610bb2828285610af2565b5f60209050601f831160018114610be3575f8415610bd1578287015190505b610bdb8582610b60565b865550610c42565b601f198416610bf1866109db565b5f5b82811015610c1857848901518255600182019150602085019450602081019050610bf3565b86831015610c355784890151610c31601f891682610b44565b8355505b6001600288020188555050505b505050505050565b7f4e487b71000000000000000000000000000000000000000000000000000000005f52601160045260245ffd5b5f610c8182610793565b9150610c8c83610793565b9250828201905080821115610ca457610ca3610c4a565b5b9291505056fea26469706673582212207b4fc395c130c770c95090f33769985cf16fad12710fd9b01a3e36781d4dbc6b64736f6c634300081e0033",
					"opcodes": "PUSH1 0x80 PUSH1 0x40 MSTORE CALLVALUE DUP1 ISZERO PUSH2 0xF JUMPI PUSH0 PUSH0 REVERT JUMPDEST POP CALLER PUSH0 PUSH20 0xFFFFFFFFFFFFFFFFFFFFFFFFFFFFFFFFFFFFFFFF AND DUP2 PUSH20 0xFFFFFFFFFFFFFFFFFFFFFFFFFFFFFFFFFFFFFFFF AND SUB PUSH2 0x81 JUMPI PUSH0 PUSH1 0x40 MLOAD PUSH32 0x1E4FBDF700000000000000000000000000000000000000000000000000000000 DUP2 MSTORE PUSH1 0x4 ADD PUSH2 0x78 SWAP2 SWAP1 PUSH2 0x196 JUMP JUMPDEST PUSH1 0x40 MLOAD DUP1 SWAP2 SUB SWAP1 REVERT JUMPDEST PUSH2 0x90 DUP2 PUSH2 0x96 PUSH1 0x20 SHL PUSH1 0x20 SHR JUMP JUMPDEST POP PUSH2 0x1AF JUMP JUMPDEST PUSH0 PUSH0 PUSH0 SWAP1 SLOAD SWAP1 PUSH2 0x100 EXP SWAP1 DIV PUSH20 0xFFFFFFFFFFFFFFFFFFFFFFFFFFFFFFFFFFFFFFFF AND SWAP1 POP DUP2 PUSH0 PUSH0 PUSH2 0x100 EXP DUP2 SLOAD DUP2 PUSH20 0xFFFFFFFFFFFFFFFFFFFFFFFFFFFFFFFFFFFFFFFF MUL NOT AND SWAP1 DUP4 PUSH20 0xFFFFFFFFFFFFFFFFFFFFFFFFFFFFFFFFFFFFFFFF AND MUL OR SWAP1 SSTORE POP DUP2 PUSH20 0xFFFFFFFFFFFFFFFFFFFFFFFFFFFFFFFFFFFFFFFF AND DUP2 PUSH20 0xFFFFFFFFFFFFFFFFFFFFFFFFFFFFFFFFFFFFFFFF AND PUSH32 0x8BE0079C531659141344CD1FD0A4F28419497F9722A3DAAFE3B4186F6B6457E0 PUSH1 0x40 MLOAD PUSH1 0x40 MLOAD DUP1 SWAP2 SUB SWAP1 LOG3 POP POP JUMP JUMPDEST PUSH0 PUSH20 0xFFFFFFFFFFFFFFFFFFFFFFFFFFFFFFFFFFFFFFFF DUP3 AND SWAP1 POP SWAP2 SWAP1 POP JUMP JUMPDEST PUSH0 PUSH2 0x180 DUP3 PUSH2 0x157 JUMP JUMPDEST SWAP1 POP SWAP2 SWAP1 POP JUMP JUMPDEST PUSH2 0x190 DUP2 PUSH2 0x176 JUMP JUMPDEST DUP3 MSTORE POP POP JUMP JUMPDEST PUSH0 PUSH1 0x20 DUP3 ADD SWAP1 POP PUSH2 0x1A9 PUSH0 DUP4 ADD DUP5 PUSH2 0x187 JUMP JUMPDEST SWAP3 SWAP2 POP POP JUMP JUMPDEST PUSH2 0xCE0 DUP1 PUSH2 0x1BC PUSH0 CODECOPY PUSH0 RETURN INVALID PUSH1 0x80 PUSH1 0x40 MSTORE PUSH1 0x4 CALLDATASIZE LT PUSH2 0x73 JUMPI PUSH0 CALLDATALOAD PUSH1 0xE0 SHR DUP1 PUSH4 0xB9830FF1 GT PUSH2 0x4D JUMPI DUP1 PUSH4 0xB9830FF1 EQ PUSH2 0xFA JUMPI DUP1 PUSH4 0xF2FDE38B EQ PUSH2 0x110 JUMPI DUP1 PUSH4 0xF3FA4226 EQ PUSH2 0x138 JUMPI DUP1 PUSH4 0xFC36E15B EQ PUSH2 0x160 JUMPI PUSH2 0x7A JUMP JUMPDEST DUP1 PUSH4 0x715018A6 EQ PUSH2 0x7E JUMPI DUP1 PUSH4 0x805265E5 EQ PUSH2 0x94 JUMPI DUP1 PUSH4 0x8DA5CB5B EQ PUSH2 0xD0 JUMPI PUSH2 0x7A JUMP JUMPDEST CALLDATASIZE PUSH2 0x7A JUMPI STOP JUMPDEST PUSH0 PUSH0 REVERT JUMPDEST CALLVALUE DUP1 ISZERO PUSH2 0x89 JUMPI PUSH0 PUSH0 REVERT JUMPDEST POP PUSH2 0x92 PUSH2 0x188 JUMP JUMPDEST STOP JUMPDEST CALLVALUE DUP1 ISZERO PUSH2 0x9F JUMPI PUSH0 PUSH0 REVERT JUMPDEST POP PUSH2 0xBA PUSH1 0x4 DUP1 CALLDATASIZE SUB DUP2 ADD SWAP1 PUSH2 0xB5 SWAP2 SWAP1 PUSH2 0x74C JUMP JUMPDEST PUSH2 0x19B JUMP JUMPDEST PUSH1 0x40 MLOAD PUSH2 0xC7 SWAP2 SWAP1 PUSH2 0x7AB JUMP JUMPDEST PUSH1 0x40 MLOAD DUP1 SWAP2 SUB SWAP1 RETURN JUMPDEST CALLVALUE DUP1 ISZERO PUSH2 0xDB JUMPI PUSH0 PUSH0 REVERT JUMPDEST POP PUSH2 0xE4 PUSH2 0x1C2 JUMP JUMPDEST PUSH1 0x40 MLOAD PUSH2 0xF1 SWAP2 SWAP1 PUSH2 0x803 JUMP JUMPDEST PUSH1 0x40 MLOAD DUP1 SWAP2 SUB SWAP1 RETURN JUMPDEST CALLVALUE DUP1 ISZERO PUSH2 0x105 JUMPI PUSH0 PUSH0 REVERT JUMPDEST POP PUSH2 0x10E PUSH2 0x1E9 JUMP JUMPDEST STOP JUMPDEST CALLVALUE DUP1 ISZERO PUSH2 0x11B JUMPI PUSH0 PUSH0 REVERT JUMPDEST POP PUSH2 0x136 PUSH1 0x4 DUP1 CALLDATASIZE SUB DUP2 ADD SWAP1 PUSH2 0x131 SWAP2 SWAP1 PUSH2 0x846 JUMP JUMPDEST PUSH2 0x2BE JUMP JUMPDEST STOP JUMPDEST CALLVALUE DUP1 ISZERO PUSH2 0x143 JUMPI PUSH0 PUSH0 REVERT JUMPDEST POP PUSH2 0x15E PUSH1 0x4 DUP1 CALLDATASIZE SUB DUP2 ADD SWAP1 PUSH2 0x159 SWAP2 SWAP1 PUSH2 0x74C JUMP JUMPDEST PUSH2 0x342 JUMP JUMPDEST STOP JUMPDEST CALLVALUE DUP1 ISZERO PUSH2 0x16B JUMPI PUSH0 PUSH0 REVERT JUMPDEST POP PUSH2 0x186 PUSH1 0x4 DUP1 CALLDATASIZE SUB DUP2 ADD SWAP1 PUSH2 0x181 SWAP2 SWAP1 PUSH2 0x74C JUMP JUMPDEST PUSH2 0x421 JUMP JUMPDEST STOP JUMPDEST PUSH2 0x190 PUSH2 0x4B0 JUMP JUMPDEST PUSH2 0x199 PUSH0 PUSH2 0x537 JUMP JUMPDEST JUMP JUMPDEST PUSH0 PUSH1 0x1 DUP3 PUSH1 0x40 MLOAD PUSH2 0x1AC SWAP2 SWAP1 PUSH2 0x8C3 JUMP JUMPDEST SWAP1 DUP2 MSTORE PUSH1 0x20 ADD PUSH1 0x40 MLOAD DUP1 SWAP2 SUB SWAP1 KECCAK256 SLOAD SWAP1 POP SWAP2 SWAP1 POP JUMP JUMPDEST PUSH0 PUSH0 PUSH0 SWAP1 SLOAD SWAP1 PUSH2 0x100 EXP SWAP1 DIV PUSH20 0xFFFFFFFFFFFFFFFFFFFFFFFFFFFFFFFFFFFFFFFF AND SWAP1 POP SWAP1 JUMP JUMPDEST PUSH2 0x1F1 PUSH2 0x4B0 JUMP JUMPDEST PUSH0 PUSH0 SWAP1 POP JUMPDEST PUSH1 0x2 DUP1 SLOAD SWAP1 POP DUP2 LT ISZERO PUSH2 0x2BB JUMPI PUSH2 0x2AE PUSH1 0x2 DUP3 DUP2 SLOAD DUP2 LT PUSH2 0x21A JUMPI PUSH2 0x219 PUSH2 0x8D9 JUMP JUMPDEST JUMPDEST SWAP1 PUSH0 MSTORE PUSH1 0x20 PUSH0 KECCAK256 ADD DUP1 SLOAD PUSH2 0x22D SWAP1 PUSH2 0x933 JUMP JUMPDEST DUP1 PUSH1 0x1F ADD PUSH1 0x20 DUP1 SWAP2 DIV MUL PUSH1 0x20 ADD PUSH1 0x40 MLOAD SWAP1 DUP2 ADD PUSH1 0x40 MSTORE DUP1 SWAP3 SWAP2 SWAP1 DUP2 DUP2 MSTORE PUSH1 0x20 ADD DUP3 DUP1 SLOAD PUSH2 0x259 SWAP1 PUSH2 0x933 JUMP JUMPDEST DUP1 ISZERO PUSH2 0x2A4 JUMPI DUP1 PUSH1 0x1F LT PUSH2 0x27B JUMPI PUSH2 0x100 DUP1 DUP4 SLOAD DIV MUL DUP4 MSTORE SWAP2 PUSH1 0x20 ADD SWAP2 PUSH2 0x2A4 JUMP JUMPDEST DUP3 ADD SWAP2 SWAP1 PUSH0 MSTORE PUSH1 0x20 PUSH0 KECCAK256 SWAP1 JUMPDEST DUP2 SLOAD DUP2 MSTORE SWAP1 PUSH1 0x1 ADD SWAP1 PUSH1 0x20 ADD DUP1 DUP4 GT PUSH2 0x287 JUMPI DUP3 SWAP1 SUB PUSH1 0x1F AND DUP3 ADD SWAP2 JUMPDEST POP POP POP POP POP PUSH2 0x342 JUMP JUMPDEST DUP1 DUP1 PUSH1 0x1 ADD SWAP2 POP POP PUSH2 0x1F6 JUMP JUMPDEST POP JUMP JUMPDEST PUSH2 0x2C6 PUSH2 0x4B0 JUMP JUMPDEST PUSH0 PUSH20 0xFFFFFFFFFFFFFFFFFFFFFFFFFFFFFFFFFFFFFFFF AND DUP2 PUSH20 0xFFFFFFFFFFFFFFFFFFFFFFFFFFFFFFFFFFFFFFFF AND SUB PUSH2 0x336 JUMPI PUSH0 PUSH1 0x40 MLOAD PUSH32 0x1E4FBDF700000000000000000000000000000000000000000000000000000000 DUP2 MSTORE PUSH1 0x4 ADD PUSH2 0x32D SWAP2 SWAP1 PUSH2 0x803 JUMP JUMPDEST PUSH1 0x40 MLOAD DUP1 SWAP2 SUB SWAP1 REVERT JUMPDEST PUSH2 0x33F DUP2 PUSH2 0x537 JUMP JUMPDEST POP JUMP JUMPDEST PUSH2 0x34A PUSH2 0x4B0 JUMP JUMPDEST PUSH0 DUP2 MLOAD GT PUSH2 0x38D JUMPI PUSH1 0x40 MLOAD PUSH32 0x8C379A000000000000000000000000000000000000000000000000000000000 DUP2 MSTORE PUSH1 0x4 ADD PUSH2 0x384 SWAP1 PUSH2 0x9BD JUMP JUMPDEST PUSH1 0x40 MLOAD DUP1 SWAP2 SUB SWAP1 REVERT JUMPDEST PUSH0 PUSH1 0x1 DUP3 PUSH1 0x40 MLOAD PUSH2 0x39E SWAP2 SWAP1 PUSH2 0x8C3 JUMP JUMPDEST SWAP1 DUP2 MSTORE PUSH1 0x20 ADD PUSH1 0x40 MLOAD DUP1 SWAP2 SUB SWAP1 KECCAK256 SLOAD SWAP1 POP PUSH1 0x1 DUP3 PUSH1 0x40 MLOAD PUSH2 0x3BF SWAP2 SWAP1 PUSH2 0x8C3 JUMP JUMPDEST SWAP1 DUP2 MSTORE PUSH1 0x20 ADD PUSH1 0x40 MLOAD DUP1 SWAP2 SUB SWAP1 KECCAK256 PUSH0 SWAP1 SSTORE DUP2 PUSH1 0x40 MLOAD PUSH2 0x3DE SWAP2 SWAP1 PUSH2 0x8C3 JUMP JUMPDEST PUSH1 0x40 MLOAD DUP1 SWAP2 SUB SWAP1 KECCAK256 PUSH32 0x2D6AFB89A283ACC39C9F4AD71725BF5D3B3A3C46032838E2AD76961F426B7371 DUP3 PUSH1 0x40 MLOAD PUSH2 0x415 SWAP2 SWAP1 PUSH2 0x7AB JUMP JUMPDEST PUSH1 0x40 MLOAD DUP1 SWAP2 SUB SWAP1 LOG2 POP POP JUMP JUMPDEST PUSH0 PUSH1 0x1 DUP3 PUSH1 0x40 MLOAD PUSH2 0x432 SWAP2 SWAP1 PUSH2 0x8C3 JUMP JUMPDEST SWAP1 DUP2 MSTORE PUSH1 0x20 ADD PUSH1 0x40 MLOAD DUP1 SWAP2 SUB SWAP1 KECCAK256 SLOAD SUB PUSH2 0x479 JUMPI PUSH1 0x2 DUP2 SWAP1 DUP1 PUSH1 0x1 DUP2 SLOAD ADD DUP1 DUP3 SSTORE DUP1 SWAP2 POP POP PUSH1 0x1 SWAP1 SUB SWAP1 PUSH0 MSTORE PUSH1 0x20 PUSH0 KECCAK256 ADD PUSH0 SWAP1 SWAP2 SWAP1 SWAP2 SWAP1 SWAP2 POP SWAP1 DUP2 PUSH2 0x477 SWAP2 SWAP1 PUSH2 0xB7B JUMP JUMPDEST POP JUMPDEST PUSH1 0x1 DUP1 DUP3 PUSH1 0x40 MLOAD PUSH2 0x48A SWAP2 SWAP1 PUSH2 0x8C3 JUMP JUMPDEST SWAP1 DUP2 MSTORE PUSH1 0x20 ADD PUSH1 0x40 MLOAD DUP1 SWAP2 SUB SWAP1 KECCAK256 PUSH0 DUP3 DUP3 SLOAD PUSH2 0x4A6 SWAP2 SWAP1 PUSH2 0xC77 JUMP JUMPDEST SWAP3 POP POP DUP2 SWAP1 SSTORE POP POP JUMP JUMPDEST PUSH2 0x4B8 PUSH2 0x5F8 JUMP JUMPDEST PUSH20 0xFFFFFFFFFFFFFFFFFFFFFFFFFFFFFFFFFFFFFFFF AND PUSH2 0x4D6 PUSH2 0x1C2 JUMP JUMPDEST PUSH20 0xFFFFFFFFFFFFFFFFFFFFFFFFFFFFFFFFFFFFFFFF AND EQ PUSH2 0x535 JUMPI PUSH2 0x4F9 PUSH2 0x5F8 JUMP JUMPDEST PUSH1 0x40 MLOAD PUSH32 0x118CDAA700000000000000000000000000000000000000000000000000000000 DUP2 MSTORE PUSH1 0x4 ADD PUSH2 0x52C SWAP2 SWAP1 PUSH2 0x803 JUMP JUMPDEST PUSH1 0x40 MLOAD DUP1 SWAP2 SUB SWAP1 REVERT JUMPDEST JUMP JUMPDEST PUSH0 PUSH0 PUSH0 SWAP1 SLOAD SWAP1 PUSH2 0x100 EXP SWAP1 DIV PUSH20 0xFFFFFFFFFFFFFFFFFFFFFFFFFFFFFFFFFFFFFFFF AND SWAP1 POP DUP2 PUSH0 PUSH0 PUSH2 0x100 EXP DUP2 SLOAD DUP2 PUSH20 0xFFFFFFFFFFFFFFFFFFFFFFFFFFFFFFFFFFFFFFFF MUL NOT AND SWAP1 DUP4 PUSH20 0xFFFFFFFFFFFFFFFFFFFFFFFFFFFFFFFFFFFFFFFF AND MUL OR SWAP1 SSTORE POP DUP2 PUSH20 0xFFFFFFFFFFFFFFFFFFFFFFFFFFFFFFFFFFFFFFFF AND DUP2 PUSH20 0xFFFFFFFFFFFFFFFFFFFFFFFFFFFFFFFFFFFFFFFF AND PUSH32 0x8BE0079C531659141344CD1FD0A4F28419497F9722A3DAAFE3B4186F6B6457E0 PUSH1 0x40 MLOAD PUSH1 0x40 MLOAD DUP1 SWAP2 SUB SWAP1 LOG3 POP POP JUMP JUMPDEST PUSH0 CALLER SWAP1 POP SWAP1 JUMP JUMPDEST PUSH0 PUSH1 0x40 MLOAD SWAP1 POP SWAP1 JUMP JUMPDEST PUSH0 PUSH0 REVERT JUMPDEST PUSH0 PUSH0 REVERT JUMPDEST PUSH0 PUSH0 REVERT JUMPDEST PUSH0 PUSH0 REVERT JUMPDEST PUSH0 PUSH1 0x1F NOT PUSH1 0x1F DUP4 ADD AND SWAP1 POP SWAP2 SWAP1 POP JUMP JUMPDEST PUSH32 0x4E487B7100000000000000000000000000000000000000000000000000000000 PUSH0 MSTORE PUSH1 0x41 PUSH1 0x4 MSTORE PUSH1 0x24 PUSH0 REVERT JUMPDEST PUSH2 0x65E DUP3 PUSH2 0x618 JUMP JUMPDEST DUP2 ADD DUP2 DUP2 LT PUSH8 0xFFFFFFFFFFFFFFFF DUP3 GT OR ISZERO PUSH2 0x67D JUMPI PUSH2 0x67C PUSH2 0x628 JUMP JUMPDEST JUMPDEST DUP1 PUSH1 0x40 MSTORE POP POP POP JUMP JUMPDEST PUSH0 PUSH2 0x68F PUSH2 0x5FF JUMP JUMPDEST SWAP1 POP PUSH2 0x69B DUP3 DUP3 PUSH2 0x655 JUMP JUMPDEST SWAP2 SWAP1 POP JUMP JUMPDEST PUSH0 PUSH8 0xFFFFFFFFFFFFFFFF DUP3 GT ISZERO PUSH2 0x6BA JUMPI PUSH2 0x6B9 PUSH2 0x628 JUMP JUMPDEST JUMPDEST PUSH2 0x6C3 DUP3 PUSH2 0x618 JUMP JUMPDEST SWAP1 POP PUSH1 0x20 DUP2 ADD SWAP1 POP SWAP2 SWAP1 POP JUMP JUMPDEST DUP3 DUP2 DUP4 CALLDATACOPY PUSH0 DUP4 DUP4 ADD MSTORE POP POP POP JUMP JUMPDEST PUSH0 PUSH2 0x6F0 PUSH2 0x6EB DUP5 PUSH2 0x6A0 JUMP JUMPDEST PUSH2 0x686 JUMP JUMPDEST SWAP1 POP DUP3 DUP2 MSTORE PUSH1 0x20 DUP2 ADD DUP5 DUP5 DUP5 ADD GT ISZERO PUSH2 0x70C JUMPI PUSH2 0x70B PUSH2 0x614 JUMP JUMPDEST JUMPDEST PUSH2 0x717 DUP5 DUP3 DUP6 PUSH2 0x6D0 JUMP JUMPDEST POP SWAP4 SWAP3 POP POP POP JUMP JUMPDEST PUSH0 DUP3 PUSH1 0x1F DUP4 ADD SLT PUSH2 0x733 JUMPI PUSH2 0x732 PUSH2 0x610 JUMP JUMPDEST JUMPDEST DUP2 CALLDATALOAD PUSH2 0x743 DUP5 DUP3 PUSH1 0x20 DUP7 ADD PUSH2 0x6DE JUMP JUMPDEST SWAP2 POP POP SWAP3 SWAP2 POP POP JUMP JUMPDEST PUSH0 PUSH1 0x20 DUP3 DUP5 SUB SLT ISZERO PUSH2 0x761 JUMPI PUSH2 0x760 PUSH2 0x608 JUMP JUMPDEST JUMPDEST PUSH0 DUP3 ADD CALLDATALOAD PUSH8 0xFFFFFFFFFFFFFFFF DUP2 GT ISZERO PUSH2 0x77E JUMPI PUSH2 0x77D PUSH2 0x60C JUMP JUMPDEST JUMPDEST PUSH2 0x78A DUP5 DUP3 DUP6 ADD PUSH2 0x71F JUMP JUMPDEST SWAP2 POP POP SWAP3 SWAP2 POP POP JUMP JUMPDEST PUSH0 DUP2 SWAP1 POP SWAP2 SWAP1 POP JUMP JUMPDEST PUSH2 0x7A5 DUP2 PUSH2 0x793 JUMP JUMPDEST DUP3 MSTORE POP POP JUMP JUMPDEST PUSH0 PUSH1 0x20 DUP3 ADD SWAP1 POP PUSH2 0x7BE PUSH0 DUP4 ADD DUP5 PUSH2 0x79C JUMP JUMPDEST SWAP3 SWAP2 POP POP JUMP JUMPDEST PUSH0 PUSH20 0xFFFFFFFFFFFFFFFFFFFFFFFFFFFFFFFFFFFFFFFF DUP3 AND SWAP1 POP SWAP2 SWAP1 POP JUMP JUMPDEST PUSH0 PUSH2 0x7ED DUP3 PUSH2 0x7C4 JUMP JUMPDEST SWAP1 POP SWAP2 SWAP1 POP JUMP JUMPDEST PUSH2 0x7FD DUP2 PUSH2 0x7E3 JUMP JUMPDEST DUP3 MSTORE POP POP JUMP JUMPDEST PUSH0 PUSH1 0x20 DUP3 ADD SWAP1 POP PUSH2 0x816 PUSH0 DUP4 ADD DUP5 PUSH2 0x7F4 JUMP JUMPDEST SWAP3 SWAP2 POP POP JUMP JUMPDEST PUSH2 0x825 DUP2 PUSH2 0x7E3 JUMP JUMPDEST DUP2 EQ PUSH2 0x82F JUMPI PUSH0 PUSH0 REVERT JUMPDEST POP JUMP JUMPDEST PUSH0 DUP2 CALLDATALOAD SWAP1 POP PUSH2 0x840 DUP2 PUSH2 0x81C JUMP JUMPDEST SWAP3 SWAP2 POP POP JUMP JUMPDEST PUSH0 PUSH1 0x20 DUP3 DUP5 SUB SLT ISZERO PUSH2 0x85B JUMPI PUSH2 0x85A PUSH2 0x608 JUMP JUMPDEST JUMPDEST PUSH0 PUSH2 0x868 DUP5 DUP3 DUP6 ADD PUSH2 0x832 JUMP JUMPDEST SWAP2 POP POP SWAP3 SWAP2 POP POP JUMP JUMPDEST PUSH0 DUP2 MLOAD SWAP1 POP SWAP2 SWAP1 POP JUMP JUMPDEST PUSH0 DUP2 SWAP1 POP SWAP3 SWAP2 POP POP JUMP JUMPDEST DUP3 DUP2 DUP4 MCOPY PUSH0 DUP4 DUP4 ADD MSTORE POP POP POP JUMP JUMPDEST PUSH0 PUSH2 0x89D DUP3 PUSH2 0x871 JUMP JUMPDEST PUSH2 0x8A7 DUP2 DUP6 PUSH2 0x87B JUMP JUMPDEST SWAP4 POP PUSH2 0x8B7 DUP2 DUP6 PUSH1 0x20 DUP7 ADD PUSH2 0x885 JUMP JUMPDEST DUP1 DUP5 ADD SWAP2 POP POP SWAP3 SWAP2 POP POP JUMP JUMPDEST PUSH0 PUSH2 0x8CE DUP3 DUP5 PUSH2 0x893 JUMP JUMPDEST SWAP2 POP DUP2 SWAP1 POP SWAP3 SWAP2 POP POP JUMP JUMPDEST PUSH32 0x4E487B7100000000000000000000000000000000000000000000000000000000 PUSH0 MSTORE PUSH1 0x32 PUSH1 0x4 MSTORE PUSH1 0x24 PUSH0 REVERT JUMPDEST PUSH32 0x4E487B7100000000000000000000000000000000000000000000000000000000 PUSH0 MSTORE PUSH1 0x22 PUSH1 0x4 MSTORE PUSH1 0x24 PUSH0 REVERT JUMPDEST PUSH0 PUSH1 0x2 DUP3 DIV SWAP1 POP PUSH1 0x1 DUP3 AND DUP1 PUSH2 0x94A JUMPI PUSH1 0x7F DUP3 AND SWAP2 POP JUMPDEST PUSH1 0x20 DUP3 LT DUP2 SUB PUSH2 0x95D JUMPI PUSH2 0x95C PUSH2 0x906 JUMP JUMPDEST JUMPDEST POP SWAP2 SWAP1 POP JUMP JUMPDEST PUSH0 DUP3 DUP3 MSTORE PUSH1 0x20 DUP3 ADD SWAP1 POP SWAP3 SWAP2 POP POP JUMP JUMPDEST PUSH32 0x4E616D65206D75737420696E7075740000000000000000000000000000000000 PUSH0 DUP3 ADD MSTORE POP JUMP JUMPDEST PUSH0 PUSH2 0x9A7 PUSH1 0xF DUP4 PUSH2 0x963 JUMP JUMPDEST SWAP2 POP PUSH2 0x9B2 DUP3 PUSH2 0x973 JUMP JUMPDEST PUSH1 0x20 DUP3 ADD SWAP1 POP SWAP2 SWAP1 POP JUMP JUMPDEST PUSH0 PUSH1 0x20 DUP3 ADD SWAP1 POP DUP2 DUP2 SUB PUSH0 DUP4 ADD MSTORE PUSH2 0x9D4 DUP2 PUSH2 0x99B JUMP JUMPDEST SWAP1 POP SWAP2 SWAP1 POP JUMP JUMPDEST PUSH0 DUP2 SWAP1 POP DUP2 PUSH0 MSTORE PUSH1 0x20 PUSH0 KECCAK256 SWAP1 POP SWAP2 SWAP1 POP JUMP JUMPDEST PUSH0 PUSH1 0x20 PUSH1 0x1F DUP4 ADD DIV SWAP1 POP SWAP2 SWAP1 POP JUMP JUMPDEST PUSH0 DUP3 DUP3 SHL SWAP1 POP SWAP3 SWAP2 POP POP JUMP JUMPDEST PUSH0 PUSH1 0x8 DUP4 MUL PUSH2 0xA37 PUSH32 0xFFFFFFFFFFFFFFFFFFFFFFFFFFFFFFFFFFFFFFFFFFFFFFFFFFFFFFFFFFFFFFFF DUP3 PUSH2 0x9FC JUMP JUMPDEST PUSH2 0xA41 DUP7 DUP4 PUSH2 0x9FC JUMP JUMPDEST SWAP6 POP DUP1 NOT DUP5 AND SWAP4 POP DUP1 DUP7 AND DUP5 OR SWAP3 POP POP POP SWAP4 SWAP3 POP POP POP JUMP JUMPDEST PUSH0 DUP2 SWAP1 POP SWAP2 SWAP1 POP JUMP JUMPDEST PUSH0 PUSH2 0xA7C PUSH2 0xA77 PUSH2 0xA72 DUP5 PUSH2 0x793 JUMP JUMPDEST PUSH2 0xA59 JUMP JUMPDEST PUSH2 0x793 JUMP JUMPDEST SWAP1 POP SWAP2 SWAP1 POP JUMP JUMPDEST PUSH0 DUP2 SWAP1 POP SWAP2 SWAP1 POP JUMP JUMPDEST PUSH2 0xA95 DUP4 PUSH2 0xA62 JUMP JUMPDEST PUSH2 0xAA9 PUSH2 0xAA1 DUP3 PUSH2 0xA83 JUMP JUMPDEST DUP5 DUP5 SLOAD PUSH2 0xA08 JUMP JUMPDEST DUP3 SSTORE POP POP POP POP JUMP JUMPDEST PUSH0 PUSH0 SWAP1 POP SWAP1 JUMP JUMPDEST PUSH2 0xAC0 PUSH2 0xAB1 JUMP JUMPDEST PUSH2 0xACB DUP2 DUP5 DUP5 PUSH2 0xA8C JUMP JUMPDEST POP POP POP JUMP JUMPDEST JUMPDEST DUP2 DUP2 LT ISZERO PUSH2 0xAEE JUMPI PUSH2 0xAE3 PUSH0 DUP3 PUSH2 0xAB8 JUMP JUMPDEST PUSH1 0x1 DUP2 ADD SWAP1 POP PUSH2 0xAD1 JUMP JUMPDEST POP POP JUMP JUMPDEST PUSH1 0x1F DUP3 GT ISZERO PUSH2 0xB33 JUMPI PUSH2 0xB04 DUP2 PUSH2 0x9DB JUMP JUMPDEST PUSH2 0xB0D DUP5 PUSH2 0x9ED JUMP JUMPDEST DUP2 ADD PUSH1 0x20 DUP6 LT ISZERO PUSH2 0xB1C JUMPI DUP2 SWAP1 POP JUMPDEST PUSH2 0xB30 PUSH2 0xB28 DUP6 PUSH2 0x9ED JUMP JUMPDEST DUP4 ADD DUP3 PUSH2 0xAD0 JUMP JUMPDEST POP POP JUMPDEST POP POP POP JUMP JUMPDEST PUSH0 DUP3 DUP3 SHR SWAP1 POP SWAP3 SWAP2 POP POP JUMP JUMPDEST PUSH0 PUSH2 0xB53 PUSH0 NOT DUP5 PUSH1 0x8 MUL PUSH2 0xB38 JUMP JUMPDEST NOT DUP1 DUP4 AND SWAP2 POP POP SWAP3 SWAP2 POP POP JUMP JUMPDEST PUSH0 PUSH2 0xB6B DUP4 DUP4 PUSH2 0xB44 JUMP JUMPDEST SWAP2 POP DUP3 PUSH1 0x2 MUL DUP3 OR SWAP1 POP SWAP3 SWAP2 POP POP JUMP JUMPDEST PUSH2 0xB84 DUP3 PUSH2 0x871 JUMP JUMPDEST PUSH8 0xFFFFFFFFFFFFFFFF DUP2 GT ISZERO PUSH2 0xB9D JUMPI PUSH2 0xB9C PUSH2 0x628 JUMP JUMPDEST JUMPDEST PUSH2 0xBA7 DUP3 SLOAD PUSH2 0x933 JUMP JUMPDEST PUSH2 0xBB2 DUP3 DUP3 DUP6 PUSH2 0xAF2 JUMP JUMPDEST PUSH0 PUSH1 0x20 SWAP1 POP PUSH1 0x1F DUP4 GT PUSH1 0x1 DUP2 EQ PUSH2 0xBE3 JUMPI PUSH0 DUP5 ISZERO PUSH2 0xBD1 JUMPI DUP3 DUP8 ADD MLOAD SWAP1 POP JUMPDEST PUSH2 0xBDB DUP6 DUP3 PUSH2 0xB60 JUMP JUMPDEST DUP7 SSTORE POP PUSH2 0xC42 JUMP JUMPDEST PUSH1 0x1F NOT DUP5 AND PUSH2 0xBF1 DUP7 PUSH2 0x9DB JUMP JUMPDEST PUSH0 JUMPDEST DUP3 DUP2 LT ISZERO PUSH2 0xC18 JUMPI DUP5 DUP10 ADD MLOAD DUP3 SSTORE PUSH1 0x1 DUP3 ADD SWAP2 POP PUSH1 0x20 DUP6 ADD SWAP5 POP PUSH1 0x20 DUP2 ADD SWAP1 POP PUSH2 0xBF3 JUMP JUMPDEST DUP7 DUP4 LT ISZERO PUSH2 0xC35 JUMPI DUP5 DUP10 ADD MLOAD PUSH2 0xC31 PUSH1 0x1F DUP10 AND DUP3 PUSH2 0xB44 JUMP JUMPDEST DUP4 SSTORE POP JUMPDEST PUSH1 0x1 PUSH1 0x2 DUP9 MUL ADD DUP9 SSTORE POP POP POP JUMPDEST POP POP POP POP POP POP JUMP JUMPDEST PUSH32 0x4E487B7100000000000000000000000000000000000000000000000000000000 PUSH0 MSTORE PUSH1 0x11 PUSH1 0x4 MSTORE PUSH1 0x24 PUSH0 REVERT JUMPDEST PUSH0 PUSH2 0xC81 DUP3 PUSH2 0x793 JUMP JUMPDEST SWAP2 POP PUSH2 0xC8C DUP4 PUSH2 0x793 JUMP JUMPDEST SWAP3 POP DUP3 DUP3 ADD SWAP1 POP DUP1 DUP3 GT ISZERO PUSH2 0xCA4 JUMPI PUSH2 0xCA3 PUSH2 0xC4A JUMP JUMPDEST JUMPDEST SWAP3 SWAP2 POP POP JUMP INVALID LOG2 PUSH5 0x6970667358 0x22 SLT KECCAK256 PUSH28 0x4FC395C130C770C95090F33769985CF16FAD12710FD9B01A3E36781D 0x4D 0xBC PUSH12 0x64736F6C634300081E003300 "
				},
				"gasEstimates": {
					"creation": {
						"codeDepositCost": "659200",
						"executionCost": "infinite",
						"totalCost": "infinite"
					},
					"external": {
						"getVotes(string)": "infinite",
						"owner()": "2559",
						"renounceOwnership()": "infinite",
						"resetVotes()": "infinite",
						"resetVotes(string)": "infinite",
						"transferOwnership(address)": "infinite",
						"vote(string)": "infinite"
					}
				},
				"methodIdentifiers": {
					"getVotes(string)": "805265e5",
					"owner()": "8da5cb5b",
					"renounceOwnership()": "715018a6",
					"resetVotes()": "b9830ff1",
					"resetVotes(string)": "f3fa4226",
					"transferOwnership(address)": "f2fde38b",
					"vote(string)": "fc36e15b"
				}
			},
			"storageLayout": {
				"storage": [
					{
						"astId": 8,
						"contract": "basic/Voting.sol:Voting",
						"label": "_owner",
						"offset": 0,
						"slot": "0",
						"type": "t_address"
					},
					{
						"astId": 193,
						"contract": "basic/Voting.sol:Voting",
						"label": "_voteCounts",
						"offset": 0,
						"slot": "1",
						"type": "t_mapping(t_string_memory_ptr,t_uint256)"
					},
					{
						"astId": 196,
						"contract": "basic/Voting.sol:Voting",
						"label": "names",
						"offset": 0,
						"slot": "2",
						"type": "t_array(t_string_storage)dyn_storage"
					}
				],
				"types": {
					"t_address": {
						"encoding": "inplace",
						"label": "address",
						"numberOfBytes": "20"
					},
					"t_array(t_string_storage)dyn_storage": {
						"base": "t_string_storage",
						"encoding": "dynamic_array",
						"label": "string[]",
						"numberOfBytes": "32"
					},
					"t_mapping(t_string_memory_ptr,t_uint256)": {
						"encoding": "mapping",
						"key": "t_string_memory_ptr",
						"label": "mapping(string => uint256)",
						"numberOfBytes": "32",
						"value": "t_uint256"
					},
					"t_string_memory_ptr": {
						"encoding": "bytes",
						"label": "string",
						"numberOfBytes": "32"
					},
					"t_string_storage": {
						"encoding": "bytes",
						"label": "string",
						"numberOfBytes": "32"
					},
					"t_uint256": {
						"encoding": "inplace",
						"label": "uint256",
						"numberOfBytes": "32"
					}
				}
			},
			"userdoc": {
				"kind": "user",
				"methods": {},
				"notice": "1.创建一个名为Voting的合约，包含以下功能： 一个mapping来存储候选人的得票数 一个vote函数，允许用户投票给某个候选人 一个getVotes函数，返回某个候选人的得票数 一个resetVotes函数，重置所有候选人的得票数*",
				"version": 1
			}
		}
	}
}