{
	"basic/MergeSortedArray.sol": {
		"MergeSortedArray": {
			"abi": [
				{
					"inputs": [
						{
							"internalType": "int256[]",
							"name": "nums1",
							"type": "int256[]"
						},
						{
							"internalType": "int256[]",
							"name": "nums2",
							"type": "int256[]"
						}
					],
					"name": "merge",
					"outputs": [
						{
							"internalType": "int256[]",
							"name": "",
							"type": "int256[]"
						}
					],
					"stateMutability": "pure",
					"type": "function"
				}
			],
			"devdoc": {
				"kind": "dev",
				"methods": {},
				"version": 1
			},
			"evm": {
				"assembly": "    /* \"basic/MergeSortedArray.sol\":189:1065  contract MergeSortedArray {... */\n  mstore(0x40, 0x80)\n  callvalue\n  dup1\n  iszero\n  tag_1\n  jumpi\n  revert(0x00, 0x00)\ntag_1:\n  pop\n  dataSize(sub_0)\n  dup1\n  dataOffset(sub_0)\n  0x00\n  codecopy\n  0x00\n  return\nstop\n\nsub_0: assembly {\n        /* \"basic/MergeSortedArray.sol\":189:1065  contract MergeSortedArray {... */\n      mstore(0x40, 0x80)\n      callvalue\n      dup1\n      iszero\n      tag_1\n      jumpi\n      revert(0x00, 0x00)\n    tag_1:\n      pop\n      jumpi(tag_2, lt(calldatasize, 0x04))\n      shr(0xe0, calldataload(0x00))\n      dup1\n      0x8e13aff1\n      eq\n      tag_3\n      jumpi\n    tag_2:\n      revert(0x00, 0x00)\n        /* \"basic/MergeSortedArray.sol\":228:1062  function merge(int[] memory nums1, int[] memory nums2) public pure returns (int[] memory) {... */\n    tag_3:\n      tag_4\n      0x04\n      dup1\n      calldatasize\n      sub\n      dup2\n      add\n      swap1\n      tag_5\n      swap2\n      swap1\n      tag_6\n      jump\t// in\n    tag_5:\n      tag_7\n      jump\t// in\n    tag_4:\n      mload(0x40)\n      tag_8\n      swap2\n      swap1\n      tag_9\n      jump\t// in\n    tag_8:\n      mload(0x40)\n      dup1\n      swap2\n      sub\n      swap1\n      return\n    tag_7:\n        /* \"basic/MergeSortedArray.sol\":304:316  int[] memory */\n      0x60\n        /* \"basic/MergeSortedArray.sol\":329:335  uint m */\n      0x00\n        /* \"basic/MergeSortedArray.sol\":338:343  nums1 */\n      dup4\n        /* \"basic/MergeSortedArray.sol\":338:350  nums1.length */\n      mload\n        /* \"basic/MergeSortedArray.sol\":329:350  uint m = nums1.length */\n      swap1\n      pop\n        /* \"basic/MergeSortedArray.sol\":361:367  uint n */\n      0x00\n        /* \"basic/MergeSortedArray.sol\":370:375  nums2 */\n      dup4\n        /* \"basic/MergeSortedArray.sol\":370:382  nums2.length */\n      mload\n        /* \"basic/MergeSortedArray.sol\":361:382  uint n = nums2.length */\n      swap1\n      pop\n        /* \"basic/MergeSortedArray.sol\":393:412  int[] memory merged */\n      0x00\n        /* \"basic/MergeSortedArray.sol\":429:430  n */\n      dup2\n        /* \"basic/MergeSortedArray.sol\":425:426  m */\n      dup4\n        /* \"basic/MergeSortedArray.sol\":425:430  m + n */\n      tag_11\n      swap2\n      swap1\n      tag_12\n      jump\t// in\n    tag_11:\n        /* \"basic/MergeSortedArray.sol\":415:431  new int[](m + n) */\n      0xffffffffffffffff\n      dup2\n      gt\n      iszero\n      tag_13\n      jumpi\n      tag_14\n      tag_15\n      jump\t// in\n    tag_14:\n    tag_13:\n      mload(0x40)\n      swap1\n      dup1\n      dup3\n      mstore\n      dup1\n      0x20\n      mul\n      0x20\n      add\n      dup3\n      add\n      0x40\n      mstore\n      dup1\n      iszero\n      tag_16\n      jumpi\n      dup2\n      0x20\n      add\n      0x20\n      dup3\n      mul\n      dup1\n      calldatasize\n      dup4\n      calldatacopy\n      dup1\n      dup3\n      add\n      swap2\n      pop\n      pop\n      swap1\n      pop\n    tag_16:\n      pop\n        /* \"basic/MergeSortedArray.sol\":393:431  int[] memory merged = new int[](m + n) */\n      swap1\n      pop\n        /* \"basic/MergeSortedArray.sol\":442:448  uint i */\n      0x00\n        /* \"basic/MergeSortedArray.sol\":451:452  0 */\n      0x00\n        /* \"basic/MergeSortedArray.sol\":442:452  uint i = 0 */\n      swap1\n      pop\n        /* \"basic/MergeSortedArray.sol\":463:469  uint j */\n      0x00\n        /* \"basic/MergeSortedArray.sol\":472:473  0 */\n      0x00\n        /* \"basic/MergeSortedArray.sol\":463:473  uint j = 0 */\n      swap1\n      pop\n        /* \"basic/MergeSortedArray.sol\":484:494  uint m_idx */\n      0x00\n        /* \"basic/MergeSortedArray.sol\":497:498  0 */\n      0x00\n        /* \"basic/MergeSortedArray.sol\":484:498  uint m_idx = 0 */\n      swap1\n      pop\n        /* \"basic/MergeSortedArray.sol\":519:781  while (i < m && j<n) {... */\n    tag_17:\n        /* \"basic/MergeSortedArray.sol\":530:531  m */\n      dup6\n        /* \"basic/MergeSortedArray.sol\":526:527  i */\n      dup4\n        /* \"basic/MergeSortedArray.sol\":526:531  i < m */\n      lt\n        /* \"basic/MergeSortedArray.sol\":526:538  i < m && j<n */\n      dup1\n      iszero\n      tag_19\n      jumpi\n      pop\n        /* \"basic/MergeSortedArray.sol\":537:538  n */\n      dup5\n        /* \"basic/MergeSortedArray.sol\":535:536  j */\n      dup3\n        /* \"basic/MergeSortedArray.sol\":535:538  j<n */\n      lt\n        /* \"basic/MergeSortedArray.sol\":526:538  i < m && j<n */\n    tag_19:\n        /* \"basic/MergeSortedArray.sol\":519:781  while (i < m && j<n) {... */\n      iszero\n      tag_18\n      jumpi\n        /* \"basic/MergeSortedArray.sol\":570:575  nums2 */\n      dup8\n        /* \"basic/MergeSortedArray.sol\":576:577  j */\n      dup3\n        /* \"basic/MergeSortedArray.sol\":570:578  nums2[j] */\n      dup2\n      mload\n      dup2\n      lt\n      tag_20\n      jumpi\n      tag_21\n      tag_22\n      jump\t// in\n    tag_21:\n    tag_20:\n      0x20\n      mul\n      0x20\n      add\n      add\n      mload\n        /* \"basic/MergeSortedArray.sol\":559:564  nums1 */\n      dup10\n        /* \"basic/MergeSortedArray.sol\":565:566  i */\n      dup5\n        /* \"basic/MergeSortedArray.sol\":559:567  nums1[i] */\n      dup2\n      mload\n      dup2\n      lt\n      tag_23\n      jumpi\n      tag_24\n      tag_22\n      jump\t// in\n    tag_24:\n    tag_23:\n      0x20\n      mul\n      0x20\n      add\n      add\n      mload\n        /* \"basic/MergeSortedArray.sol\":559:578  nums1[i] < nums2[j] */\n      slt\n        /* \"basic/MergeSortedArray.sol\":555:748  if (nums1[i] < nums2[j]) {... */\n      iszero\n      tag_25\n      jumpi\n        /* \"basic/MergeSortedArray.sol\":615:620  nums1 */\n      dup9\n        /* \"basic/MergeSortedArray.sol\":621:622  i */\n      dup4\n        /* \"basic/MergeSortedArray.sol\":615:623  nums1[i] */\n      dup2\n      mload\n      dup2\n      lt\n      tag_26\n      jumpi\n      tag_27\n      tag_22\n      jump\t// in\n    tag_27:\n    tag_26:\n      0x20\n      mul\n      0x20\n      add\n      add\n      mload\n        /* \"basic/MergeSortedArray.sol\":599:605  merged */\n      dup5\n        /* \"basic/MergeSortedArray.sol\":606:611  m_idx */\n      dup3\n        /* \"basic/MergeSortedArray.sol\":599:612  merged[m_idx] */\n      dup2\n      mload\n      dup2\n      lt\n      tag_28\n      jumpi\n      tag_29\n      tag_22\n      jump\t// in\n    tag_29:\n    tag_28:\n      0x20\n      mul\n      0x20\n      add\n      add\n        /* \"basic/MergeSortedArray.sol\":599:623  merged[m_idx] = nums1[i] */\n      dup2\n      dup2\n      mstore\n      pop\n      pop\n        /* \"basic/MergeSortedArray.sol\":642:645  i++ */\n      dup3\n      dup1\n      tag_30\n      swap1\n      tag_31\n      jump\t// in\n    tag_30:\n      swap4\n      pop\n      pop\n        /* \"basic/MergeSortedArray.sol\":555:748  if (nums1[i] < nums2[j]) {... */\n      jump(tag_32)\n    tag_25:\n        /* \"basic/MergeSortedArray.sol\":702:707  nums2 */\n      dup8\n        /* \"basic/MergeSortedArray.sol\":708:709  j */\n      dup3\n        /* \"basic/MergeSortedArray.sol\":702:710  nums2[j] */\n      dup2\n      mload\n      dup2\n      lt\n      tag_33\n      jumpi\n      tag_34\n      tag_22\n      jump\t// in\n    tag_34:\n    tag_33:\n      0x20\n      mul\n      0x20\n      add\n      add\n      mload\n        /* \"basic/MergeSortedArray.sol\":686:692  merged */\n      dup5\n        /* \"basic/MergeSortedArray.sol\":693:698  m_idx */\n      dup3\n        /* \"basic/MergeSortedArray.sol\":686:699  merged[m_idx] */\n      dup2\n      mload\n      dup2\n      lt\n      tag_35\n      jumpi\n      tag_36\n      tag_22\n      jump\t// in\n    tag_36:\n    tag_35:\n      0x20\n      mul\n      0x20\n      add\n      add\n        /* \"basic/MergeSortedArray.sol\":686:710  merged[m_idx] = nums2[j] */\n      dup2\n      dup2\n      mstore\n      pop\n      pop\n        /* \"basic/MergeSortedArray.sol\":729:732  j++ */\n      dup2\n      dup1\n      tag_37\n      swap1\n      tag_31\n      jump\t// in\n    tag_37:\n      swap3\n      pop\n      pop\n        /* \"basic/MergeSortedArray.sol\":555:748  if (nums1[i] < nums2[j]) {... */\n    tag_32:\n        /* \"basic/MergeSortedArray.sol\":762:769  m_idx++ */\n      dup1\n      dup1\n      tag_38\n      swap1\n      tag_31\n      jump\t// in\n    tag_38:\n      swap2\n      pop\n      pop\n        /* \"basic/MergeSortedArray.sol\":519:781  while (i < m && j<n) {... */\n      jump(tag_17)\n    tag_18:\n        /* \"basic/MergeSortedArray.sol\":801:906  while (i < m) {... */\n    tag_39:\n        /* \"basic/MergeSortedArray.sol\":812:813  m */\n      dup6\n        /* \"basic/MergeSortedArray.sol\":808:809  i */\n      dup4\n        /* \"basic/MergeSortedArray.sol\":808:813  i < m */\n      lt\n        /* \"basic/MergeSortedArray.sol\":801:906  while (i < m) {... */\n      iszero\n      tag_40\n      jumpi\n        /* \"basic/MergeSortedArray.sol\":846:851  nums1 */\n      dup9\n        /* \"basic/MergeSortedArray.sol\":852:853  i */\n      dup4\n        /* \"basic/MergeSortedArray.sol\":846:854  nums1[i] */\n      dup2\n      mload\n      dup2\n      lt\n      tag_41\n      jumpi\n      tag_42\n      tag_22\n      jump\t// in\n    tag_42:\n    tag_41:\n      0x20\n      mul\n      0x20\n      add\n      add\n      mload\n        /* \"basic/MergeSortedArray.sol\":830:836  merged */\n      dup5\n        /* \"basic/MergeSortedArray.sol\":837:842  m_idx */\n      dup3\n        /* \"basic/MergeSortedArray.sol\":830:843  merged[m_idx] */\n      dup2\n      mload\n      dup2\n      lt\n      tag_43\n      jumpi\n      tag_44\n      tag_22\n      jump\t// in\n    tag_44:\n    tag_43:\n      0x20\n      mul\n      0x20\n      add\n      add\n        /* \"basic/MergeSortedArray.sol\":830:854  merged[m_idx] = nums1[i] */\n      dup2\n      dup2\n      mstore\n      pop\n      pop\n        /* \"basic/MergeSortedArray.sol\":869:872  i++ */\n      dup3\n      dup1\n      tag_45\n      swap1\n      tag_31\n      jump\t// in\n    tag_45:\n      swap4\n      pop\n      pop\n        /* \"basic/MergeSortedArray.sol\":887:894  m_idx++ */\n      dup1\n      dup1\n      tag_46\n      swap1\n      tag_31\n      jump\t// in\n    tag_46:\n      swap2\n      pop\n      pop\n        /* \"basic/MergeSortedArray.sol\":801:906  while (i < m) {... */\n      jump(tag_39)\n    tag_40:\n        /* \"basic/MergeSortedArray.sol\":926:1031  while (j < n) {... */\n    tag_47:\n        /* \"basic/MergeSortedArray.sol\":937:938  n */\n      dup5\n        /* \"basic/MergeSortedArray.sol\":933:934  j */\n      dup3\n        /* \"basic/MergeSortedArray.sol\":933:938  j < n */\n      lt\n        /* \"basic/MergeSortedArray.sol\":926:1031  while (j < n) {... */\n      iszero\n      tag_48\n      jumpi\n        /* \"basic/MergeSortedArray.sol\":971:976  nums2 */\n      dup8\n        /* \"basic/MergeSortedArray.sol\":977:978  j */\n      dup3\n        /* \"basic/MergeSortedArray.sol\":971:979  nums2[j] */\n      dup2\n      mload\n      dup2\n      lt\n      tag_49\n      jumpi\n      tag_50\n      tag_22\n      jump\t// in\n    tag_50:\n    tag_49:\n      0x20\n      mul\n      0x20\n      add\n      add\n      mload\n        /* \"basic/MergeSortedArray.sol\":955:961  merged */\n      dup5\n        /* \"basic/MergeSortedArray.sol\":962:967  m_idx */\n      dup3\n        /* \"basic/MergeSortedArray.sol\":955:968  merged[m_idx] */\n      dup2\n      mload\n      dup2\n      lt\n      tag_51\n      jumpi\n      tag_52\n      tag_22\n      jump\t// in\n    tag_52:\n    tag_51:\n      0x20\n      mul\n      0x20\n      add\n      add\n        /* \"basic/MergeSortedArray.sol\":955:979  merged[m_idx] = nums2[j] */\n      dup2\n      dup2\n      mstore\n      pop\n      pop\n        /* \"basic/MergeSortedArray.sol\":994:997  j++ */\n      dup2\n      dup1\n      tag_53\n      swap1\n      tag_31\n      jump\t// in\n    tag_53:\n      swap3\n      pop\n      pop\n        /* \"basic/MergeSortedArray.sol\":1012:1019  m_idx++ */\n      dup1\n      dup1\n      tag_54\n      swap1\n      tag_31\n      jump\t// in\n    tag_54:\n      swap2\n      pop\n      pop\n        /* \"basic/MergeSortedArray.sol\":926:1031  while (j < n) {... */\n      jump(tag_47)\n    tag_48:\n        /* \"basic/MergeSortedArray.sol\":1048:1054  merged */\n      dup4\n        /* \"basic/MergeSortedArray.sol\":1041:1054  return merged */\n      swap7\n      pop\n      pop\n      pop\n      pop\n      pop\n      pop\n      pop\n        /* \"basic/MergeSortedArray.sol\":228:1062  function merge(int[] memory nums1, int[] memory nums2) public pure returns (int[] memory) {... */\n      swap3\n      swap2\n      pop\n      pop\n      jump\t// out\n        /* \"#utility.yul\":7:82   */\n    tag_55:\n        /* \"#utility.yul\":40:46   */\n      0x00\n        /* \"#utility.yul\":73:75   */\n      0x40\n        /* \"#utility.yul\":67:76   */\n      mload\n        /* \"#utility.yul\":57:76   */\n      swap1\n      pop\n        /* \"#utility.yul\":7:82   */\n      swap1\n      jump\t// out\n        /* \"#utility.yul\":88:205   */\n    tag_56:\n        /* \"#utility.yul\":197:198   */\n      0x00\n        /* \"#utility.yul\":194:195   */\n      0x00\n        /* \"#utility.yul\":187:199   */\n      revert\n        /* \"#utility.yul\":211:328   */\n    tag_57:\n        /* \"#utility.yul\":320:321   */\n      0x00\n        /* \"#utility.yul\":317:318   */\n      0x00\n        /* \"#utility.yul\":310:322   */\n      revert\n        /* \"#utility.yul\":334:451   */\n    tag_58:\n        /* \"#utility.yul\":443:444   */\n      0x00\n        /* \"#utility.yul\":440:441   */\n      0x00\n        /* \"#utility.yul\":433:445   */\n      revert\n        /* \"#utility.yul\":457:559   */\n    tag_59:\n        /* \"#utility.yul\":498:504   */\n      0x00\n        /* \"#utility.yul\":549:551   */\n      0x1f\n        /* \"#utility.yul\":545:552   */\n      not\n        /* \"#utility.yul\":540:542   */\n      0x1f\n        /* \"#utility.yul\":533:538   */\n      dup4\n        /* \"#utility.yul\":529:543   */\n      add\n        /* \"#utility.yul\":525:553   */\n      and\n        /* \"#utility.yul\":515:553   */\n      swap1\n      pop\n        /* \"#utility.yul\":457:559   */\n      swap2\n      swap1\n      pop\n      jump\t// out\n        /* \"#utility.yul\":565:745   */\n    tag_15:\n        /* \"#utility.yul\":613:690   */\n      0x4e487b7100000000000000000000000000000000000000000000000000000000\n        /* \"#utility.yul\":610:611   */\n      0x00\n        /* \"#utility.yul\":603:691   */\n      mstore\n        /* \"#utility.yul\":710:714   */\n      0x41\n        /* \"#utility.yul\":707:708   */\n      0x04\n        /* \"#utility.yul\":700:715   */\n      mstore\n        /* \"#utility.yul\":734:738   */\n      0x24\n        /* \"#utility.yul\":731:732   */\n      0x00\n        /* \"#utility.yul\":724:739   */\n      revert\n        /* \"#utility.yul\":751:1032   */\n    tag_60:\n        /* \"#utility.yul\":834:861   */\n      tag_86\n        /* \"#utility.yul\":856:860   */\n      dup3\n        /* \"#utility.yul\":834:861   */\n      tag_59\n      jump\t// in\n    tag_86:\n        /* \"#utility.yul\":826:832   */\n      dup2\n        /* \"#utility.yul\":822:862   */\n      add\n        /* \"#utility.yul\":964:970   */\n      dup2\n        /* \"#utility.yul\":952:962   */\n      dup2\n        /* \"#utility.yul\":949:971   */\n      lt\n        /* \"#utility.yul\":928:946   */\n      0xffffffffffffffff\n        /* \"#utility.yul\":916:926   */\n      dup3\n        /* \"#utility.yul\":913:947   */\n      gt\n        /* \"#utility.yul\":910:972   */\n      or\n        /* \"#utility.yul\":907:995   */\n      iszero\n      tag_87\n      jumpi\n        /* \"#utility.yul\":975:993   */\n      tag_88\n      tag_15\n      jump\t// in\n    tag_88:\n        /* \"#utility.yul\":907:995   */\n    tag_87:\n        /* \"#utility.yul\":1015:1025   */\n      dup1\n        /* \"#utility.yul\":1011:1013   */\n      0x40\n        /* \"#utility.yul\":1004:1026   */\n      mstore\n        /* \"#utility.yul\":794:1032   */\n      pop\n        /* \"#utility.yul\":751:1032   */\n      pop\n      pop\n      jump\t// out\n        /* \"#utility.yul\":1038:1167   */\n    tag_61:\n        /* \"#utility.yul\":1072:1078   */\n      0x00\n        /* \"#utility.yul\":1099:1119   */\n      tag_90\n      tag_55\n      jump\t// in\n    tag_90:\n        /* \"#utility.yul\":1089:1119   */\n      swap1\n      pop\n        /* \"#utility.yul\":1128:1161   */\n      tag_91\n        /* \"#utility.yul\":1156:1160   */\n      dup3\n        /* \"#utility.yul\":1148:1154   */\n      dup3\n        /* \"#utility.yul\":1128:1161   */\n      tag_60\n      jump\t// in\n    tag_91:\n        /* \"#utility.yul\":1038:1167   */\n      swap2\n      swap1\n      pop\n      jump\t// out\n        /* \"#utility.yul\":1173:1483   */\n    tag_62:\n        /* \"#utility.yul\":1249:1253   */\n      0x00\n        /* \"#utility.yul\":1339:1357   */\n      0xffffffffffffffff\n        /* \"#utility.yul\":1331:1337   */\n      dup3\n        /* \"#utility.yul\":1328:1358   */\n      gt\n        /* \"#utility.yul\":1325:1381   */\n      iszero\n      tag_93\n      jumpi\n        /* \"#utility.yul\":1361:1379   */\n      tag_94\n      tag_15\n      jump\t// in\n    tag_94:\n        /* \"#utility.yul\":1325:1381   */\n    tag_93:\n        /* \"#utility.yul\":1411:1415   */\n      0x20\n        /* \"#utility.yul\":1403:1409   */\n      dup3\n        /* \"#utility.yul\":1399:1416   */\n      mul\n        /* \"#utility.yul\":1391:1416   */\n      swap1\n      pop\n        /* \"#utility.yul\":1471:1475   */\n      0x20\n        /* \"#utility.yul\":1465:1469   */\n      dup2\n        /* \"#utility.yul\":1461:1476   */\n      add\n        /* \"#utility.yul\":1453:1476   */\n      swap1\n      pop\n        /* \"#utility.yul\":1173:1483   */\n      swap2\n      swap1\n      pop\n      jump\t// out\n        /* \"#utility.yul\":1489:1606   */\n    tag_63:\n        /* \"#utility.yul\":1598:1599   */\n      0x00\n        /* \"#utility.yul\":1595:1596   */\n      0x00\n        /* \"#utility.yul\":1588:1600   */\n      revert\n        /* \"#utility.yul\":1612:1688   */\n    tag_64:\n        /* \"#utility.yul\":1648:1655   */\n      0x00\n        /* \"#utility.yul\":1677:1682   */\n      dup2\n        /* \"#utility.yul\":1666:1682   */\n      swap1\n      pop\n        /* \"#utility.yul\":1612:1688   */\n      swap2\n      swap1\n      pop\n      jump\t// out\n        /* \"#utility.yul\":1694:1814   */\n    tag_65:\n        /* \"#utility.yul\":1766:1789   */\n      tag_98\n        /* \"#utility.yul\":1783:1788   */\n      dup2\n        /* \"#utility.yul\":1766:1789   */\n      tag_64\n      jump\t// in\n    tag_98:\n        /* \"#utility.yul\":1759:1764   */\n      dup2\n        /* \"#utility.yul\":1756:1790   */\n      eq\n        /* \"#utility.yul\":1746:1808   */\n      tag_99\n      jumpi\n        /* \"#utility.yul\":1804:1805   */\n      0x00\n        /* \"#utility.yul\":1801:1802   */\n      0x00\n        /* \"#utility.yul\":1794:1806   */\n      revert\n        /* \"#utility.yul\":1746:1808   */\n    tag_99:\n        /* \"#utility.yul\":1694:1814   */\n      pop\n      jump\t// out\n        /* \"#utility.yul\":1820:1957   */\n    tag_66:\n        /* \"#utility.yul\":1865:1870   */\n      0x00\n        /* \"#utility.yul\":1903:1909   */\n      dup2\n        /* \"#utility.yul\":1890:1910   */\n      calldataload\n        /* \"#utility.yul\":1881:1910   */\n      swap1\n      pop\n        /* \"#utility.yul\":1919:1951   */\n      tag_101\n        /* \"#utility.yul\":1945:1950   */\n      dup2\n        /* \"#utility.yul\":1919:1951   */\n      tag_65\n      jump\t// in\n    tag_101:\n        /* \"#utility.yul\":1820:1957   */\n      swap3\n      swap2\n      pop\n      pop\n      jump\t// out\n        /* \"#utility.yul\":1979:2686   */\n    tag_67:\n        /* \"#utility.yul\":2074:2079   */\n      0x00\n        /* \"#utility.yul\":2099:2179   */\n      tag_103\n        /* \"#utility.yul\":2115:2178   */\n      tag_104\n        /* \"#utility.yul\":2171:2177   */\n      dup5\n        /* \"#utility.yul\":2115:2178   */\n      tag_62\n      jump\t// in\n    tag_104:\n        /* \"#utility.yul\":2099:2179   */\n      tag_61\n      jump\t// in\n    tag_103:\n        /* \"#utility.yul\":2090:2179   */\n      swap1\n      pop\n        /* \"#utility.yul\":2199:2204   */\n      dup1\n        /* \"#utility.yul\":2228:2234   */\n      dup4\n        /* \"#utility.yul\":2221:2226   */\n      dup3\n        /* \"#utility.yul\":2214:2235   */\n      mstore\n        /* \"#utility.yul\":2262:2266   */\n      0x20\n        /* \"#utility.yul\":2255:2260   */\n      dup3\n        /* \"#utility.yul\":2251:2267   */\n      add\n        /* \"#utility.yul\":2244:2267   */\n      swap1\n      pop\n        /* \"#utility.yul\":2315:2319   */\n      0x20\n        /* \"#utility.yul\":2307:2313   */\n      dup5\n        /* \"#utility.yul\":2303:2320   */\n      mul\n        /* \"#utility.yul\":2295:2301   */\n      dup4\n        /* \"#utility.yul\":2291:2321   */\n      add\n        /* \"#utility.yul\":2344:2347   */\n      dup6\n        /* \"#utility.yul\":2336:2342   */\n      dup2\n        /* \"#utility.yul\":2333:2348   */\n      gt\n        /* \"#utility.yul\":2330:2452   */\n      iszero\n      tag_105\n      jumpi\n        /* \"#utility.yul\":2363:2442   */\n      tag_106\n      tag_63\n      jump\t// in\n    tag_106:\n        /* \"#utility.yul\":2330:2452   */\n    tag_105:\n        /* \"#utility.yul\":2478:2484   */\n      dup4\n        /* \"#utility.yul\":2461:2680   */\n    tag_107:\n        /* \"#utility.yul\":2495:2501   */\n      dup2\n        /* \"#utility.yul\":2490:2493   */\n      dup2\n        /* \"#utility.yul\":2487:2502   */\n      lt\n        /* \"#utility.yul\":2461:2680   */\n      iszero\n      tag_109\n      jumpi\n        /* \"#utility.yul\":2570:2573   */\n      dup1\n        /* \"#utility.yul\":2599:2635   */\n      tag_110\n        /* \"#utility.yul\":2631:2634   */\n      dup9\n        /* \"#utility.yul\":2619:2629   */\n      dup3\n        /* \"#utility.yul\":2599:2635   */\n      tag_66\n      jump\t// in\n    tag_110:\n        /* \"#utility.yul\":2594:2597   */\n      dup5\n        /* \"#utility.yul\":2587:2636   */\n      mstore\n        /* \"#utility.yul\":2665:2669   */\n      0x20\n        /* \"#utility.yul\":2660:2663   */\n      dup5\n        /* \"#utility.yul\":2656:2670   */\n      add\n        /* \"#utility.yul\":2649:2670   */\n      swap4\n      pop\n        /* \"#utility.yul\":2537:2680   */\n      pop\n        /* \"#utility.yul\":2521:2525   */\n      0x20\n        /* \"#utility.yul\":2516:2519   */\n      dup2\n        /* \"#utility.yul\":2512:2526   */\n      add\n        /* \"#utility.yul\":2505:2526   */\n      swap1\n      pop\n        /* \"#utility.yul\":2461:2680   */\n      jump(tag_107)\n    tag_109:\n        /* \"#utility.yul\":2465:2486   */\n      pop\n        /* \"#utility.yul\":2080:2686   */\n      pop\n      pop\n        /* \"#utility.yul\":1979:2686   */\n      swap4\n      swap3\n      pop\n      pop\n      pop\n      jump\t// out\n        /* \"#utility.yul\":2708:3076   */\n    tag_68:\n        /* \"#utility.yul\":2778:2783   */\n      0x00\n        /* \"#utility.yul\":2827:2830   */\n      dup3\n        /* \"#utility.yul\":2820:2824   */\n      0x1f\n        /* \"#utility.yul\":2812:2818   */\n      dup4\n        /* \"#utility.yul\":2808:2825   */\n      add\n        /* \"#utility.yul\":2804:2831   */\n      slt\n        /* \"#utility.yul\":2794:2916   */\n      tag_112\n      jumpi\n        /* \"#utility.yul\":2835:2914   */\n      tag_113\n      tag_58\n      jump\t// in\n    tag_113:\n        /* \"#utility.yul\":2794:2916   */\n    tag_112:\n        /* \"#utility.yul\":2952:2958   */\n      dup2\n        /* \"#utility.yul\":2939:2959   */\n      calldataload\n        /* \"#utility.yul\":2977:3070   */\n      tag_114\n        /* \"#utility.yul\":3066:3069   */\n      dup5\n        /* \"#utility.yul\":3058:3064   */\n      dup3\n        /* \"#utility.yul\":3051:3055   */\n      0x20\n        /* \"#utility.yul\":3043:3049   */\n      dup7\n        /* \"#utility.yul\":3039:3056   */\n      add\n        /* \"#utility.yul\":2977:3070   */\n      tag_67\n      jump\t// in\n    tag_114:\n        /* \"#utility.yul\":2968:3070   */\n      swap2\n      pop\n        /* \"#utility.yul\":2784:3076   */\n      pop\n        /* \"#utility.yul\":2708:3076   */\n      swap3\n      swap2\n      pop\n      pop\n      jump\t// out\n        /* \"#utility.yul\":3082:3972   */\n    tag_6:\n        /* \"#utility.yul\":3198:3204   */\n      0x00\n        /* \"#utility.yul\":3206:3212   */\n      0x00\n        /* \"#utility.yul\":3255:3257   */\n      0x40\n        /* \"#utility.yul\":3243:3252   */\n      dup4\n        /* \"#utility.yul\":3234:3241   */\n      dup6\n        /* \"#utility.yul\":3230:3253   */\n      sub\n        /* \"#utility.yul\":3226:3258   */\n      slt\n        /* \"#utility.yul\":3223:3342   */\n      iszero\n      tag_116\n      jumpi\n        /* \"#utility.yul\":3261:3340   */\n      tag_117\n      tag_56\n      jump\t// in\n    tag_117:\n        /* \"#utility.yul\":3223:3342   */\n    tag_116:\n        /* \"#utility.yul\":3409:3410   */\n      0x00\n        /* \"#utility.yul\":3398:3407   */\n      dup4\n        /* \"#utility.yul\":3394:3411   */\n      add\n        /* \"#utility.yul\":3381:3412   */\n      calldataload\n        /* \"#utility.yul\":3439:3457   */\n      0xffffffffffffffff\n        /* \"#utility.yul\":3431:3437   */\n      dup2\n        /* \"#utility.yul\":3428:3458   */\n      gt\n        /* \"#utility.yul\":3425:3542   */\n      iszero\n      tag_118\n      jumpi\n        /* \"#utility.yul\":3461:3540   */\n      tag_119\n      tag_57\n      jump\t// in\n    tag_119:\n        /* \"#utility.yul\":3425:3542   */\n    tag_118:\n        /* \"#utility.yul\":3566:3643   */\n      tag_120\n        /* \"#utility.yul\":3635:3642   */\n      dup6\n        /* \"#utility.yul\":3626:3632   */\n      dup3\n        /* \"#utility.yul\":3615:3624   */\n      dup7\n        /* \"#utility.yul\":3611:3633   */\n      add\n        /* \"#utility.yul\":3566:3643   */\n      tag_68\n      jump\t// in\n    tag_120:\n        /* \"#utility.yul\":3556:3643   */\n      swap3\n      pop\n        /* \"#utility.yul\":3352:3653   */\n      pop\n        /* \"#utility.yul\":3720:3722   */\n      0x20\n        /* \"#utility.yul\":3709:3718   */\n      dup4\n        /* \"#utility.yul\":3705:3723   */\n      add\n        /* \"#utility.yul\":3692:3724   */\n      calldataload\n        /* \"#utility.yul\":3751:3769   */\n      0xffffffffffffffff\n        /* \"#utility.yul\":3743:3749   */\n      dup2\n        /* \"#utility.yul\":3740:3770   */\n      gt\n        /* \"#utility.yul\":3737:3854   */\n      iszero\n      tag_121\n      jumpi\n        /* \"#utility.yul\":3773:3852   */\n      tag_122\n      tag_57\n      jump\t// in\n    tag_122:\n        /* \"#utility.yul\":3737:3854   */\n    tag_121:\n        /* \"#utility.yul\":3878:3955   */\n      tag_123\n        /* \"#utility.yul\":3947:3954   */\n      dup6\n        /* \"#utility.yul\":3938:3944   */\n      dup3\n        /* \"#utility.yul\":3927:3936   */\n      dup7\n        /* \"#utility.yul\":3923:3945   */\n      add\n        /* \"#utility.yul\":3878:3955   */\n      tag_68\n      jump\t// in\n    tag_123:\n        /* \"#utility.yul\":3868:3955   */\n      swap2\n      pop\n        /* \"#utility.yul\":3663:3965   */\n      pop\n        /* \"#utility.yul\":3082:3972   */\n      swap3\n      pop\n      swap3\n      swap1\n      pop\n      jump\t// out\n        /* \"#utility.yul\":3978:4091   */\n    tag_69:\n        /* \"#utility.yul\":4044:4050   */\n      0x00\n        /* \"#utility.yul\":4078:4083   */\n      dup2\n        /* \"#utility.yul\":4072:4084   */\n      mload\n        /* \"#utility.yul\":4062:4084   */\n      swap1\n      pop\n        /* \"#utility.yul\":3978:4091   */\n      swap2\n      swap1\n      pop\n      jump\t// out\n        /* \"#utility.yul\":4097:4280   */\n    tag_70:\n        /* \"#utility.yul\":4195:4206   */\n      0x00\n        /* \"#utility.yul\":4229:4235   */\n      dup3\n        /* \"#utility.yul\":4224:4227   */\n      dup3\n        /* \"#utility.yul\":4217:4236   */\n      mstore\n        /* \"#utility.yul\":4269:4273   */\n      0x20\n        /* \"#utility.yul\":4264:4267   */\n      dup3\n        /* \"#utility.yul\":4260:4274   */\n      add\n        /* \"#utility.yul\":4245:4274   */\n      swap1\n      pop\n        /* \"#utility.yul\":4097:4280   */\n      swap3\n      swap2\n      pop\n      pop\n      jump\t// out\n        /* \"#utility.yul\":4286:4417   */\n    tag_71:\n        /* \"#utility.yul\":4352:4356   */\n      0x00\n        /* \"#utility.yul\":4375:4378   */\n      dup2\n        /* \"#utility.yul\":4367:4378   */\n      swap1\n      pop\n        /* \"#utility.yul\":4405:4409   */\n      0x20\n        /* \"#utility.yul\":4400:4403   */\n      dup3\n        /* \"#utility.yul\":4396:4410   */\n      add\n        /* \"#utility.yul\":4388:4410   */\n      swap1\n      pop\n        /* \"#utility.yul\":4286:4417   */\n      swap2\n      swap1\n      pop\n      jump\t// out\n        /* \"#utility.yul\":4423:4528   */\n    tag_72:\n        /* \"#utility.yul\":4498:4521   */\n      tag_128\n        /* \"#utility.yul\":4515:4520   */\n      dup2\n        /* \"#utility.yul\":4498:4521   */\n      tag_64\n      jump\t// in\n    tag_128:\n        /* \"#utility.yul\":4493:4496   */\n      dup3\n        /* \"#utility.yul\":4486:4522   */\n      mstore\n        /* \"#utility.yul\":4423:4528   */\n      pop\n      pop\n      jump\t// out\n        /* \"#utility.yul\":4534:4709   */\n    tag_73:\n        /* \"#utility.yul\":4601:4611   */\n      0x00\n        /* \"#utility.yul\":4622:4666   */\n      tag_130\n        /* \"#utility.yul\":4662:4665   */\n      dup4\n        /* \"#utility.yul\":4654:4660   */\n      dup4\n        /* \"#utility.yul\":4622:4666   */\n      tag_72\n      jump\t// in\n    tag_130:\n        /* \"#utility.yul\":4698:4702   */\n      0x20\n        /* \"#utility.yul\":4693:4696   */\n      dup4\n        /* \"#utility.yul\":4689:4703   */\n      add\n        /* \"#utility.yul\":4675:4703   */\n      swap1\n      pop\n        /* \"#utility.yul\":4534:4709   */\n      swap3\n      swap2\n      pop\n      pop\n      jump\t// out\n        /* \"#utility.yul\":4715:4827   */\n    tag_74:\n        /* \"#utility.yul\":4784:4788   */\n      0x00\n        /* \"#utility.yul\":4816:4820   */\n      0x20\n        /* \"#utility.yul\":4811:4814   */\n      dup3\n        /* \"#utility.yul\":4807:4821   */\n      add\n        /* \"#utility.yul\":4799:4821   */\n      swap1\n      pop\n        /* \"#utility.yul\":4715:4827   */\n      swap2\n      swap1\n      pop\n      jump\t// out\n        /* \"#utility.yul\":4861:5585   */\n    tag_75:\n        /* \"#utility.yul\":4978:4981   */\n      0x00\n        /* \"#utility.yul\":5007:5060   */\n      tag_133\n        /* \"#utility.yul\":5054:5059   */\n      dup3\n        /* \"#utility.yul\":5007:5060   */\n      tag_69\n      jump\t// in\n    tag_133:\n        /* \"#utility.yul\":5076:5161   */\n      tag_134\n        /* \"#utility.yul\":5154:5160   */\n      dup2\n        /* \"#utility.yul\":5149:5152   */\n      dup6\n        /* \"#utility.yul\":5076:5161   */\n      tag_70\n      jump\t// in\n    tag_134:\n        /* \"#utility.yul\":5069:5161   */\n      swap4\n      pop\n        /* \"#utility.yul\":5185:5240   */\n      tag_135\n        /* \"#utility.yul\":5234:5239   */\n      dup4\n        /* \"#utility.yul\":5185:5240   */\n      tag_71\n      jump\t// in\n    tag_135:\n        /* \"#utility.yul\":5263:5270   */\n      dup1\n        /* \"#utility.yul\":5294:5295   */\n      0x00\n        /* \"#utility.yul\":5279:5560   */\n    tag_136:\n        /* \"#utility.yul\":5304:5310   */\n      dup4\n        /* \"#utility.yul\":5301:5302   */\n      dup2\n        /* \"#utility.yul\":5298:5311   */\n      lt\n        /* \"#utility.yul\":5279:5560   */\n      iszero\n      tag_138\n      jumpi\n        /* \"#utility.yul\":5380:5386   */\n      dup2\n        /* \"#utility.yul\":5374:5387   */\n      mload\n        /* \"#utility.yul\":5407:5468   */\n      tag_139\n        /* \"#utility.yul\":5464:5467   */\n      dup9\n        /* \"#utility.yul\":5449:5462   */\n      dup3\n        /* \"#utility.yul\":5407:5468   */\n      tag_73\n      jump\t// in\n    tag_139:\n        /* \"#utility.yul\":5400:5468   */\n      swap8\n      pop\n        /* \"#utility.yul\":5491:5550   */\n      tag_140\n        /* \"#utility.yul\":5543:5549   */\n      dup4\n        /* \"#utility.yul\":5491:5550   */\n      tag_74\n      jump\t// in\n    tag_140:\n        /* \"#utility.yul\":5481:5550   */\n      swap3\n      pop\n        /* \"#utility.yul\":5339:5560   */\n      pop\n        /* \"#utility.yul\":5326:5327   */\n      0x01\n        /* \"#utility.yul\":5323:5324   */\n      dup2\n        /* \"#utility.yul\":5319:5328   */\n      add\n        /* \"#utility.yul\":5314:5328   */\n      swap1\n      pop\n        /* \"#utility.yul\":5279:5560   */\n      jump(tag_136)\n    tag_138:\n        /* \"#utility.yul\":5283:5297   */\n      pop\n        /* \"#utility.yul\":5576:5579   */\n      dup6\n        /* \"#utility.yul\":5569:5579   */\n      swap4\n      pop\n        /* \"#utility.yul\":4983:5585   */\n      pop\n      pop\n      pop\n        /* \"#utility.yul\":4861:5585   */\n      swap3\n      swap2\n      pop\n      pop\n      jump\t// out\n        /* \"#utility.yul\":5591:5960   */\n    tag_9:\n        /* \"#utility.yul\":5732:5736   */\n      0x00\n        /* \"#utility.yul\":5770:5772   */\n      0x20\n        /* \"#utility.yul\":5759:5768   */\n      dup3\n        /* \"#utility.yul\":5755:5773   */\n      add\n        /* \"#utility.yul\":5747:5773   */\n      swap1\n      pop\n        /* \"#utility.yul\":5819:5828   */\n      dup2\n        /* \"#utility.yul\":5813:5817   */\n      dup2\n        /* \"#utility.yul\":5809:5829   */\n      sub\n        /* \"#utility.yul\":5805:5806   */\n      0x00\n        /* \"#utility.yul\":5794:5803   */\n      dup4\n        /* \"#utility.yul\":5790:5807   */\n      add\n        /* \"#utility.yul\":5783:5830   */\n      mstore\n        /* \"#utility.yul\":5847:5953   */\n      tag_142\n        /* \"#utility.yul\":5948:5952   */\n      dup2\n        /* \"#utility.yul\":5939:5945   */\n      dup5\n        /* \"#utility.yul\":5847:5953   */\n      tag_75\n      jump\t// in\n    tag_142:\n        /* \"#utility.yul\":5839:5953   */\n      swap1\n      pop\n        /* \"#utility.yul\":5591:5960   */\n      swap3\n      swap2\n      pop\n      pop\n      jump\t// out\n        /* \"#utility.yul\":5966:6043   */\n    tag_76:\n        /* \"#utility.yul\":6003:6010   */\n      0x00\n        /* \"#utility.yul\":6032:6037   */\n      dup2\n        /* \"#utility.yul\":6021:6037   */\n      swap1\n      pop\n        /* \"#utility.yul\":5966:6043   */\n      swap2\n      swap1\n      pop\n      jump\t// out\n        /* \"#utility.yul\":6049:6229   */\n    tag_77:\n        /* \"#utility.yul\":6097:6174   */\n      0x4e487b7100000000000000000000000000000000000000000000000000000000\n        /* \"#utility.yul\":6094:6095   */\n      0x00\n        /* \"#utility.yul\":6087:6175   */\n      mstore\n        /* \"#utility.yul\":6194:6198   */\n      0x11\n        /* \"#utility.yul\":6191:6192   */\n      0x04\n        /* \"#utility.yul\":6184:6199   */\n      mstore\n        /* \"#utility.yul\":6218:6222   */\n      0x24\n        /* \"#utility.yul\":6215:6216   */\n      0x00\n        /* \"#utility.yul\":6208:6223   */\n      revert\n        /* \"#utility.yul\":6235:6426   */\n    tag_12:\n        /* \"#utility.yul\":6275:6278   */\n      0x00\n        /* \"#utility.yul\":6294:6314   */\n      tag_146\n        /* \"#utility.yul\":6312:6313   */\n      dup3\n        /* \"#utility.yul\":6294:6314   */\n      tag_76\n      jump\t// in\n    tag_146:\n        /* \"#utility.yul\":6289:6314   */\n      swap2\n      pop\n        /* \"#utility.yul\":6328:6348   */\n      tag_147\n        /* \"#utility.yul\":6346:6347   */\n      dup4\n        /* \"#utility.yul\":6328:6348   */\n      tag_76\n      jump\t// in\n    tag_147:\n        /* \"#utility.yul\":6323:6348   */\n      swap3\n      pop\n        /* \"#utility.yul\":6371:6372   */\n      dup3\n        /* \"#utility.yul\":6368:6369   */\n      dup3\n        /* \"#utility.yul\":6364:6373   */\n      add\n        /* \"#utility.yul\":6357:6373   */\n      swap1\n      pop\n        /* \"#utility.yul\":6392:6395   */\n      dup1\n        /* \"#utility.yul\":6389:6390   */\n      dup3\n        /* \"#utility.yul\":6386:6396   */\n      gt\n        /* \"#utility.yul\":6383:6419   */\n      iszero\n      tag_148\n      jumpi\n        /* \"#utility.yul\":6399:6417   */\n      tag_149\n      tag_77\n      jump\t// in\n    tag_149:\n        /* \"#utility.yul\":6383:6419   */\n    tag_148:\n        /* \"#utility.yul\":6235:6426   */\n      swap3\n      swap2\n      pop\n      pop\n      jump\t// out\n        /* \"#utility.yul\":6432:6612   */\n    tag_22:\n        /* \"#utility.yul\":6480:6557   */\n      0x4e487b7100000000000000000000000000000000000000000000000000000000\n        /* \"#utility.yul\":6477:6478   */\n      0x00\n        /* \"#utility.yul\":6470:6558   */\n      mstore\n        /* \"#utility.yul\":6577:6581   */\n      0x32\n        /* \"#utility.yul\":6574:6575   */\n      0x04\n        /* \"#utility.yul\":6567:6582   */\n      mstore\n        /* \"#utility.yul\":6601:6605   */\n      0x24\n        /* \"#utility.yul\":6598:6599   */\n      0x00\n        /* \"#utility.yul\":6591:6606   */\n      revert\n        /* \"#utility.yul\":6618:6851   */\n    tag_31:\n        /* \"#utility.yul\":6657:6660   */\n      0x00\n        /* \"#utility.yul\":6680:6704   */\n      tag_152\n        /* \"#utility.yul\":6698:6703   */\n      dup3\n        /* \"#utility.yul\":6680:6704   */\n      tag_76\n      jump\t// in\n    tag_152:\n        /* \"#utility.yul\":6671:6704   */\n      swap2\n      pop\n        /* \"#utility.yul\":6726:6792   */\n      0xffffffffffffffffffffffffffffffffffffffffffffffffffffffffffffffff\n        /* \"#utility.yul\":6719:6724   */\n      dup3\n        /* \"#utility.yul\":6716:6793   */\n      sub\n        /* \"#utility.yul\":6713:6816   */\n      tag_153\n      jumpi\n        /* \"#utility.yul\":6796:6814   */\n      tag_154\n      tag_77\n      jump\t// in\n    tag_154:\n        /* \"#utility.yul\":6713:6816   */\n    tag_153:\n        /* \"#utility.yul\":6843:6844   */\n      0x01\n        /* \"#utility.yul\":6836:6841   */\n      dup3\n        /* \"#utility.yul\":6832:6845   */\n      add\n        /* \"#utility.yul\":6825:6845   */\n      swap1\n      pop\n        /* \"#utility.yul\":6618:6851   */\n      swap2\n      swap1\n      pop\n      jump\t// out\n\n    auxdata: 0xa26469706673582212206499e1d54af13d0012ffaa6a5465f86e718b597d3df4fb1c15184cc1c29a1cc664736f6c634300081e0033\n}\n",
				"bytecode": {
					"linkReferences": {},
					"object": "6080604052348015600e575f5ffd5b506106908061001c5f395ff3fe608060405234801561000f575f5ffd5b5060043610610029575f3560e01c80638e13aff11461002d575b5f5ffd5b61004760048036038101906100429190610430565b61005d565b604051610054919061055d565b60405180910390f35b60605f835190505f835190505f818361007691906105b3565b67ffffffffffffffff81111561008f5761008e6102c1565b5b6040519080825280602002602001820160405280156100bd5781602001602082028036833780820191505090505b5090505f5f90505f5f90505f5f90505b85831080156100db57508482105b156101c5578782815181106100f3576100f26105e6565b5b602002602001015189848151811061010e5761010d6105e6565b5b602002602001015112156101695788838151811061012f5761012e6105e6565b5b602002602001015184828151811061014a576101496105e6565b5b602002602001018181525050828061016190610613565b9350506101b2565b87828151811061017c5761017b6105e6565b5b6020026020010151848281518110610197576101966105e6565b5b60200260200101818152505081806101ae90610613565b9250505b80806101bd90610613565b9150506100cd565b5b85831015610229578883815181106101e1576101e06105e6565b5b60200260200101518482815181106101fc576101fb6105e6565b5b602002602001018181525050828061021390610613565b935050808061022190610613565b9150506101c6565b5b8482101561028d57878281518110610245576102446105e6565b5b60200260200101518482815181106102605761025f6105e6565b5b602002602001018181525050818061027790610613565b925050808061028590610613565b91505061022a565b83965050505050505092915050565b5f604051905090565b5f5ffd5b5f5ffd5b5f5ffd5b5f601f19601f8301169050919050565b7f4e487b71000000000000000000000000000000000000000000000000000000005f52604160045260245ffd5b6102f7826102b1565b810181811067ffffffffffffffff82111715610316576103156102c1565b5b80604052505050565b5f61032861029c565b905061033482826102ee565b919050565b5f67ffffffffffffffff821115610353576103526102c1565b5b602082029050602081019050919050565b5f5ffd5b5f819050919050565b61037a81610368565b8114610384575f5ffd5b50565b5f8135905061039581610371565b92915050565b5f6103ad6103a884610339565b61031f565b905080838252602082019050602084028301858111156103d0576103cf610364565b5b835b818110156103f957806103e58882610387565b8452602084019350506020810190506103d2565b5050509392505050565b5f82601f830112610417576104166102ad565b5b813561042784826020860161039b565b91505092915050565b5f5f60408385031215610446576104456102a5565b5b5f83013567ffffffffffffffff811115610463576104626102a9565b5b61046f85828601610403565b925050602083013567ffffffffffffffff8111156104905761048f6102a9565b5b61049c85828601610403565b9150509250929050565b5f81519050919050565b5f82825260208201905092915050565b5f819050602082019050919050565b6104d881610368565b82525050565b5f6104e983836104cf565b60208301905092915050565b5f602082019050919050565b5f61050b826104a6565b61051581856104b0565b9350610520836104c0565b805f5b8381101561055057815161053788826104de565b9750610542836104f5565b925050600181019050610523565b5085935050505092915050565b5f6020820190508181035f8301526105758184610501565b905092915050565b5f819050919050565b7f4e487b71000000000000000000000000000000000000000000000000000000005f52601160045260245ffd5b5f6105bd8261057d565b91506105c88361057d565b92508282019050808211156105e0576105df610586565b5b92915050565b7f4e487b71000000000000000000000000000000000000000000000000000000005f52603260045260245ffd5b5f61061d8261057d565b91507fffffffffffffffffffffffffffffffffffffffffffffffffffffffffffffffff820361064f5761064e610586565b5b60018201905091905056fea26469706673582212206499e1d54af13d0012ffaa6a5465f86e718b597d3df4fb1c15184cc1c29a1cc664736f6c634300081e0033",
					"opcodes": "PUSH1 0x80 PUSH1 0x40 MSTORE CALLVALUE DUP1 ISZERO PUSH1 0xE JUMPI PUSH0 PUSH0 REVERT JUMPDEST POP PUSH2 0x690 DUP1 PUSH2 0x1C PUSH0 CODECOPY PUSH0 RETURN INVALID PUSH1 0x80 PUSH1 0x40 MSTORE CALLVALUE DUP1 ISZERO PUSH2 0xF JUMPI PUSH0 PUSH0 REVERT JUMPDEST POP PUSH1 0x4 CALLDATASIZE LT PUSH2 0x29 JUMPI PUSH0 CALLDATALOAD PUSH1 0xE0 SHR DUP1 PUSH4 0x8E13AFF1 EQ PUSH2 0x2D JUMPI JUMPDEST PUSH0 PUSH0 REVERT JUMPDEST PUSH2 0x47 PUSH1 0x4 DUP1 CALLDATASIZE SUB DUP2 ADD SWAP1 PUSH2 0x42 SWAP2 SWAP1 PUSH2 0x430 JUMP JUMPDEST PUSH2 0x5D JUMP JUMPDEST PUSH1 0x40 MLOAD PUSH2 0x54 SWAP2 SWAP1 PUSH2 0x55D JUMP JUMPDEST PUSH1 0x40 MLOAD DUP1 SWAP2 SUB SWAP1 RETURN JUMPDEST PUSH1 0x60 PUSH0 DUP4 MLOAD SWAP1 POP PUSH0 DUP4 MLOAD SWAP1 POP PUSH0 DUP2 DUP4 PUSH2 0x76 SWAP2 SWAP1 PUSH2 0x5B3 JUMP JUMPDEST PUSH8 0xFFFFFFFFFFFFFFFF DUP2 GT ISZERO PUSH2 0x8F JUMPI PUSH2 0x8E PUSH2 0x2C1 JUMP JUMPDEST JUMPDEST PUSH1 0x40 MLOAD SWAP1 DUP1 DUP3 MSTORE DUP1 PUSH1 0x20 MUL PUSH1 0x20 ADD DUP3 ADD PUSH1 0x40 MSTORE DUP1 ISZERO PUSH2 0xBD JUMPI DUP2 PUSH1 0x20 ADD PUSH1 0x20 DUP3 MUL DUP1 CALLDATASIZE DUP4 CALLDATACOPY DUP1 DUP3 ADD SWAP2 POP POP SWAP1 POP JUMPDEST POP SWAP1 POP PUSH0 PUSH0 SWAP1 POP PUSH0 PUSH0 SWAP1 POP PUSH0 PUSH0 SWAP1 POP JUMPDEST DUP6 DUP4 LT DUP1 ISZERO PUSH2 0xDB JUMPI POP DUP5 DUP3 LT JUMPDEST ISZERO PUSH2 0x1C5 JUMPI DUP8 DUP3 DUP2 MLOAD DUP2 LT PUSH2 0xF3 JUMPI PUSH2 0xF2 PUSH2 0x5E6 JUMP JUMPDEST JUMPDEST PUSH1 0x20 MUL PUSH1 0x20 ADD ADD MLOAD DUP10 DUP5 DUP2 MLOAD DUP2 LT PUSH2 0x10E JUMPI PUSH2 0x10D PUSH2 0x5E6 JUMP JUMPDEST JUMPDEST PUSH1 0x20 MUL PUSH1 0x20 ADD ADD MLOAD SLT ISZERO PUSH2 0x169 JUMPI DUP9 DUP4 DUP2 MLOAD DUP2 LT PUSH2 0x12F JUMPI PUSH2 0x12E PUSH2 0x5E6 JUMP JUMPDEST JUMPDEST PUSH1 0x20 MUL PUSH1 0x20 ADD ADD MLOAD DUP5 DUP3 DUP2 MLOAD DUP2 LT PUSH2 0x14A JUMPI PUSH2 0x149 PUSH2 0x5E6 JUMP JUMPDEST JUMPDEST PUSH1 0x20 MUL PUSH1 0x20 ADD ADD DUP2 DUP2 MSTORE POP POP DUP3 DUP1 PUSH2 0x161 SWAP1 PUSH2 0x613 JUMP JUMPDEST SWAP4 POP POP PUSH2 0x1B2 JUMP JUMPDEST DUP8 DUP3 DUP2 MLOAD DUP2 LT PUSH2 0x17C JUMPI PUSH2 0x17B PUSH2 0x5E6 JUMP JUMPDEST JUMPDEST PUSH1 0x20 MUL PUSH1 0x20 ADD ADD MLOAD DUP5 DUP3 DUP2 MLOAD DUP2 LT PUSH2 0x197 JUMPI PUSH2 0x196 PUSH2 0x5E6 JUMP JUMPDEST JUMPDEST PUSH1 0x20 MUL PUSH1 0x20 ADD ADD DUP2 DUP2 MSTORE POP POP DUP2 DUP1 PUSH2 0x1AE SWAP1 PUSH2 0x613 JUMP JUMPDEST SWAP3 POP POP JUMPDEST DUP1 DUP1 PUSH2 0x1BD SWAP1 PUSH2 0x613 JUMP JUMPDEST SWAP2 POP POP PUSH2 0xCD JUMP JUMPDEST JUMPDEST DUP6 DUP4 LT ISZERO PUSH2 0x229 JUMPI DUP9 DUP4 DUP2 MLOAD DUP2 LT PUSH2 0x1E1 JUMPI PUSH2 0x1E0 PUSH2 0x5E6 JUMP JUMPDEST JUMPDEST PUSH1 0x20 MUL PUSH1 0x20 ADD ADD MLOAD DUP5 DUP3 DUP2 MLOAD DUP2 LT PUSH2 0x1FC JUMPI PUSH2 0x1FB PUSH2 0x5E6 JUMP JUMPDEST JUMPDEST PUSH1 0x20 MUL PUSH1 0x20 ADD ADD DUP2 DUP2 MSTORE POP POP DUP3 DUP1 PUSH2 0x213 SWAP1 PUSH2 0x613 JUMP JUMPDEST SWAP4 POP POP DUP1 DUP1 PUSH2 0x221 SWAP1 PUSH2 0x613 JUMP JUMPDEST SWAP2 POP POP PUSH2 0x1C6 JUMP JUMPDEST JUMPDEST DUP5 DUP3 LT ISZERO PUSH2 0x28D JUMPI DUP8 DUP3 DUP2 MLOAD DUP2 LT PUSH2 0x245 JUMPI PUSH2 0x244 PUSH2 0x5E6 JUMP JUMPDEST JUMPDEST PUSH1 0x20 MUL PUSH1 0x20 ADD ADD MLOAD DUP5 DUP3 DUP2 MLOAD DUP2 LT PUSH2 0x260 JUMPI PUSH2 0x25F PUSH2 0x5E6 JUMP JUMPDEST JUMPDEST PUSH1 0x20 MUL PUSH1 0x20 ADD ADD DUP2 DUP2 MSTORE POP POP DUP2 DUP1 PUSH2 0x277 SWAP1 PUSH2 0x613 JUMP JUMPDEST SWAP3 POP POP DUP1 DUP1 PUSH2 0x285 SWAP1 PUSH2 0x613 JUMP JUMPDEST SWAP2 POP POP PUSH2 0x22A JUMP JUMPDEST DUP4 SWAP7 POP POP POP POP POP POP POP SWAP3 SWAP2 POP POP JUMP JUMPDEST PUSH0 PUSH1 0x40 MLOAD SWAP1 POP SWAP1 JUMP JUMPDEST PUSH0 PUSH0 REVERT JUMPDEST PUSH0 PUSH0 REVERT JUMPDEST PUSH0 PUSH0 REVERT JUMPDEST PUSH0 PUSH1 0x1F NOT PUSH1 0x1F DUP4 ADD AND SWAP1 POP SWAP2 SWAP1 POP JUMP JUMPDEST PUSH32 0x4E487B7100000000000000000000000000000000000000000000000000000000 PUSH0 MSTORE PUSH1 0x41 PUSH1 0x4 MSTORE PUSH1 0x24 PUSH0 REVERT JUMPDEST PUSH2 0x2F7 DUP3 PUSH2 0x2B1 JUMP JUMPDEST DUP2 ADD DUP2 DUP2 LT PUSH8 0xFFFFFFFFFFFFFFFF DUP3 GT OR ISZERO PUSH2 0x316 JUMPI PUSH2 0x315 PUSH2 0x2C1 JUMP JUMPDEST JUMPDEST DUP1 PUSH1 0x40 MSTORE POP POP POP JUMP JUMPDEST PUSH0 PUSH2 0x328 PUSH2 0x29C JUMP JUMPDEST SWAP1 POP PUSH2 0x334 DUP3 DUP3 PUSH2 0x2EE JUMP JUMPDEST SWAP2 SWAP1 POP JUMP JUMPDEST PUSH0 PUSH8 0xFFFFFFFFFFFFFFFF DUP3 GT ISZERO PUSH2 0x353 JUMPI PUSH2 0x352 PUSH2 0x2C1 JUMP JUMPDEST JUMPDEST PUSH1 0x20 DUP3 MUL SWAP1 POP PUSH1 0x20 DUP2 ADD SWAP1 POP SWAP2 SWAP1 POP JUMP JUMPDEST PUSH0 PUSH0 REVERT JUMPDEST PUSH0 DUP2 SWAP1 POP SWAP2 SWAP1 POP JUMP JUMPDEST PUSH2 0x37A DUP2 PUSH2 0x368 JUMP JUMPDEST DUP2 EQ PUSH2 0x384 JUMPI PUSH0 PUSH0 REVERT JUMPDEST POP JUMP JUMPDEST PUSH0 DUP2 CALLDATALOAD SWAP1 POP PUSH2 0x395 DUP2 PUSH2 0x371 JUMP JUMPDEST SWAP3 SWAP2 POP POP JUMP JUMPDEST PUSH0 PUSH2 0x3AD PUSH2 0x3A8 DUP5 PUSH2 0x339 JUMP JUMPDEST PUSH2 0x31F JUMP JUMPDEST SWAP1 POP DUP1 DUP4 DUP3 MSTORE PUSH1 0x20 DUP3 ADD SWAP1 POP PUSH1 0x20 DUP5 MUL DUP4 ADD DUP6 DUP2 GT ISZERO PUSH2 0x3D0 JUMPI PUSH2 0x3CF PUSH2 0x364 JUMP JUMPDEST JUMPDEST DUP4 JUMPDEST DUP2 DUP2 LT ISZERO PUSH2 0x3F9 JUMPI DUP1 PUSH2 0x3E5 DUP9 DUP3 PUSH2 0x387 JUMP JUMPDEST DUP5 MSTORE PUSH1 0x20 DUP5 ADD SWAP4 POP POP PUSH1 0x20 DUP2 ADD SWAP1 POP PUSH2 0x3D2 JUMP JUMPDEST POP POP POP SWAP4 SWAP3 POP POP POP JUMP JUMPDEST PUSH0 DUP3 PUSH1 0x1F DUP4 ADD SLT PUSH2 0x417 JUMPI PUSH2 0x416 PUSH2 0x2AD JUMP JUMPDEST JUMPDEST DUP2 CALLDATALOAD PUSH2 0x427 DUP5 DUP3 PUSH1 0x20 DUP7 ADD PUSH2 0x39B JUMP JUMPDEST SWAP2 POP POP SWAP3 SWAP2 POP POP JUMP JUMPDEST PUSH0 PUSH0 PUSH1 0x40 DUP4 DUP6 SUB SLT ISZERO PUSH2 0x446 JUMPI PUSH2 0x445 PUSH2 0x2A5 JUMP JUMPDEST JUMPDEST PUSH0 DUP4 ADD CALLDATALOAD PUSH8 0xFFFFFFFFFFFFFFFF DUP2 GT ISZERO PUSH2 0x463 JUMPI PUSH2 0x462 PUSH2 0x2A9 JUMP JUMPDEST JUMPDEST PUSH2 0x46F DUP6 DUP3 DUP7 ADD PUSH2 0x403 JUMP JUMPDEST SWAP3 POP POP PUSH1 0x20 DUP4 ADD CALLDATALOAD PUSH8 0xFFFFFFFFFFFFFFFF DUP2 GT ISZERO PUSH2 0x490 JUMPI PUSH2 0x48F PUSH2 0x2A9 JUMP JUMPDEST JUMPDEST PUSH2 0x49C DUP6 DUP3 DUP7 ADD PUSH2 0x403 JUMP JUMPDEST SWAP2 POP POP SWAP3 POP SWAP3 SWAP1 POP JUMP JUMPDEST PUSH0 DUP2 MLOAD SWAP1 POP SWAP2 SWAP1 POP JUMP JUMPDEST PUSH0 DUP3 DUP3 MSTORE PUSH1 0x20 DUP3 ADD SWAP1 POP SWAP3 SWAP2 POP POP JUMP JUMPDEST PUSH0 DUP2 SWAP1 POP PUSH1 0x20 DUP3 ADD SWAP1 POP SWAP2 SWAP1 POP JUMP JUMPDEST PUSH2 0x4D8 DUP2 PUSH2 0x368 JUMP JUMPDEST DUP3 MSTORE POP POP JUMP JUMPDEST PUSH0 PUSH2 0x4E9 DUP4 DUP4 PUSH2 0x4CF JUMP JUMPDEST PUSH1 0x20 DUP4 ADD SWAP1 POP SWAP3 SWAP2 POP POP JUMP JUMPDEST PUSH0 PUSH1 0x20 DUP3 ADD SWAP1 POP SWAP2 SWAP1 POP JUMP JUMPDEST PUSH0 PUSH2 0x50B DUP3 PUSH2 0x4A6 JUMP JUMPDEST PUSH2 0x515 DUP2 DUP6 PUSH2 0x4B0 JUMP JUMPDEST SWAP4 POP PUSH2 0x520 DUP4 PUSH2 0x4C0 JUMP JUMPDEST DUP1 PUSH0 JUMPDEST DUP4 DUP2 LT ISZERO PUSH2 0x550 JUMPI DUP2 MLOAD PUSH2 0x537 DUP9 DUP3 PUSH2 0x4DE JUMP JUMPDEST SWAP8 POP PUSH2 0x542 DUP4 PUSH2 0x4F5 JUMP JUMPDEST SWAP3 POP POP PUSH1 0x1 DUP2 ADD SWAP1 POP PUSH2 0x523 JUMP JUMPDEST POP DUP6 SWAP4 POP POP POP POP SWAP3 SWAP2 POP POP JUMP JUMPDEST PUSH0 PUSH1 0x20 DUP3 ADD SWAP1 POP DUP2 DUP2 SUB PUSH0 DUP4 ADD MSTORE PUSH2 0x575 DUP2 DUP5 PUSH2 0x501 JUMP JUMPDEST SWAP1 POP SWAP3 SWAP2 POP POP JUMP JUMPDEST PUSH0 DUP2 SWAP1 POP SWAP2 SWAP1 POP JUMP JUMPDEST PUSH32 0x4E487B7100000000000000000000000000000000000000000000000000000000 PUSH0 MSTORE PUSH1 0x11 PUSH1 0x4 MSTORE PUSH1 0x24 PUSH0 REVERT JUMPDEST PUSH0 PUSH2 0x5BD DUP3 PUSH2 0x57D JUMP JUMPDEST SWAP2 POP PUSH2 0x5C8 DUP4 PUSH2 0x57D JUMP JUMPDEST SWAP3 POP DUP3 DUP3 ADD SWAP1 POP DUP1 DUP3 GT ISZERO PUSH2 0x5E0 JUMPI PUSH2 0x5DF PUSH2 0x586 JUMP JUMPDEST JUMPDEST SWAP3 SWAP2 POP POP JUMP JUMPDEST PUSH32 0x4E487B7100000000000000000000000000000000000000000000000000000000 PUSH0 MSTORE PUSH1 0x32 PUSH1 0x4 MSTORE PUSH1 0x24 PUSH0 REVERT JUMPDEST PUSH0 PUSH2 0x61D DUP3 PUSH2 0x57D JUMP JUMPDEST SWAP2 POP PUSH32 0xFFFFFFFFFFFFFFFFFFFFFFFFFFFFFFFFFFFFFFFFFFFFFFFFFFFFFFFFFFFFFFFF DUP3 SUB PUSH2 0x64F JUMPI PUSH2 0x64E PUSH2 0x586 JUMP JUMPDEST JUMPDEST PUSH1 0x1 DUP3 ADD SWAP1 POP SWAP2 SWAP1 POP JUMP INVALID LOG2 PUSH5 0x6970667358 0x22 SLT KECCAK256 PUSH5 0x99E1D54AF1 RETURNDATASIZE STOP SLT SELFDESTRUCT 0xAA PUSH11 0x5465F86E718B597D3DF4FB SHR ISZERO XOR 0x4C 0xC1 0xC2 SWAP11 SHR 0xC6 PUSH5 0x736F6C6343 STOP ADDMOD 0x1E STOP CALLER "
				},
				"gasEstimates": {
					"creation": {
						"codeDepositCost": "336000",
						"executionCost": "372",
						"totalCost": "336372"
					},
					"external": {
						"merge(int256[],int256[])": "infinite"
					}
				},
				"methodIdentifiers": {
					"merge(int256[],int256[])": "8e13aff1"
				}
			},
			"storageLayout": {
				"storage": [],
				"types": null
			},
			"userdoc": {
				"kind": "user",
				"methods": {},
				"notice": "5.合并两个有序数组 (Merge Sorted Array) 题目描述：将两个有序数组合并为一个有序数组。*",
				"version": 1
			}
		}
	}
}