{
	"basic/RomaNum.sol": {
		"RomaNum": {
			"abi": [
				{
					"inputs": [
						{
							"internalType": "int256",
							"name": "num",
							"type": "int256"
						}
					],
					"name": "intToRoman",
					"outputs": [
						{
							"internalType": "string",
							"name": "",
							"type": "string"
						}
					],
					"stateMutability": "pure",
					"type": "function"
				},
				{
					"inputs": [
						{
							"internalType": "string",
							"name": "roma",
							"type": "string"
						}
					],
					"name": "romaToInt",
					"outputs": [
						{
							"internalType": "int256",
							"name": "",
							"type": "int256"
						}
					],
					"stateMutability": "pure",
					"type": "function"
				},
				{
					"inputs": [],
					"name": "test",
					"outputs": [
						{
							"internalType": "string",
							"name": "",
							"type": "string"
						}
					],
					"stateMutability": "pure",
					"type": "function"
				}
			],
			"devdoc": {
				"kind": "dev",
				"methods": {},
				"version": 1
			},
			"evm": {
				"assembly": "    /* \"basic/RomaNum.sol\":61:4064  contract RomaNum {... */\n  mstore(0x40, 0x80)\n  callvalue\n  dup1\n  iszero\n  tag_1\n  jumpi\n  revert(0x00, 0x00)\ntag_1:\n  pop\n  dataSize(sub_0)\n  dup1\n  dataOffset(sub_0)\n  0x00\n  codecopy\n  0x00\n  return\nstop\n\nsub_0: assembly {\n        /* \"basic/RomaNum.sol\":61:4064  contract RomaNum {... */\n      mstore(0x40, 0x80)\n      callvalue\n      dup1\n      iszero\n      tag_1\n      jumpi\n      revert(0x00, 0x00)\n    tag_1:\n      pop\n      jumpi(tag_2, lt(calldatasize, 0x04))\n      shr(0xe0, calldataload(0x00))\n      dup1\n      0x20f3c341\n      eq\n      tag_3\n      jumpi\n      dup1\n      0xf8a8fd6d\n      eq\n      tag_4\n      jumpi\n      dup1\n      0xff749fa3\n      eq\n      tag_5\n      jumpi\n    tag_2:\n      revert(0x00, 0x00)\n        /* \"basic/RomaNum.sol\":231:1367  function romaToInt(string calldata roma) public pure returns (int) {... */\n    tag_3:\n      tag_6\n      0x04\n      dup1\n      calldatasize\n      sub\n      dup2\n      add\n      swap1\n      tag_7\n      swap2\n      swap1\n      tag_8\n      jump\t// in\n    tag_7:\n      tag_9\n      jump\t// in\n    tag_6:\n      mload(0x40)\n      tag_10\n      swap2\n      swap1\n      tag_11\n      jump\t// in\n    tag_10:\n      mload(0x40)\n      dup1\n      swap2\n      sub\n      swap1\n      return\n        /* \"basic/RomaNum.sol\":2902:3016  function test() public pure returns (string memory) {... */\n    tag_4:\n      tag_12\n      tag_13\n      jump\t// in\n    tag_12:\n      mload(0x40)\n      tag_14\n      swap2\n      swap1\n      tag_15\n      jump\t// in\n    tag_14:\n      mload(0x40)\n      dup1\n      swap2\n      sub\n      swap1\n      return\n        /* \"basic/RomaNum.sol\":1949:2873  function intToRoman(int num) public pure returns (string memory) {... */\n    tag_5:\n      tag_16\n      0x04\n      dup1\n      calldatasize\n      sub\n      dup2\n      add\n      swap1\n      tag_17\n      swap2\n      swap1\n      tag_18\n      jump\t// in\n    tag_17:\n      tag_19\n      jump\t// in\n    tag_16:\n      mload(0x40)\n      tag_20\n      swap2\n      swap1\n      tag_15\n      jump\t// in\n    tag_20:\n      mload(0x40)\n      dup1\n      swap2\n      sub\n      swap1\n      return\n        /* \"basic/RomaNum.sol\":231:1367  function romaToInt(string calldata roma) public pure returns (int) {... */\n    tag_9:\n        /* \"basic/RomaNum.sol\":293:296  int */\n      0x00\n        /* \"basic/RomaNum.sol\":358:381  string[] memory symbols */\n      0x00\n        /* \"basic/RomaNum.sol\":384:398  getRomaArray() */\n      tag_22\n        /* \"basic/RomaNum.sol\":384:396  getRomaArray */\n      tag_23\n        /* \"basic/RomaNum.sol\":384:398  getRomaArray() */\n      jump\t// in\n    tag_22:\n        /* \"basic/RomaNum.sol\":358:398  string[] memory symbols = getRomaArray() */\n      swap1\n      pop\n        /* \"basic/RomaNum.sol\":409:428  int[] memory values */\n      0x00\n        /* \"basic/RomaNum.sol\":432:445  getIntArray() */\n      tag_24\n        /* \"basic/RomaNum.sol\":432:443  getIntArray */\n      tag_25\n        /* \"basic/RomaNum.sol\":432:445  getIntArray() */\n      jump\t// in\n    tag_24:\n        /* \"basic/RomaNum.sol\":409:445  int[] memory values =  getIntArray() */\n      swap1\n      pop\n        /* \"basic/RomaNum.sol\":466:476  int result */\n      0x00\n        /* \"basic/RomaNum.sol\":479:480  0 */\n      0x00\n        /* \"basic/RomaNum.sol\":466:480  int result = 0 */\n      swap1\n      pop\n        /* \"basic/RomaNum.sol\":491:513  bytes memory romaBytes */\n      0x00\n        /* \"basic/RomaNum.sol\":522:526  roma */\n      dup7\n      dup7\n        /* \"basic/RomaNum.sol\":491:527  bytes memory romaBytes = bytes(roma) */\n      dup1\n      dup1\n      0x1f\n      add\n      0x20\n      dup1\n      swap2\n      div\n      mul\n      0x20\n      add\n      mload(0x40)\n      swap1\n      dup2\n      add\n      0x40\n      mstore\n      dup1\n      swap4\n      swap3\n      swap2\n      swap1\n      dup2\n      dup2\n      mstore\n      0x20\n      add\n      dup4\n      dup4\n      dup1\n      dup3\n      dup5\n      calldatacopy\n      0x00\n      dup2\n      dup5\n      add\n      mstore\n      not(0x1f)\n      0x1f\n      dup3\n      add\n      and\n      swap1\n      pop\n      dup1\n      dup4\n      add\n      swap3\n      pop\n      pop\n      pop\n      pop\n      pop\n      pop\n      pop\n      swap1\n      pop\n        /* \"basic/RomaNum.sol\":538:549  uint length */\n      0x00\n        /* \"basic/RomaNum.sol\":552:561  romaBytes */\n      dup2\n        /* \"basic/RomaNum.sol\":552:568  romaBytes.length */\n      mload\n        /* \"basic/RomaNum.sol\":538:568  uint length = romaBytes.length */\n      swap1\n      pop\n        /* \"basic/RomaNum.sol\":589:595  uint i */\n      0x00\n        /* \"basic/RomaNum.sol\":598:599  0 */\n      0x00\n        /* \"basic/RomaNum.sol\":589:599  uint i = 0 */\n      swap1\n      pop\n        /* \"basic/RomaNum.sol\":610:1326  while (i < length) {... */\n    tag_26:\n        /* \"basic/RomaNum.sol\":621:627  length */\n      dup2\n        /* \"basic/RomaNum.sol\":617:618  i */\n      dup2\n        /* \"basic/RomaNum.sol\":617:627  i < length */\n      lt\n        /* \"basic/RomaNum.sol\":610:1326  while (i < length) {... */\n      iszero\n      tag_27\n      jumpi\n        /* \"basic/RomaNum.sol\":727:728  1 */\n      0x01\n        /* \"basic/RomaNum.sol\":718:724  length */\n      dup3\n        /* \"basic/RomaNum.sol\":718:728  length - 1 */\n      tag_28\n      swap2\n      swap1\n      tag_29\n      jump\t// in\n    tag_28:\n        /* \"basic/RomaNum.sol\":714:715  i */\n      dup2\n        /* \"basic/RomaNum.sol\":714:728  i < length - 1 */\n      lt\n        /* \"basic/RomaNum.sol\":710:1112  if (i < length - 1) {... */\n      iszero\n      tag_30\n      jumpi\n        /* \"basic/RomaNum.sol\":749:770  string memory twoChar */\n      0x00\n        /* \"basic/RomaNum.sol\":797:806  romaBytes */\n      dup4\n        /* \"basic/RomaNum.sol\":807:808  i */\n      dup3\n        /* \"basic/RomaNum.sol\":797:809  romaBytes[i] */\n      dup2\n      mload\n      dup2\n      lt\n      tag_31\n      jumpi\n      tag_32\n      tag_33\n      jump\t// in\n    tag_32:\n    tag_31:\n      0x20\n      add\n      add\n      mload\n      0xf8\n      shr\n      0xf8\n      shl\n        /* \"basic/RomaNum.sol\":811:820  romaBytes */\n      dup5\n        /* \"basic/RomaNum.sol\":823:824  1 */\n      0x01\n        /* \"basic/RomaNum.sol\":821:822  i */\n      dup5\n        /* \"basic/RomaNum.sol\":821:824  i+1 */\n      tag_34\n      swap2\n      swap1\n      tag_35\n      jump\t// in\n    tag_34:\n        /* \"basic/RomaNum.sol\":811:825  romaBytes[i+1] */\n      dup2\n      mload\n      dup2\n      lt\n      tag_36\n      jumpi\n      tag_37\n      tag_33\n      jump\t// in\n    tag_37:\n    tag_36:\n      0x20\n      add\n      add\n      mload\n      0xf8\n      shr\n      0xf8\n      shl\n        /* \"basic/RomaNum.sol\":780:826  abi.encodePacked(romaBytes[i], romaBytes[i+1]) */\n      add(0x20, mload(0x40))\n      tag_38\n      swap3\n      swap2\n      swap1\n      tag_39\n      jump\t// in\n    tag_38:\n      mload(0x40)\n      0x20\n      dup2\n      dup4\n      sub\n      sub\n      dup2\n      mstore\n      swap1\n      0x40\n      mstore\n        /* \"basic/RomaNum.sol\":749:827  string memory twoChar = string(abi.encodePacked(romaBytes[i], romaBytes[i+1])) */\n      swap1\n      pop\n        /* \"basic/RomaNum.sol\":846:858  int twoValue */\n      0x00\n        /* \"basic/RomaNum.sol\":861:895  getValue(twoChar, symbols, values) */\n      tag_40\n        /* \"basic/RomaNum.sol\":870:877  twoChar */\n      dup3\n        /* \"basic/RomaNum.sol\":879:886  symbols */\n      dup10\n        /* \"basic/RomaNum.sol\":888:894  values */\n      dup10\n        /* \"basic/RomaNum.sol\":861:869  getValue */\n      tag_41\n        /* \"basic/RomaNum.sol\":861:895  getValue(twoChar, symbols, values) */\n      jump\t// in\n    tag_40:\n        /* \"basic/RomaNum.sol\":846:895  int twoValue = getValue(twoChar, symbols, values) */\n      swap1\n      pop\n        /* \"basic/RomaNum.sol\":948:949  0 */\n      0x00\n        /* \"basic/RomaNum.sol\":936:944  twoValue */\n      dup2\n        /* \"basic/RomaNum.sol\":936:949  twoValue != 0 */\n      eq\n        /* \"basic/RomaNum.sol\":932:1097  if (twoValue != 0) {... */\n      tag_42\n      jumpi\n        /* \"basic/RomaNum.sol\":984:992  twoValue */\n      dup1\n        /* \"basic/RomaNum.sol\":974:992  result += twoValue */\n      dup7\n      tag_43\n      swap2\n      swap1\n      tag_44\n      jump\t// in\n    tag_43:\n      swap6\n      pop\n        /* \"basic/RomaNum.sol\":1020:1021  2 */\n      0x02\n        /* \"basic/RomaNum.sol\":1015:1021  i += 2 */\n      dup4\n      tag_45\n      swap2\n      swap1\n      tag_35\n      jump\t// in\n    tag_45:\n      swap3\n      pop\n        /* \"basic/RomaNum.sol\":1069:1077  continue */\n      pop\n      pop\n      jump(tag_26)\n        /* \"basic/RomaNum.sol\":932:1097  if (twoValue != 0) {... */\n    tag_42:\n        /* \"basic/RomaNum.sol\":730:1112  {... */\n      pop\n      pop\n        /* \"basic/RomaNum.sol\":710:1112  if (i < length - 1) {... */\n    tag_30:\n        /* \"basic/RomaNum.sol\":1172:1193  string memory oneChar */\n      0x00\n        /* \"basic/RomaNum.sol\":1220:1229  romaBytes */\n      dup4\n        /* \"basic/RomaNum.sol\":1230:1231  i */\n      dup3\n        /* \"basic/RomaNum.sol\":1220:1232  romaBytes[i] */\n      dup2\n      mload\n      dup2\n      lt\n      tag_46\n      jumpi\n      tag_47\n      tag_33\n      jump\t// in\n    tag_47:\n    tag_46:\n      0x20\n      add\n      add\n      mload\n      0xf8\n      shr\n      0xf8\n      shl\n        /* \"basic/RomaNum.sol\":1203:1233  abi.encodePacked(romaBytes[i]) */\n      add(0x20, mload(0x40))\n      tag_48\n      swap2\n      swap1\n      tag_49\n      jump\t// in\n    tag_48:\n      mload(0x40)\n      0x20\n      dup2\n      dup4\n      sub\n      sub\n      dup2\n      mstore\n      swap1\n      0x40\n      mstore\n        /* \"basic/RomaNum.sol\":1172:1234  string memory oneChar = string(abi.encodePacked(romaBytes[i])) */\n      swap1\n      pop\n        /* \"basic/RomaNum.sol\":1259:1293  getValue(oneChar, symbols, values) */\n      tag_50\n        /* \"basic/RomaNum.sol\":1268:1275  oneChar */\n      dup2\n        /* \"basic/RomaNum.sol\":1277:1284  symbols */\n      dup9\n        /* \"basic/RomaNum.sol\":1286:1292  values */\n      dup9\n        /* \"basic/RomaNum.sol\":1259:1267  getValue */\n      tag_41\n        /* \"basic/RomaNum.sol\":1259:1293  getValue(oneChar, symbols, values) */\n      jump\t// in\n    tag_50:\n        /* \"basic/RomaNum.sol\":1249:1293  result += getValue(oneChar, symbols, values) */\n      dup6\n      tag_51\n      swap2\n      swap1\n      tag_44\n      jump\t// in\n    tag_51:\n      swap5\n      pop\n        /* \"basic/RomaNum.sol\":1313:1314  1 */\n      0x01\n        /* \"basic/RomaNum.sol\":1308:1314  i += 1 */\n      dup3\n      tag_52\n      swap2\n      swap1\n      tag_35\n      jump\t// in\n    tag_52:\n      swap2\n      pop\n        /* \"basic/RomaNum.sol\":629:1326  {... */\n      pop\n        /* \"basic/RomaNum.sol\":610:1326  while (i < length) {... */\n      jump(tag_26)\n    tag_27:\n        /* \"basic/RomaNum.sol\":1353:1359  result */\n      dup4\n        /* \"basic/RomaNum.sol\":1346:1359  return result */\n      swap7\n      pop\n      pop\n      pop\n      pop\n      pop\n      pop\n      pop\n        /* \"basic/RomaNum.sol\":231:1367  function romaToInt(string calldata roma) public pure returns (int) {... */\n      swap3\n      swap2\n      pop\n      pop\n      jump\t// out\n        /* \"basic/RomaNum.sol\":2902:3016  function test() public pure returns (string memory) {... */\n    tag_13:\n        /* \"basic/RomaNum.sol\":2939:2952  string memory */\n      0x60\n        /* \"basic/RomaNum.sol\":2972:2988  intToRoman(1994) */\n      tag_54\n        /* \"basic/RomaNum.sol\":2983:2987  1994 */\n      0x07ca\n        /* \"basic/RomaNum.sol\":2972:2982  intToRoman */\n      tag_19\n        /* \"basic/RomaNum.sol\":2972:2988  intToRoman(1994) */\n      jump\t// in\n    tag_54:\n        /* \"basic/RomaNum.sol\":2965:2988  return intToRoman(1994) */\n      swap1\n      pop\n        /* \"basic/RomaNum.sol\":2902:3016  function test() public pure returns (string memory) {... */\n      swap1\n      jump\t// out\n        /* \"basic/RomaNum.sol\":1949:2873  function intToRoman(int num) public pure returns (string memory) {... */\n    tag_19:\n        /* \"basic/RomaNum.sol\":1999:2012  string memory */\n      0x60\n        /* \"basic/RomaNum.sol\":2101:2102  1 */\n      0x01\n        /* \"basic/RomaNum.sol\":2094:2097  num */\n      dup3\n        /* \"basic/RomaNum.sol\":2094:2102  num >= 1 */\n      slt\n      iszero\n        /* \"basic/RomaNum.sol\":2094:2117  num >= 1 && num <= 3999 */\n      dup1\n      iszero\n      tag_56\n      jumpi\n      pop\n        /* \"basic/RomaNum.sol\":2113:2117  3999 */\n      0x0f9f\n        /* \"basic/RomaNum.sol\":2106:2109  num */\n      dup3\n        /* \"basic/RomaNum.sol\":2106:2117  num <= 3999 */\n      sgt\n      iszero\n        /* \"basic/RomaNum.sol\":2094:2117  num >= 1 && num <= 3999 */\n    tag_56:\n        /* \"basic/RomaNum.sol\":2086:2155  require(num >= 1 && num <= 3999, \"Number must be between 1 and 3999\") */\n      tag_57\n      jumpi\n      mload(0x40)\n      0x08c379a000000000000000000000000000000000000000000000000000000000\n      dup2\n      mstore\n      0x04\n      add\n      tag_58\n      swap1\n      tag_59\n      jump\t// in\n    tag_58:\n      mload(0x40)\n      dup1\n      swap2\n      sub\n      swap1\n      revert\n    tag_57:\n        /* \"basic/RomaNum.sol\":2200:2220  string memory result */\n      0x00\n        /* \"basic/RomaNum.sol\":2200:2225  string memory result = \"\" */\n      mload(0x40)\n      dup1\n      0x20\n      add\n      0x40\n      mstore\n      dup1\n      0x00\n      dup2\n      mstore\n      pop\n      swap1\n      pop\n        /* \"basic/RomaNum.sol\":2236:2259  string[] memory symbols */\n      0x00\n        /* \"basic/RomaNum.sol\":2262:2276  getRomaArray() */\n      tag_60\n        /* \"basic/RomaNum.sol\":2262:2274  getRomaArray */\n      tag_23\n        /* \"basic/RomaNum.sol\":2262:2276  getRomaArray() */\n      jump\t// in\n    tag_60:\n        /* \"basic/RomaNum.sol\":2236:2276  string[] memory symbols = getRomaArray() */\n      swap1\n      pop\n        /* \"basic/RomaNum.sol\":2287:2306  int[] memory values */\n      0x00\n        /* \"basic/RomaNum.sol\":2309:2322  getIntArray() */\n      tag_61\n        /* \"basic/RomaNum.sol\":2309:2320  getIntArray */\n      tag_25\n        /* \"basic/RomaNum.sol\":2309:2322  getIntArray() */\n      jump\t// in\n    tag_61:\n        /* \"basic/RomaNum.sol\":2287:2322  int[] memory values = getIntArray() */\n      swap1\n      pop\n        /* \"basic/RomaNum.sol\":2406:2412  uint i */\n      0x00\n        /* \"basic/RomaNum.sol\":2415:2416  0 */\n      0x00\n        /* \"basic/RomaNum.sol\":2406:2416  uint i = 0 */\n      swap1\n      pop\n        /* \"basic/RomaNum.sol\":2401:2832  for (uint i = 0; i < values.length; i++) {... */\n    tag_62:\n        /* \"basic/RomaNum.sol\":2422:2428  values */\n      dup2\n        /* \"basic/RomaNum.sol\":2422:2435  values.length */\n      mload\n        /* \"basic/RomaNum.sol\":2418:2419  i */\n      dup2\n        /* \"basic/RomaNum.sol\":2418:2435  i < values.length */\n      lt\n        /* \"basic/RomaNum.sol\":2401:2832  for (uint i = 0; i < values.length; i++) {... */\n      iszero\n      tag_63\n      jumpi\n        /* \"basic/RomaNum.sol\":2555:2703  while (num >= values[i]) {... */\n    tag_65:\n        /* \"basic/RomaNum.sol\":2569:2575  values */\n      dup2\n        /* \"basic/RomaNum.sol\":2576:2577  i */\n      dup2\n        /* \"basic/RomaNum.sol\":2569:2578  values[i] */\n      dup2\n      mload\n      dup2\n      lt\n      tag_67\n      jumpi\n      tag_68\n      tag_33\n      jump\t// in\n    tag_68:\n    tag_67:\n      0x20\n      mul\n      0x20\n      add\n      add\n      mload\n        /* \"basic/RomaNum.sol\":2562:2565  num */\n      dup7\n        /* \"basic/RomaNum.sol\":2562:2578  num >= values[i] */\n      slt\n        /* \"basic/RomaNum.sol\":2555:2703  while (num >= values[i]) {... */\n      tag_66\n      jumpi\n        /* \"basic/RomaNum.sol\":2632:2638  result */\n      dup4\n        /* \"basic/RomaNum.sol\":2640:2647  symbols */\n      dup4\n        /* \"basic/RomaNum.sol\":2648:2649  i */\n      dup3\n        /* \"basic/RomaNum.sol\":2640:2650  symbols[i] */\n      dup2\n      mload\n      dup2\n      lt\n      tag_69\n      jumpi\n      tag_70\n      tag_33\n      jump\t// in\n    tag_70:\n    tag_69:\n      0x20\n      mul\n      0x20\n      add\n      add\n      mload\n        /* \"basic/RomaNum.sol\":2615:2651  abi.encodePacked(result, symbols[i]) */\n      add(0x20, mload(0x40))\n      tag_71\n      swap3\n      swap2\n      swap1\n      tag_72\n      jump\t// in\n    tag_71:\n      mload(0x40)\n      0x20\n      dup2\n      dup4\n      sub\n      sub\n      dup2\n      mstore\n      swap1\n      0x40\n      mstore\n        /* \"basic/RomaNum.sol\":2599:2652  result = string(abi.encodePacked(result, symbols[i])) */\n      swap4\n      pop\n        /* \"basic/RomaNum.sol\":2678:2684  values */\n      dup2\n        /* \"basic/RomaNum.sol\":2685:2686  i */\n      dup2\n        /* \"basic/RomaNum.sol\":2678:2687  values[i] */\n      dup2\n      mload\n      dup2\n      lt\n      tag_73\n      jumpi\n      tag_74\n      tag_33\n      jump\t// in\n    tag_74:\n    tag_73:\n      0x20\n      mul\n      0x20\n      add\n      add\n      mload\n        /* \"basic/RomaNum.sol\":2671:2687  num -= values[i] */\n      dup7\n      tag_75\n      swap2\n      swap1\n      tag_76\n      jump\t// in\n    tag_75:\n      swap6\n      pop\n        /* \"basic/RomaNum.sol\":2555:2703  while (num >= values[i]) {... */\n      jump(tag_65)\n    tag_66:\n        /* \"basic/RomaNum.sol\":2778:2779  0 */\n      0x00\n        /* \"basic/RomaNum.sol\":2771:2774  num */\n      dup7\n        /* \"basic/RomaNum.sol\":2771:2779  num == 0 */\n      sub\n        /* \"basic/RomaNum.sol\":2767:2821  if (num == 0) {... */\n      iszero\n        /* \"basic/RomaNum.sol\":2800:2805  break */\n      tag_63\n        /* \"basic/RomaNum.sol\":2767:2821  if (num == 0) {... */\n      jumpi\n        /* \"basic/RomaNum.sol\":2437:2440  i++ */\n      dup1\n      dup1\n      0x01\n      add\n      swap2\n      pop\n      pop\n        /* \"basic/RomaNum.sol\":2401:2832  for (uint i = 0; i < values.length; i++) {... */\n      jump(tag_62)\n    tag_63:\n      pop\n        /* \"basic/RomaNum.sol\":2859:2865  result */\n      dup3\n        /* \"basic/RomaNum.sol\":2852:2865  return result */\n      swap4\n      pop\n      pop\n      pop\n      pop\n        /* \"basic/RomaNum.sol\":1949:2873  function intToRoman(int num) public pure returns (string memory) {... */\n      swap2\n      swap1\n      pop\n      jump\t// out\n        /* \"basic/RomaNum.sol\":3553:4061  function getRomaArray() internal pure returns (string[]memory) {... */\n    tag_23:\n        /* \"basic/RomaNum.sol\":3600:3614  string[]memory */\n      0x60\n        /* \"basic/RomaNum.sol\":3627:3649  string[]memory symbols */\n      0x00\n        /* \"basic/RomaNum.sol\":3665:3667  13 */\n      0x0d\n        /* \"basic/RomaNum.sol\":3652:3668  new string[](13) */\n      0xffffffffffffffff\n      dup2\n      gt\n      iszero\n      tag_79\n      jumpi\n      tag_80\n      tag_81\n      jump\t// in\n    tag_80:\n    tag_79:\n      mload(0x40)\n      swap1\n      dup1\n      dup3\n      mstore\n      dup1\n      0x20\n      mul\n      0x20\n      add\n      dup3\n      add\n      0x40\n      mstore\n      dup1\n      iszero\n      tag_82\n      jumpi\n      dup2\n      0x20\n      add\n    tag_83:\n      0x60\n      dup2\n      mstore\n      0x20\n      add\n      swap1\n      0x01\n      swap1\n      sub\n      swap1\n      dup2\n      tag_83\n      jumpi\n      swap1\n      pop\n    tag_82:\n      pop\n        /* \"basic/RomaNum.sol\":3627:3668  string[]memory symbols = new string[](13) */\n      swap1\n      pop\n        /* \"basic/RomaNum.sol\":3679:3695  symbols[0] = \"M\" */\n      mload(0x40)\n      dup1\n      0x40\n      add\n      0x40\n      mstore\n      dup1\n      0x01\n      dup2\n      mstore\n      0x20\n      add\n      0x4d00000000000000000000000000000000000000000000000000000000000000\n      dup2\n      mstore\n      pop\n        /* \"basic/RomaNum.sol\":3679:3686  symbols */\n      dup2\n        /* \"basic/RomaNum.sol\":3687:3688  0 */\n      0x00\n        /* \"basic/RomaNum.sol\":3679:3689  symbols[0] */\n      dup2\n      mload\n      dup2\n      lt\n      tag_84\n      jumpi\n      tag_85\n      tag_33\n      jump\t// in\n    tag_85:\n    tag_84:\n      0x20\n      mul\n      0x20\n      add\n      add\n        /* \"basic/RomaNum.sol\":3679:3695  symbols[0] = \"M\" */\n      dup2\n      swap1\n      mstore\n      pop\n        /* \"basic/RomaNum.sol\":3706:3723  symbols[1] = \"CM\" */\n      mload(0x40)\n      dup1\n      0x40\n      add\n      0x40\n      mstore\n      dup1\n      0x02\n      dup2\n      mstore\n      0x20\n      add\n      0x434d000000000000000000000000000000000000000000000000000000000000\n      dup2\n      mstore\n      pop\n        /* \"basic/RomaNum.sol\":3706:3713  symbols */\n      dup2\n        /* \"basic/RomaNum.sol\":3714:3715  1 */\n      0x01\n        /* \"basic/RomaNum.sol\":3706:3716  symbols[1] */\n      dup2\n      mload\n      dup2\n      lt\n      tag_86\n      jumpi\n      tag_87\n      tag_33\n      jump\t// in\n    tag_87:\n    tag_86:\n      0x20\n      mul\n      0x20\n      add\n      add\n        /* \"basic/RomaNum.sol\":3706:3723  symbols[1] = \"CM\" */\n      dup2\n      swap1\n      mstore\n      pop\n        /* \"basic/RomaNum.sol\":3734:3750  symbols[2] = \"D\" */\n      mload(0x40)\n      dup1\n      0x40\n      add\n      0x40\n      mstore\n      dup1\n      0x01\n      dup2\n      mstore\n      0x20\n      add\n      0x4400000000000000000000000000000000000000000000000000000000000000\n      dup2\n      mstore\n      pop\n        /* \"basic/RomaNum.sol\":3734:3741  symbols */\n      dup2\n        /* \"basic/RomaNum.sol\":3742:3743  2 */\n      0x02\n        /* \"basic/RomaNum.sol\":3734:3744  symbols[2] */\n      dup2\n      mload\n      dup2\n      lt\n      tag_88\n      jumpi\n      tag_89\n      tag_33\n      jump\t// in\n    tag_89:\n    tag_88:\n      0x20\n      mul\n      0x20\n      add\n      add\n        /* \"basic/RomaNum.sol\":3734:3750  symbols[2] = \"D\" */\n      dup2\n      swap1\n      mstore\n      pop\n        /* \"basic/RomaNum.sol\":3761:3778  symbols[3] = \"CD\" */\n      mload(0x40)\n      dup1\n      0x40\n      add\n      0x40\n      mstore\n      dup1\n      0x02\n      dup2\n      mstore\n      0x20\n      add\n      0x4344000000000000000000000000000000000000000000000000000000000000\n      dup2\n      mstore\n      pop\n        /* \"basic/RomaNum.sol\":3761:3768  symbols */\n      dup2\n        /* \"basic/RomaNum.sol\":3769:3770  3 */\n      0x03\n        /* \"basic/RomaNum.sol\":3761:3771  symbols[3] */\n      dup2\n      mload\n      dup2\n      lt\n      tag_90\n      jumpi\n      tag_91\n      tag_33\n      jump\t// in\n    tag_91:\n    tag_90:\n      0x20\n      mul\n      0x20\n      add\n      add\n        /* \"basic/RomaNum.sol\":3761:3778  symbols[3] = \"CD\" */\n      dup2\n      swap1\n      mstore\n      pop\n        /* \"basic/RomaNum.sol\":3789:3805  symbols[4] = \"C\" */\n      mload(0x40)\n      dup1\n      0x40\n      add\n      0x40\n      mstore\n      dup1\n      0x01\n      dup2\n      mstore\n      0x20\n      add\n      0x4300000000000000000000000000000000000000000000000000000000000000\n      dup2\n      mstore\n      pop\n        /* \"basic/RomaNum.sol\":3789:3796  symbols */\n      dup2\n        /* \"basic/RomaNum.sol\":3797:3798  4 */\n      0x04\n        /* \"basic/RomaNum.sol\":3789:3799  symbols[4] */\n      dup2\n      mload\n      dup2\n      lt\n      tag_92\n      jumpi\n      tag_93\n      tag_33\n      jump\t// in\n    tag_93:\n    tag_92:\n      0x20\n      mul\n      0x20\n      add\n      add\n        /* \"basic/RomaNum.sol\":3789:3805  symbols[4] = \"C\" */\n      dup2\n      swap1\n      mstore\n      pop\n        /* \"basic/RomaNum.sol\":3816:3833  symbols[5] = \"XC\" */\n      mload(0x40)\n      dup1\n      0x40\n      add\n      0x40\n      mstore\n      dup1\n      0x02\n      dup2\n      mstore\n      0x20\n      add\n      0x5843000000000000000000000000000000000000000000000000000000000000\n      dup2\n      mstore\n      pop\n        /* \"basic/RomaNum.sol\":3816:3823  symbols */\n      dup2\n        /* \"basic/RomaNum.sol\":3824:3825  5 */\n      0x05\n        /* \"basic/RomaNum.sol\":3816:3826  symbols[5] */\n      dup2\n      mload\n      dup2\n      lt\n      tag_94\n      jumpi\n      tag_95\n      tag_33\n      jump\t// in\n    tag_95:\n    tag_94:\n      0x20\n      mul\n      0x20\n      add\n      add\n        /* \"basic/RomaNum.sol\":3816:3833  symbols[5] = \"XC\" */\n      dup2\n      swap1\n      mstore\n      pop\n        /* \"basic/RomaNum.sol\":3844:3860  symbols[6] = \"L\" */\n      mload(0x40)\n      dup1\n      0x40\n      add\n      0x40\n      mstore\n      dup1\n      0x01\n      dup2\n      mstore\n      0x20\n      add\n      0x4c00000000000000000000000000000000000000000000000000000000000000\n      dup2\n      mstore\n      pop\n        /* \"basic/RomaNum.sol\":3844:3851  symbols */\n      dup2\n        /* \"basic/RomaNum.sol\":3852:3853  6 */\n      0x06\n        /* \"basic/RomaNum.sol\":3844:3854  symbols[6] */\n      dup2\n      mload\n      dup2\n      lt\n      tag_96\n      jumpi\n      tag_97\n      tag_33\n      jump\t// in\n    tag_97:\n    tag_96:\n      0x20\n      mul\n      0x20\n      add\n      add\n        /* \"basic/RomaNum.sol\":3844:3860  symbols[6] = \"L\" */\n      dup2\n      swap1\n      mstore\n      pop\n        /* \"basic/RomaNum.sol\":3871:3888  symbols[7] = \"XL\" */\n      mload(0x40)\n      dup1\n      0x40\n      add\n      0x40\n      mstore\n      dup1\n      0x02\n      dup2\n      mstore\n      0x20\n      add\n      0x584c000000000000000000000000000000000000000000000000000000000000\n      dup2\n      mstore\n      pop\n        /* \"basic/RomaNum.sol\":3871:3878  symbols */\n      dup2\n        /* \"basic/RomaNum.sol\":3879:3880  7 */\n      0x07\n        /* \"basic/RomaNum.sol\":3871:3881  symbols[7] */\n      dup2\n      mload\n      dup2\n      lt\n      tag_98\n      jumpi\n      tag_99\n      tag_33\n      jump\t// in\n    tag_99:\n    tag_98:\n      0x20\n      mul\n      0x20\n      add\n      add\n        /* \"basic/RomaNum.sol\":3871:3888  symbols[7] = \"XL\" */\n      dup2\n      swap1\n      mstore\n      pop\n        /* \"basic/RomaNum.sol\":3899:3915  symbols[8] = \"X\" */\n      mload(0x40)\n      dup1\n      0x40\n      add\n      0x40\n      mstore\n      dup1\n      0x01\n      dup2\n      mstore\n      0x20\n      add\n      0x5800000000000000000000000000000000000000000000000000000000000000\n      dup2\n      mstore\n      pop\n        /* \"basic/RomaNum.sol\":3899:3906  symbols */\n      dup2\n        /* \"basic/RomaNum.sol\":3907:3908  8 */\n      0x08\n        /* \"basic/RomaNum.sol\":3899:3909  symbols[8] */\n      dup2\n      mload\n      dup2\n      lt\n      tag_100\n      jumpi\n      tag_101\n      tag_33\n      jump\t// in\n    tag_101:\n    tag_100:\n      0x20\n      mul\n      0x20\n      add\n      add\n        /* \"basic/RomaNum.sol\":3899:3915  symbols[8] = \"X\" */\n      dup2\n      swap1\n      mstore\n      pop\n        /* \"basic/RomaNum.sol\":3926:3943  symbols[9] = \"IX\" */\n      mload(0x40)\n      dup1\n      0x40\n      add\n      0x40\n      mstore\n      dup1\n      0x02\n      dup2\n      mstore\n      0x20\n      add\n      0x4958000000000000000000000000000000000000000000000000000000000000\n      dup2\n      mstore\n      pop\n        /* \"basic/RomaNum.sol\":3926:3933  symbols */\n      dup2\n        /* \"basic/RomaNum.sol\":3934:3935  9 */\n      0x09\n        /* \"basic/RomaNum.sol\":3926:3936  symbols[9] */\n      dup2\n      mload\n      dup2\n      lt\n      tag_102\n      jumpi\n      tag_103\n      tag_33\n      jump\t// in\n    tag_103:\n    tag_102:\n      0x20\n      mul\n      0x20\n      add\n      add\n        /* \"basic/RomaNum.sol\":3926:3943  symbols[9] = \"IX\" */\n      dup2\n      swap1\n      mstore\n      pop\n        /* \"basic/RomaNum.sol\":3954:3971  symbols[10] = \"V\" */\n      mload(0x40)\n      dup1\n      0x40\n      add\n      0x40\n      mstore\n      dup1\n      0x01\n      dup2\n      mstore\n      0x20\n      add\n      0x5600000000000000000000000000000000000000000000000000000000000000\n      dup2\n      mstore\n      pop\n        /* \"basic/RomaNum.sol\":3954:3961  symbols */\n      dup2\n        /* \"basic/RomaNum.sol\":3962:3964  10 */\n      0x0a\n        /* \"basic/RomaNum.sol\":3954:3965  symbols[10] */\n      dup2\n      mload\n      dup2\n      lt\n      tag_104\n      jumpi\n      tag_105\n      tag_33\n      jump\t// in\n    tag_105:\n    tag_104:\n      0x20\n      mul\n      0x20\n      add\n      add\n        /* \"basic/RomaNum.sol\":3954:3971  symbols[10] = \"V\" */\n      dup2\n      swap1\n      mstore\n      pop\n        /* \"basic/RomaNum.sol\":3982:4000  symbols[11] = \"IV\" */\n      mload(0x40)\n      dup1\n      0x40\n      add\n      0x40\n      mstore\n      dup1\n      0x02\n      dup2\n      mstore\n      0x20\n      add\n      0x4956000000000000000000000000000000000000000000000000000000000000\n      dup2\n      mstore\n      pop\n        /* \"basic/RomaNum.sol\":3982:3989  symbols */\n      dup2\n        /* \"basic/RomaNum.sol\":3990:3992  11 */\n      0x0b\n        /* \"basic/RomaNum.sol\":3982:3993  symbols[11] */\n      dup2\n      mload\n      dup2\n      lt\n      tag_106\n      jumpi\n      tag_107\n      tag_33\n      jump\t// in\n    tag_107:\n    tag_106:\n      0x20\n      mul\n      0x20\n      add\n      add\n        /* \"basic/RomaNum.sol\":3982:4000  symbols[11] = \"IV\" */\n      dup2\n      swap1\n      mstore\n      pop\n        /* \"basic/RomaNum.sol\":4011:4028  symbols[12] = \"I\" */\n      mload(0x40)\n      dup1\n      0x40\n      add\n      0x40\n      mstore\n      dup1\n      0x01\n      dup2\n      mstore\n      0x20\n      add\n      0x4900000000000000000000000000000000000000000000000000000000000000\n      dup2\n      mstore\n      pop\n        /* \"basic/RomaNum.sol\":4011:4018  symbols */\n      dup2\n        /* \"basic/RomaNum.sol\":4019:4021  12 */\n      0x0c\n        /* \"basic/RomaNum.sol\":4011:4022  symbols[12] */\n      dup2\n      mload\n      dup2\n      lt\n      tag_108\n      jumpi\n      tag_109\n      tag_33\n      jump\t// in\n    tag_109:\n    tag_108:\n      0x20\n      mul\n      0x20\n      add\n      add\n        /* \"basic/RomaNum.sol\":4011:4028  symbols[12] = \"I\" */\n      dup2\n      swap1\n      mstore\n      pop\n        /* \"basic/RomaNum.sol\":4046:4053  symbols */\n      dup1\n        /* \"basic/RomaNum.sol\":4039:4053  return symbols */\n      swap2\n      pop\n      pop\n        /* \"basic/RomaNum.sol\":3553:4061  function getRomaArray() internal pure returns (string[]memory) {... */\n      swap1\n      jump\t// out\n        /* \"basic/RomaNum.sol\":3024:3545  function getIntArray() internal pure returns (int[] memory){... */\n    tag_25:\n        /* \"basic/RomaNum.sol\":3070:3082  int[] memory */\n      0x60\n        /* \"basic/RomaNum.sol\":3149:3167  int[]memory values */\n      0x00\n        /* \"basic/RomaNum.sol\":3180:3182  13 */\n      0x0d\n        /* \"basic/RomaNum.sol\":3170:3183  new int[](13) */\n      0xffffffffffffffff\n      dup2\n      gt\n      iszero\n      tag_111\n      jumpi\n      tag_112\n      tag_81\n      jump\t// in\n    tag_112:\n    tag_111:\n      mload(0x40)\n      swap1\n      dup1\n      dup3\n      mstore\n      dup1\n      0x20\n      mul\n      0x20\n      add\n      dup3\n      add\n      0x40\n      mstore\n      dup1\n      iszero\n      tag_113\n      jumpi\n      dup2\n      0x20\n      add\n      0x20\n      dup3\n      mul\n      dup1\n      calldatasize\n      dup4\n      calldatacopy\n      dup1\n      dup3\n      add\n      swap2\n      pop\n      pop\n      swap1\n      pop\n    tag_113:\n      pop\n        /* \"basic/RomaNum.sol\":3149:3183  int[]memory values = new int[](13) */\n      swap1\n      pop\n        /* \"basic/RomaNum.sol\":3206:3210  1000 */\n      0x03e8\n        /* \"basic/RomaNum.sol\":3194:3200  values */\n      dup2\n        /* \"basic/RomaNum.sol\":3201:3202  0 */\n      0x00\n        /* \"basic/RomaNum.sol\":3194:3203  values[0] */\n      dup2\n      mload\n      dup2\n      lt\n      tag_114\n      jumpi\n      tag_115\n      tag_33\n      jump\t// in\n    tag_115:\n    tag_114:\n      0x20\n      mul\n      0x20\n      add\n      add\n        /* \"basic/RomaNum.sol\":3194:3210  values[0] = 1000 */\n      dup2\n      dup2\n      mstore\n      pop\n      pop\n        /* \"basic/RomaNum.sol\":3233:3236  900 */\n      0x0384\n        /* \"basic/RomaNum.sol\":3221:3227  values */\n      dup2\n        /* \"basic/RomaNum.sol\":3228:3229  1 */\n      0x01\n        /* \"basic/RomaNum.sol\":3221:3230  values[1] */\n      dup2\n      mload\n      dup2\n      lt\n      tag_116\n      jumpi\n      tag_117\n      tag_33\n      jump\t// in\n    tag_117:\n    tag_116:\n      0x20\n      mul\n      0x20\n      add\n      add\n        /* \"basic/RomaNum.sol\":3221:3236  values[1] = 900 */\n      dup2\n      dup2\n      mstore\n      pop\n      pop\n        /* \"basic/RomaNum.sol\":3259:3262  500 */\n      0x01f4\n        /* \"basic/RomaNum.sol\":3247:3253  values */\n      dup2\n        /* \"basic/RomaNum.sol\":3254:3255  2 */\n      0x02\n        /* \"basic/RomaNum.sol\":3247:3256  values[2] */\n      dup2\n      mload\n      dup2\n      lt\n      tag_118\n      jumpi\n      tag_119\n      tag_33\n      jump\t// in\n    tag_119:\n    tag_118:\n      0x20\n      mul\n      0x20\n      add\n      add\n        /* \"basic/RomaNum.sol\":3247:3262  values[2] = 500 */\n      dup2\n      dup2\n      mstore\n      pop\n      pop\n        /* \"basic/RomaNum.sol\":3285:3288  400 */\n      0x0190\n        /* \"basic/RomaNum.sol\":3273:3279  values */\n      dup2\n        /* \"basic/RomaNum.sol\":3280:3281  3 */\n      0x03\n        /* \"basic/RomaNum.sol\":3273:3282  values[3] */\n      dup2\n      mload\n      dup2\n      lt\n      tag_120\n      jumpi\n      tag_121\n      tag_33\n      jump\t// in\n    tag_121:\n    tag_120:\n      0x20\n      mul\n      0x20\n      add\n      add\n        /* \"basic/RomaNum.sol\":3273:3288  values[3] = 400 */\n      dup2\n      dup2\n      mstore\n      pop\n      pop\n        /* \"basic/RomaNum.sol\":3311:3314  100 */\n      0x64\n        /* \"basic/RomaNum.sol\":3299:3305  values */\n      dup2\n        /* \"basic/RomaNum.sol\":3306:3307  4 */\n      0x04\n        /* \"basic/RomaNum.sol\":3299:3308  values[4] */\n      dup2\n      mload\n      dup2\n      lt\n      tag_122\n      jumpi\n      tag_123\n      tag_33\n      jump\t// in\n    tag_123:\n    tag_122:\n      0x20\n      mul\n      0x20\n      add\n      add\n        /* \"basic/RomaNum.sol\":3299:3314  values[4] = 100 */\n      dup2\n      dup2\n      mstore\n      pop\n      pop\n        /* \"basic/RomaNum.sol\":3337:3339  90 */\n      0x5a\n        /* \"basic/RomaNum.sol\":3325:3331  values */\n      dup2\n        /* \"basic/RomaNum.sol\":3332:3333  5 */\n      0x05\n        /* \"basic/RomaNum.sol\":3325:3334  values[5] */\n      dup2\n      mload\n      dup2\n      lt\n      tag_124\n      jumpi\n      tag_125\n      tag_33\n      jump\t// in\n    tag_125:\n    tag_124:\n      0x20\n      mul\n      0x20\n      add\n      add\n        /* \"basic/RomaNum.sol\":3325:3339  values[5] = 90 */\n      dup2\n      dup2\n      mstore\n      pop\n      pop\n        /* \"basic/RomaNum.sol\":3362:3364  50 */\n      0x32\n        /* \"basic/RomaNum.sol\":3350:3356  values */\n      dup2\n        /* \"basic/RomaNum.sol\":3357:3358  6 */\n      0x06\n        /* \"basic/RomaNum.sol\":3350:3359  values[6] */\n      dup2\n      mload\n      dup2\n      lt\n      tag_126\n      jumpi\n      tag_127\n      tag_33\n      jump\t// in\n    tag_127:\n    tag_126:\n      0x20\n      mul\n      0x20\n      add\n      add\n        /* \"basic/RomaNum.sol\":3350:3364  values[6] = 50 */\n      dup2\n      dup2\n      mstore\n      pop\n      pop\n        /* \"basic/RomaNum.sol\":3387:3389  40 */\n      0x28\n        /* \"basic/RomaNum.sol\":3375:3381  values */\n      dup2\n        /* \"basic/RomaNum.sol\":3382:3383  7 */\n      0x07\n        /* \"basic/RomaNum.sol\":3375:3384  values[7] */\n      dup2\n      mload\n      dup2\n      lt\n      tag_128\n      jumpi\n      tag_129\n      tag_33\n      jump\t// in\n    tag_129:\n    tag_128:\n      0x20\n      mul\n      0x20\n      add\n      add\n        /* \"basic/RomaNum.sol\":3375:3389  values[7] = 40 */\n      dup2\n      dup2\n      mstore\n      pop\n      pop\n        /* \"basic/RomaNum.sol\":3412:3414  10 */\n      0x0a\n        /* \"basic/RomaNum.sol\":3400:3406  values */\n      dup2\n        /* \"basic/RomaNum.sol\":3407:3408  8 */\n      0x08\n        /* \"basic/RomaNum.sol\":3400:3409  values[8] */\n      dup2\n      mload\n      dup2\n      lt\n      tag_130\n      jumpi\n      tag_131\n      tag_33\n      jump\t// in\n    tag_131:\n    tag_130:\n      0x20\n      mul\n      0x20\n      add\n      add\n        /* \"basic/RomaNum.sol\":3400:3414  values[8] = 10 */\n      dup2\n      dup2\n      mstore\n      pop\n      pop\n        /* \"basic/RomaNum.sol\":3437:3438  9 */\n      0x09\n        /* \"basic/RomaNum.sol\":3425:3431  values */\n      dup2\n        /* \"basic/RomaNum.sol\":3432:3433  9 */\n      0x09\n        /* \"basic/RomaNum.sol\":3425:3434  values[9] */\n      dup2\n      mload\n      dup2\n      lt\n      tag_132\n      jumpi\n      tag_133\n      tag_33\n      jump\t// in\n    tag_133:\n    tag_132:\n      0x20\n      mul\n      0x20\n      add\n      add\n        /* \"basic/RomaNum.sol\":3425:3438  values[9] = 9 */\n      dup2\n      dup2\n      mstore\n      pop\n      pop\n        /* \"basic/RomaNum.sol\":3462:3463  5 */\n      0x05\n        /* \"basic/RomaNum.sol\":3449:3455  values */\n      dup2\n        /* \"basic/RomaNum.sol\":3456:3458  10 */\n      0x0a\n        /* \"basic/RomaNum.sol\":3449:3459  values[10] */\n      dup2\n      mload\n      dup2\n      lt\n      tag_134\n      jumpi\n      tag_135\n      tag_33\n      jump\t// in\n    tag_135:\n    tag_134:\n      0x20\n      mul\n      0x20\n      add\n      add\n        /* \"basic/RomaNum.sol\":3449:3463  values[10] = 5 */\n      dup2\n      dup2\n      mstore\n      pop\n      pop\n        /* \"basic/RomaNum.sol\":3487:3488  4 */\n      0x04\n        /* \"basic/RomaNum.sol\":3474:3480  values */\n      dup2\n        /* \"basic/RomaNum.sol\":3481:3483  11 */\n      0x0b\n        /* \"basic/RomaNum.sol\":3474:3484  values[11] */\n      dup2\n      mload\n      dup2\n      lt\n      tag_136\n      jumpi\n      tag_137\n      tag_33\n      jump\t// in\n    tag_137:\n    tag_136:\n      0x20\n      mul\n      0x20\n      add\n      add\n        /* \"basic/RomaNum.sol\":3474:3488  values[11] = 4 */\n      dup2\n      dup2\n      mstore\n      pop\n      pop\n        /* \"basic/RomaNum.sol\":3512:3513  1 */\n      0x01\n        /* \"basic/RomaNum.sol\":3499:3505  values */\n      dup2\n        /* \"basic/RomaNum.sol\":3506:3508  12 */\n      0x0c\n        /* \"basic/RomaNum.sol\":3499:3509  values[12] */\n      dup2\n      mload\n      dup2\n      lt\n      tag_138\n      jumpi\n      tag_139\n      tag_33\n      jump\t// in\n    tag_139:\n    tag_138:\n      0x20\n      mul\n      0x20\n      add\n      add\n        /* \"basic/RomaNum.sol\":3499:3513  values[12] = 1 */\n      dup2\n      dup2\n      mstore\n      pop\n      pop\n        /* \"basic/RomaNum.sol\":3531:3537  values */\n      dup1\n        /* \"basic/RomaNum.sol\":3524:3537  return values */\n      swap2\n      pop\n      pop\n        /* \"basic/RomaNum.sol\":3024:3545  function getIntArray() internal pure returns (int[] memory){... */\n      swap1\n      jump\t// out\n        /* \"basic/RomaNum.sol\":1433:1811  function getValue(string memory symbol, string[] memory symbols, int[] memory values) private pure returns (int) {... */\n    tag_41:\n        /* \"basic/RomaNum.sol\":1541:1544  int */\n      0x00\n        /* \"basic/RomaNum.sol\":1562:1568  uint i */\n      0x00\n        /* \"basic/RomaNum.sol\":1571:1572  0 */\n      0x00\n        /* \"basic/RomaNum.sol\":1562:1572  uint i = 0 */\n      swap1\n      pop\n        /* \"basic/RomaNum.sol\":1557:1760  for (uint i = 0; i < symbols.length; i++) {... */\n    tag_141:\n        /* \"basic/RomaNum.sol\":1578:1585  symbols */\n      dup4\n        /* \"basic/RomaNum.sol\":1578:1592  symbols.length */\n      mload\n        /* \"basic/RomaNum.sol\":1574:1575  i */\n      dup2\n        /* \"basic/RomaNum.sol\":1574:1592  i < symbols.length */\n      lt\n        /* \"basic/RomaNum.sol\":1557:1760  for (uint i = 0; i < symbols.length; i++) {... */\n      iszero\n      tag_142\n      jumpi\n        /* \"basic/RomaNum.sol\":1684:1691  symbols */\n      dup4\n        /* \"basic/RomaNum.sol\":1692:1693  i */\n      dup2\n        /* \"basic/RomaNum.sol\":1684:1694  symbols[i] */\n      dup2\n      mload\n      dup2\n      lt\n      tag_144\n      jumpi\n      tag_145\n      tag_33\n      jump\t// in\n    tag_145:\n    tag_144:\n      0x20\n      mul\n      0x20\n      add\n      add\n      mload\n        /* \"basic/RomaNum.sol\":1667:1695  abi.encodePacked(symbols[i]) */\n      add(0x20, mload(0x40))\n      tag_146\n      swap2\n      swap1\n      tag_147\n      jump\t// in\n    tag_146:\n      mload(0x40)\n      0x20\n      dup2\n      dup4\n      sub\n      sub\n      dup2\n      mstore\n      swap1\n      0x40\n      mstore\n        /* \"basic/RomaNum.sol\":1657:1696  keccak256(abi.encodePacked(symbols[i])) */\n      dup1\n      mload\n      swap1\n      0x20\n      add\n      keccak256\n        /* \"basic/RomaNum.sol\":1645:1651  symbol */\n      dup6\n        /* \"basic/RomaNum.sol\":1628:1652  abi.encodePacked(symbol) */\n      add(0x20, mload(0x40))\n      tag_148\n      swap2\n      swap1\n      tag_147\n      jump\t// in\n    tag_148:\n      mload(0x40)\n      0x20\n      dup2\n      dup4\n      sub\n      sub\n      dup2\n      mstore\n      swap1\n      0x40\n      mstore\n        /* \"basic/RomaNum.sol\":1618:1653  keccak256(abi.encodePacked(symbol)) */\n      dup1\n      mload\n      swap1\n      0x20\n      add\n      keccak256\n        /* \"basic/RomaNum.sol\":1618:1696  keccak256(abi.encodePacked(symbol)) == keccak256(abi.encodePacked(symbols[i])) */\n      sub\n        /* \"basic/RomaNum.sol\":1614:1749  if (keccak256(abi.encodePacked(symbol)) == keccak256(abi.encodePacked(symbols[i]))) {... */\n      tag_149\n      jumpi\n        /* \"basic/RomaNum.sol\":1724:1730  values */\n      dup3\n        /* \"basic/RomaNum.sol\":1731:1732  i */\n      dup2\n        /* \"basic/RomaNum.sol\":1724:1733  values[i] */\n      dup2\n      mload\n      dup2\n      lt\n      tag_150\n      jumpi\n      tag_151\n      tag_33\n      jump\t// in\n    tag_151:\n    tag_150:\n      0x20\n      mul\n      0x20\n      add\n      add\n      mload\n        /* \"basic/RomaNum.sol\":1717:1733  return values[i] */\n      swap2\n      pop\n      pop\n      jump(tag_140)\n        /* \"basic/RomaNum.sol\":1614:1749  if (keccak256(abi.encodePacked(symbol)) == keccak256(abi.encodePacked(symbols[i]))) {... */\n    tag_149:\n        /* \"basic/RomaNum.sol\":1594:1597  i++ */\n      dup1\n      dup1\n      0x01\n      add\n      swap2\n      pop\n      pop\n        /* \"basic/RomaNum.sol\":1557:1760  for (uint i = 0; i < symbols.length; i++) {... */\n      jump(tag_141)\n    tag_142:\n      pop\n        /* \"basic/RomaNum.sol\":1777:1778  0 */\n      0x00\n        /* \"basic/RomaNum.sol\":1770:1778  return 0 */\n      swap1\n      pop\n        /* \"basic/RomaNum.sol\":1433:1811  function getValue(string memory symbol, string[] memory symbols, int[] memory values) private pure returns (int) {... */\n    tag_140:\n      swap4\n      swap3\n      pop\n      pop\n      pop\n      jump\t// out\n        /* \"#utility.yul\":88:205   */\n    tag_153:\n        /* \"#utility.yul\":197:198   */\n      0x00\n        /* \"#utility.yul\":194:195   */\n      0x00\n        /* \"#utility.yul\":187:199   */\n      revert\n        /* \"#utility.yul\":211:328   */\n    tag_154:\n        /* \"#utility.yul\":320:321   */\n      0x00\n        /* \"#utility.yul\":317:318   */\n      0x00\n        /* \"#utility.yul\":310:322   */\n      revert\n        /* \"#utility.yul\":334:451   */\n    tag_155:\n        /* \"#utility.yul\":443:444   */\n      0x00\n        /* \"#utility.yul\":440:441   */\n      0x00\n        /* \"#utility.yul\":433:445   */\n      revert\n        /* \"#utility.yul\":457:574   */\n    tag_156:\n        /* \"#utility.yul\":566:567   */\n      0x00\n        /* \"#utility.yul\":563:564   */\n      0x00\n        /* \"#utility.yul\":556:568   */\n      revert\n        /* \"#utility.yul\":580:697   */\n    tag_157:\n        /* \"#utility.yul\":689:690   */\n      0x00\n        /* \"#utility.yul\":686:687   */\n      0x00\n        /* \"#utility.yul\":679:691   */\n      revert\n        /* \"#utility.yul\":717:1270   */\n    tag_158:\n        /* \"#utility.yul\":775:783   */\n      0x00\n        /* \"#utility.yul\":785:791   */\n      0x00\n        /* \"#utility.yul\":835:838   */\n      dup4\n        /* \"#utility.yul\":828:832   */\n      0x1f\n        /* \"#utility.yul\":820:826   */\n      dup5\n        /* \"#utility.yul\":816:833   */\n      add\n        /* \"#utility.yul\":812:839   */\n      slt\n        /* \"#utility.yul\":802:924   */\n      tag_185\n      jumpi\n        /* \"#utility.yul\":843:922   */\n      tag_186\n      tag_155\n      jump\t// in\n    tag_186:\n        /* \"#utility.yul\":802:924   */\n    tag_185:\n        /* \"#utility.yul\":956:962   */\n      dup3\n        /* \"#utility.yul\":943:963   */\n      calldataload\n        /* \"#utility.yul\":933:963   */\n      swap1\n      pop\n        /* \"#utility.yul\":986:1004   */\n      0xffffffffffffffff\n        /* \"#utility.yul\":978:984   */\n      dup2\n        /* \"#utility.yul\":975:1005   */\n      gt\n        /* \"#utility.yul\":972:1089   */\n      iszero\n      tag_187\n      jumpi\n        /* \"#utility.yul\":1008:1087   */\n      tag_188\n      tag_156\n      jump\t// in\n    tag_188:\n        /* \"#utility.yul\":972:1089   */\n    tag_187:\n        /* \"#utility.yul\":1122:1126   */\n      0x20\n        /* \"#utility.yul\":1114:1120   */\n      dup4\n        /* \"#utility.yul\":1110:1127   */\n      add\n        /* \"#utility.yul\":1098:1127   */\n      swap2\n      pop\n        /* \"#utility.yul\":1176:1179   */\n      dup4\n        /* \"#utility.yul\":1168:1172   */\n      0x01\n        /* \"#utility.yul\":1160:1166   */\n      dup3\n        /* \"#utility.yul\":1156:1173   */\n      mul\n        /* \"#utility.yul\":1146:1154   */\n      dup4\n        /* \"#utility.yul\":1142:1174   */\n      add\n        /* \"#utility.yul\":1139:1180   */\n      gt\n        /* \"#utility.yul\":1136:1264   */\n      iszero\n      tag_189\n      jumpi\n        /* \"#utility.yul\":1183:1262   */\n      tag_190\n      tag_157\n      jump\t// in\n    tag_190:\n        /* \"#utility.yul\":1136:1264   */\n    tag_189:\n        /* \"#utility.yul\":717:1270   */\n      swap3\n      pop\n      swap3\n      swap1\n      pop\n      jump\t// out\n        /* \"#utility.yul\":1276:1805   */\n    tag_8:\n        /* \"#utility.yul\":1347:1353   */\n      0x00\n        /* \"#utility.yul\":1355:1361   */\n      0x00\n        /* \"#utility.yul\":1404:1406   */\n      0x20\n        /* \"#utility.yul\":1392:1401   */\n      dup4\n        /* \"#utility.yul\":1383:1390   */\n      dup6\n        /* \"#utility.yul\":1379:1402   */\n      sub\n        /* \"#utility.yul\":1375:1407   */\n      slt\n        /* \"#utility.yul\":1372:1491   */\n      iszero\n      tag_192\n      jumpi\n        /* \"#utility.yul\":1410:1489   */\n      tag_193\n      tag_153\n      jump\t// in\n    tag_193:\n        /* \"#utility.yul\":1372:1491   */\n    tag_192:\n        /* \"#utility.yul\":1558:1559   */\n      0x00\n        /* \"#utility.yul\":1547:1556   */\n      dup4\n        /* \"#utility.yul\":1543:1560   */\n      add\n        /* \"#utility.yul\":1530:1561   */\n      calldataload\n        /* \"#utility.yul\":1588:1606   */\n      0xffffffffffffffff\n        /* \"#utility.yul\":1580:1586   */\n      dup2\n        /* \"#utility.yul\":1577:1607   */\n      gt\n        /* \"#utility.yul\":1574:1691   */\n      iszero\n      tag_194\n      jumpi\n        /* \"#utility.yul\":1610:1689   */\n      tag_195\n      tag_154\n      jump\t// in\n    tag_195:\n        /* \"#utility.yul\":1574:1691   */\n    tag_194:\n        /* \"#utility.yul\":1723:1788   */\n      tag_196\n        /* \"#utility.yul\":1780:1787   */\n      dup6\n        /* \"#utility.yul\":1771:1777   */\n      dup3\n        /* \"#utility.yul\":1760:1769   */\n      dup7\n        /* \"#utility.yul\":1756:1778   */\n      add\n        /* \"#utility.yul\":1723:1788   */\n      tag_158\n      jump\t// in\n    tag_196:\n        /* \"#utility.yul\":1705:1788   */\n      swap3\n      pop\n      swap3\n      pop\n        /* \"#utility.yul\":1501:1798   */\n      pop\n        /* \"#utility.yul\":1276:1805   */\n      swap3\n      pop\n      swap3\n      swap1\n      pop\n      jump\t// out\n        /* \"#utility.yul\":1811:1887   */\n    tag_159:\n        /* \"#utility.yul\":1847:1854   */\n      0x00\n        /* \"#utility.yul\":1876:1881   */\n      dup2\n        /* \"#utility.yul\":1865:1881   */\n      swap1\n      pop\n        /* \"#utility.yul\":1811:1887   */\n      swap2\n      swap1\n      pop\n      jump\t// out\n        /* \"#utility.yul\":1893:2008   */\n    tag_160:\n        /* \"#utility.yul\":1978:2001   */\n      tag_199\n        /* \"#utility.yul\":1995:2000   */\n      dup2\n        /* \"#utility.yul\":1978:2001   */\n      tag_159\n      jump\t// in\n    tag_199:\n        /* \"#utility.yul\":1973:1976   */\n      dup3\n        /* \"#utility.yul\":1966:2002   */\n      mstore\n        /* \"#utility.yul\":1893:2008   */\n      pop\n      pop\n      jump\t// out\n        /* \"#utility.yul\":2014:2232   */\n    tag_11:\n        /* \"#utility.yul\":2105:2109   */\n      0x00\n        /* \"#utility.yul\":2143:2145   */\n      0x20\n        /* \"#utility.yul\":2132:2141   */\n      dup3\n        /* \"#utility.yul\":2128:2146   */\n      add\n        /* \"#utility.yul\":2120:2146   */\n      swap1\n      pop\n        /* \"#utility.yul\":2156:2225   */\n      tag_201\n        /* \"#utility.yul\":2222:2223   */\n      0x00\n        /* \"#utility.yul\":2211:2220   */\n      dup4\n        /* \"#utility.yul\":2207:2224   */\n      add\n        /* \"#utility.yul\":2198:2204   */\n      dup5\n        /* \"#utility.yul\":2156:2225   */\n      tag_160\n      jump\t// in\n    tag_201:\n        /* \"#utility.yul\":2014:2232   */\n      swap3\n      swap2\n      pop\n      pop\n      jump\t// out\n        /* \"#utility.yul\":2238:2337   */\n    tag_161:\n        /* \"#utility.yul\":2290:2296   */\n      0x00\n        /* \"#utility.yul\":2324:2329   */\n      dup2\n        /* \"#utility.yul\":2318:2330   */\n      mload\n        /* \"#utility.yul\":2308:2330   */\n      swap1\n      pop\n        /* \"#utility.yul\":2238:2337   */\n      swap2\n      swap1\n      pop\n      jump\t// out\n        /* \"#utility.yul\":2343:2512   */\n    tag_162:\n        /* \"#utility.yul\":2427:2438   */\n      0x00\n        /* \"#utility.yul\":2461:2467   */\n      dup3\n        /* \"#utility.yul\":2456:2459   */\n      dup3\n        /* \"#utility.yul\":2449:2468   */\n      mstore\n        /* \"#utility.yul\":2501:2505   */\n      0x20\n        /* \"#utility.yul\":2496:2499   */\n      dup3\n        /* \"#utility.yul\":2492:2506   */\n      add\n        /* \"#utility.yul\":2477:2506   */\n      swap1\n      pop\n        /* \"#utility.yul\":2343:2512   */\n      swap3\n      swap2\n      pop\n      pop\n      jump\t// out\n        /* \"#utility.yul\":2518:2657   */\n    tag_163:\n        /* \"#utility.yul\":2607:2613   */\n      dup3\n        /* \"#utility.yul\":2602:2605   */\n      dup2\n        /* \"#utility.yul\":2597:2600   */\n      dup4\n        /* \"#utility.yul\":2591:2614   */\n      mcopy\n        /* \"#utility.yul\":2648:2649   */\n      0x00\n        /* \"#utility.yul\":2639:2645   */\n      dup4\n        /* \"#utility.yul\":2634:2637   */\n      dup4\n        /* \"#utility.yul\":2630:2646   */\n      add\n        /* \"#utility.yul\":2623:2650   */\n      mstore\n        /* \"#utility.yul\":2518:2657   */\n      pop\n      pop\n      pop\n      jump\t// out\n        /* \"#utility.yul\":2663:2765   */\n    tag_164:\n        /* \"#utility.yul\":2704:2710   */\n      0x00\n        /* \"#utility.yul\":2755:2757   */\n      0x1f\n        /* \"#utility.yul\":2751:2758   */\n      not\n        /* \"#utility.yul\":2746:2748   */\n      0x1f\n        /* \"#utility.yul\":2739:2744   */\n      dup4\n        /* \"#utility.yul\":2735:2749   */\n      add\n        /* \"#utility.yul\":2731:2759   */\n      and\n        /* \"#utility.yul\":2721:2759   */\n      swap1\n      pop\n        /* \"#utility.yul\":2663:2765   */\n      swap2\n      swap1\n      pop\n      jump\t// out\n        /* \"#utility.yul\":2771:3148   */\n    tag_165:\n        /* \"#utility.yul\":2859:2862   */\n      0x00\n        /* \"#utility.yul\":2887:2926   */\n      tag_207\n        /* \"#utility.yul\":2920:2925   */\n      dup3\n        /* \"#utility.yul\":2887:2926   */\n      tag_161\n      jump\t// in\n    tag_207:\n        /* \"#utility.yul\":2942:3013   */\n      tag_208\n        /* \"#utility.yul\":3006:3012   */\n      dup2\n        /* \"#utility.yul\":3001:3004   */\n      dup6\n        /* \"#utility.yul\":2942:3013   */\n      tag_162\n      jump\t// in\n    tag_208:\n        /* \"#utility.yul\":2935:3013   */\n      swap4\n      pop\n        /* \"#utility.yul\":3022:3087   */\n      tag_209\n        /* \"#utility.yul\":3080:3086   */\n      dup2\n        /* \"#utility.yul\":3075:3078   */\n      dup6\n        /* \"#utility.yul\":3068:3072   */\n      0x20\n        /* \"#utility.yul\":3061:3066   */\n      dup7\n        /* \"#utility.yul\":3057:3073   */\n      add\n        /* \"#utility.yul\":3022:3087   */\n      tag_163\n      jump\t// in\n    tag_209:\n        /* \"#utility.yul\":3112:3141   */\n      tag_210\n        /* \"#utility.yul\":3134:3140   */\n      dup2\n        /* \"#utility.yul\":3112:3141   */\n      tag_164\n      jump\t// in\n    tag_210:\n        /* \"#utility.yul\":3107:3110   */\n      dup5\n        /* \"#utility.yul\":3103:3142   */\n      add\n        /* \"#utility.yul\":3096:3142   */\n      swap2\n      pop\n        /* \"#utility.yul\":2863:3148   */\n      pop\n        /* \"#utility.yul\":2771:3148   */\n      swap3\n      swap2\n      pop\n      pop\n      jump\t// out\n        /* \"#utility.yul\":3154:3467   */\n    tag_15:\n        /* \"#utility.yul\":3267:3271   */\n      0x00\n        /* \"#utility.yul\":3305:3307   */\n      0x20\n        /* \"#utility.yul\":3294:3303   */\n      dup3\n        /* \"#utility.yul\":3290:3308   */\n      add\n        /* \"#utility.yul\":3282:3308   */\n      swap1\n      pop\n        /* \"#utility.yul\":3354:3363   */\n      dup2\n        /* \"#utility.yul\":3348:3352   */\n      dup2\n        /* \"#utility.yul\":3344:3364   */\n      sub\n        /* \"#utility.yul\":3340:3341   */\n      0x00\n        /* \"#utility.yul\":3329:3338   */\n      dup4\n        /* \"#utility.yul\":3325:3342   */\n      add\n        /* \"#utility.yul\":3318:3365   */\n      mstore\n        /* \"#utility.yul\":3382:3460   */\n      tag_212\n        /* \"#utility.yul\":3455:3459   */\n      dup2\n        /* \"#utility.yul\":3446:3452   */\n      dup5\n        /* \"#utility.yul\":3382:3460   */\n      tag_165\n      jump\t// in\n    tag_212:\n        /* \"#utility.yul\":3374:3460   */\n      swap1\n      pop\n        /* \"#utility.yul\":3154:3467   */\n      swap3\n      swap2\n      pop\n      pop\n      jump\t// out\n        /* \"#utility.yul\":3473:3593   */\n    tag_166:\n        /* \"#utility.yul\":3545:3568   */\n      tag_214\n        /* \"#utility.yul\":3562:3567   */\n      dup2\n        /* \"#utility.yul\":3545:3568   */\n      tag_159\n      jump\t// in\n    tag_214:\n        /* \"#utility.yul\":3538:3543   */\n      dup2\n        /* \"#utility.yul\":3535:3569   */\n      eq\n        /* \"#utility.yul\":3525:3587   */\n      tag_215\n      jumpi\n        /* \"#utility.yul\":3583:3584   */\n      0x00\n        /* \"#utility.yul\":3580:3581   */\n      0x00\n        /* \"#utility.yul\":3573:3585   */\n      revert\n        /* \"#utility.yul\":3525:3587   */\n    tag_215:\n        /* \"#utility.yul\":3473:3593   */\n      pop\n      jump\t// out\n        /* \"#utility.yul\":3599:3736   */\n    tag_167:\n        /* \"#utility.yul\":3644:3649   */\n      0x00\n        /* \"#utility.yul\":3682:3688   */\n      dup2\n        /* \"#utility.yul\":3669:3689   */\n      calldataload\n        /* \"#utility.yul\":3660:3689   */\n      swap1\n      pop\n        /* \"#utility.yul\":3698:3730   */\n      tag_217\n        /* \"#utility.yul\":3724:3729   */\n      dup2\n        /* \"#utility.yul\":3698:3730   */\n      tag_166\n      jump\t// in\n    tag_217:\n        /* \"#utility.yul\":3599:3736   */\n      swap3\n      swap2\n      pop\n      pop\n      jump\t// out\n        /* \"#utility.yul\":3742:4069   */\n    tag_18:\n        /* \"#utility.yul\":3800:3806   */\n      0x00\n        /* \"#utility.yul\":3849:3851   */\n      0x20\n        /* \"#utility.yul\":3837:3846   */\n      dup3\n        /* \"#utility.yul\":3828:3835   */\n      dup5\n        /* \"#utility.yul\":3824:3847   */\n      sub\n        /* \"#utility.yul\":3820:3852   */\n      slt\n        /* \"#utility.yul\":3817:3936   */\n      iszero\n      tag_219\n      jumpi\n        /* \"#utility.yul\":3855:3934   */\n      tag_220\n      tag_153\n      jump\t// in\n    tag_220:\n        /* \"#utility.yul\":3817:3936   */\n    tag_219:\n        /* \"#utility.yul\":3975:3976   */\n      0x00\n        /* \"#utility.yul\":4000:4052   */\n      tag_221\n        /* \"#utility.yul\":4044:4051   */\n      dup5\n        /* \"#utility.yul\":4035:4041   */\n      dup3\n        /* \"#utility.yul\":4024:4033   */\n      dup6\n        /* \"#utility.yul\":4020:4042   */\n      add\n        /* \"#utility.yul\":4000:4052   */\n      tag_167\n      jump\t// in\n    tag_221:\n        /* \"#utility.yul\":3990:4052   */\n      swap2\n      pop\n        /* \"#utility.yul\":3946:4062   */\n      pop\n        /* \"#utility.yul\":3742:4069   */\n      swap3\n      swap2\n      pop\n      pop\n      jump\t// out\n        /* \"#utility.yul\":4075:4152   */\n    tag_168:\n        /* \"#utility.yul\":4112:4119   */\n      0x00\n        /* \"#utility.yul\":4141:4146   */\n      dup2\n        /* \"#utility.yul\":4130:4146   */\n      swap1\n      pop\n        /* \"#utility.yul\":4075:4152   */\n      swap2\n      swap1\n      pop\n      jump\t// out\n        /* \"#utility.yul\":4158:4338   */\n    tag_169:\n        /* \"#utility.yul\":4206:4283   */\n      0x4e487b7100000000000000000000000000000000000000000000000000000000\n        /* \"#utility.yul\":4203:4204   */\n      0x00\n        /* \"#utility.yul\":4196:4284   */\n      mstore\n        /* \"#utility.yul\":4303:4307   */\n      0x11\n        /* \"#utility.yul\":4300:4301   */\n      0x04\n        /* \"#utility.yul\":4293:4308   */\n      mstore\n        /* \"#utility.yul\":4327:4331   */\n      0x24\n        /* \"#utility.yul\":4324:4325   */\n      0x00\n        /* \"#utility.yul\":4317:4332   */\n      revert\n        /* \"#utility.yul\":4344:4538   */\n    tag_29:\n        /* \"#utility.yul\":4384:4388   */\n      0x00\n        /* \"#utility.yul\":4404:4424   */\n      tag_225\n        /* \"#utility.yul\":4422:4423   */\n      dup3\n        /* \"#utility.yul\":4404:4424   */\n      tag_168\n      jump\t// in\n    tag_225:\n        /* \"#utility.yul\":4399:4424   */\n      swap2\n      pop\n        /* \"#utility.yul\":4438:4458   */\n      tag_226\n        /* \"#utility.yul\":4456:4457   */\n      dup4\n        /* \"#utility.yul\":4438:4458   */\n      tag_168\n      jump\t// in\n    tag_226:\n        /* \"#utility.yul\":4433:4458   */\n      swap3\n      pop\n        /* \"#utility.yul\":4482:4483   */\n      dup3\n        /* \"#utility.yul\":4479:4480   */\n      dup3\n        /* \"#utility.yul\":4475:4484   */\n      sub\n        /* \"#utility.yul\":4467:4484   */\n      swap1\n      pop\n        /* \"#utility.yul\":4506:4507   */\n      dup2\n        /* \"#utility.yul\":4500:4504   */\n      dup2\n        /* \"#utility.yul\":4497:4508   */\n      gt\n        /* \"#utility.yul\":4494:4531   */\n      iszero\n      tag_227\n      jumpi\n        /* \"#utility.yul\":4511:4529   */\n      tag_228\n      tag_169\n      jump\t// in\n    tag_228:\n        /* \"#utility.yul\":4494:4531   */\n    tag_227:\n        /* \"#utility.yul\":4344:4538   */\n      swap3\n      swap2\n      pop\n      pop\n      jump\t// out\n        /* \"#utility.yul\":4544:4724   */\n    tag_33:\n        /* \"#utility.yul\":4592:4669   */\n      0x4e487b7100000000000000000000000000000000000000000000000000000000\n        /* \"#utility.yul\":4589:4590   */\n      0x00\n        /* \"#utility.yul\":4582:4670   */\n      mstore\n        /* \"#utility.yul\":4689:4693   */\n      0x32\n        /* \"#utility.yul\":4686:4687   */\n      0x04\n        /* \"#utility.yul\":4679:4694   */\n      mstore\n        /* \"#utility.yul\":4713:4717   */\n      0x24\n        /* \"#utility.yul\":4710:4711   */\n      0x00\n        /* \"#utility.yul\":4703:4718   */\n      revert\n        /* \"#utility.yul\":4730:4921   */\n    tag_35:\n        /* \"#utility.yul\":4770:4773   */\n      0x00\n        /* \"#utility.yul\":4789:4809   */\n      tag_231\n        /* \"#utility.yul\":4807:4808   */\n      dup3\n        /* \"#utility.yul\":4789:4809   */\n      tag_168\n      jump\t// in\n    tag_231:\n        /* \"#utility.yul\":4784:4809   */\n      swap2\n      pop\n        /* \"#utility.yul\":4823:4843   */\n      tag_232\n        /* \"#utility.yul\":4841:4842   */\n      dup4\n        /* \"#utility.yul\":4823:4843   */\n      tag_168\n      jump\t// in\n    tag_232:\n        /* \"#utility.yul\":4818:4843   */\n      swap3\n      pop\n        /* \"#utility.yul\":4866:4867   */\n      dup3\n        /* \"#utility.yul\":4863:4864   */\n      dup3\n        /* \"#utility.yul\":4859:4868   */\n      add\n        /* \"#utility.yul\":4852:4868   */\n      swap1\n      pop\n        /* \"#utility.yul\":4887:4890   */\n      dup1\n        /* \"#utility.yul\":4884:4885   */\n      dup3\n        /* \"#utility.yul\":4881:4891   */\n      gt\n        /* \"#utility.yul\":4878:4914   */\n      iszero\n      tag_233\n      jumpi\n        /* \"#utility.yul\":4894:4912   */\n      tag_234\n      tag_169\n      jump\t// in\n    tag_234:\n        /* \"#utility.yul\":4878:4914   */\n    tag_233:\n        /* \"#utility.yul\":4730:4921   */\n      swap3\n      swap2\n      pop\n      pop\n      jump\t// out\n        /* \"#utility.yul\":4927:5076   */\n    tag_170:\n        /* \"#utility.yul\":4963:4970   */\n      0x00\n        /* \"#utility.yul\":5003:5069   */\n      0xff00000000000000000000000000000000000000000000000000000000000000\n        /* \"#utility.yul\":4996:5001   */\n      dup3\n        /* \"#utility.yul\":4992:5070   */\n      and\n        /* \"#utility.yul\":4981:5070   */\n      swap1\n      pop\n        /* \"#utility.yul\":4927:5076   */\n      swap2\n      swap1\n      pop\n      jump\t// out\n        /* \"#utility.yul\":5082:5160   */\n    tag_171:\n        /* \"#utility.yul\":5120:5127   */\n      0x00\n        /* \"#utility.yul\":5149:5154   */\n      dup2\n        /* \"#utility.yul\":5138:5154   */\n      swap1\n      pop\n        /* \"#utility.yul\":5082:5160   */\n      swap2\n      swap1\n      pop\n      jump\t// out\n        /* \"#utility.yul\":5166:5319   */\n    tag_172:\n        /* \"#utility.yul\":5269:5312   */\n      tag_238\n        /* \"#utility.yul\":5288:5311   */\n      tag_239\n        /* \"#utility.yul\":5305:5310   */\n      dup3\n        /* \"#utility.yul\":5288:5311   */\n      tag_170\n      jump\t// in\n    tag_239:\n        /* \"#utility.yul\":5269:5312   */\n      tag_171\n      jump\t// in\n    tag_238:\n        /* \"#utility.yul\":5264:5267   */\n      dup3\n        /* \"#utility.yul\":5257:5313   */\n      mstore\n        /* \"#utility.yul\":5166:5319   */\n      pop\n      pop\n      jump\t// out\n        /* \"#utility.yul\":5325:5712   */\n    tag_39:\n        /* \"#utility.yul\":5461:5464   */\n      0x00\n        /* \"#utility.yul\":5476:5549   */\n      tag_241\n        /* \"#utility.yul\":5545:5548   */\n      dup3\n        /* \"#utility.yul\":5536:5542   */\n      dup6\n        /* \"#utility.yul\":5476:5549   */\n      tag_172\n      jump\t// in\n    tag_241:\n        /* \"#utility.yul\":5574:5575   */\n      0x01\n        /* \"#utility.yul\":5569:5572   */\n      dup3\n        /* \"#utility.yul\":5565:5576   */\n      add\n        /* \"#utility.yul\":5558:5576   */\n      swap2\n      pop\n        /* \"#utility.yul\":5586:5659   */\n      tag_242\n        /* \"#utility.yul\":5655:5658   */\n      dup3\n        /* \"#utility.yul\":5646:5652   */\n      dup5\n        /* \"#utility.yul\":5586:5659   */\n      tag_172\n      jump\t// in\n    tag_242:\n        /* \"#utility.yul\":5684:5685   */\n      0x01\n        /* \"#utility.yul\":5679:5682   */\n      dup3\n        /* \"#utility.yul\":5675:5686   */\n      add\n        /* \"#utility.yul\":5668:5686   */\n      swap2\n      pop\n        /* \"#utility.yul\":5703:5706   */\n      dup2\n        /* \"#utility.yul\":5696:5706   */\n      swap1\n      pop\n        /* \"#utility.yul\":5325:5712   */\n      swap4\n      swap3\n      pop\n      pop\n      pop\n      jump\t// out\n        /* \"#utility.yul\":5718:6093   */\n    tag_44:\n        /* \"#utility.yul\":5757:5760   */\n      0x00\n        /* \"#utility.yul\":5776:5795   */\n      tag_244\n        /* \"#utility.yul\":5793:5794   */\n      dup3\n        /* \"#utility.yul\":5776:5795   */\n      tag_159\n      jump\t// in\n    tag_244:\n        /* \"#utility.yul\":5771:5795   */\n      swap2\n      pop\n        /* \"#utility.yul\":5809:5828   */\n      tag_245\n        /* \"#utility.yul\":5826:5827   */\n      dup4\n        /* \"#utility.yul\":5809:5828   */\n      tag_159\n      jump\t// in\n    tag_245:\n        /* \"#utility.yul\":5804:5828   */\n      swap3\n      pop\n        /* \"#utility.yul\":5851:5852   */\n      dup3\n        /* \"#utility.yul\":5848:5849   */\n      dup3\n        /* \"#utility.yul\":5844:5853   */\n      add\n        /* \"#utility.yul\":5837:5853   */\n      swap1\n      pop\n        /* \"#utility.yul\":6049:6050   */\n      dup3\n        /* \"#utility.yul\":6044:6047   */\n      dup2\n        /* \"#utility.yul\":6040:6051   */\n      slt\n        /* \"#utility.yul\":6033:6052   */\n      iszero\n        /* \"#utility.yul\":6029:6030   */\n      0x00\n        /* \"#utility.yul\":6026:6027   */\n      dup4\n        /* \"#utility.yul\":6022:6031   */\n      slt\n        /* \"#utility.yul\":6018:6053   */\n      and\n        /* \"#utility.yul\":6001:6002   */\n      dup4\n        /* \"#utility.yul\":5996:5999   */\n      dup3\n        /* \"#utility.yul\":5992:6003   */\n      slt\n        /* \"#utility.yul\":5987:5988   */\n      0x00\n        /* \"#utility.yul\":5984:5985   */\n      dup5\n        /* \"#utility.yul\":5980:5989   */\n      slt\n        /* \"#utility.yul\":5973:5990   */\n      iszero\n        /* \"#utility.yul\":5969:6004   */\n      and\n        /* \"#utility.yul\":5953:6063   */\n      or\n        /* \"#utility.yul\":5950:6086   */\n      iszero\n      tag_246\n      jumpi\n        /* \"#utility.yul\":6066:6084   */\n      tag_247\n      tag_169\n      jump\t// in\n    tag_247:\n        /* \"#utility.yul\":5950:6086   */\n    tag_246:\n        /* \"#utility.yul\":5718:6093   */\n      swap3\n      swap2\n      pop\n      pop\n      jump\t// out\n        /* \"#utility.yul\":6099:6350   */\n    tag_49:\n        /* \"#utility.yul\":6209:6212   */\n      0x00\n        /* \"#utility.yul\":6224:6297   */\n      tag_249\n        /* \"#utility.yul\":6293:6296   */\n      dup3\n        /* \"#utility.yul\":6284:6290   */\n      dup5\n        /* \"#utility.yul\":6224:6297   */\n      tag_172\n      jump\t// in\n    tag_249:\n        /* \"#utility.yul\":6322:6323   */\n      0x01\n        /* \"#utility.yul\":6317:6320   */\n      dup3\n        /* \"#utility.yul\":6313:6324   */\n      add\n        /* \"#utility.yul\":6306:6324   */\n      swap2\n      pop\n        /* \"#utility.yul\":6341:6344   */\n      dup2\n        /* \"#utility.yul\":6334:6344   */\n      swap1\n      pop\n        /* \"#utility.yul\":6099:6350   */\n      swap3\n      swap2\n      pop\n      pop\n      jump\t// out\n        /* \"#utility.yul\":6356:6576   */\n    tag_173:\n        /* \"#utility.yul\":6496:6530   */\n      0x4e756d626572206d757374206265206265747765656e203120616e6420333939\n        /* \"#utility.yul\":6492:6493   */\n      0x00\n        /* \"#utility.yul\":6484:6490   */\n      dup3\n        /* \"#utility.yul\":6480:6494   */\n      add\n        /* \"#utility.yul\":6473:6531   */\n      mstore\n        /* \"#utility.yul\":6565:6568   */\n      0x3900000000000000000000000000000000000000000000000000000000000000\n        /* \"#utility.yul\":6560:6562   */\n      0x20\n        /* \"#utility.yul\":6552:6558   */\n      dup3\n        /* \"#utility.yul\":6548:6563   */\n      add\n        /* \"#utility.yul\":6541:6569   */\n      mstore\n        /* \"#utility.yul\":6356:6576   */\n      pop\n      jump\t// out\n        /* \"#utility.yul\":6582:6948   */\n    tag_174:\n        /* \"#utility.yul\":6724:6727   */\n      0x00\n        /* \"#utility.yul\":6745:6812   */\n      tag_252\n        /* \"#utility.yul\":6809:6811   */\n      0x21\n        /* \"#utility.yul\":6804:6807   */\n      dup4\n        /* \"#utility.yul\":6745:6812   */\n      tag_162\n      jump\t// in\n    tag_252:\n        /* \"#utility.yul\":6738:6812   */\n      swap2\n      pop\n        /* \"#utility.yul\":6821:6914   */\n      tag_253\n        /* \"#utility.yul\":6910:6913   */\n      dup3\n        /* \"#utility.yul\":6821:6914   */\n      tag_173\n      jump\t// in\n    tag_253:\n        /* \"#utility.yul\":6939:6941   */\n      0x40\n        /* \"#utility.yul\":6934:6937   */\n      dup3\n        /* \"#utility.yul\":6930:6942   */\n      add\n        /* \"#utility.yul\":6923:6942   */\n      swap1\n      pop\n        /* \"#utility.yul\":6582:6948   */\n      swap2\n      swap1\n      pop\n      jump\t// out\n        /* \"#utility.yul\":6954:7373   */\n    tag_59:\n        /* \"#utility.yul\":7120:7124   */\n      0x00\n        /* \"#utility.yul\":7158:7160   */\n      0x20\n        /* \"#utility.yul\":7147:7156   */\n      dup3\n        /* \"#utility.yul\":7143:7161   */\n      add\n        /* \"#utility.yul\":7135:7161   */\n      swap1\n      pop\n        /* \"#utility.yul\":7207:7216   */\n      dup2\n        /* \"#utility.yul\":7201:7205   */\n      dup2\n        /* \"#utility.yul\":7197:7217   */\n      sub\n        /* \"#utility.yul\":7193:7194   */\n      0x00\n        /* \"#utility.yul\":7182:7191   */\n      dup4\n        /* \"#utility.yul\":7178:7195   */\n      add\n        /* \"#utility.yul\":7171:7218   */\n      mstore\n        /* \"#utility.yul\":7235:7366   */\n      tag_255\n        /* \"#utility.yul\":7361:7365   */\n      dup2\n        /* \"#utility.yul\":7235:7366   */\n      tag_174\n      jump\t// in\n    tag_255:\n        /* \"#utility.yul\":7227:7366   */\n      swap1\n      pop\n        /* \"#utility.yul\":6954:7373   */\n      swap2\n      swap1\n      pop\n      jump\t// out\n        /* \"#utility.yul\":7379:7527   */\n    tag_175:\n        /* \"#utility.yul\":7481:7492   */\n      0x00\n        /* \"#utility.yul\":7518:7521   */\n      dup2\n        /* \"#utility.yul\":7503:7521   */\n      swap1\n      pop\n        /* \"#utility.yul\":7379:7527   */\n      swap3\n      swap2\n      pop\n      pop\n      jump\t// out\n        /* \"#utility.yul\":7533:7923   */\n    tag_176:\n        /* \"#utility.yul\":7639:7642   */\n      0x00\n        /* \"#utility.yul\":7667:7706   */\n      tag_258\n        /* \"#utility.yul\":7700:7705   */\n      dup3\n        /* \"#utility.yul\":7667:7706   */\n      tag_161\n      jump\t// in\n    tag_258:\n        /* \"#utility.yul\":7722:7811   */\n      tag_259\n        /* \"#utility.yul\":7804:7810   */\n      dup2\n        /* \"#utility.yul\":7799:7802   */\n      dup6\n        /* \"#utility.yul\":7722:7811   */\n      tag_175\n      jump\t// in\n    tag_259:\n        /* \"#utility.yul\":7715:7811   */\n      swap4\n      pop\n        /* \"#utility.yul\":7820:7885   */\n      tag_260\n        /* \"#utility.yul\":7878:7884   */\n      dup2\n        /* \"#utility.yul\":7873:7876   */\n      dup6\n        /* \"#utility.yul\":7866:7870   */\n      0x20\n        /* \"#utility.yul\":7859:7864   */\n      dup7\n        /* \"#utility.yul\":7855:7871   */\n      add\n        /* \"#utility.yul\":7820:7885   */\n      tag_163\n      jump\t// in\n    tag_260:\n        /* \"#utility.yul\":7910:7916   */\n      dup1\n        /* \"#utility.yul\":7905:7908   */\n      dup5\n        /* \"#utility.yul\":7901:7917   */\n      add\n        /* \"#utility.yul\":7894:7917   */\n      swap2\n      pop\n        /* \"#utility.yul\":7643:7923   */\n      pop\n        /* \"#utility.yul\":7533:7923   */\n      swap3\n      swap2\n      pop\n      pop\n      jump\t// out\n        /* \"#utility.yul\":7929:8364   */\n    tag_72:\n        /* \"#utility.yul\":8109:8112   */\n      0x00\n        /* \"#utility.yul\":8131:8226   */\n      tag_262\n        /* \"#utility.yul\":8222:8225   */\n      dup3\n        /* \"#utility.yul\":8213:8219   */\n      dup6\n        /* \"#utility.yul\":8131:8226   */\n      tag_176\n      jump\t// in\n    tag_262:\n        /* \"#utility.yul\":8124:8226   */\n      swap2\n      pop\n        /* \"#utility.yul\":8243:8338   */\n      tag_263\n        /* \"#utility.yul\":8334:8337   */\n      dup3\n        /* \"#utility.yul\":8325:8331   */\n      dup5\n        /* \"#utility.yul\":8243:8338   */\n      tag_176\n      jump\t// in\n    tag_263:\n        /* \"#utility.yul\":8236:8338   */\n      swap2\n      pop\n        /* \"#utility.yul\":8355:8358   */\n      dup2\n        /* \"#utility.yul\":8348:8358   */\n      swap1\n      pop\n        /* \"#utility.yul\":7929:8364   */\n      swap4\n      swap3\n      pop\n      pop\n      pop\n      jump\t// out\n        /* \"#utility.yul\":8370:8742   */\n    tag_76:\n        /* \"#utility.yul\":8409:8413   */\n      0x00\n        /* \"#utility.yul\":8429:8448   */\n      tag_265\n        /* \"#utility.yul\":8446:8447   */\n      dup3\n        /* \"#utility.yul\":8429:8448   */\n      tag_159\n      jump\t// in\n    tag_265:\n        /* \"#utility.yul\":8424:8448   */\n      swap2\n      pop\n        /* \"#utility.yul\":8462:8481   */\n      tag_266\n        /* \"#utility.yul\":8479:8480   */\n      dup4\n        /* \"#utility.yul\":8462:8481   */\n      tag_159\n      jump\t// in\n    tag_266:\n        /* \"#utility.yul\":8457:8481   */\n      swap3\n      pop\n        /* \"#utility.yul\":8505:8506   */\n      dup3\n        /* \"#utility.yul\":8502:8503   */\n      dup3\n        /* \"#utility.yul\":8498:8507   */\n      sub\n        /* \"#utility.yul\":8490:8507   */\n      swap1\n      pop\n        /* \"#utility.yul\":8699:8700   */\n      dup2\n        /* \"#utility.yul\":8693:8697   */\n      dup2\n        /* \"#utility.yul\":8689:8701   */\n      slt\n        /* \"#utility.yul\":8685:8686   */\n      0x00\n        /* \"#utility.yul\":8682:8683   */\n      dup5\n        /* \"#utility.yul\":8678:8687   */\n      slt\n        /* \"#utility.yul\":8674:8702   */\n      and\n        /* \"#utility.yul\":8657:8658   */\n      dup3\n        /* \"#utility.yul\":8651:8655   */\n      dup3\n        /* \"#utility.yul\":8647:8659   */\n      sgt\n        /* \"#utility.yul\":8642:8643   */\n      0x00\n        /* \"#utility.yul\":8639:8640   */\n      dup6\n        /* \"#utility.yul\":8635:8644   */\n      slt\n        /* \"#utility.yul\":8628:8645   */\n      iszero\n        /* \"#utility.yul\":8624:8660   */\n      and\n        /* \"#utility.yul\":8608:8712   */\n      or\n        /* \"#utility.yul\":8605:8735   */\n      iszero\n      tag_267\n      jumpi\n        /* \"#utility.yul\":8715:8733   */\n      tag_268\n      tag_169\n      jump\t// in\n    tag_268:\n        /* \"#utility.yul\":8605:8735   */\n    tag_267:\n        /* \"#utility.yul\":8370:8742   */\n      swap3\n      swap2\n      pop\n      pop\n      jump\t// out\n        /* \"#utility.yul\":8748:8928   */\n    tag_81:\n        /* \"#utility.yul\":8796:8873   */\n      0x4e487b7100000000000000000000000000000000000000000000000000000000\n        /* \"#utility.yul\":8793:8794   */\n      0x00\n        /* \"#utility.yul\":8786:8874   */\n      mstore\n        /* \"#utility.yul\":8893:8897   */\n      0x41\n        /* \"#utility.yul\":8890:8891   */\n      0x04\n        /* \"#utility.yul\":8883:8898   */\n      mstore\n        /* \"#utility.yul\":8917:8921   */\n      0x24\n        /* \"#utility.yul\":8914:8915   */\n      0x00\n        /* \"#utility.yul\":8907:8922   */\n      revert\n        /* \"#utility.yul\":8934:9209   */\n    tag_147:\n        /* \"#utility.yul\":9066:9069   */\n      0x00\n        /* \"#utility.yul\":9088:9183   */\n      tag_271\n        /* \"#utility.yul\":9179:9182   */\n      dup3\n        /* \"#utility.yul\":9170:9176   */\n      dup5\n        /* \"#utility.yul\":9088:9183   */\n      tag_176\n      jump\t// in\n    tag_271:\n        /* \"#utility.yul\":9081:9183   */\n      swap2\n      pop\n        /* \"#utility.yul\":9200:9203   */\n      dup2\n        /* \"#utility.yul\":9193:9203   */\n      swap1\n      pop\n        /* \"#utility.yul\":8934:9209   */\n      swap3\n      swap2\n      pop\n      pop\n      jump\t// out\n\n    auxdata: 0xa26469706673582212208c875d687a1399a251b7c0c3a83014983aba6b6d2a02682679dba24d5e0a081664736f6c634300081e0033\n}\n",
				"bytecode": {
					"linkReferences": {},
					"object": "6080604052348015600e575f5ffd5b506110348061001c5f395ff3fe608060405234801561000f575f5ffd5b506004361061003f575f3560e01c806320f3c34114610043578063f8a8fd6d14610073578063ff749fa314610091575b5f5ffd5b61005d60048036038101906100589190610b95565b6100c1565b60405161006a9190610bf8565b60405180910390f35b61007b61026c565b6040516100889190610c81565b60405180910390f35b6100ab60048036038101906100a69190610ccb565b61027e565b6040516100b89190610c81565b60405180910390f35b5f5f6100cb6103b6565b90505f6100d6610861565b90505f5f90505f86868080601f0160208091040260200160405190810160405280939291908181526020018383808284375f81840152601f19601f8201169050808301925050505050505090505f815190505f5f90505b8181101561025d576001826101429190610d2c565b8110156101f0575f83828151811061015d5761015c610d5f565b5b602001015160f81c60f81b846001846101769190610d8c565b8151811061018757610186610d5f565b5b602001015160f81c60f81b6040516020016101a3929190610e0a565b60405160208183030381529060405290505f6101c0828989610a74565b90505f81146101ed5780866101d59190610e35565b95506002836101e49190610d8c565b9250505061012d565b50505b5f83828151811061020457610203610d5f565b5b602001015160f81c60f81b60405160200161021f9190610e76565b604051602081830303815290604052905061023b818888610a74565b856102469190610e35565b94506001826102559190610d8c565b91505061012d565b83965050505050505092915050565b60606102796107ca61027e565b905090565b6060600182121580156102935750610f9f8213155b6102d2576040517f08c379a00000000000000000000000000000000000000000000000000000000081526004016102c990610f00565b60405180910390fd5b5f60405180602001604052805f81525090505f6102ed6103b6565b90505f6102f8610861565b90505f5f90505b81518110156103aa575b81818151811061031c5761031b610d5f565b5b60200260200101518612610395578383828151811061033e5761033d610d5f565b5b6020026020010151604051602001610357929190610f58565b604051602081830303815290604052935081818151811061037b5761037a610d5f565b5b60200260200101518661038e9190610f7b565b9550610309565b5f8603156103aa5780806001019150506102ff565b50829350505050919050565b60605f600d67ffffffffffffffff8111156103d4576103d3610fbb565b5b60405190808252806020026020018201604052801561040757816020015b60608152602001906001900390816103f25790505b5090506040518060400160405280600181526020017f4d00000000000000000000000000000000000000000000000000000000000000815250815f8151811061045357610452610d5f565b5b60200260200101819052506040518060400160405280600281526020017f434d000000000000000000000000000000000000000000000000000000000000815250816001815181106104a8576104a7610d5f565b5b60200260200101819052506040518060400160405280600181526020017f4400000000000000000000000000000000000000000000000000000000000000815250816002815181106104fd576104fc610d5f565b5b60200260200101819052506040518060400160405280600281526020017f43440000000000000000000000000000000000000000000000000000000000008152508160038151811061055257610551610d5f565b5b60200260200101819052506040518060400160405280600181526020017f4300000000000000000000000000000000000000000000000000000000000000815250816004815181106105a7576105a6610d5f565b5b60200260200101819052506040518060400160405280600281526020017f5843000000000000000000000000000000000000000000000000000000000000815250816005815181106105fc576105fb610d5f565b5b60200260200101819052506040518060400160405280600181526020017f4c000000000000000000000000000000000000000000000000000000000000008152508160068151811061065157610650610d5f565b5b60200260200101819052506040518060400160405280600281526020017f584c000000000000000000000000000000000000000000000000000000000000815250816007815181106106a6576106a5610d5f565b5b60200260200101819052506040518060400160405280600181526020017f5800000000000000000000000000000000000000000000000000000000000000815250816008815181106106fb576106fa610d5f565b5b60200260200101819052506040518060400160405280600281526020017f4958000000000000000000000000000000000000000000000000000000000000815250816009815181106107505761074f610d5f565b5b60200260200101819052506040518060400160405280600181526020017f560000000000000000000000000000000000000000000000000000000000000081525081600a815181106107a5576107a4610d5f565b5b60200260200101819052506040518060400160405280600281526020017f495600000000000000000000000000000000000000000000000000000000000081525081600b815181106107fa576107f9610d5f565b5b60200260200101819052506040518060400160405280600181526020017f490000000000000000000000000000000000000000000000000000000000000081525081600c8151811061084f5761084e610d5f565b5b60200260200101819052508091505090565b60605f600d67ffffffffffffffff81111561087f5761087e610fbb565b5b6040519080825280602002602001820160405280156108ad5781602001602082028036833780820191505090505b5090506103e8815f815181106108c6576108c5610d5f565b5b602002602001018181525050610384816001815181106108e9576108e8610d5f565b5b6020026020010181815250506101f48160028151811061090c5761090b610d5f565b5b6020026020010181815250506101908160038151811061092f5761092e610d5f565b5b60200260200101818152505060648160048151811061095157610950610d5f565b5b602002602001018181525050605a8160058151811061097357610972610d5f565b5b60200260200101818152505060328160068151811061099557610994610d5f565b5b6020026020010181815250506028816007815181106109b7576109b6610d5f565b5b602002602001018181525050600a816008815181106109d9576109d8610d5f565b5b6020026020010181815250506009816009815181106109fb576109fa610d5f565b5b602002602001018181525050600581600a81518110610a1d57610a1c610d5f565b5b602002602001018181525050600481600b81518110610a3f57610a3e610d5f565b5b602002602001018181525050600181600c81518110610a6157610a60610d5f565b5b6020026020010181815250508091505090565b5f5f5f90505b8351811015610b2057838181518110610a9657610a95610d5f565b5b6020026020010151604051602001610aae9190610fe8565b6040516020818303038152906040528051906020012085604051602001610ad59190610fe8565b6040516020818303038152906040528051906020012003610b1357828181518110610b0357610b02610d5f565b5b6020026020010151915050610b25565b8080600101915050610a7a565b505f90505b9392505050565b5f5ffd5b5f5ffd5b5f5ffd5b5f5ffd5b5f5ffd5b5f5f83601f840112610b5557610b54610b34565b5b8235905067ffffffffffffffff811115610b7257610b71610b38565b5b602083019150836001820283011115610b8e57610b8d610b3c565b5b9250929050565b5f5f60208385031215610bab57610baa610b2c565b5b5f83013567ffffffffffffffff811115610bc857610bc7610b30565b5b610bd485828601610b40565b92509250509250929050565b5f819050919050565b610bf281610be0565b82525050565b5f602082019050610c0b5f830184610be9565b92915050565b5f81519050919050565b5f82825260208201905092915050565b8281835e5f83830152505050565b5f601f19601f8301169050919050565b5f610c5382610c11565b610c5d8185610c1b565b9350610c6d818560208601610c2b565b610c7681610c39565b840191505092915050565b5f6020820190508181035f830152610c998184610c49565b905092915050565b610caa81610be0565b8114610cb4575f5ffd5b50565b5f81359050610cc581610ca1565b92915050565b5f60208284031215610ce057610cdf610b2c565b5b5f610ced84828501610cb7565b91505092915050565b5f819050919050565b7f4e487b71000000000000000000000000000000000000000000000000000000005f52601160045260245ffd5b5f610d3682610cf6565b9150610d4183610cf6565b9250828203905081811115610d5957610d58610cff565b5b92915050565b7f4e487b71000000000000000000000000000000000000000000000000000000005f52603260045260245ffd5b5f610d9682610cf6565b9150610da183610cf6565b9250828201905080821115610db957610db8610cff565b5b92915050565b5f7fff0000000000000000000000000000000000000000000000000000000000000082169050919050565b5f819050919050565b610e04610dff82610dbf565b610dea565b82525050565b5f610e158285610df3565b600182019150610e258284610df3565b6001820191508190509392505050565b5f610e3f82610be0565b9150610e4a83610be0565b92508282019050828112155f8312168382125f841215161715610e7057610e6f610cff565b5b92915050565b5f610e818284610df3565b60018201915081905092915050565b7f4e756d626572206d757374206265206265747765656e203120616e64203339395f8201527f3900000000000000000000000000000000000000000000000000000000000000602082015250565b5f610eea602183610c1b565b9150610ef582610e90565b604082019050919050565b5f6020820190508181035f830152610f1781610ede565b9050919050565b5f81905092915050565b5f610f3282610c11565b610f3c8185610f1e565b9350610f4c818560208601610c2b565b80840191505092915050565b5f610f638285610f28565b9150610f6f8284610f28565b91508190509392505050565b5f610f8582610be0565b9150610f9083610be0565b925082820390508181125f8412168282135f851215161715610fb557610fb4610cff565b5b92915050565b7f4e487b71000000000000000000000000000000000000000000000000000000005f52604160045260245ffd5b5f610ff38284610f28565b91508190509291505056fea26469706673582212208c875d687a1399a251b7c0c3a83014983aba6b6d2a02682679dba24d5e0a081664736f6c634300081e0033",
					"opcodes": "PUSH1 0x80 PUSH1 0x40 MSTORE CALLVALUE DUP1 ISZERO PUSH1 0xE JUMPI PUSH0 PUSH0 REVERT JUMPDEST POP PUSH2 0x1034 DUP1 PUSH2 0x1C PUSH0 CODECOPY PUSH0 RETURN INVALID PUSH1 0x80 PUSH1 0x40 MSTORE CALLVALUE DUP1 ISZERO PUSH2 0xF JUMPI PUSH0 PUSH0 REVERT JUMPDEST POP PUSH1 0x4 CALLDATASIZE LT PUSH2 0x3F JUMPI PUSH0 CALLDATALOAD PUSH1 0xE0 SHR DUP1 PUSH4 0x20F3C341 EQ PUSH2 0x43 JUMPI DUP1 PUSH4 0xF8A8FD6D EQ PUSH2 0x73 JUMPI DUP1 PUSH4 0xFF749FA3 EQ PUSH2 0x91 JUMPI JUMPDEST PUSH0 PUSH0 REVERT JUMPDEST PUSH2 0x5D PUSH1 0x4 DUP1 CALLDATASIZE SUB DUP2 ADD SWAP1 PUSH2 0x58 SWAP2 SWAP1 PUSH2 0xB95 JUMP JUMPDEST PUSH2 0xC1 JUMP JUMPDEST PUSH1 0x40 MLOAD PUSH2 0x6A SWAP2 SWAP1 PUSH2 0xBF8 JUMP JUMPDEST PUSH1 0x40 MLOAD DUP1 SWAP2 SUB SWAP1 RETURN JUMPDEST PUSH2 0x7B PUSH2 0x26C JUMP JUMPDEST PUSH1 0x40 MLOAD PUSH2 0x88 SWAP2 SWAP1 PUSH2 0xC81 JUMP JUMPDEST PUSH1 0x40 MLOAD DUP1 SWAP2 SUB SWAP1 RETURN JUMPDEST PUSH2 0xAB PUSH1 0x4 DUP1 CALLDATASIZE SUB DUP2 ADD SWAP1 PUSH2 0xA6 SWAP2 SWAP1 PUSH2 0xCCB JUMP JUMPDEST PUSH2 0x27E JUMP JUMPDEST PUSH1 0x40 MLOAD PUSH2 0xB8 SWAP2 SWAP1 PUSH2 0xC81 JUMP JUMPDEST PUSH1 0x40 MLOAD DUP1 SWAP2 SUB SWAP1 RETURN JUMPDEST PUSH0 PUSH0 PUSH2 0xCB PUSH2 0x3B6 JUMP JUMPDEST SWAP1 POP PUSH0 PUSH2 0xD6 PUSH2 0x861 JUMP JUMPDEST SWAP1 POP PUSH0 PUSH0 SWAP1 POP PUSH0 DUP7 DUP7 DUP1 DUP1 PUSH1 0x1F ADD PUSH1 0x20 DUP1 SWAP2 DIV MUL PUSH1 0x20 ADD PUSH1 0x40 MLOAD SWAP1 DUP2 ADD PUSH1 0x40 MSTORE DUP1 SWAP4 SWAP3 SWAP2 SWAP1 DUP2 DUP2 MSTORE PUSH1 0x20 ADD DUP4 DUP4 DUP1 DUP3 DUP5 CALLDATACOPY PUSH0 DUP2 DUP5 ADD MSTORE PUSH1 0x1F NOT PUSH1 0x1F DUP3 ADD AND SWAP1 POP DUP1 DUP4 ADD SWAP3 POP POP POP POP POP POP POP SWAP1 POP PUSH0 DUP2 MLOAD SWAP1 POP PUSH0 PUSH0 SWAP1 POP JUMPDEST DUP2 DUP2 LT ISZERO PUSH2 0x25D JUMPI PUSH1 0x1 DUP3 PUSH2 0x142 SWAP2 SWAP1 PUSH2 0xD2C JUMP JUMPDEST DUP2 LT ISZERO PUSH2 0x1F0 JUMPI PUSH0 DUP4 DUP3 DUP2 MLOAD DUP2 LT PUSH2 0x15D JUMPI PUSH2 0x15C PUSH2 0xD5F JUMP JUMPDEST JUMPDEST PUSH1 0x20 ADD ADD MLOAD PUSH1 0xF8 SHR PUSH1 0xF8 SHL DUP5 PUSH1 0x1 DUP5 PUSH2 0x176 SWAP2 SWAP1 PUSH2 0xD8C JUMP JUMPDEST DUP2 MLOAD DUP2 LT PUSH2 0x187 JUMPI PUSH2 0x186 PUSH2 0xD5F JUMP JUMPDEST JUMPDEST PUSH1 0x20 ADD ADD MLOAD PUSH1 0xF8 SHR PUSH1 0xF8 SHL PUSH1 0x40 MLOAD PUSH1 0x20 ADD PUSH2 0x1A3 SWAP3 SWAP2 SWAP1 PUSH2 0xE0A JUMP JUMPDEST PUSH1 0x40 MLOAD PUSH1 0x20 DUP2 DUP4 SUB SUB DUP2 MSTORE SWAP1 PUSH1 0x40 MSTORE SWAP1 POP PUSH0 PUSH2 0x1C0 DUP3 DUP10 DUP10 PUSH2 0xA74 JUMP JUMPDEST SWAP1 POP PUSH0 DUP2 EQ PUSH2 0x1ED JUMPI DUP1 DUP7 PUSH2 0x1D5 SWAP2 SWAP1 PUSH2 0xE35 JUMP JUMPDEST SWAP6 POP PUSH1 0x2 DUP4 PUSH2 0x1E4 SWAP2 SWAP1 PUSH2 0xD8C JUMP JUMPDEST SWAP3 POP POP POP PUSH2 0x12D JUMP JUMPDEST POP POP JUMPDEST PUSH0 DUP4 DUP3 DUP2 MLOAD DUP2 LT PUSH2 0x204 JUMPI PUSH2 0x203 PUSH2 0xD5F JUMP JUMPDEST JUMPDEST PUSH1 0x20 ADD ADD MLOAD PUSH1 0xF8 SHR PUSH1 0xF8 SHL PUSH1 0x40 MLOAD PUSH1 0x20 ADD PUSH2 0x21F SWAP2 SWAP1 PUSH2 0xE76 JUMP JUMPDEST PUSH1 0x40 MLOAD PUSH1 0x20 DUP2 DUP4 SUB SUB DUP2 MSTORE SWAP1 PUSH1 0x40 MSTORE SWAP1 POP PUSH2 0x23B DUP2 DUP9 DUP9 PUSH2 0xA74 JUMP JUMPDEST DUP6 PUSH2 0x246 SWAP2 SWAP1 PUSH2 0xE35 JUMP JUMPDEST SWAP5 POP PUSH1 0x1 DUP3 PUSH2 0x255 SWAP2 SWAP1 PUSH2 0xD8C JUMP JUMPDEST SWAP2 POP POP PUSH2 0x12D JUMP JUMPDEST DUP4 SWAP7 POP POP POP POP POP POP POP SWAP3 SWAP2 POP POP JUMP JUMPDEST PUSH1 0x60 PUSH2 0x279 PUSH2 0x7CA PUSH2 0x27E JUMP JUMPDEST SWAP1 POP SWAP1 JUMP JUMPDEST PUSH1 0x60 PUSH1 0x1 DUP3 SLT ISZERO DUP1 ISZERO PUSH2 0x293 JUMPI POP PUSH2 0xF9F DUP3 SGT ISZERO JUMPDEST PUSH2 0x2D2 JUMPI PUSH1 0x40 MLOAD PUSH32 0x8C379A000000000000000000000000000000000000000000000000000000000 DUP2 MSTORE PUSH1 0x4 ADD PUSH2 0x2C9 SWAP1 PUSH2 0xF00 JUMP JUMPDEST PUSH1 0x40 MLOAD DUP1 SWAP2 SUB SWAP1 REVERT JUMPDEST PUSH0 PUSH1 0x40 MLOAD DUP1 PUSH1 0x20 ADD PUSH1 0x40 MSTORE DUP1 PUSH0 DUP2 MSTORE POP SWAP1 POP PUSH0 PUSH2 0x2ED PUSH2 0x3B6 JUMP JUMPDEST SWAP1 POP PUSH0 PUSH2 0x2F8 PUSH2 0x861 JUMP JUMPDEST SWAP1 POP PUSH0 PUSH0 SWAP1 POP JUMPDEST DUP2 MLOAD DUP2 LT ISZERO PUSH2 0x3AA JUMPI JUMPDEST DUP2 DUP2 DUP2 MLOAD DUP2 LT PUSH2 0x31C JUMPI PUSH2 0x31B PUSH2 0xD5F JUMP JUMPDEST JUMPDEST PUSH1 0x20 MUL PUSH1 0x20 ADD ADD MLOAD DUP7 SLT PUSH2 0x395 JUMPI DUP4 DUP4 DUP3 DUP2 MLOAD DUP2 LT PUSH2 0x33E JUMPI PUSH2 0x33D PUSH2 0xD5F JUMP JUMPDEST JUMPDEST PUSH1 0x20 MUL PUSH1 0x20 ADD ADD MLOAD PUSH1 0x40 MLOAD PUSH1 0x20 ADD PUSH2 0x357 SWAP3 SWAP2 SWAP1 PUSH2 0xF58 JUMP JUMPDEST PUSH1 0x40 MLOAD PUSH1 0x20 DUP2 DUP4 SUB SUB DUP2 MSTORE SWAP1 PUSH1 0x40 MSTORE SWAP4 POP DUP2 DUP2 DUP2 MLOAD DUP2 LT PUSH2 0x37B JUMPI PUSH2 0x37A PUSH2 0xD5F JUMP JUMPDEST JUMPDEST PUSH1 0x20 MUL PUSH1 0x20 ADD ADD MLOAD DUP7 PUSH2 0x38E SWAP2 SWAP1 PUSH2 0xF7B JUMP JUMPDEST SWAP6 POP PUSH2 0x309 JUMP JUMPDEST PUSH0 DUP7 SUB ISZERO PUSH2 0x3AA JUMPI DUP1 DUP1 PUSH1 0x1 ADD SWAP2 POP POP PUSH2 0x2FF JUMP JUMPDEST POP DUP3 SWAP4 POP POP POP POP SWAP2 SWAP1 POP JUMP JUMPDEST PUSH1 0x60 PUSH0 PUSH1 0xD PUSH8 0xFFFFFFFFFFFFFFFF DUP2 GT ISZERO PUSH2 0x3D4 JUMPI PUSH2 0x3D3 PUSH2 0xFBB JUMP JUMPDEST JUMPDEST PUSH1 0x40 MLOAD SWAP1 DUP1 DUP3 MSTORE DUP1 PUSH1 0x20 MUL PUSH1 0x20 ADD DUP3 ADD PUSH1 0x40 MSTORE DUP1 ISZERO PUSH2 0x407 JUMPI DUP2 PUSH1 0x20 ADD JUMPDEST PUSH1 0x60 DUP2 MSTORE PUSH1 0x20 ADD SWAP1 PUSH1 0x1 SWAP1 SUB SWAP1 DUP2 PUSH2 0x3F2 JUMPI SWAP1 POP JUMPDEST POP SWAP1 POP PUSH1 0x40 MLOAD DUP1 PUSH1 0x40 ADD PUSH1 0x40 MSTORE DUP1 PUSH1 0x1 DUP2 MSTORE PUSH1 0x20 ADD PUSH32 0x4D00000000000000000000000000000000000000000000000000000000000000 DUP2 MSTORE POP DUP2 PUSH0 DUP2 MLOAD DUP2 LT PUSH2 0x453 JUMPI PUSH2 0x452 PUSH2 0xD5F JUMP JUMPDEST JUMPDEST PUSH1 0x20 MUL PUSH1 0x20 ADD ADD DUP2 SWAP1 MSTORE POP PUSH1 0x40 MLOAD DUP1 PUSH1 0x40 ADD PUSH1 0x40 MSTORE DUP1 PUSH1 0x2 DUP2 MSTORE PUSH1 0x20 ADD PUSH32 0x434D000000000000000000000000000000000000000000000000000000000000 DUP2 MSTORE POP DUP2 PUSH1 0x1 DUP2 MLOAD DUP2 LT PUSH2 0x4A8 JUMPI PUSH2 0x4A7 PUSH2 0xD5F JUMP JUMPDEST JUMPDEST PUSH1 0x20 MUL PUSH1 0x20 ADD ADD DUP2 SWAP1 MSTORE POP PUSH1 0x40 MLOAD DUP1 PUSH1 0x40 ADD PUSH1 0x40 MSTORE DUP1 PUSH1 0x1 DUP2 MSTORE PUSH1 0x20 ADD PUSH32 0x4400000000000000000000000000000000000000000000000000000000000000 DUP2 MSTORE POP DUP2 PUSH1 0x2 DUP2 MLOAD DUP2 LT PUSH2 0x4FD JUMPI PUSH2 0x4FC PUSH2 0xD5F JUMP JUMPDEST JUMPDEST PUSH1 0x20 MUL PUSH1 0x20 ADD ADD DUP2 SWAP1 MSTORE POP PUSH1 0x40 MLOAD DUP1 PUSH1 0x40 ADD PUSH1 0x40 MSTORE DUP1 PUSH1 0x2 DUP2 MSTORE PUSH1 0x20 ADD PUSH32 0x4344000000000000000000000000000000000000000000000000000000000000 DUP2 MSTORE POP DUP2 PUSH1 0x3 DUP2 MLOAD DUP2 LT PUSH2 0x552 JUMPI PUSH2 0x551 PUSH2 0xD5F JUMP JUMPDEST JUMPDEST PUSH1 0x20 MUL PUSH1 0x20 ADD ADD DUP2 SWAP1 MSTORE POP PUSH1 0x40 MLOAD DUP1 PUSH1 0x40 ADD PUSH1 0x40 MSTORE DUP1 PUSH1 0x1 DUP2 MSTORE PUSH1 0x20 ADD PUSH32 0x4300000000000000000000000000000000000000000000000000000000000000 DUP2 MSTORE POP DUP2 PUSH1 0x4 DUP2 MLOAD DUP2 LT PUSH2 0x5A7 JUMPI PUSH2 0x5A6 PUSH2 0xD5F JUMP JUMPDEST JUMPDEST PUSH1 0x20 MUL PUSH1 0x20 ADD ADD DUP2 SWAP1 MSTORE POP PUSH1 0x40 MLOAD DUP1 PUSH1 0x40 ADD PUSH1 0x40 MSTORE DUP1 PUSH1 0x2 DUP2 MSTORE PUSH1 0x20 ADD PUSH32 0x5843000000000000000000000000000000000000000000000000000000000000 DUP2 MSTORE POP DUP2 PUSH1 0x5 DUP2 MLOAD DUP2 LT PUSH2 0x5FC JUMPI PUSH2 0x5FB PUSH2 0xD5F JUMP JUMPDEST JUMPDEST PUSH1 0x20 MUL PUSH1 0x20 ADD ADD DUP2 SWAP1 MSTORE POP PUSH1 0x40 MLOAD DUP1 PUSH1 0x40 ADD PUSH1 0x40 MSTORE DUP1 PUSH1 0x1 DUP2 MSTORE PUSH1 0x20 ADD PUSH32 0x4C00000000000000000000000000000000000000000000000000000000000000 DUP2 MSTORE POP DUP2 PUSH1 0x6 DUP2 MLOAD DUP2 LT PUSH2 0x651 JUMPI PUSH2 0x650 PUSH2 0xD5F JUMP JUMPDEST JUMPDEST PUSH1 0x20 MUL PUSH1 0x20 ADD ADD DUP2 SWAP1 MSTORE POP PUSH1 0x40 MLOAD DUP1 PUSH1 0x40 ADD PUSH1 0x40 MSTORE DUP1 PUSH1 0x2 DUP2 MSTORE PUSH1 0x20 ADD PUSH32 0x584C000000000000000000000000000000000000000000000000000000000000 DUP2 MSTORE POP DUP2 PUSH1 0x7 DUP2 MLOAD DUP2 LT PUSH2 0x6A6 JUMPI PUSH2 0x6A5 PUSH2 0xD5F JUMP JUMPDEST JUMPDEST PUSH1 0x20 MUL PUSH1 0x20 ADD ADD DUP2 SWAP1 MSTORE POP PUSH1 0x40 MLOAD DUP1 PUSH1 0x40 ADD PUSH1 0x40 MSTORE DUP1 PUSH1 0x1 DUP2 MSTORE PUSH1 0x20 ADD PUSH32 0x5800000000000000000000000000000000000000000000000000000000000000 DUP2 MSTORE POP DUP2 PUSH1 0x8 DUP2 MLOAD DUP2 LT PUSH2 0x6FB JUMPI PUSH2 0x6FA PUSH2 0xD5F JUMP JUMPDEST JUMPDEST PUSH1 0x20 MUL PUSH1 0x20 ADD ADD DUP2 SWAP1 MSTORE POP PUSH1 0x40 MLOAD DUP1 PUSH1 0x40 ADD PUSH1 0x40 MSTORE DUP1 PUSH1 0x2 DUP2 MSTORE PUSH1 0x20 ADD PUSH32 0x4958000000000000000000000000000000000000000000000000000000000000 DUP2 MSTORE POP DUP2 PUSH1 0x9 DUP2 MLOAD DUP2 LT PUSH2 0x750 JUMPI PUSH2 0x74F PUSH2 0xD5F JUMP JUMPDEST JUMPDEST PUSH1 0x20 MUL PUSH1 0x20 ADD ADD DUP2 SWAP1 MSTORE POP PUSH1 0x40 MLOAD DUP1 PUSH1 0x40 ADD PUSH1 0x40 MSTORE DUP1 PUSH1 0x1 DUP2 MSTORE PUSH1 0x20 ADD PUSH32 0x5600000000000000000000000000000000000000000000000000000000000000 DUP2 MSTORE POP DUP2 PUSH1 0xA DUP2 MLOAD DUP2 LT PUSH2 0x7A5 JUMPI PUSH2 0x7A4 PUSH2 0xD5F JUMP JUMPDEST JUMPDEST PUSH1 0x20 MUL PUSH1 0x20 ADD ADD DUP2 SWAP1 MSTORE POP PUSH1 0x40 MLOAD DUP1 PUSH1 0x40 ADD PUSH1 0x40 MSTORE DUP1 PUSH1 0x2 DUP2 MSTORE PUSH1 0x20 ADD PUSH32 0x4956000000000000000000000000000000000000000000000000000000000000 DUP2 MSTORE POP DUP2 PUSH1 0xB DUP2 MLOAD DUP2 LT PUSH2 0x7FA JUMPI PUSH2 0x7F9 PUSH2 0xD5F JUMP JUMPDEST JUMPDEST PUSH1 0x20 MUL PUSH1 0x20 ADD ADD DUP2 SWAP1 MSTORE POP PUSH1 0x40 MLOAD DUP1 PUSH1 0x40 ADD PUSH1 0x40 MSTORE DUP1 PUSH1 0x1 DUP2 MSTORE PUSH1 0x20 ADD PUSH32 0x4900000000000000000000000000000000000000000000000000000000000000 DUP2 MSTORE POP DUP2 PUSH1 0xC DUP2 MLOAD DUP2 LT PUSH2 0x84F JUMPI PUSH2 0x84E PUSH2 0xD5F JUMP JUMPDEST JUMPDEST PUSH1 0x20 MUL PUSH1 0x20 ADD ADD DUP2 SWAP1 MSTORE POP DUP1 SWAP2 POP POP SWAP1 JUMP JUMPDEST PUSH1 0x60 PUSH0 PUSH1 0xD PUSH8 0xFFFFFFFFFFFFFFFF DUP2 GT ISZERO PUSH2 0x87F JUMPI PUSH2 0x87E PUSH2 0xFBB JUMP JUMPDEST JUMPDEST PUSH1 0x40 MLOAD SWAP1 DUP1 DUP3 MSTORE DUP1 PUSH1 0x20 MUL PUSH1 0x20 ADD DUP3 ADD PUSH1 0x40 MSTORE DUP1 ISZERO PUSH2 0x8AD JUMPI DUP2 PUSH1 0x20 ADD PUSH1 0x20 DUP3 MUL DUP1 CALLDATASIZE DUP4 CALLDATACOPY DUP1 DUP3 ADD SWAP2 POP POP SWAP1 POP JUMPDEST POP SWAP1 POP PUSH2 0x3E8 DUP2 PUSH0 DUP2 MLOAD DUP2 LT PUSH2 0x8C6 JUMPI PUSH2 0x8C5 PUSH2 0xD5F JUMP JUMPDEST JUMPDEST PUSH1 0x20 MUL PUSH1 0x20 ADD ADD DUP2 DUP2 MSTORE POP POP PUSH2 0x384 DUP2 PUSH1 0x1 DUP2 MLOAD DUP2 LT PUSH2 0x8E9 JUMPI PUSH2 0x8E8 PUSH2 0xD5F JUMP JUMPDEST JUMPDEST PUSH1 0x20 MUL PUSH1 0x20 ADD ADD DUP2 DUP2 MSTORE POP POP PUSH2 0x1F4 DUP2 PUSH1 0x2 DUP2 MLOAD DUP2 LT PUSH2 0x90C JUMPI PUSH2 0x90B PUSH2 0xD5F JUMP JUMPDEST JUMPDEST PUSH1 0x20 MUL PUSH1 0x20 ADD ADD DUP2 DUP2 MSTORE POP POP PUSH2 0x190 DUP2 PUSH1 0x3 DUP2 MLOAD DUP2 LT PUSH2 0x92F JUMPI PUSH2 0x92E PUSH2 0xD5F JUMP JUMPDEST JUMPDEST PUSH1 0x20 MUL PUSH1 0x20 ADD ADD DUP2 DUP2 MSTORE POP POP PUSH1 0x64 DUP2 PUSH1 0x4 DUP2 MLOAD DUP2 LT PUSH2 0x951 JUMPI PUSH2 0x950 PUSH2 0xD5F JUMP JUMPDEST JUMPDEST PUSH1 0x20 MUL PUSH1 0x20 ADD ADD DUP2 DUP2 MSTORE POP POP PUSH1 0x5A DUP2 PUSH1 0x5 DUP2 MLOAD DUP2 LT PUSH2 0x973 JUMPI PUSH2 0x972 PUSH2 0xD5F JUMP JUMPDEST JUMPDEST PUSH1 0x20 MUL PUSH1 0x20 ADD ADD DUP2 DUP2 MSTORE POP POP PUSH1 0x32 DUP2 PUSH1 0x6 DUP2 MLOAD DUP2 LT PUSH2 0x995 JUMPI PUSH2 0x994 PUSH2 0xD5F JUMP JUMPDEST JUMPDEST PUSH1 0x20 MUL PUSH1 0x20 ADD ADD DUP2 DUP2 MSTORE POP POP PUSH1 0x28 DUP2 PUSH1 0x7 DUP2 MLOAD DUP2 LT PUSH2 0x9B7 JUMPI PUSH2 0x9B6 PUSH2 0xD5F JUMP JUMPDEST JUMPDEST PUSH1 0x20 MUL PUSH1 0x20 ADD ADD DUP2 DUP2 MSTORE POP POP PUSH1 0xA DUP2 PUSH1 0x8 DUP2 MLOAD DUP2 LT PUSH2 0x9D9 JUMPI PUSH2 0x9D8 PUSH2 0xD5F JUMP JUMPDEST JUMPDEST PUSH1 0x20 MUL PUSH1 0x20 ADD ADD DUP2 DUP2 MSTORE POP POP PUSH1 0x9 DUP2 PUSH1 0x9 DUP2 MLOAD DUP2 LT PUSH2 0x9FB JUMPI PUSH2 0x9FA PUSH2 0xD5F JUMP JUMPDEST JUMPDEST PUSH1 0x20 MUL PUSH1 0x20 ADD ADD DUP2 DUP2 MSTORE POP POP PUSH1 0x5 DUP2 PUSH1 0xA DUP2 MLOAD DUP2 LT PUSH2 0xA1D JUMPI PUSH2 0xA1C PUSH2 0xD5F JUMP JUMPDEST JUMPDEST PUSH1 0x20 MUL PUSH1 0x20 ADD ADD DUP2 DUP2 MSTORE POP POP PUSH1 0x4 DUP2 PUSH1 0xB DUP2 MLOAD DUP2 LT PUSH2 0xA3F JUMPI PUSH2 0xA3E PUSH2 0xD5F JUMP JUMPDEST JUMPDEST PUSH1 0x20 MUL PUSH1 0x20 ADD ADD DUP2 DUP2 MSTORE POP POP PUSH1 0x1 DUP2 PUSH1 0xC DUP2 MLOAD DUP2 LT PUSH2 0xA61 JUMPI PUSH2 0xA60 PUSH2 0xD5F JUMP JUMPDEST JUMPDEST PUSH1 0x20 MUL PUSH1 0x20 ADD ADD DUP2 DUP2 MSTORE POP POP DUP1 SWAP2 POP POP SWAP1 JUMP JUMPDEST PUSH0 PUSH0 PUSH0 SWAP1 POP JUMPDEST DUP4 MLOAD DUP2 LT ISZERO PUSH2 0xB20 JUMPI DUP4 DUP2 DUP2 MLOAD DUP2 LT PUSH2 0xA96 JUMPI PUSH2 0xA95 PUSH2 0xD5F JUMP JUMPDEST JUMPDEST PUSH1 0x20 MUL PUSH1 0x20 ADD ADD MLOAD PUSH1 0x40 MLOAD PUSH1 0x20 ADD PUSH2 0xAAE SWAP2 SWAP1 PUSH2 0xFE8 JUMP JUMPDEST PUSH1 0x40 MLOAD PUSH1 0x20 DUP2 DUP4 SUB SUB DUP2 MSTORE SWAP1 PUSH1 0x40 MSTORE DUP1 MLOAD SWAP1 PUSH1 0x20 ADD KECCAK256 DUP6 PUSH1 0x40 MLOAD PUSH1 0x20 ADD PUSH2 0xAD5 SWAP2 SWAP1 PUSH2 0xFE8 JUMP JUMPDEST PUSH1 0x40 MLOAD PUSH1 0x20 DUP2 DUP4 SUB SUB DUP2 MSTORE SWAP1 PUSH1 0x40 MSTORE DUP1 MLOAD SWAP1 PUSH1 0x20 ADD KECCAK256 SUB PUSH2 0xB13 JUMPI DUP3 DUP2 DUP2 MLOAD DUP2 LT PUSH2 0xB03 JUMPI PUSH2 0xB02 PUSH2 0xD5F JUMP JUMPDEST JUMPDEST PUSH1 0x20 MUL PUSH1 0x20 ADD ADD MLOAD SWAP2 POP POP PUSH2 0xB25 JUMP JUMPDEST DUP1 DUP1 PUSH1 0x1 ADD SWAP2 POP POP PUSH2 0xA7A JUMP JUMPDEST POP PUSH0 SWAP1 POP JUMPDEST SWAP4 SWAP3 POP POP POP JUMP JUMPDEST PUSH0 PUSH0 REVERT JUMPDEST PUSH0 PUSH0 REVERT JUMPDEST PUSH0 PUSH0 REVERT JUMPDEST PUSH0 PUSH0 REVERT JUMPDEST PUSH0 PUSH0 REVERT JUMPDEST PUSH0 PUSH0 DUP4 PUSH1 0x1F DUP5 ADD SLT PUSH2 0xB55 JUMPI PUSH2 0xB54 PUSH2 0xB34 JUMP JUMPDEST JUMPDEST DUP3 CALLDATALOAD SWAP1 POP PUSH8 0xFFFFFFFFFFFFFFFF DUP2 GT ISZERO PUSH2 0xB72 JUMPI PUSH2 0xB71 PUSH2 0xB38 JUMP JUMPDEST JUMPDEST PUSH1 0x20 DUP4 ADD SWAP2 POP DUP4 PUSH1 0x1 DUP3 MUL DUP4 ADD GT ISZERO PUSH2 0xB8E JUMPI PUSH2 0xB8D PUSH2 0xB3C JUMP JUMPDEST JUMPDEST SWAP3 POP SWAP3 SWAP1 POP JUMP JUMPDEST PUSH0 PUSH0 PUSH1 0x20 DUP4 DUP6 SUB SLT ISZERO PUSH2 0xBAB JUMPI PUSH2 0xBAA PUSH2 0xB2C JUMP JUMPDEST JUMPDEST PUSH0 DUP4 ADD CALLDATALOAD PUSH8 0xFFFFFFFFFFFFFFFF DUP2 GT ISZERO PUSH2 0xBC8 JUMPI PUSH2 0xBC7 PUSH2 0xB30 JUMP JUMPDEST JUMPDEST PUSH2 0xBD4 DUP6 DUP3 DUP7 ADD PUSH2 0xB40 JUMP JUMPDEST SWAP3 POP SWAP3 POP POP SWAP3 POP SWAP3 SWAP1 POP JUMP JUMPDEST PUSH0 DUP2 SWAP1 POP SWAP2 SWAP1 POP JUMP JUMPDEST PUSH2 0xBF2 DUP2 PUSH2 0xBE0 JUMP JUMPDEST DUP3 MSTORE POP POP JUMP JUMPDEST PUSH0 PUSH1 0x20 DUP3 ADD SWAP1 POP PUSH2 0xC0B PUSH0 DUP4 ADD DUP5 PUSH2 0xBE9 JUMP JUMPDEST SWAP3 SWAP2 POP POP JUMP JUMPDEST PUSH0 DUP2 MLOAD SWAP1 POP SWAP2 SWAP1 POP JUMP JUMPDEST PUSH0 DUP3 DUP3 MSTORE PUSH1 0x20 DUP3 ADD SWAP1 POP SWAP3 SWAP2 POP POP JUMP JUMPDEST DUP3 DUP2 DUP4 MCOPY PUSH0 DUP4 DUP4 ADD MSTORE POP POP POP JUMP JUMPDEST PUSH0 PUSH1 0x1F NOT PUSH1 0x1F DUP4 ADD AND SWAP1 POP SWAP2 SWAP1 POP JUMP JUMPDEST PUSH0 PUSH2 0xC53 DUP3 PUSH2 0xC11 JUMP JUMPDEST PUSH2 0xC5D DUP2 DUP6 PUSH2 0xC1B JUMP JUMPDEST SWAP4 POP PUSH2 0xC6D DUP2 DUP6 PUSH1 0x20 DUP7 ADD PUSH2 0xC2B JUMP JUMPDEST PUSH2 0xC76 DUP2 PUSH2 0xC39 JUMP JUMPDEST DUP5 ADD SWAP2 POP POP SWAP3 SWAP2 POP POP JUMP JUMPDEST PUSH0 PUSH1 0x20 DUP3 ADD SWAP1 POP DUP2 DUP2 SUB PUSH0 DUP4 ADD MSTORE PUSH2 0xC99 DUP2 DUP5 PUSH2 0xC49 JUMP JUMPDEST SWAP1 POP SWAP3 SWAP2 POP POP JUMP JUMPDEST PUSH2 0xCAA DUP2 PUSH2 0xBE0 JUMP JUMPDEST DUP2 EQ PUSH2 0xCB4 JUMPI PUSH0 PUSH0 REVERT JUMPDEST POP JUMP JUMPDEST PUSH0 DUP2 CALLDATALOAD SWAP1 POP PUSH2 0xCC5 DUP2 PUSH2 0xCA1 JUMP JUMPDEST SWAP3 SWAP2 POP POP JUMP JUMPDEST PUSH0 PUSH1 0x20 DUP3 DUP5 SUB SLT ISZERO PUSH2 0xCE0 JUMPI PUSH2 0xCDF PUSH2 0xB2C JUMP JUMPDEST JUMPDEST PUSH0 PUSH2 0xCED DUP5 DUP3 DUP6 ADD PUSH2 0xCB7 JUMP JUMPDEST SWAP2 POP POP SWAP3 SWAP2 POP POP JUMP JUMPDEST PUSH0 DUP2 SWAP1 POP SWAP2 SWAP1 POP JUMP JUMPDEST PUSH32 0x4E487B7100000000000000000000000000000000000000000000000000000000 PUSH0 MSTORE PUSH1 0x11 PUSH1 0x4 MSTORE PUSH1 0x24 PUSH0 REVERT JUMPDEST PUSH0 PUSH2 0xD36 DUP3 PUSH2 0xCF6 JUMP JUMPDEST SWAP2 POP PUSH2 0xD41 DUP4 PUSH2 0xCF6 JUMP JUMPDEST SWAP3 POP DUP3 DUP3 SUB SWAP1 POP DUP2 DUP2 GT ISZERO PUSH2 0xD59 JUMPI PUSH2 0xD58 PUSH2 0xCFF JUMP JUMPDEST JUMPDEST SWAP3 SWAP2 POP POP JUMP JUMPDEST PUSH32 0x4E487B7100000000000000000000000000000000000000000000000000000000 PUSH0 MSTORE PUSH1 0x32 PUSH1 0x4 MSTORE PUSH1 0x24 PUSH0 REVERT JUMPDEST PUSH0 PUSH2 0xD96 DUP3 PUSH2 0xCF6 JUMP JUMPDEST SWAP2 POP PUSH2 0xDA1 DUP4 PUSH2 0xCF6 JUMP JUMPDEST SWAP3 POP DUP3 DUP3 ADD SWAP1 POP DUP1 DUP3 GT ISZERO PUSH2 0xDB9 JUMPI PUSH2 0xDB8 PUSH2 0xCFF JUMP JUMPDEST JUMPDEST SWAP3 SWAP2 POP POP JUMP JUMPDEST PUSH0 PUSH32 0xFF00000000000000000000000000000000000000000000000000000000000000 DUP3 AND SWAP1 POP SWAP2 SWAP1 POP JUMP JUMPDEST PUSH0 DUP2 SWAP1 POP SWAP2 SWAP1 POP JUMP JUMPDEST PUSH2 0xE04 PUSH2 0xDFF DUP3 PUSH2 0xDBF JUMP JUMPDEST PUSH2 0xDEA JUMP JUMPDEST DUP3 MSTORE POP POP JUMP JUMPDEST PUSH0 PUSH2 0xE15 DUP3 DUP6 PUSH2 0xDF3 JUMP JUMPDEST PUSH1 0x1 DUP3 ADD SWAP2 POP PUSH2 0xE25 DUP3 DUP5 PUSH2 0xDF3 JUMP JUMPDEST PUSH1 0x1 DUP3 ADD SWAP2 POP DUP2 SWAP1 POP SWAP4 SWAP3 POP POP POP JUMP JUMPDEST PUSH0 PUSH2 0xE3F DUP3 PUSH2 0xBE0 JUMP JUMPDEST SWAP2 POP PUSH2 0xE4A DUP4 PUSH2 0xBE0 JUMP JUMPDEST SWAP3 POP DUP3 DUP3 ADD SWAP1 POP DUP3 DUP2 SLT ISZERO PUSH0 DUP4 SLT AND DUP4 DUP3 SLT PUSH0 DUP5 SLT ISZERO AND OR ISZERO PUSH2 0xE70 JUMPI PUSH2 0xE6F PUSH2 0xCFF JUMP JUMPDEST JUMPDEST SWAP3 SWAP2 POP POP JUMP JUMPDEST PUSH0 PUSH2 0xE81 DUP3 DUP5 PUSH2 0xDF3 JUMP JUMPDEST PUSH1 0x1 DUP3 ADD SWAP2 POP DUP2 SWAP1 POP SWAP3 SWAP2 POP POP JUMP JUMPDEST PUSH32 0x4E756D626572206D757374206265206265747765656E203120616E6420333939 PUSH0 DUP3 ADD MSTORE PUSH32 0x3900000000000000000000000000000000000000000000000000000000000000 PUSH1 0x20 DUP3 ADD MSTORE POP JUMP JUMPDEST PUSH0 PUSH2 0xEEA PUSH1 0x21 DUP4 PUSH2 0xC1B JUMP JUMPDEST SWAP2 POP PUSH2 0xEF5 DUP3 PUSH2 0xE90 JUMP JUMPDEST PUSH1 0x40 DUP3 ADD SWAP1 POP SWAP2 SWAP1 POP JUMP JUMPDEST PUSH0 PUSH1 0x20 DUP3 ADD SWAP1 POP DUP2 DUP2 SUB PUSH0 DUP4 ADD MSTORE PUSH2 0xF17 DUP2 PUSH2 0xEDE JUMP JUMPDEST SWAP1 POP SWAP2 SWAP1 POP JUMP JUMPDEST PUSH0 DUP2 SWAP1 POP SWAP3 SWAP2 POP POP JUMP JUMPDEST PUSH0 PUSH2 0xF32 DUP3 PUSH2 0xC11 JUMP JUMPDEST PUSH2 0xF3C DUP2 DUP6 PUSH2 0xF1E JUMP JUMPDEST SWAP4 POP PUSH2 0xF4C DUP2 DUP6 PUSH1 0x20 DUP7 ADD PUSH2 0xC2B JUMP JUMPDEST DUP1 DUP5 ADD SWAP2 POP POP SWAP3 SWAP2 POP POP JUMP JUMPDEST PUSH0 PUSH2 0xF63 DUP3 DUP6 PUSH2 0xF28 JUMP JUMPDEST SWAP2 POP PUSH2 0xF6F DUP3 DUP5 PUSH2 0xF28 JUMP JUMPDEST SWAP2 POP DUP2 SWAP1 POP SWAP4 SWAP3 POP POP POP JUMP JUMPDEST PUSH0 PUSH2 0xF85 DUP3 PUSH2 0xBE0 JUMP JUMPDEST SWAP2 POP PUSH2 0xF90 DUP4 PUSH2 0xBE0 JUMP JUMPDEST SWAP3 POP DUP3 DUP3 SUB SWAP1 POP DUP2 DUP2 SLT PUSH0 DUP5 SLT AND DUP3 DUP3 SGT PUSH0 DUP6 SLT ISZERO AND OR ISZERO PUSH2 0xFB5 JUMPI PUSH2 0xFB4 PUSH2 0xCFF JUMP JUMPDEST JUMPDEST SWAP3 SWAP2 POP POP JUMP JUMPDEST PUSH32 0x4E487B7100000000000000000000000000000000000000000000000000000000 PUSH0 MSTORE PUSH1 0x41 PUSH1 0x4 MSTORE PUSH1 0x24 PUSH0 REVERT JUMPDEST PUSH0 PUSH2 0xFF3 DUP3 DUP5 PUSH2 0xF28 JUMP JUMPDEST SWAP2 POP DUP2 SWAP1 POP SWAP3 SWAP2 POP POP JUMP INVALID LOG2 PUSH5 0x6970667358 0x22 SLT KECCAK256 DUP13 DUP8 TSTORE PUSH9 0x7A1399A251B7C0C3A8 ADDRESS EQ SWAP9 GASPRICE 0xBA PUSH12 0x6D2A02682679DBA24D5E0A08 AND PUSH5 0x736F6C6343 STOP ADDMOD 0x1E STOP CALLER "
				},
				"gasEstimates": {
					"creation": {
						"codeDepositCost": "829600",
						"executionCost": "862",
						"totalCost": "830462"
					},
					"external": {
						"intToRoman(int256)": "infinite",
						"romaToInt(string)": "infinite",
						"test()": "infinite"
					},
					"internal": {
						"getIntArray()": "infinite",
						"getRomaArray()": "infinite",
						"getValue(string memory,string memory[] memory,int256[] memory)": "infinite"
					}
				},
				"methodIdentifiers": {
					"intToRoman(int256)": "ff749fa3",
					"romaToInt(string)": "20f3c341",
					"test()": "f8a8fd6d"
				}
			},
			"storageLayout": {
				"storage": [],
				"types": null
			},
			"userdoc": {
				"kind": "user",
				"methods": {
					"intToRoman(int256)": {
						"notice": "3.用 solidity 实现整数转罗马数字 题目描述在 https://leetcode.cn/problems/roman-to-integer/description/*"
					},
					"romaToInt(string)": {
						"notice": "4. 用 solidity 实现罗马数字转数整数 题目描述在 https://leetcode.cn/problems/integer-to-roman/description/*"
					}
				},
				"version": 1
			}
		}
	}
}